:100000000C9493010C94C7010C94C7010C94C70184
:100010000C94C7010C94C7010C94C7010C94C70140
:100020000C94C7010C94C7010C945B0A0C94D80A79
:100030000C94C7010C94C7010C94C7010C94C70120
:100040000C94C7010C94C7010C94C7010C94C70110
:100050000C94C7010C94C7010C94C7010C94110AAD
:100060000C94C7010C94C7010C94C7010C94C701F0
:100070000C94C7010C94C7010C94C7010C94C701E0
:100080000C94C7010C94C7010C94C7010C94C701D0
:100090000C94C7010C94C7010C94C7010C94C701C0
:1000A0000C94C7010C94C7010C94C70105A84CCD52
:1000B000B2D44EB93836A9020C50B9918688083CA2
:1000C000A6AAAA2ABE000000803F05010902A101DC
:1000D0000901A1008504050919012903150025015D
:1000E00075019503810275059501810305010930AC
:1000F000093109381581257F750895038106C0C02F
:1001000005010905A1018503093009311601802681
:10011000FF7F75109502810205091901291015004C
:100120002501750195108102C043464700080B0068
:10013000020202000009040000010202000005247E
:100140000010010524010101042402060524060013
:10015000010705810310004009040100020A0000A4
:10016000000705020240000007058302400000046A
:1001700003090412010002EF02014009120200000B
:1001800001010203014A617370004A6173702053D8
:100190007469636B004F4B0044494147005354411D
:1001A000544520004F4B00455252004552520045E5
:1001B000525200455252004F4B004D4F44452000D3
:1001C0004F4B0045525200524F5420004F4B0045B8
:1001D00052520053504420004F4B00455252004FA2
:1001E0004B00070605040100080A0B0C0D0900006E
:1001F0000000240027002A002D003000000000002D
:100200002300260029002C002F00000000002500FC
:1002100028002B002E00310004040404040304050C
:100220000202020204030202020206060606060693
:100230000404020202040404080201104080401079
:1002400020408040800802040180402010020110FC
:100250008010204040200000000200090F00000331
:100260000401000C0000000000000000000000007D
:10027000000000000000000000000000002A2B2801
:10028000000000000000000000000000000000006E
:1002900000000000002C9EB4A0A1A2A434A6A7A533
:1002A000AE362D3738271E1F20212223242526B3C2
:1002B00033B62EB7B89F8485868788898A8B8C8DC4
:1002C0008E8F909192939495969798999A9B9C9DD6
:1002D0002F3130A3AD350405060708090A0B0C0DB4
:1002E0000E0F101112131415161718191A1B1C1DB6
:1002F000AFB1B0B50005010906A1018502050719D6
:10030000E029E71500250175019508810295017521
:10031000088103950675081500257305071900293E
:10032000738100C0710D11241FBECFEFDAE0DEBF74
:10033000CDBF14BE0FB6F894A89580916000886177
:1003400080936000109260000FBE23E0AEEBB1E03E
:1003500001C01D92A031B207E1F711E0A0E0B1E0C9
:10036000E4E5FFE302C005900D92AE3BB107D9F77B
:1003700011E0C3E9D1E004C02197FE010E94681F8B
:10038000C239D107C9F70E94BE0D0C94A81F0C9466
:10039000000083E08093E9008091F200882319F047
:1003A0008AE38093E8000895FC018091A0028823ED
:1003B00011F13FB7F89482E08093E9002091F200B8
:1003C000822F90E01816190614F481E090E088233B
:1003D00039F0289844E640939F024091F100408311
:1003E000222339F02091F200211103C02BE6209343
:1003F000E8003FBF08958FEF9FEF089581508F3041
:1004000008F047C0E82FF0E0E85FFD4F0C94681F4C
:100410002502290217021D0221024902490249024E
:100420002C02320236023A02400249024402809112
:1004300080008F77809380000895809180008F7D69
:10044000F9CF80918000877FF5CF84B58F7784BD09
:10045000089584B58F7DFBCF809190008F77809336
:1004600090000895809190008F7DF9CF8091900049
:10047000877FF5CF8091C0008F778093C00008956B
:100480008091C0008F7DF9CF8091C200877F8093DB
:10049000C20008951F93CF93DF93E8E5F2E09491B3
:1004A000E9E3F2E0D491EAE1F2E0C491CC23B9F0BF
:1004B000182F992319F0892F0E94FE01EC2FF0E0EC
:1004C000EE0FFF1FE65FFD4FA591B4918FB7F89433
:1004D000EC91111108C0D095DE23DC938FBFDF9122
:1004E000CF911F910895DE2BF8CFCF93DF93282F64
:1004F00030E0F901EA5AFD4F8491F901E95CFD4FC2
:10050000D491F901E85EFD4FC491CC23A1F0811193
:100510000E94FE01EC2FF0E0EE0FFF1FE450FE4FB3
:10052000A591B491EC91ED2381E090E009F480E095
:10053000DF91CF91089580E090E0FACFCF93DF93E1
:1005400090E0FC01E95CFD4F2491885E9D4FFC0129
:1005500084918823D1F090E0880F991FFC01E2512B
:10056000FE4FA591B491FC01E65FFD4FC591D4917A
:10057000623071F49FB7F8943C91822F8095832369
:100580008C93E8812E2B28839FBFDF91CF91089514
:100590008FB7F894EC912E2B2C938FBFF6CF82312E
:1005A00008F08251E82FF0E0EE51FE4FE491909177
:1005B0007B008E2F880F880F80729F7D892B809300
:1005C0007B00E770E064E0937C0080917A008064B7
:1005D00080937A0080917A0086FDFCCF809178002C
:1005E0009091790008953FB7F89480919B02909183
:1005F0009C02A0919D02B0919E0226B5A89B05C0C9
:100600002F3F19F00196A11DB11D3FBFBA2FA92F91
:10061000982F8827BC01CD01620F711D811D911D8E
:1006200042E0660F771F881F991F4A95D1F70895FA
:100630008F929F92AF92BF92CF92DF92EF92FF92F2
:100640004B015C010E94F3026B017C010E94F302EA
:100650006C197D098E099F09683E734081059105DB
:10066000A8F321E0821A9108A108B10888EEC80E0B
:1006700083E0D81EE11CF11C81149104A104B10493
:1006800029F7FF90EF90DF90CF90BF90AF909F90B1
:100690008F9008950C94C90140910102509102027B
:1006A0002091FF013091000242175307B4F490915A
:1006B000E8009570E1F39091E80092FD19C08093F5
:1006C000F100809101029091020201968F739927A7
:1006D000892B19F48EEF8093E800809101029091AC
:1006E00002020196909302028093010281E0089534
:1006F00080E00895EF92FF920F931F93CF93DF93C3
:10070000F82E192FE62E042F81E0860F880F0E9405
:100710004C0383E00E944C03CF2DD12FEC0EFD2E15
:10072000F11CCE15DF05B9F007FF13C0FE0184915F
:100730000E944C03182F80E00E944C0381232196D5
:100740008111EFCFDF91CF911F910F91FF90EF902B
:1007500008958881EDCF81E0F5CFDF92EF92FF928F
:100760000F931F93CF93DF93D82E8A01EB017B0168
:10077000E40EF51ECE15DF0559F0D7FE12C0FE01BE
:1007800084910E944C0321968111F4CF0FEF1FEF4B
:10079000C801DF91CF911F910F91FF90EF90DF90F3
:1007A00008958881EECF2FB7F89487708093E90081
:1007B0009091E800892F807295FF04C09091F2001B
:1007C00080E4891B2FBF08957F928F929F92AF92F2
:1007D000BF92CF92DF92EF92FF920F931F93CF932E
:1007E000DF93C82E8B017A018091A002811110C085
:1007F0008FEF9FEFDF91CF911F910F91FF90EF90BF
:10080000DF90CF90BF90AF909F908F907F90089592
:100810008091050280FF05C08091E0008260809396
:10082000E000CE2DDF2DD12C8AEFB82E8C2D8770D5
:10083000982E8C2D8072882E8C2D8074782E9AE3C1
:10084000A92E209719F4DD2009F452C08C2D0E94A6
:10085000D30381110AC0BA94BB2051F261E070E069
:1008600080E090E00E941803ECCF8C171D0611F079
:100870000CF08C2F9FB7F8949092E9002091E8003B
:1008800025FD02C09FBFDDCF282F30E0C21BD30B58
:10089000882029F08150A0F01092F100FBCFF801E0
:1008A000C7FC0AC0815050F041914093F100FACF4B
:1008B00044914093F10031968150D0F7020F131FFD
:1008C000DD2021F0A092E800D12CDCCF8091E8005F
:1008D00085FD07C0A092E800DD24D394209791F213
:1008E000F3CF209779F6772069F2A092E800CACF7B
:1008F0005D9884E680930402C7017CCF615030F09C
:100900002091F100FC0120830196F8CF289884E61D
:1009100080939F0208958091F70181110DC082E0BC
:100920008093F30184E08093F4011092F601109219
:10093000F50181E08093F70183EF91E008950F9333
:100940001F93CF93DF931F92CDB7DEB782E08983E9
:1009500042E450E06DE271E080E80E94AD030E9445
:100960008B04DC0112960D911C910115110589F083
:10097000D801ED91FC910280F381E02DBE016F5F03
:100980007F4FC801099597FD04C0F80100851185C6
:10099000ECCF89810F90DF91CF911F910F91089536
:1009A000CF93DF93EC0180911201882331F083E033
:1009B0000E94E4031816190634F081E090E09B834E
:1009C0008A8380E090E0DF91CF910895CF93DF9309
:1009D0001F92CDB7DEB76983DC01ED91FC910280F7
:1009E000F381E02D41E050E0BE016F5F7F4F09953C
:1009F0000F90DF91CF910895682F81EA92E00C94D7
:100A0000E6040F931F93CF93DF938C01D0E0C0E0F7
:100A1000F801EC0FFD1F6491662341F081EA92E03A
:100A20000E94E604892B11F02196F2CFCE01DF91CE
:100A3000CF911F910F91089583E00E94D30390E01E
:100A40000895CF93DF931F92CDB7DEB7FC01848565
:100A5000958597FD08C02FEF3FEF358724870F90CE
:100A6000DF91CF910895CE0101960E94D4010197A4
:100A700019F4898190E0F3CF8FEF9FEFF0CF0F93C0
:100A80001F93CF93DF931F92CDB7DEB78C01FC018C
:100A90008485958597FF0BC0CE0101960E94D401F5
:100AA000019771F4898190E0F80195878487F801B6
:100AB000848595850F90DF91CF911F910F910895B7
:100AC0008FEF9FEFF1CFFC018485958597FD0BC0DB
:100AD0009FB7F89482E08093E9008091F2009FBF75
:100AE00090E0019608959FB7F89482E08093E90022
:100AF0008091F2009FBF90E00895DC01FB01129607
:100B00002C911297848195812817190641F49181BF
:100B10008081813A31F49D7F81E0913009F080E05D
:100B200008958132E1F79B3029F482811F968C93DE
:100B300081E008959A3099F7828150968C93F8CF8E
:100B4000AF92BF92CF92DF92EF92FF920F931F93DB
:100B5000CF93DF931F92CDB7DEB77C0169836A0123
:100B6000590141E050E0BE016F5F7F4FFC0183817E
:100B70000E94E4038C0197FD0BC0F7018381A5015E
:100B8000B60180640E94E403080F191F97FD8C01D1
:100B9000C8010F90DF91CF911F910F91FF90EF90BF
:100BA000DF90CF90BF90AF900895DC01FB0188E407
:100BB000808389E4818384E482831D969C911D97C0
:100BC0009F709F5B93831D968D919C9124E09695D9
:100BD00087952A95E1F78F708F5B848385E0089570
:100BE000EF92FF920F931F93CF93DF93FB0120812E
:100BF000213871F52381223259F5DC0112964C918E
:100C0000248135814217130619F5EC010B851C85EB
:100C1000F12CE12C0115110589F0F8014481558171
:100C20006281738180E80E94AD038F3F980749F08D
:100C3000E80EF91ED8010D911C91ECCF81E08F8751
:100C4000C701DF91CF911F910F91FF90EF90089511
:100C500090E080E0F6CFCF93DF93CDB7DEB7699712
:100C60000FB6F894DEBF0FBECDBFFC01DB018C9147
:100C70008F5F8C939E012D5F3F4F8DE0D9011D92B8
:100C80008A95E9F729E0298384E08A8391E09D83AE
:100C900083E08E832A8721E22B879C879D879F870D
:100CA00022E2288B27E02B8B25E02C8B8E8B20E4F7
:100CB00030E0388F2F8B998F82818B839585868545
:100CC000998B8A8B838180688D8B49E150E0BE01CE
:100CD0006F5F7F4F80E00E94AD0369960FB6F89476
:100CE000DEBF0FBECDBFDF91CF910895CF93DF93CD
:100CF0008091EB01811167C081E08093DE018093D8
:100D0000DF0124EE31E03093E1012093E001109205
:100D1000E3011092E2012DE231E03093DB012093F8
:100D2000DA011092E6011092E5011092E8011092AA
:100D3000E7018093E9018093EA0181EC8093E4016B
:100D40000E948B04FC0181819091DE01482F490FA4
:100D50005527551F483051059CF5A281B381109746
:100D600009F52AED31E03383228320812093DC01D1
:100D70008093DD018091DF01820F80832091E0016B
:100D8000A22FB091E1018A2F821B8917C8F48181BB
:100D90003D91C82FD0E0C050DF4F38838F5F8183F3
:100DA000F2CFD90118962D913C9119972115310553
:100DB000C1F72AED31E019963C932E931897D5CFC1
:100DC00081E08093EB018AED91E0DF91CF9108956E
:100DD000CF92DF92EF92FF920F931F93CF93DF9307
:100DE0006C01EB017B01E40EF51E10E000E0CE1576
:100DF000DF0581F069916D30D1F3D601ED91FC9161
:100E00000190F081E02DC6010995892B19F00F5F43
:100E10001F4FEDCFC801DF91CF911F910F91FF9030
:100E2000EF90DF90CF900895CF93DF93EC01683877
:100E3000E0F06858FE0186E0662321F09681961363
:100E400001C01682815031968111F6CF0E9476063C
:100E5000AE014C5F5F4F28E030E062E00E94A005E9
:100E600081E090E0DF91CF910895862F90E067FFB9
:100E70000FC0FC01E058F10981E090E001C0880F4B
:100E8000EA95EAF780959C8189238C8360E0D2CF34
:100E9000EC85FD85E80FF91F649190E080E0662302
:100EA00009F3862F807C803C49F48C818F7B8C8376
:100EB0006F73623309F0BECF64E6BCCF67FFF9CF32
:100EC0008C818D7F8C836F77F4CFCF93DF93EC0190
:100ED000683858F168588E818617D1F08F8186174F
:100EE000B9F088858617A1F08985861789F08A85EB
:100EF000861771F08B85861759F0FE01369690E0C3
:100F000080E02191211147C08C0F9D1FFC01668359
:100F10000E947606AE014C5F5F4F28E030E062E051
:100F20000E94A00581E090E01FC0862F90E067FF3F
:100F30000EC0FC01E058F10921E030E001C0220FB1
:100F4000EA95EAF78C81822B8C8360E0C4CFEC8534
:100F5000FD85E80FF91F6491611109C081E090E0FF
:100F60009B838A8390E080E0DF91CF910895862F64
:100F7000807C803C49F48C8180648C836F73623305
:100F800009F0A9CF64E6A7CF67FFF9CF8C81826013
:100F90008C836F77F4CF01968630910509F0B1CF3D
:100FA000DDCFEF92FF921F93CF93DF93EC01162FCB
:100FB0000E9465077C01612FCE010E941407C701C2
:100FC0009927DF91CF911F91FF90EF900895089599
:100FD00090E080E008958F929F92AF92BF92CF925F
:100FE000DF92EF92FF92CF93DF939C012553334F13
:100FF00027393941D0F1BC0197FF04C06627772714
:10100000681B790BEC016C5C7C40072E000C880B94
:10101000990B0E94281D20E036E646EE56E40E9419
:101020007E1C6B017C016091130170E090E080E018
:101030000E94281D4B015C01A7019601C701B60162
:101040000E941C1E9B01AC01C501B4010E941C1E24
:10105000D7FD9058DF91CF91FF90EF90DF90CF9028
:10106000BF90AF909F908F90089560E070E0CB01AB
:10107000F1CF262FFC01E25AFD4F3081361761F087
:101080006083895F9D4FFC0162818FEF92E02111A7
:101090000C9465070C9414070895CF92DF92EF9299
:1010A000FF92CF93DF93EC01A0910E026B01770FBB
:1010B000EE08FF08FC01E25AFD4F80818823E1F031
:1010C000AF50BB0B2FEF3FE70E947D1F24E630E0BF
:1010D00040E050E00E94491F61E02C153D054E059F
:1010E0005F050CF060E0CE01DF91CF91FF90EF90B3
:1010F000DF90CF900C9439082A2F30E0AFEFBFE794
:101100000E946E1FE3CFCF93DF93D0E0C0E060E09A
:10111000CE010E9439082196C530D105C1F7DF9173
:10112000CF910895DC0123E53AE42D933D9326E029
:10113000EFE1F1E001900D922A95E1F726E0EFE171
:10114000F1E0DC01189601900D922A95E1F70895DF
:101150008F929F92AF92BF920F931F93CF93DF9383
:10116000CDB7DEB7A1970FB6F894DEBF0FBECDBFE7
:1011700019A2423008F44AE08E010F5D1F4F842E01
:10118000912CB12CA12CA50194010E94271FE62FC0
:10119000B901CA01EA3044F5E05DD801EE938D0152
:1011A000232B242B252B79F790E080E0109769F012
:1011B000FD0101900020E9F73197AF014A1B5B0B5D
:1011C000BD0181EA92E00E94D004A1960FB6F89486
:1011D000DEBF0FBECDBFDF91CF911F910F91BF90AA
:1011E000AF909F908F900895E95CD7CF42E050E098
:1011F00068E671E081EA92E00C94D004CF93DF932B
:101200000E940105EC010E94F6088C0F9D1FDF91E2
:10121000CF910895CF93DF93682F70E090E080E046
:101220004AE00E94A808EC010E94F6088C0F9D1F5E
:10123000DF91CF910895CF92DF92EF92FF92CF93FB
:10124000DF936C01990FEE08FF08F7FE17C08DE2DF
:101250000E94FC04EC0166277727CB016C197D09FD
:101260008E099F094AE00E94A8088C0F9D1FDF91FC
:10127000CF91FF90EF90DF90CF9008954AE0C701A3
:10128000B601DF91CF91FF90EF90DF90CF900C945B
:10129000A808CF93DF9389E291E00E940105C9E09D
:1012A000D2E080E20E94FC04699170E090E080E06E
:1012B0004AE00E94A80882E0CE30D80791F780E289
:1012C0000E94FC0480910E02DF91CF910C940A09D8
:1012D000CF92DF92EF92FF9280930F02682F880FD8
:1012E000770B880B990B0E94281D2BED3FE049E4FA
:1012F00050E40E941C1E20E030E044E353E40E94CE
:101300007E1C6B017C010E94791C60931B01709311
:101310001C0180931D0190931E01C701B6010E941C
:10132000891E60937102709372028093730290938E
:101330007402FF90EF90DF90CF900895FF920F938B
:101340001F93CF93DF93EC01F62E08811981C8011A
:101350000E94F11BF81621F06F2DC8010E94F91BA5
:10136000CE01DF91CF911F910F91FF900895CF9201
:10137000DF92EF92FF920F931F93CF93DF9300D0F2
:10138000CDB7DEB76C017C0110E000E01A83098361
:10139000F70161917F01CE0101960E949E090F5FC6
:1013A0001F4F0E30110591F7C6010F900F90DF917E
:1013B000CF911F910F91FF90EF90DF90CF90089504
:1013C000EF92FF920F931F93CF93DF9300D0CDB78F
:1013D000DEB78C010E94830888E0F801A7E0B2E044
:1013E00001900D928A95E1F787E0E82E82E0F82ED1
:1013F00000E410E01A830983F70161917F01CE01B7
:1014000001960E949E090F5F1F4F0834110591F746
:101410000F900F90DF91CF911F910F91FF90EF9060
:1014200008951F920F920FB60F9211242F933F939E
:101430008F939F93AF93BF9380919702909198025F
:10144000A0919902B0919A023091960223E0230F65
:101450002D3758F50196A11DB11D2093960280935A
:10146000970290939802A0939902B0939A02809168
:101470009B0290919C02A0919D02B0919E020196C8
:10148000A11DB11D80939B0290939C02A0939D028D
:10149000B0939E02BF91AF919F918F913F912F91F9
:1014A0000F900FBE0F901F90189526E8230F0296FD
:1014B000A11DB11DD2CF1F920F920FB60F92112412
:1014C0002F933F934F935F936F937F938F939F934C
:1014D000AF93BF93CF93EF93FF93C091E1008091BF
:1014E000E100837F8093E100C3FF0FC01092E90009
:1014F00081E08093EB001092EC0082E38093ED009A
:101500001092A00288E08093F000C2FF1AC00E94EF
:10151000C90180910402882341F080910402815026
:1015200080930402811101C05D9A80919F028823FB
:1015300041F080919F02815080939F02811101C0F0
:10154000289AC4FF23C08091E2008E7E8160809340
:10155000E2008091E1008F7E8093E100809105029E
:101560008E7E806180930502FF91EF91CF91BF91B4
:10157000AF919F918F917F916F915F914F913F912B
:101580002F910F900FBE0F901F901895C0FFECCFBA
:101590008091E2008E7E80618093E2008091E10084
:1015A0008E7E8093E100809105028E7E8160DACF8D
:1015B0001F920F920FB60F921124CF92DF92EF92EB
:1015C000FF920F931F932F933F934F935F936F93CC
:1015D0007F938F939F93AF93BF93EF93FF93CF939B
:1015E000DF93CDB7DEB76C97DEBFCDBF1092E900B9
:1015F0008091E80083FF25C068E0CE0145960E94F7
:101600007E0482EF8093E8008D8987FF39C0909136
:10161000E80090FFFCCF982F907609F034C19E89A6
:101620004F89588D2F89F88C911131C0803861F520
:10163000809106028093F1001092F1008EEF80936A
:10164000E8006C960FB6F894DEBF0FBECDBFDF91F9
:10165000CF91FF91EF91BF91AF919F918F917F912A
:101660006F915F914F913F912F911F910F91FF903B
:10167000EF90DF90CF900F900FBE0F901F901895B6
:101680009EEF9093E800C7CF1092F100D5CF913034
:1016900059F48111D3CF4130510581F68091060272
:1016A0008D7F80930602CACF933049F48111C6CF53
:1016B0004130510519F6809106028260F2CF9530D3
:1016C00041F48091E80080FFFCCF20682093E30084
:1016D000B5CF963009F0A9C00B8D1C8D22E0109279
:1016E000E9001092020210920102F2122EC0109232
:1016F00000021092FF010E949F041F8299E09983CB
:10170000FA8291E09E8390EA98879AEF99872091D8
:10171000010230910202275F3F4F3C832B838D8370
:101720001092E9001092020210920102109300023E
:101730000093FF0149E050E0BE016F5F7F4F80E002
:101740000E94AD030E949F0479CF10930002009382
:10175000FF010E948B04DC0112960D911C91011572
:10176000110509F451C1D801ED91FC910480F58176
:10177000E02DBE016B5E7F4FC8010995009709F00F
:101780003EC1F80100851185EACFF3E0FF120EC0DB
:101790008F89882309F440C0823061F440E86AE010
:1017A0008AE891E00E947A03811148CF81E2809318
:1017B000EB0047CF813029F440E864E085E891E010
:1017C000F1CF833099F70E948B04DC011296ED90E3
:1017D000FC908E010F5F1F4F6801E114F10479F056
:1017E000D701ED91FC910680F781E02DB801C7018A
:1017F0000995080F111DF701E084F184EECFD8019F
:101800001C92F60101900020E9F73197BF016C1995
:101810007D0940E0C601C6CF6FE671E0FB0144914F
:1018200050E080E80E94AD0309CF973009F4BECFA5
:10183000983021F481E08093F10000CF993009F0D5
:10184000FDCE837009F0B2CFE1E0F1E081E031E05C
:1018500096E32191222371F08093E9003093EB000D
:10186000DF0111972C912093EC009093ED008F5F96
:10187000873079F78EE78093EA001092EA008F892B
:101880008093A002DBCE8B8D9C8D1092E90010928C
:10189000020210920102909300028093FF01898D51
:1018A000811192C08E899D89913A49F4813209F063
:1018B0007DCF47E050E06BE071E080E0B3CF913244
:1018C00009F074CF833269F48F89988DB0E0A0E07D
:1018D0008093070190930801A0930901B0930A0136
:1018E000ADCE803269F48091E80082FFFCCF67E0E2
:1018F0008BE091E00E947E048BEF8093E8009ECE07
:10190000823209F09BCE8F8980931201EEEFFFE7C0
:10191000859194918B3F9C4D51F1E0E0F8E08091EE
:101920000B0190910C01A0910D01B0910E01803B33
:101930009440A105B105F1F48091120180FD1AC017
:10194000EE3F8AE0F80789F587E797E79183808380
:10195000809160008093030288E19BE00FB6F894C9
:10196000A895809360000FBE9093600067CEEEEF65
:10197000FAE0D5CF808191818737974709F05ECE15
:10198000A895809160008861809360008091030237
:1019900080936000EE3F2AE0F20789F08091FE0A12
:1019A0009091FF0A9183808349CE8081918187370E
:1019B000980751F29093FF0A8093FE0AC5CF1092C8
:1019C000FF0A1092FE0A3ACE0E948B04DC011296A6
:1019D0000D911C910115110509F4E8CED801ED9186
:1019E000FC910190F081E02DBE016B5E7F4FC8013C
:1019F0000995811123CEF80100851185EBCF1816CA
:101A000019060CF41BCED2CEF1E0FF12BECE63E776
:101A100071E004CFFC01A385B485109771F474873D
:101A2000638785859685DB0114962D913C91820F05
:101A3000931F968785870895DC018D919C9111975E
:101A40000097D1F76D937C93ECCFCF93DF93EC01AC
:101A500080E690E00E94F11B9FEF980F923020F0FB
:101A60001882DF91CF91089588838130F1F49091AD
:101A7000D201911112C01092CD011092CC0120E040
:101A800031E03093CF012093CE0129E230E0309352
:101A9000D1012093D0018093D2010E9476066CEC94
:101AA00071E0DF91CF910C940A0D8091C4018111F6
:101AB00013C01092BF011092BE018AEC90E0909387
:101AC000C1018093C00186E390E09093C3018093AD
:101AD000C20181E08093C4010E9476066EEB71E042
:101AE000E0CF1092A4021092A30288EE93E0A0E04F
:101AF000B0E08093A5029093A602A093A702B093B2
:101B0000A8028EE491E09093A2028093A1028FEF4D
:101B10009FEF9093AE028093AD0210920203109259
:101B2000010380E691E0909300038093FF0280918F
:101B3000F702811113C01092F2021092F10285EFA8
:101B400092E09093F4028093F3028FE290E09093FE
:101B5000F6028093F50281E08093F7020E947606F8
:101B600061EF72E00E940A0D85E792E090930C030A
:101B700080930B038DE093E00C94250DCF93DF93BE
:101B8000CDB7DEB7C05ED1090FB6F894DEBF0FBE89
:101B9000CDBF789484B5826084BD84B5816084BDF6
:101BA00085B5826085BD85B5816085BD80916E00FB
:101BB000816080936E00109281008091810082602C
:101BC0008093810080918100816080938100809169
:101BD000800081608093800080919100826080937A
:101BE000910080919100816080939100809190009C
:101BF0008160809390008091C10084608093C100D7
:101C00008091C10082608093C1008091C100816099
:101C10008093C1008091C30081608093C300809154
:101C2000C00082608093C0008091C2008160809378
:101C3000C20080917A00846080937A0080917A005B
:101C4000826080937A0080917A00816080937A002C
:101C500080917A00806880937A001092A00210929E
:101C60000602109205028091D70081608093D70010
:101C700080EA8093D80089B5806189BD89B582608A
:101C800089BD09B400FEFDCF61E070E080E090E026
:101C90000E9418038091D8008F7C80618093D800C7
:101CA0008091E000807F8093E0008091E1008E7E53
:101CB0008093E1008DE08093E200559A209A62E0E3
:101CC0008EE00E949E0262E080E10E949E0202E499
:101CD00011E025E331E0C553DF4F39832883CB5C26
:101CE000D04062E0C553DF4FA881B981CB5CD040C2
:101CF0008D91C553DF4FB983A883CB5CD0400E9440
:101D00009E02C553DF4F48805980CB5CD0400415FC
:101D1000150539F762E08FE00E949E0261E082E0E3
:101D20000E949E0280E00E944A0282E690E00E94A9
:101D3000F11B182F83E690E00E94F11B853A21F4F5
:101D4000163A14F01B350CF010E0812F0E94680940
:101D500084E690E00E94F11B9FEF980F943108F009
:101D600088E08093130147E0E42E42E0F42E00E483
:101D700010E0C8010E94F11BD7018D937D010F5F18
:101D80001F4F08341105A9F78091070290910802AE
:101D90008D349B4429F480910E0284518C3448F098
:101DA00088E0E2E4F1E0A7E0B2E001900D928A95CC
:101DB000E1F78FEF9FEF9093AE028093AD0285E73E
:101DC00092E090930C0380930B0340902501509078
:101DD00026016090270170902801C352DF4F48828E
:101DE00059826A827B82CD5DD040809195028111BB
:101DF000BCC08FE00E9475027C01BB24B394892B88
:101E000009F0B12C8E0103571F4FD12CC12C902EFD
:101E1000A12EC6010E94F11BD8018D938D01BFEF49
:101E2000CB1ADB0AEEE0CE16D10499F78EE0E92D4D
:101E3000FA2DDE01AF58BF4F01900D928A95E1F760
:101E4000E114F10411F5CE0181589F4F0E949208D0
:101E5000CE0181589F4F0E94B70903E010E081E056
:101E60000E944A0268E770E080E090E00E94180358
:101E700080E00E944A0268E770E080E090E00E9403
:101E800018030150110959F723C08EE0FE01EF58E5
:101E9000FF4FDE01AD59BF4F01900D928A95E1F7DA
:101EA000E3968EAD9FADE3978335FAE49F0709F083
:101EB00093C0A5969FAF8EAFA5978EE0FE01ED591A
:101EC000FF4FDE01A158BF4F01900D928A95E1F7B7
:101ED0008EE0FE01E158FF4FDE01AB5ABF4F01908B
:101EE0000D928A95E1F78EE0FE01EB5AFF4FDE017D
:101EF000D99601900D928A95E1F728961FAE289702
:101F000081E0EF2809F480E029968FAF29972A967F
:101F10001FAE2A972B961FAE2B972F961CAE1DAE89
:101F20001EAE1FAE2F976096BFAE60976196BFAE94
:101F3000619765961CAE1DAE1EAE1FAE65978CE117
:101F4000FE01F996A9E7B2E001900D928A95E1F7BA
:101F50000E94F30260937502709376028093770279
:101F60009093780281E08093950282E6682E712C2E
:101F700093E6E92EF12C5524539424E6C22ED12C5D
:101F800033E6A32E32E0B32E81EA92E00E9463058D
:101F9000181619060CF082C281EA92E00E9421050F
:101FA0008D3091F320914002309141028A3009F046
:101FB00065C2205F3D4FD9011C926BE671E080E164
:101FC00092E00E94911F892B69F40E9449091092A6
:101FD000410210924002D8CFCE0181589F4F0E94FB
:101FE000920876CF44E050E06FE671E080E192E045
:101FF0000E949A1F8C01892B09F060C088E0E7E0FD
:10200000F2E0DE01A158BF4F01900D928A95E1F7F1
:10201000FE01E158FF4F4F0184E192E001151105E7
:1020200011F090E080E064E971E00E94A81B009745
:1020300029F48FEA91E00E94FE08C9CF0E94811B1B
:102040009B01AC0121503109410951092F3F310554
:102050004105510518F08BEA91E0EDCF05301105EF
:10206000F9F0D40112966C930F5F1F4FBFEF8B1ADC
:102070009B0A0630110581F6C158DF4F888199818E
:10208000CF57D0408D349B4441F4CA57DF4F8881ED
:10209000C658D04084518C3448F087EA91E0CBCFC9
:1020A000CA57DF4F6883C658D040DECFCE01815873
:1020B0009F4F0E94E00984EA91E0BDCF64E771E0A0
:1020C00080E192E00E94911F892B29F482E491E043
:1020D0000E94E0097ACF6EE771E080E192E00E9411
:1020E000911F892BF1F58DE991E00E940105809106
:1020F0006F02909170020E941B0980E20E94FC0412
:1021000080916D0290916E020E941B0980E20E94F4
:10211000FC0480916B0290916C020E941B0980E28A
:102120000E94FC048091690290916A020E941B093E
:1021300080E20E94FC048091680290E00E941B09EA
:102140000EE512E080E20E94FC04D8018D918D0121
:1021500090E00E941B09A016B106A1F70E94F608A4
:1021600036CF64E871E080E192E00E94911F892BF4
:1021700029F4509247028FED91E05DCF44E050E0AA
:1021800068E871E080E192E00E949A1F892B49F58E
:1021900084E192E00E94631B20910D03213031F411
:1021A0009C01215031092431310518F08BED91E06B
:1021B00042CF809367022FB7F89480919702909155
:1021C0009802A0919902B0919A022FBF8093630266
:1021D00090936402A0936502B093660288ED91E04B
:1021E0002ACF6DE871E080E192E00E94911F892B77
:1021F00049F483ED91E00E940105809113010E9452
:102200000A09E5CE44E050E061E971E080E192E046
:102210000E949A1F892BF1F484E192E00E94631BD3
:102220009C01215031092431310518F08FEC91E0E7
:1022300002CF80931301C158DF4FD982C882CF5794
:10224000D040682FCE0181589F4F0E949E098CEC90
:1022500091E0F1CE66E971E080E192E00E94911F89
:10226000892B09F053C088E991E00E940105C3520F
:10227000DF4F288139814A815B81CD5DD040C158D3
:10228000DF4F288339834A835B83CF57D0408E0149
:1022900001581F4F480134E0830E911C80E20E94D8
:1022A000FC04D8018D918D010E94CF020E941B0970
:1022B0008016910699F780E20E94FC0405E311E084
:1022C000812CF80191908F01892D0E947502892B34
:1022D00071F4882019F08CE20E94FC04692D70E0F2
:1022E00090E080E04AE00E94A80888248394C553C7
:1022F000DF4F28813981CB5CD0402017310709F7A7
:1023000081102CCF8DE20E94FC0428CF6BE971E094
:1023100080E192E00E94911F892B61F487EC91E0AB
:102320000E94010580910F02082E000C990B0E945B
:102330001B0914CF44E050E06FE971E080E192E0C6
:102340000E949A1F892B59F584E192E00E94631B39
:102350008C01865A9F4F853B910518F083EC91E0E4
:102360006ACE802F0E946809C158DF4F7982688247
:10237000CF57D040602FCE0181589F4F0E949E09B9
:10238000C158DF4FF982E882CF57D04065EACE01CD
:1023900081589F4F0E949E0980EC91E04CCE64EAE8
:1023A00071E080E192E00E94911F892B39F48AEB61
:1023B00091E00E94010580910D0321CF69EA71E04F
:1023C00080E192E00E94911F892B89F060EB71E01F
:1023D00080E192E00E94911F892B49F067EB71E048
:1023E00080E192E00E94911F892B09F03FC010917B
:1023F0001502105380910D03181303C087EB91E071
:102400001ACE0E94830880E690E0C158DF4F99837E
:102410008883CF57D040612FCE0181589F4F0E94B3
:102420009E0985E991E00E94FE080E94C90164E6C8
:1024300070E080E090E00E94180368EC70E080E0BB
:1024400090E00E9418031092010810920008109268
:10245000FF0A1092FE0A88E198E00FB6F894A8955A
:10246000809360000FBE90936000FFCF80911002B8
:10247000882309F4ACCD83EB91E0DDCD2F3231051B
:102480000CF082CDA9014F5F5F4F50934102409302
:102490004002205F3D4FD9018C9376CD0E94F3021C
:1024A00000917502109176022091770230917802A6
:1024B000AB01BC01401B510B620B730B77FD59C77D
:1024C000D901C80188519C4FAF4FBF4F809375020F
:1024D00090937602A0937702B09378020E94F30261
:1024E0000091750210917602209177023091780266
:1024F000601B710B820B930B161617061806190634
:1025000074F40E94F30268517C4F8F4F9F4F609389
:1025100075027093760280937702909378028FB75A
:10252000F894C0909702D0909802E0909902F090B1
:102530009A028FBF83E10E94CF02C954DF4F998373
:102540008883C75BD04082E10E94CF02C754DF4F2F
:1025500099838883C95BD04080E10E9475028C0119
:10256000892B21F08EE00E9475028C018091470238
:10257000882369F01092470281E080934602C0925E
:102580004202D0924302E0924402F09245028091CE
:1025900046028823B9F08091420290914302A091B3
:1025A0004402B091450226013701481A590A6A0AC5
:1025B0007B0AD301C20184369105A105B10510F053
:1025C00010924602309046028FE00E947502892BDD
:1025D00009F412C181E038266090790270907A0285
:1025E000C952DF4F79826882C75DD04080907B02FC
:1025F00090907C02CD53DF4F99828882C35CD0409B
:1026000040917D0230917E02A0907F02B0908002C6
:10261000CD54DF4FB982A882C35BD0404090810285
:1026200050908202C454DF4F59824882CC5BD04024
:1026300020918302909184026090850270908602BE
:10264000CF53DF4F79826882C15CD040709087029F
:10265000C554DF4F7882CB5BD04080908802C65350
:10266000DF4F8882CA5CD04090908902CA52DF4F07
:102670009882C65DD040A0908A02CB53DF4FA882DB
:10268000C55CD04040908B0250908C0260908D02CF
:1026900070908E02CE52DF4F488259826A827B82CE
:1026A000C25DD04050908F02CF52DF4F5882C15D43
:1026B000D040809190026090910270909202809040
:1026C000930290909402C353DF4F688279828A828A
:1026D0009B82CD5CD04051E0012B09F050E0CA5202
:1026E000DF4F7880C65DD040571569F0CA52DF4F82
:1026F0005883C65DD040CE52DF4FC882D982EA826D
:10270000FB82C25DD04046015701CE52DF4F488068
:1027100059806A807B80C25DD04084189508A608E5
:10272000B7086AE186169104A104B10428F0CB53DE
:10273000DF4F5883C55CD040CB53DF4F4880C55C2A
:10274000D040C054DF4F4882C05CD04051E03526B5
:10275000CF52DF4F5880C15DD040351469F0CF5261
:10276000DF4F3882C15DD040C353DF4FC882D9826A
:10277000EA82FB82CD5CD040C353DF4F6880798012
:102780008A809B80CD5CD040C618D708E808F9083D
:102790005AE1C516D104E104F10480F1C853DF4FBA
:1027A0003882C85CD040C853DF4F4880C85CD040F6
:1027B00051E08527411001C080E0C653DF4F5880AB
:1027C000CA5CD040511020C0C853DF4F6880C85C3D
:1027D000D040611006C051E0C653DF4F5883CA5C39
:1027E000D040C554DF4F1882CB5BD040C753DF4F7A
:1027F0001882C95CD04025C0312CEECEC853DF4FC3
:102800008883C85CD040CFCF882381F3C554DF4F85
:102810004880CB5BD040442009F424C4C554DF4F2A
:102820001882CB5BD04063E57AE4C952DF4F7983ED
:102830006883C75DD04071E0C753DF4F7883C95CC0
:10284000D040C952DF4F48805980C75DD0405E8E6E
:102850004D8ECD53DF4F68807980C35CD04078A225
:102860006F8E49A33AA3CD54DF4F88809980C35B14
:10287000D0409CA28BA2C454DF4FA880B980CC5B0F
:10288000D040BEA2ADA22FA398A7CF53DF4F488060
:102890005980C15CD0405AA649A6C554DF4F588024
:1028A000CB5BD0405BA6C653DF4F6880CA5CD0408C
:1028B0006CA6CA52DF4F7880C65DD0407DA6CB5350
:1028C000DF4F8880C55CD0408EA6CE52DF4F488057
:1028D00059806A807B80C25DD0404FA658AA69AA01
:1028E0007AAACF52DF4F5880C15DD0405BAAC8534F
:1028F000DF4F6880C85CD0406CAAC353DF4F88802C
:102900009980AA80BB80CD5CD0408DAA9EAAAFAA38
:10291000B8AEC554DF4F9880CB5BD040992009F406
:10292000C2C086E0FE017F96DE01AF55BF4F019029
:102930000D928A95E1F7CD53DF4FA880B980C35C33
:10294000D040C954DF4F48805980C75BD0404A14FB
:102950005B0434F4CD53DF4F59824882C35CD040CE
:10296000CD54DF4F68807980C35BD040C954DF4FBE
:1029700088809980C75BD0406814790434F4CD54C2
:10298000DF4F99828882C35BD040CD53DF4FA88050
:10299000B980C35CD040CF55DF4FB982A882C15AFD
:1029A000D040CD54DF4F48805980C35BD040CB55D9
:1029B000DF4F59824882C55AD04086E0FE01EF556C
:1029C000FF4FDE01A556BF4F01900D928A95E1F7AA
:1029D00086E0FE01E556FF4FDE015F9601900D9205
:1029E0008A95E1F786E0FE01B596DE01A355BF4F5B
:1029F00001900D928A95E1F7C454DF4F6880798089
:102A0000CC5BD040C754DF4F88809980C95BD040F1
:102A10008614970434F4C454DF4F99828882CC5BC7
:102A2000D040CF53DF4FA880B980C15CD040C7549D
:102A3000DF4F48805980C95BD040A414B50434F4FA
:102A4000CF53DF4F59824882C15CD040C454DF4F1E
:102A500068807980CC5BD040C355DF4F7982688233
:102A6000CD5AD040CF53DF4F88809980C15CD04091
:102A7000CF54DF4F99828882C15BD04086E0FE014F
:102A8000E355FF4FDE01A955BF4F01900D928A9586
:102A9000E1F786E0FE01E955FF4FDE0195960190D2
:102AA0000D928A95E1F7CD53DF4FA880B980C35CC2
:102AB000D040B8A2AF8ECD54DF4F48805980C35B61
:102AC000D0405CA24BA2C454DF4F68807980CC5BBD
:102AD000D0407EA26DA2CF53DF4F88809980C15C29
:102AE000D0409AA689A68CE1FE017D96DE01119662
:102AF00001900D928A95E1F7AD80BE80CA53DF4FF9
:102B0000B982A882C65CD0402B843C84C554DF4F78
:102B1000B880CB5BD040B11083C3C954DF4F48802D
:102B20005980C75BD040CA53DF4F68807980C65C4C
:102B3000D040461457040CF4D4C2CD54DF4F088162
:102B40001981C35BD04006191709101611060CF045
:102B50000FC3B20166197709072E000C880B990B79
:102B60000E94281D6B017C01B801110F880B990B85
:102B70000E94281D9B01AC01C701B6010E947E1C6A
:102B80002B013C0120E030E0A9010E94741C87FD6C
:102B9000EFC220E030E040E85FE3C301B2010E94F1
:102BA000171E181634F4412C512C00E8602E0FE348
:102BB000702EC754DF4F88809980C95BD040821443
:102BC00093040CF4E0C2CF53DF4F08811981C15C3C
:102BD000D04002191309101611060CF010C3B401ED
:102BE00062197309072E000C880B990B0E94281D8F
:102BF0006B017C01B801110F880B990B0E94281DF5
:102C00009B01AC01C701B6010E947E1C6B017C01D7
:102C100020E030E0A9010E94741C87FDF0C220E092
:102C200030E040E85FE3C701B6010E94171E1816A6
:102C300034F4C12CD12CB0E8EB2EBFE3FB2EA30162
:102C40009201C301B2010E941C1E4B015C01A7014D
:102C50009601C701B6010E941C1E9B01AC01C50173
:102C6000B4010E94081C0E94971EC752DF4F688360
:102C700079838A839B83C95DD0402DEC3CEC4CE486
:102C80005DE30E94741C18160CF0C4C22DEC3CECE1
:102C90004CE45DE3C752DF4F688179818A819B8173
:102CA000C95DD0400E94071C23E333E343E75FE3A1
:102CB0000E947E1C4B015C0120E030E040E85FE3B5
:102CC0000E94171E181634F4812C912CF0E8AF2EB8
:102CD000FFE3BF2EC752DF4F288139814A815B81D4
:102CE000C95DD040C501B4010E947E1C4B015C014E
:102CF000A30192010E941C1E2B013C01A701960119
:102D0000C501B4010E941C1E4B015C0120E03EEF96
:102D10004FEF56E4C301B2010E941C1E0E94F01C3A
:102D20007B0120E03EEF4FEF56E4C501B4010E9465
:102D30001C1E0E94F01C8B01C952DF4F4880598035
:102D4000C75DD04050927A0240927902CD53DF4F56
:102D500068807980C35CD04070927C0260927B0274
:102D6000CA53DF4F88809980C65CD04090927E0223
:102D700080927D02CD54DF4FA880B980C35BD040E4
:102D8000B0928002A0927F02C454DF4F48805980E5
:102D9000CC5BD040509282024092810230928402F9
:102DA00020928302CF53DF4F68807980C15CD0408E
:102DB0007092860260928502C554DF4F7880CB5BAB
:102DC000D04070928702C653DF4F8880CA5CD040E3
:102DD00080928802CA52DF4F9880C65DD0409092A0
:102DE0008902CB53DF4FA880C55CD040A0928A02F5
:102DF000CE52DF4F488059806A807B80C25DD040D0
:102E000040928B0250928C0260928D0270928E02E0
:102E1000CF52DF4F5880C15DD04050928F02C853CF
:102E2000DF4F6880C85CD04060929002C353DF4F90
:102E300088809980AA80BB80CD5CD040809291022E
:102E400090929202A0929302B0929402B701FF0C6A
:102E5000880B990B0E94281D4B015C0140901B01BF
:102E600050901C0160901D0170901E01CD54DF4FE9
:102E7000488259826A827B82C35BD040662777276B
:102E8000601B710B072E000C880B990B0E94281DEC
:102E90002B013C012091710230917202409173022A
:102EA00050917402C454DF4F288339834A835B8373
:102EB000CC5BD040CD54DF4F288139814A815B8182
:102EC000C35BD040C501B4010E941C1E6B017C0194
:102ED000C454DF4F288139814A815B81CC5BD0406B
:102EE000C301B2010E941C1E9B01AC01C701B601C7
:102EF0000E94081C6B017C0120E03EEF4FEF56E47E
:102F00000E94171E22242A94EFE73E2E18169CF0EA
:102F100020E03EEF4FEF56ECC701B6010E94741C53
:102F20002224239470E8372E87FD05C0C701B6011F
:102F30000E94F01C1B01A3019201CD54DF4F688158
:102F400079818A819B81C35BD0400E941C1E6B01EA
:102F50007C01C454DF4F288139814A815B81CC5B7D
:102F6000D040C501B4010E941C1E9B01AC01C701E9
:102F7000B6010E94071C6B017C0120E03EEF4FEF81
:102F800056E40E94171E18160CF44FC120E03EEFC5
:102F90004FEF56ECC701B6010E94741C87FD4AC171
:102FA000C701B6010E94F01C6B01F0900D0331E0E7
:102FB000F312F1C1CB53DF4F4880C55CD0404420B1
:102FC00071F0C554DF4F5880CB5BD04021E030E03A
:102FD000552039F0C054DF4F1882C05CD04030E03B
:102FE00020E0809167028823D1F14FB7F894809157
:102FF000970290919802A0919902B0919A024FBFC6
:103000004091630250916402609165027091660282
:10301000841B950BA60BB70B80399140A105B10518
:1030200008F0B6C180916702F12CE12C0FEF1FE789
:10303000823109F410C108F002C1F12CE12C01E049
:1030400010E8813109F407C18150990B41E050E04B
:1030500002C0440F551F8A95E2F7242B352B7601C9
:103060008101F9C0C754DF4F48805980C95BD04007
:10307000CF53DF4F59824882C15CD040C754DF4FE5
:103080002881C95BD040C654DF4F9881CA5BD040CD
:10309000C454DF4F59824882CC5BD040C954DF4FC3
:1030A00068807980C75BD040CD54DF4F79826882D9
:1030B000C35BD040C954DF4F4881C75BD040C85480
:1030C000DF4F3881C85BD040CD53DF4F79826882B3
:1030D000C35CD04051E0C554DF4F5883CB5BD04038
:1030E00085CBCA53DF4F08811981C65CD040CD53D0
:1030F000DF4F88809980C35CD040081919091016E9
:103100001106B4F5C954DF4F68817981C75BD0409F
:10311000CA53DF4FA880B980C65CD0406A197B09CA
:10312000072E000C880B990B0E94281D6B017C0157
:10313000B801110F880B990B0E94281D9B01AC014F
:10314000C701B6010E947E1C2B013C0120E030E04B
:1031500040E85FEB0E94741C87FD0EC020E030E069
:10316000A901C301B2010E94171E18160CF021CD4F
:10317000412C512C32011DCD412C512C10E8612ED7
:103180001FEB712E16CD8101C454DF4FA880B9808A
:10319000CC5BD0400A191B091016110684F5C754E0
:1031A000DF4F68817981C95BD04062197309072EAE
:1031B000000C880B990B0E94281D6B017C01B80143
:1031C000110F880B990B0E94281D9B01AC01C701B0
:1031D000B6010E947E1C6B017C0120E030E040E8DB
:1031E0005FEB0E94741C87FD0EC020E030E0A90157
:1031F000C701B6010E94171E18160CF020CDC12C75
:10320000D12C76011CCDC12CD12CA0E8EA2EAFEB3D
:10321000FA2E15CD812C912C54012401350176CD47
:1032200010E000E0F12CE12C87CDCC24CA946FE7AC
:10323000D62EBBCECC24C39450E8D52EB6CE833147
:1032400009F4A1C0EE24E39490E8F92E843109F04A
:10325000FBCE10E000E0C158DF4F19830883CF5741
:10326000D040882799278E199F09CF57DF4F998320
:103270008883C158D040CD57DF4F39832883C35846
:10328000D04046E050E065E171E0CE0181589F4FAB
:103290000E94841F892BD9F186E0FE01E158FF4F7F
:1032A000A5E1B1E001900D928A95E1F70E947606C2
:1032B00026E030E0AE0141585F4F63E00E94A00578
:1032C00081E0E11450E4F5060CF480E080935E02A6
:1032D00081E061E0E61660ECF6060CF080E0809399
:1032E0005F0281E0013070EC17070CF080E0809302
:1032F000600281E0011510440CF480E080936102CB
:10330000C054DF4F4880C05CD04040926202C55438
:10331000DF4F8881CB5BD0400E944A02C753DF4F0A
:103320006880C95CD040662021F089E792E00E9465
:10333000B709C954DF4F88809980C75BD04090920D
:10334000700280926F02C754DF4FA880B980C95BBA
:10335000D040B0926E02A0926D0230926C02209228
:103360006B02D0926A02C0926902809187028093B8
:10337000680280E090E0892B11F40C94F50E0E9415
:1033800000000C94F50EEE24EA944FE7F42E61CF82
:103390001092670264CE82E0582EF51060C1CB53C4
:1033A000DF4F6880C55CD040662089F0C554DF4F90
:1033B0007880CB5BD0407720B1F0C054DF4F1882CB
:1033C000C05CD04000E010E080E090E00EC0C5544A
:1033D000DF4F8880CB5BD0408110F4CFC054DF4FEB
:1033E0001882C05CD0408601C1012FB7F89480904C
:1033F000970290909802A0909902B0909A022FBFE5
:1034000040915A0250915B0260915C0270915D02A2
:1034100024013501441A550A660A770AB301A2014C
:10342000483051056105710508F471CF80925A0248
:1034300090925B02A0925C02B0925D020E94EB0748
:1034400020915602309157024091580250915902F2
:103450000E94081CCD54DF4F688379838A839B8345
:10346000C35BD040C8010E94EB079B01AC01609197
:1034700052027091530280915402909155020E9421
:10348000071C2B013C01CD54DF4F688179818A8173
:103490009B81C35BD0400E94F01C11E861382FEF84
:1034A000720734F06038710514F06FE770E0162F82
:1034B000C301B2010E94F01C01E861383FEF7307BD
:1034C00034F06038710514F06FE770E0062F612F5B
:1034D000012E000C770B880B990B0E94281D9B0175
:1034E000AC01CD54DF4F688179818A819B81C35BB8
:1034F000D0400E94071C609356027093570280933D
:10350000580290935902602F002E000C770B880B05
:10351000990B0E94281D9B01AC01C301B2010E94BE
:10352000071C60935202709353028093540290934D
:10353000550280915102C054DF4F4880C05CD0409A
:10354000442009F474C081110BC080924D02909206
:103550004E02A0924F02B092500281E080934C0242
:10356000C054DF4F5880C05CD0405092510255206B
:10357000F9F080914C028823B9F080914D0290912E
:103580004E02A0914F02B0915002A5019401281B58
:10359000390B4A0B5B0BDA01C901843F9140A1054D
:1035A000B10510F010924C0280914C028823A1F0DA
:1035B0008091480290914902A0914A02B0914B0239
:1035C00088199909AA09BB09FF24F394181619064A
:1035D0001A061B060CF0F12C111107C0011105C0D1
:1035E000809114018F1509F492CEF0921401CF57F7
:1035F000DF4F19821882C158D040C158DF4FF8827E
:10360000CF57D040C058DF4F1883C058D040CF5755
:10361000DF4F0883C158D0400E94760624E030E096
:10362000AE0141585F4F64E00E94A00569CE882337
:1036300009F496CF80914C02882309F491CFD501EB
:10364000C401CC96A11DB11D8093480290934902FC
:10365000A0934A02B0934B0210924C0281CFB10169
:1036600083E090E00E944D0866277727621973096E
:1036700082E090E00E944D08B60190E080E00E9458
:103680004D08662777276C197D0981E090E00E943C
:103690004D08CB53DF4F5880C55CD040552049F0D2
:1036A0009091870281E09827C054DF4F9883C05CD7
:1036B000D040C054DF4F6881C05CD04084E090E0CF
:1036C0000E94390824CEFC0188279927E89421918B
:1036D0002032E9F3293010F02E30C8F32B3241F0BC
:1036E0002D3239F4689404C00E94E91B820F911DA9
:1036F000219120532A30C0F31EF4909581959F4F5D
:1037000008951F93FC0199278827BC01E894119123
:103710001032E9F3193010F01E30C8F31B3251F0AB
:103720001D3249F4689406C00E94D41B610F711DBC
:10373000811D911D119110531A30B0F33EF49095F4
:103740008095709561957F4F8F4F9F4F1F91089582
:103750004EE053E00E94AD1B0895FA01A191B081A3
:10376000009719F41097E1F0CD01DC01CD010D9027
:10377000002011F4C00113C0FB012191222319F094
:103780002015D9F7F3CFFB012191201519F41E92D2
:10379000119606C02223C1F70D900020A1F7D00199
:1037A000FA01A193B0830895592F482F372F262F60
:1037B000660F771F881F991F660F771F881F991F35
:1037C000620F731F841F951F660F771F881F991F35
:1037D00008957AE0979F902D879F802D910D112459
:1037E0000895F999FECF92BD81BDF89A992780B5C9
:1037F0000895262FF999FECF1FBA92BD81BD20BD35
:103800000FB6F894FA9AF99A0FBE01960895505897
:10381000BB27AA270E941F1C0C94C91D0E94901D43
:1038200038F00E94971D20F039F49F3F19F426F4D8
:103830000C948D1D0EF4E095E7FB0C94871DE92F89
:103840000E94EE1D58F3BA176207730784079507A5
:1038500020F079F4A6F50C94101E0EF4E0950B2ED2
:10386000BA2FA02D0B01B90190010C01CA01A001D2
:103870001124FF27591B99F0593F50F4503E68F12D
:103880001A16F040A22F232F342F4427585FF3CF6E
:10389000469537952795A795F0405395C9F77EF43F
:1038A0001F16BA0B620B730B840BBAF09150A1F088
:1038B000FF0FBB1F661F771F881FC2F70EC0BA0F0E
:1038C000621F731F841F48F4879577956795B79596
:1038D000F7959E3F08F0B0CF9395880F08F0992791
:1038E000EE0F9795879508950E94631D08F481E077
:1038F00008950E94A01DE3950C94DA1D0E94921C6D
:103900000C94C91D0E94971D58F00E94901D40F014
:1039100029F45F3F29F00C94871D51110C94111E5E
:103920000C948D1D0E94EE1D68F39923B1F355236D
:1039300091F3951B550BBB27AA27621773078407C2
:1039400038F09F5F5F4F220F331F441FAA1FA9F358
:1039500035D00E2E3AF0E0E832D091505040E69546
:10396000001CCAF72BD0FE2F29D0660F771F881FA7
:10397000BB1F261737074807AB07B0E809F0BB0B9A
:10398000802DBF01FF2793585F4F3AF09E3F5105AE
:1039900078F00C94871D0C94111E5F3FE4F3983E61
:1039A000D4F3869577956795B795F7959F5FC9F797
:1039B000880F911D9695879597F90895E1E0660F18
:1039C000771F881FBB1F621773078407BA0720F091
:1039D000621B730B840BBA0BEE1F88F7E0950895FA
:1039E0000E94F71C6894B1110C94111E08950E9456
:1039F000F61D88F09F5798F0B92F9927B751B0F06E
:103A0000E1F0660F771F881F991F1AF0BA95C9F762
:103A100014C0B13091F00E94101EB1E008950C94D2
:103A2000101E672F782F8827B85F39F0B93FCCF385
:103A3000869577956795B395D9F73EF490958095DF
:103A4000709561957F4F8F4F9F4F0895E89409C0FF
:103A500097FB3EF490958095709561957F4F8F4FC1
:103A60009F4F9923A9F0F92F96E9BB279395F695D7
:103A7000879577956795B795F111F8CFFAF4BB0F55
:103A800011F460FF1BC06F5F7F4F8F4F9F4F16C0B9
:103A9000882311F096E911C0772321F09EE8872F43
:103AA000762F05C0662371F096E8862F70E060E0FF
:103AB0002AF09A95660F771F881FDAF7880F969578
:103AC000879597F90895990F0008550FAA0BE0E81C
:103AD000FEEF16161706E807F907C0F012161306D0
:103AE000E407F50798F0621B730B840B950B39F410
:103AF0000A2661F0232B242B252B21F408950A2676
:103B000009F4A140A6958FEF811D811D089597F9B5
:103B10009F6780E870E060E008959FEF80EC089573
:103B200000240A941616170618060906089500249C
:103B30000A94121613061406050608950C948D1D9A
:103B40000E94F61DD8F3E894E0E0BB279F57F0F001
:103B50002AED3FE049EC06C0EE0FBB0F661F771F52
:103B6000881F28F0B23A62077307840728F0B25A18
:103B7000620B730B840BE3959A9572F7803830F4DF
:103B80009A95BB0F661F771F881FD2F790480C9439
:103B9000D91E092E0394000C11F4882352F0BB0F98
:103BA00040F4BF2B11F460FF04C06F5F7F4F8F4F55
:103BB0009F4F0895EF93E0FF07C0A2EA2AED3FE090
:103BC00049EC5FEB0E941F1C0E94C91D0F900394DB
:103BD00001FC9058ECEAF0E00C94EC1E57FD905874
:103BE000440F551F59F05F3F71F04795880F97FBC1
:103BF000991F61F09F3F79F087950895121613067B
:103C00001406551FF2CF4695F1DF08C016161706A9
:103C10001806991FF1CF86957105610508940895DE
:103C2000E894BB2766277727CB0197F908950E9470
:103C3000631D08F48FEF08950E942F1E0C94C91D78
:103C40000E94901D38F00E94971D20F0952311F0DE
:103C50000C94871D0C948D1D11240C94111E0E9430
:103C6000EE1D70F3959FC1F3950F50E0551F629FB5
:103C7000F001729FBB27F00DB11D639FAA27F00DC5
:103C8000B11DAA1F649F6627B00DA11D661F829FEC
:103C90002227B00DA11D621F739FB00DA11D621FD1
:103CA000839FA00D611D221F749F3327A00D611DEE
:103CB000231F849F600D211D822F762F6A2F1124D0
:103CC0009F5750409AF0F1F088234AF0EE0FFF1F03
:103CD000BB1F661F771F881F91505040A9F79E3F5A
:103CE000510580F00C94871D0C94111E5F3FE4F386
:103CF000983ED4F3869577956795B795F795E795B0
:103D00009F5FC1F7FE2B880F911D9695879597F9B8
:103D100008959F930E94A01D0F9007FCEE5F0C94E6
:103D2000DA1D19F416F40C948D1D0C94D71E0E9404
:103D3000F61DB8F39923C9F3B6F39F57550B87FFC8
:103D40000E94E51E0024A0E640EA900180585695A6
:103D5000979528F4805C660F771F881F20F0261740
:103D60003707480730F4621B730B840B2029312975
:103D70004A2BA69517940794202531254A2758F7F2
:103D8000660F771F881F20F026173707480730F483
:103D9000620B730B840B200D311D411DA09581F723
:103DA000B901842F9158880F9695879508959F3F64
:103DB00031F0915020F4879577956795B795880FE6
:103DC000911D9695879597F9089591505040660FEB
:103DD000771F881FD2F708959F938F937F936F93D8
:103DE000FF93EF939B01AC010E941C1EEF91FF918A
:103DF0000E94001F2F913F914F915F910C941C1EC8
:103E0000DF93CF931F930F93FF92EF92DF927B018B
:103E10008C01689406C0DA2EEF010E942F1EFE016D
:103E2000E894A5912591359145915591A6F3EF011F
:103E30000E941F1CFE019701A801DA9469F7DF9028
:103E4000EF90FF900F911F91CF91DF910895A1E224
:103E50001A2EAA1BBB1BFD010DC0AA1FBB1FEE1F04
:103E6000FF1FA217B307E407F50720F0A21BB30B4F
:103E7000E40BF50B661F771F881F991F1A9469F7CB
:103E800060957095809590959B01AC01BD01CF0127
:103E90000895052E97FB1EF400940E94601F57FDA5
:103EA00007D00E94271F07FC03D04EF40C94601F1C
:103EB00050954095309521953F4F4F4F5F4F089556
:103EC00090958095709561957F4F8F4F9F4F089586
:103ED000EE0FFF1F0590F491E02D0994A29FB00111
:103EE000B39FC001A39F700D811D1124911DB29F2E
:103EF000700D811D1124911D08950E946E1FB7FF42
:103F00000895821B930B0895FB01DC0104C08D9181
:103F10000190801921F441505040C8F7881B990B3B
:103F20000895FB01DC018D91019080190110D9F3F6
:103F3000990B0895FB01DC014150504030F08D9108
:103F40000190801919F40020B9F7881B990B089586
:043F5000F894FFCF13
:103F540000C18081000000FFFFFFFF00E1000000BE
:103F640000000008FF00000000FFFF0000803F0089
:103F740000FF01FF0312131415000000007D052B40
:103F840006F005D5050001030405060708090A0E15
:103F94000F104D4B77736164813200000000E6041A
:103FA400D0041C054A03630521053F0500000000F9
:103FB400D107E806E807E7070D0A00474554005310
:103FC4004554200052455345544B455953005354CE
:103FD4004154450043414C0042544E200053504448
:103FE4000053504420004449414700524F5400526A
:103FF4004F5420004D4F4445004D4F444520300060
:0E4004004D4F44452031004D4F4445203200C1
:00000001FF
