:100000000C9493010C94C7010C94C7010C94C70184
:100010000C94C7010C94C7010C94C7010C94C70140
:100020000C94C7010C94C7010C945B0A0C94D80A79
:100030000C94C7010C94C7010C94C7010C94C70120
:100040000C94C7010C94C7010C94C7010C94C70110
:100050000C94C7010C94C7010C94C7010C94110AAD
:100060000C94C7010C94C7010C94C7010C94C701F0
:100070000C94C7010C94C7010C94C7010C94C701E0
:100080000C94C7010C94C7010C94C7010C94C701D0
:100090000C94C7010C94C7010C94C7010C94C701C0
:1000A0000C94C7010C94C7010C94C70105A84CCD52
:1000B000B2D44EB93836A9020C50B9918688083CA2
:1000C000A6AAAA2ABE000000803F05010902A101DC
:1000D0000901A1008504050919012903150025015D
:1000E00075019503810275059501810305010930AC
:1000F000093109381581257F750895038106C0C02F
:1001000005010905A1018503093009311601802681
:10011000FF7F75109502810205091901291015004C
:100120002501750195108102C043464700080B0068
:10013000020202000009040000010202000005247E
:100140000010010524010101042402060524060013
:10015000010705810310004009040100020A0000A4
:10016000000705020240000007058302400000046A
:1001700003090412010002EF02014009120200000B
:1001800001010203014A617370004A6173702053D8
:100190007469636B004F4B0044494147005354411D
:1001A000544520004F4B00455252004552520045E5
:1001B000525200455252004F4B004D4F44452000D3
:1001C0004F4B0045525200524F5420004F4B0045B8
:1001D00052520053504420004F4B00455252004FA2
:1001E0004B00070605040100080A0B0C0D0900006E
:1001F0000000240027002A002D003000000000002D
:100200002300260029002C002F00000000002500FC
:1002100028002B002E00310004040404040304050C
:100220000202020204030202020206060606060693
:100230000404020202040404080201104080401079
:1002400020408040800802040180402010020110FC
:100250008010204040200000000200090F00000331
:100260000401000C0000000000000000000000007D
:10027000000000000000000000000000002A2B2801
:10028000000000000000000000000000000000006E
:1002900000000000002C9EB4A0A1A2A434A6A7A533
:1002A000AE362D3738271E1F20212223242526B3C2
:1002B00033B62EB7B89F8485868788898A8B8C8DC4
:1002C0008E8F909192939495969798999A9B9C9DD6
:1002D0002F3130A3AD350405060708090A0B0C0DB4
:1002E0000E0F101112131415161718191A1B1C1DB6
:1002F000AFB1B0B50005010906A1018502050719D6
:10030000E029E71500250175019508810295017521
:10031000088103950675081500257305071900293E
:10032000738100C0710D11241FBECFEFDAE0DEBF74
:10033000CDBF14BE0FB6F894A89580916000886177
:1003400080936000109260000FBE23E0AEEBB1E03E
:1003500001C01D92A630B207E1F711E0A0E0B1E0C4
:10036000EAEDFDE302C005900D92AE3BB107D9F76F
:1003700011E0C3E9D1E004C02197FE010E94AB1E49
:10038000C239D107C9F70E94BE0D0C94EB1E0C9424
:10039000000083E08093E9008091F200882319F047
:1003A0008AE38093E8000895FC01809196028823F7
:1003B00011F13FB7F89482E08093E9002091F200B8
:1003C000822F90E01816190614F481E090E088233B
:1003D00039F0289844E6409395024091F10040831B
:1003E000222339F02091F200211103C02BE6209343
:1003F000E8003FBF08958FEF9FEF089581508F3041
:1004000008F047C0E82FF0E0E85FFD4F0C94AB1E0A
:100410002502290217021D0221024902490249024E
:100420002C02320236023A02400249024402809112
:1004300080008F77809380000895809180008F7D69
:10044000F9CF80918000877FF5CF84B58F7784BD09
:10045000089584B58F7DFBCF809190008F77809336
:1004600090000895809190008F7DF9CF8091900049
:10047000877FF5CF8091C0008F778093C00008956B
:100480008091C0008F7DF9CF8091C200877F8093DB
:10049000C20008951F93CF93DF93E8E5F2E09491B3
:1004A000E9E3F2E0D491EAE1F2E0C491CC23B9F0BF
:1004B000182F992319F0892F0E94FE01EC2FF0E0EC
:1004C000EE0FFF1FE65FFD4FA591B4918FB7F89433
:1004D000EC91111108C0D095DE23DC938FBFDF9122
:1004E000CF911F910895DE2BF8CFCF93DF93282F64
:1004F00030E0F901EA5AFD4F8491F901E95CFD4FC2
:10050000D491F901E85EFD4FC491CC23A1F0811193
:100510000E94FE01EC2FF0E0EE0FFF1FE450FE4FB3
:10052000A591B491EC91ED2381E090E009F480E095
:10053000DF91CF91089580E090E0FACFCF93DF93E1
:1005400090E0FC01E95CFD4F2491885E9D4FFC0129
:1005500084918823D1F090E0880F991FFC01E2512B
:10056000FE4FA591B491FC01E65FFD4FC591D4917A
:10057000623071F49FB7F8943C91822F8095832369
:100580008C93E8812E2B28839FBFDF91CF91089514
:100590008FB7F894EC912E2B2C938FBFF6CF82312E
:1005A00008F08251E82FF0E0EE51FE4FE491909177
:1005B0007B008E2F880F880F80729F7D892B809300
:1005C0007B00E770E064E0937C0080917A008064B7
:1005D00080937A0080917A0086FDFCCF809178002C
:1005E0009091790008953FB7F8948091910290918D
:1005F0009202A0919302B091940226B5A89B05C0E7
:100600002F3F19F00196A11DB11D3FBFBA2FA92F91
:10061000982F8827BC01CD01620F711D811D911D8E
:1006200042E0660F771F881F991F4A95D1F70895FA
:100630008F929F92AF92BF92CF92DF92EF92FF92F2
:100640004B015C010E94F3026B017C010E94F302EA
:100650006C197D098E099F09683E734081059105DB
:10066000A8F321E0821A9108A108B10888EEC80E0B
:1006700083E0D81EE11CF11C81149104A104B10493
:1006800029F7FF90EF90DF90CF90BF90AF909F90B1
:100690008F9008950C94C90140910102509102027B
:1006A0002091FF013091000242175307B4F490915A
:1006B000E8009570E1F39091E80092FD19C08093F5
:1006C000F100809101029091020201968F739927A7
:1006D000892B19F48EEF8093E800809101029091AC
:1006E00002020196909302028093010281E0089534
:1006F00080E00895EF92FF920F931F93CF93DF93C3
:10070000F82E192FE62E042F81E0860F880F0E9405
:100710004C0383E00E944C03CF2DD12FEC0EFD2E15
:10072000F11CCE15DF05B9F007FF13C0FE0184915F
:100730000E944C03182F80E00E944C0381232196D5
:100740008111EFCFDF91CF911F910F91FF90EF902B
:1007500008958881EDCF81E0F5CFDF92EF92FF928F
:100760000F931F93CF93DF93D82E8A01EB017B0168
:10077000E40EF51ECE15DF0559F0D7FE12C0FE01BE
:1007800084910E944C0321968111F4CF0FEF1FEF4B
:10079000C801DF91CF911F910F91FF90EF90DF90F3
:1007A00008958881EECF2FB7F89487708093E90081
:1007B0009091E800892F807295FF04C09091F2001B
:1007C00080E4891B2FBF08957F928F929F92AF92F2
:1007D000BF92CF92DF92EF92FF920F931F93CF932E
:1007E000DF93C82E8B017A0180919602811110C08F
:1007F0008FEF9FEFDF91CF911F910F91FF90EF90BF
:10080000DF90CF90BF90AF909F908F907F90089592
:100810008091050280FF05C08091E0008260809396
:10082000E000CE2DDF2DD12C8AEFB82E8C2D8770D5
:10083000982E8C2D8072882E8C2D8074782E9AE3C1
:10084000A92E209719F4DD2009F452C08C2D0E94A6
:10085000D30381110AC0BA94BB2051F261E070E069
:1008600080E090E00E941803ECCF8C171D0611F079
:100870000CF08C2F9FB7F8949092E9002091E8003B
:1008800025FD02C09FBFDDCF282F30E0C21BD30B58
:10089000882029F08150A0F01092F100FBCFF801E0
:1008A000C7FC0AC0815050F041914093F100FACF4B
:1008B00044914093F10031968150D0F7020F131FFD
:1008C000DD2021F0A092E800D12CDCCF8091E8005F
:1008D00085FD07C0A092E800DD24D394209791F213
:1008E000F3CF209779F6772069F2A092E800CACF7B
:1008F0005D9884E680930402C7017CCF615030F09C
:100900002091F100FC0120830196F8CF289884E61D
:100910008093950208958091F70181110DC082E0C6
:100920008093F30184E08093F4011092F601109219
:10093000F50181E08093F70183EF91E008950F9333
:100940001F93CF93DF931F92CDB7DEB782E08983E9
:1009500042E450E06DE271E080E80E94AD030E9445
:100960008B04DC0112960D911C910115110589F083
:10097000D801ED91FC910280F381E02DBE016F5F03
:100980007F4FC801099597FD04C0F80100851185C6
:10099000ECCF89810F90DF91CF911F910F91089536
:1009A000CF93DF93EC0180911201882331F083E033
:1009B0000E94E4031816190634F081E090E09B834E
:1009C0008A8380E090E0DF91CF910895CF93DF9309
:1009D0001F92CDB7DEB76983DC01ED91FC910280F7
:1009E000F381E02D41E050E0BE016F5F7F4F09953C
:1009F0000F90DF91CF910895682F87E992E00C94D2
:100A0000E6040F931F93CF93DF938C01D0E0C0E0F7
:100A1000F801EC0FFD1F6491662341F087E992E035
:100A20000E94E604892B11F02196F2CFCE01DF91CE
:100A3000CF911F910F91089583E00E94D30390E01E
:100A40000895CF93DF931F92CDB7DEB7FC01848565
:100A5000958597FD08C02FEF3FEF358724870F90CE
:100A6000DF91CF910895CE0101960E94D4010197A4
:100A700019F4898190E0F3CF8FEF9FEFF0CF0F93C0
:100A80001F93CF93DF931F92CDB7DEB78C01FC018C
:100A90008485958597FF0BC0CE0101960E94D401F5
:100AA000019771F4898190E0F80195878487F801B6
:100AB000848595850F90DF91CF911F910F910895B7
:100AC0008FEF9FEFF1CFFC018485958597FD0BC0DB
:100AD0009FB7F89482E08093E9008091F2009FBF75
:100AE00090E0019608959FB7F89482E08093E90022
:100AF0008091F2009FBF90E00895DC01FB01129607
:100B00002C911297848195812817190641F49181BF
:100B10008081813A31F49D7F81E0913009F080E05D
:100B200008958132E1F79B3029F482811F968C93DE
:100B300081E008959A3099F7828150968C93F8CF8E
:100B4000AF92BF92CF92DF92EF92FF920F931F93DB
:100B5000CF93DF931F92CDB7DEB77C0169836A0123
:100B6000590141E050E0BE016F5F7F4FFC0183817E
:100B70000E94E4038C0197FD0BC0F7018381A5015E
:100B8000B60180640E94E403080F191F97FD8C01D1
:100B9000C8010F90DF91CF911F910F91FF90EF90BF
:100BA000DF90CF90BF90AF900895DC01FB0188E407
:100BB000808389E4818384E482831D969C911D97C0
:100BC0009F709F5B93831D968D919C9124E09695D9
:100BD00087952A95E1F78F708F5B848385E0089570
:100BE000EF92FF920F931F93CF93DF93FB0120812E
:100BF000213871F52381223259F5DC0112964C918E
:100C0000248135814217130619F5EC010B851C85EB
:100C1000F12CE12C0115110589F0F8014481558171
:100C20006281738180E80E94AD038F3F980749F08D
:100C3000E80EF91ED8010D911C91ECCF81E08F8751
:100C4000C701DF91CF911F910F91FF90EF90089511
:100C500090E080E0F6CFCF93DF93CDB7DEB7699712
:100C60000FB6F894DEBF0FBECDBFFC01DB018C9147
:100C70008F5F8C939E012D5F3F4F8DE0D9011D92B8
:100C80008A95E9F729E0298384E08A8391E09D83AE
:100C900083E08E832A8721E22B879C879D879F870D
:100CA00022E2288B27E02B8B25E02C8B8E8B20E4F7
:100CB00030E0388F2F8B998F82818B839585868545
:100CC000998B8A8B838180688D8B49E150E0BE01CE
:100CD0006F5F7F4F80E00E94AD0369960FB6F89476
:100CE000DEBF0FBECDBFDF91CF910895CF93DF93CD
:100CF0008091EB01811167C081E08093DE018093D8
:100D0000DF0124EE31E03093E1012093E001109205
:100D1000E3011092E2012DE231E03093DB012093F8
:100D2000DA011092E6011092E5011092E8011092AA
:100D3000E7018093E9018093EA0181EC8093E4016B
:100D40000E948B04FC0181819091DE01482F490FA4
:100D50005527551F483051059CF5A281B381109746
:100D600009F52AED31E03383228320812093DC01D1
:100D70008093DD018091DF01820F80832091E0016B
:100D8000A22FB091E1018A2F821B8917C8F48181BB
:100D90003D91C82FD0E0C050DF4F38838F5F8183F3
:100DA000F2CFD90118962D913C9119972115310553
:100DB000C1F72AED31E019963C932E931897D5CFC1
:100DC00081E08093EB018AED91E0DF91CF9108956E
:100DD000CF92DF92EF92FF920F931F93CF93DF9307
:100DE0006C01EB017B01E40EF51E10E000E0CE1576
:100DF000DF0581F069916D30D1F3D601ED91FC9161
:100E00000190F081E02DC6010995892B19F00F5F43
:100E10001F4FEDCFC801DF91CF911F910F91FF9030
:100E2000EF90DF90CF900895CF93DF93EC01683877
:100E3000E0F06858FE0186E0662321F09681961363
:100E400001C01682815031968111F6CF0E9476063C
:100E5000AE014C5F5F4F28E030E062E00E94A005E9
:100E600081E090E0DF91CF910895862F90E067FFB9
:100E70000FC0FC01E058F10981E090E001C0880F4B
:100E8000EA95EAF780959C8189238C8360E0D2CF34
:100E9000EC85FD85E80FF91F649190E080E0662302
:100EA00009F3862F807C803C49F48C818F7B8C8376
:100EB0006F73623309F0BECF64E6BCCF67FFF9CF32
:100EC0008C818D7F8C836F77F4CFCF93DF93EC0190
:100ED000683858F168588E818617D1F08F8186174F
:100EE000B9F088858617A1F08985861789F08A85EB
:100EF000861771F08B85861759F0FE01369690E0C3
:100F000080E02191211147C08C0F9D1FFC01668359
:100F10000E947606AE014C5F5F4F28E030E062E051
:100F20000E94A00581E090E01FC0862F90E067FF3F
:100F30000EC0FC01E058F10921E030E001C0220FB1
:100F4000EA95EAF78C81822B8C8360E0C4CFEC8534
:100F5000FD85E80FF91F6491611109C081E090E0FF
:100F60009B838A8390E080E0DF91CF910895862F64
:100F7000807C803C49F48C8180648C836F73623305
:100F800009F0A9CF64E6A7CF67FFF9CF8C81826013
:100F90008C836F77F4CF01968630910509F0B1CF3D
:100FA000DDCFEF92FF921F93CF93DF93EC01162FCB
:100FB0000E9465077C01612FCE010E941407C701C2
:100FC0009927DF91CF911F91FF90EF900895089599
:100FD00090E080E008958F929F92AF92BF92CF925F
:100FE000DF92EF92FF92CF93DF939C012553334F13
:100FF00027393941D0F1BC0197FF04C06627772714
:10100000681B790BEC016C5C7C40072E000C880B94
:10101000990B0E946B1C20E036E646EE56E40E94D7
:10102000C11B6B017C016091130170E090E080E0D6
:101030000E946B1C4B015C01A7019601C701B60120
:101040000E945F1D9B01AC01C501B4010E945F1DA0
:10105000D7FD9058DF91CF91FF90EF90DF90CF9028
:10106000BF90AF909F908F90089560E070E0CB01AB
:10107000F1CF262FFC01EC5AFD4F3081361761F07D
:101080006083895F9D4FFC01628185EF92E02111B1
:101090000C9465070C9414070895CF92DF92EF9299
:1010A000FF92CF93DF93EC01A0910E026B01770FBB
:1010B000EE08FF08FC01EC5AFD4F80818823E1F027
:1010C000AF50BB0B2FEF3FE70E94C01E24E630E07D
:1010D00040E050E00E948C1E61E02C153D054E055D
:1010E0005F050CF060E0CE01DF91CF91FF90EF90B3
:1010F000DF90CF900C9439082A2F30E0AFEFBFE794
:101100000E94B11EE3CFCF93DF93D0E0C0E060E058
:10111000CE010E9439082196C530D105C1F7DF9173
:10112000CF910895DC0123E53AE42D933D9326E029
:10113000EFE1F1E001900D922A95E1F726E0EFE171
:10114000F1E0DC01189601900D922A95E1F70895DF
:101150008F929F92AF92BF920F931F93CF93DF9383
:10116000CDB7DEB7A1970FB6F894DEBF0FBECDBFE7
:1011700019A2423008F44AE08E010F5D1F4F842E01
:10118000912CB12CA12CA50194010E946A1EE62F7E
:10119000B901CA01EA3044F5E05DD801EE938D0152
:1011A000232B242B252B79F790E080E0109769F012
:1011B000FD0101900020E9F73197AF014A1B5B0B5D
:1011C000BD0187E992E00E94D004A1960FB6F89481
:1011D000DEBF0FBECDBFDF91CF911F910F91BF90AA
:1011E000AF909F908F900895E95CD7CF42E050E098
:1011F00068E671E087E992E00C94D004CF93DF9326
:101200000E940105EC010E94F6088C0F9D1FDF91E2
:10121000CF910895CF93DF93682F70E090E080E046
:101220004AE00E94A808EC010E94F6088C0F9D1F5E
:10123000DF91CF910895CF92DF92EF92FF92CF93FB
:10124000DF936C01990FEE08FF08F7FE17C08DE2DF
:101250000E94FC04EC0166277727CB016C197D09FD
:101260008E099F094AE00E94A8088C0F9D1FDF91FC
:10127000CF91FF90EF90DF90CF9008954AE0C701A3
:10128000B601DF91CF91FF90EF90DF90CF900C945B
:10129000A808CF93DF9389E291E00E940105C9E09D
:1012A000D2E080E20E94FC04699170E090E080E06E
:1012B0004AE00E94A80882E0CE30D80791F780E289
:1012C0000E94FC0480910E02DF91CF910C940A09D8
:1012D000CF92DF92EF92FF9280930F02682F880FD8
:1012E000770B880B990B0E946B1C2BED3FE049E4B8
:1012F00050E40E945F1D20E030E044E353E40E948C
:10130000C11B6B017C010E94BC1B60931B0170938D
:101310001C0180931D0190931E01C701B6010E941C
:10132000CC1D60936702709368028093690290936A
:101330006A02FF90EF90DF90CF900895FF920F9395
:101340001F93CF93DF93EC01F62E08811981C8011A
:101350000E94341BF81621F06F2DC8010E943C1B1F
:10136000CE01DF91CF911F910F91FF900895CF9201
:10137000DF92EF92FF920F931F93CF93DF9300D0F2
:10138000CDB7DEB76C017C0110E000E01A83098361
:10139000F70161917F01CE0101960E949E090F5FC6
:1013A0001F4F0E30110591F7C6010F900F90DF917E
:1013B000CF911F910F91FF90EF90DF90CF90089504
:1013C000EF92FF920F931F93CF93DF9300D0CDB78F
:1013D000DEB78C010E94830888E0F801A7E0B2E044
:1013E00001900D928A95E1F787E0E82E82E0F82ED1
:1013F00000E410E01A830983F70161917F01CE01B7
:1014000001960E949E090F5F1F4F0834110591F746
:101410000F900F90DF91CF911F910F91FF90EF9060
:1014200008951F920F920FB60F9211242F933F939E
:101430008F939F93AF93BF9380918D0290918E0273
:10144000A0918F02B091900230918C0223E0230F83
:101450002D3758F50196A11DB11D20938C02809364
:101460008D0290938E02A0938F02B0939002809190
:10147000910290919202A0919302B09194020196F0
:10148000A11DB11D8093910290939202A0939302AB
:10149000B0939402BF91AF919F918F913F912F9103
:1014A0000F900FBE0F901F90189526E8230F0296FD
:1014B000A11DB11DD2CF1F920F920FB60F92112412
:1014C0002F933F934F935F936F937F938F939F934C
:1014D000AF93BF93CF93EF93FF93C091E1008091BF
:1014E000E100837F8093E100C3FF0FC01092E90009
:1014F00081E08093EB001092EC0082E38093ED009A
:101500001092960288E08093F000C2FF1AC00E94F9
:10151000C90180910402882341F080910402815026
:1015200080930402811101C05D9A80919502882305
:1015300041F080919502815080939502811101C004
:10154000289AC4FF23C08091E2008E7E8160809340
:10155000E2008091E1008F7E8093E100809105029E
:101560008E7E806180930502FF91EF91CF91BF91B4
:10157000AF919F918F917F916F915F914F913F912B
:101580002F910F900FBE0F901F901895C0FFECCFBA
:101590008091E2008E7E80618093E2008091E10084
:1015A0008E7E8093E100809105028E7E8160DACF8D
:1015B0001F920F920FB60F921124CF92DF92EF92EB
:1015C000FF920F931F932F933F934F935F936F93CC
:1015D0007F938F939F93AF93BF93EF93FF93CF939B
:1015E000DF93CDB7DEB76C97DEBFCDBF1092E900B9
:1015F0008091E80083FF25C068E0CE0145960E94F7
:101600007E0482EF8093E8008D8987FF39C0909136
:10161000E80090FFFCCF982F907609F034C19E89A6
:101620004F89588D2F89F88C911131C0803861F520
:10163000809106028093F1001092F1008EEF80936A
:10164000E8006C960FB6F894DEBF0FBECDBFDF91F9
:10165000CF91FF91EF91BF91AF919F918F917F912A
:101660006F915F914F913F912F911F910F91FF903B
:10167000EF90DF90CF900F900FBE0F901F901895B6
:101680009EEF9093E800C7CF1092F100D5CF913034
:1016900059F48111D3CF4130510581F68091060272
:1016A0008D7F80930602CACF933049F48111C6CF53
:1016B0004130510519F6809106028260F2CF9530D3
:1016C00041F48091E80080FFFCCF20682093E30084
:1016D000B5CF963009F0A9C00B8D1C8D22E0109279
:1016E000E9001092020210920102F2122EC0109232
:1016F00000021092FF010E949F041F8299E09983CB
:10170000FA8291E09E8390EA98879AEF99872091D8
:10171000010230910202275F3F4F3C832B838D8370
:101720001092E9001092020210920102109300023E
:101730000093FF0149E050E0BE016F5F7F4F80E002
:101740000E94AD030E949F0479CF10930002009382
:10175000FF010E948B04DC0112960D911C91011572
:10176000110509F451C1D801ED91FC910480F58176
:10177000E02DBE016B5E7F4FC8010995009709F00F
:101780003EC1F80100851185EACFF3E0FF120EC0DB
:101790008F89882309F440C0823061F440E86AE010
:1017A0008AE891E00E947A03811148CF81E2809318
:1017B000EB0047CF813029F440E864E085E891E010
:1017C000F1CF833099F70E948B04DC011296ED90E3
:1017D000FC908E010F5F1F4F6801E114F10479F056
:1017E000D701ED91FC910680F781E02DB801C7018A
:1017F0000995080F111DF701E084F184EECFD8019F
:101800001C92F60101900020E9F73197BF016C1995
:101810007D0940E0C601C6CF6FE671E0FB0144914F
:1018200050E080E80E94AD0309CF973009F4BECFA5
:10183000983021F481E08093F10000CF993009F0D5
:10184000FDCE837009F0B2CFE1E0F1E081E031E05C
:1018500096E32191222371F08093E9003093EB000D
:10186000DF0111972C912093EC009093ED008F5F96
:10187000873079F78EE78093EA001092EA008F892B
:1018800080939602DBCE8B8D9C8D1092E900109296
:10189000020210920102909300028093FF01898D51
:1018A000811192C08E899D89913A49F4813209F063
:1018B0007DCF47E050E06BE071E080E0B3CF913244
:1018C00009F074CF833269F48F89988DB0E0A0E07D
:1018D0008093070190930801A0930901B0930A0136
:1018E000ADCE803269F48091E80082FFFCCF67E0E2
:1018F0008BE091E00E947E048BEF8093E8009ECE07
:10190000823209F09BCE8F8980931201EEEFFFE7C0
:10191000859194918B3F9C4D51F1E0E0F8E08091EE
:101920000B0190910C01A0910D01B0910E01803B33
:101930009440A105B105F1F48091120180FD1AC017
:10194000EE3F8AE0F80789F587E797E79183808380
:10195000809160008093030288E19BE00FB6F894C9
:10196000A895809360000FBE9093600067CEEEEF65
:10197000FAE0D5CF808191818737974709F05ECE15
:10198000A895809160008861809360008091030237
:1019900080936000EE3F2AE0F20789F08091FE0A12
:1019A0009091FF0A9183808349CE8081918187370E
:1019B000980751F29093FF0A8093FE0AC5CF1092C8
:1019C000FF0A1092FE0A3ACE0E948B04DC011296A6
:1019D0000D911C910115110509F4E8CED801ED9186
:1019E000FC910190F081E02DBE016B5E7F4FC8013C
:1019F0000995811123CEF80100851185EBCF1816CA
:101A000019060CF41BCED2CEF1E0FF12BECE63E776
:101A100071E004CFFC01A385B485109771F474873D
:101A2000638785859685DB0114962D913C91820F05
:101A3000931F968785870895DC018D919C9111975E
:101A40000097D1F76D937C93ECCFCF93DF93EC01AC
:101A500080E690E00E94341B9FEF980F923020F0B8
:101A60001882DF91CF91089588838130F1F49091AD
:101A7000D201911112C01092CD011092CC0120E040
:101A800031E03093CF012093CE0129E230E0309352
:101A9000D1012093D0018093D2010E9476066CEC94
:101AA00071E0DF91CF910C940A0D8091C4018111F6
:101AB00013C01092BF011092BE018AEC90E0909387
:101AC000C1018093C00186E390E09093C3018093AD
:101AD000C20181E08093C4010E9476066EEB71E042
:101AE000E0CF10929A021092990288EE93E0A0E063
:101AF000B0E080939B0290939C02A0939D02B093D0
:101B00009E028EE491E090939802809397028FEF6B
:101B10009FEF9093A4028093A3021092F802109278
:101B2000F70280E691E09093F6028093F5028091AF
:101B3000ED02811113C01092E8021092E70285EFC6
:101B400092E09093EA028093E9028FE290E0909312
:101B5000EC028093EB0281E08093ED020E94760616
:101B600067EE72E00E940A0D85E792E0909302030F
:101B70008093010383E093E00C94250DCF93DF93D2
:101B8000CDB7DEB7C05ED1090FB6F894DEBF0FBE89
:101B9000CDBF789484B5826084BD84B5816084BDF6
:101BA00085B5826085BD85B5816085BD80916E00FB
:101BB000816080936E00109281008091810082602C
:101BC0008093810080918100816080938100809169
:101BD000800081608093800080919100826080937A
:101BE000910080919100816080939100809190009C
:101BF0008160809390008091C10084608093C100D7
:101C00008091C10082608093C1008091C100816099
:101C10008093C1008091C30081608093C300809154
:101C2000C00082608093C0008091C2008160809378
:101C3000C20080917A00846080937A0080917A005B
:101C4000826080937A0080917A00816080937A002C
:101C500080917A00806880937A00109296021092A8
:101C60000602109205028091D70081608093D70010
:101C700080EA8093D80089B5806189BD89B582608A
:101C800089BD09B400FEFDCF61E070E080E090E026
:101C90000E9418038091D8008F7C80618093D800C7
:101CA0008091E000807F8093E0008091E1008E7E53
:101CB0008093E1008DE08093E200559A209A62E0E3
:101CC0008EE00E949E0262E080E10E949E0202E499
:101CD00011E025E331E0C653DF4F39832883CA5C26
:101CE000D04062E0C653DF4FA881B981CA5CD040C2
:101CF0008D91C653DF4FB983A883CA5CD0400E9440
:101D00009E02C653DF4F48805980CA5CD0400415FC
:101D1000150539F762E08FE00E949E0261E082E0E3
:101D20000E949E0280E00E944A0282E690E00E94A9
:101D3000341B182F83E690E00E94341B853A21F46F
:101D4000163A14F01B350CF010E0812F0E94680940
:101D500084E690E00E94341B9FEF980F943108F0C6
:101D600088E08093130157E0E52E52E0F52E00E461
:101D700010E0C8010E94341BD7018D937D010F5FD5
:101D80001F4F08341105A9F78091070290910802AE
:101D90008D349B4429F480910E0284518C3448F098
:101DA00088E0E2E4F1E0A7E0B2E001900D928A95CC
:101DB000E1F78FEF9FEF9093A4028093A30285E752
:101DC00092E090930203809301034090250150908C
:101DD00026016090270170902801C352DF4F48828E
:101DE00059826A827B82CD5DD04080918B028111C5
:101DF000BCC08FE00E9475027C01BB24B394892B88
:101E000009F0B12C8E0103571F4FD12CC12C902EFD
:101E1000A12EC6010E94341BD8018D938D01BFEF06
:101E2000CB1ADB0AEEE0CE16D10499F78EE0E92D4D
:101E3000FA2DDE01AF58BF4F01900D928A95E1F760
:101E4000E114F10411F5CE0181589F4F0E949208D0
:101E5000CE0181589F4F0E94B70903E010E081E056
:101E60000E944A0268E770E080E090E00E94180358
:101E700080E00E944A0268E770E080E090E00E9403
:101E800018030150110959F723C08EE0FE01EF58E5
:101E9000FF4FDE01AD59BF4F01900D928A95E1F7DA
:101EA000E3968EAD9FADE3978335FAE49F0709F083
:101EB00093C0A5969FAF8EAFA5978EE0FE01ED591A
:101EC000FF4FDE01A158BF4F01900D928A95E1F7B7
:101ED0008EE0FE01E158FF4FDE01AB5ABF4F01908B
:101EE0000D928A95E1F78EE0FE01EB5AFF4FDE017D
:101EF000D99601900D928A95E1F728961FAE289702
:101F000081E0EF2809F480E029968FAF29972A967F
:101F10001FAE2A972B961FAE2B972F961CAE1DAE89
:101F20001EAE1FAE2F976096BFAE60976196BFAE94
:101F3000619765961CAE1DAE1EAE1FAE65978CE117
:101F4000FE01F996AFE6B2E001900D928A95E1F7B5
:101F50000E94F30260936B0270936C0280936D0297
:101F600090936E0281E080938B0292E6692E712C31
:101F700023E6E22EF12C5524539434E6C32ED12CC3
:101F800049E5A42E42E0B42E87E992E00E94630561
:101F9000181619060CF082C287E992E00E9421050A
:101FA0008D3091F320914002309141028A3009F046
:101FB00065C2205F3D4FD9011C926BE671E080E164
:101FC00092E00E94D41E892B69F40E944909109264
:101FD000410210924002D8CFCE0181589F4F0E94FB
:101FE000920876CF44E050E06FE671E080E192E045
:101FF0000E94DD1E8C01892B09F060C088E0E7E0BB
:10200000F2E0DE01A158BF4F01900D928A95E1F7F1
:10201000FE01E158FF4F4F0184E192E001151105E7
:1020200011F090E080E064E971E00E94EB1A009703
:1020300029F48FEA91E00E94FE08C9CF0E94C41AD9
:102040009B01AC0121503109410951092F3F310554
:102050004105510518F08BEA91E0EDCF05301105EF
:10206000F9F0D40112966C930F5F1F4FBFEF8B1ADC
:102070009B0A0630110581F6C158DF4F888199818E
:10208000CF57D0408D349B4441F4CA57DF4F8881ED
:10209000C658D04084518C3448F087EA91E0CBCFC9
:1020A000CA57DF4F6883C658D040DECFCE01815873
:1020B0009F4F0E94E00984EA91E0BDCF64E771E0A0
:1020C00080E192E00E94D41E892B29F482E491E001
:1020D0000E94E0097ACF6EE771E080E192E00E9411
:1020E000D41E892BF1F58DE991E00E9401058091C4
:1020F0006502909166020E941B0980E20E94FC0426
:1021000080916302909164020E941B0980E20E9408
:10211000FC0480916102909162020E941B0980E29E
:102120000E94FC0480915F02909160020E941B0952
:1021300080E20E94FC0480915E0290E00E941B09F4
:1021400004E512E080E20E94FC04D8018D918D012B
:1021500090E00E941B09A016B106A1F70E94F608A4
:1021600036CF64E871E080E192E00E94D41E892BB2
:1021700029F4509247028FED91E05DCF44E050E0AA
:1021800068E871E080E192E00E94DD1E892B49F54C
:1021900084E192E00E94A61A20910303213031F4D9
:1021A0009C01215031092431310518F08BED91E06B
:1021B00042CF80935D022FB7F89480918D02909169
:1021C0008E02A0918F02B09190022FBF809359028E
:1021D00090935A02A0935B02B0935C0288ED91E069
:1021E0002ACF6DE871E080E192E00E94D41E892B35
:1021F00049F483ED91E00E940105809113010E9452
:102200000A09E5CE44E050E061E971E080E192E046
:102210000E94DD1E892BF1F484E192E00E94A61A4F
:102220009C01215031092431310518F08FEC91E0E7
:1022300002CF80931301C158DF4FD982C882CF5794
:10224000D040682FCE0181589F4F0E949E098CEC90
:1022500091E0F1CE66E971E080E192E00E94D41E47
:10226000892B09F053C088E991E00E940105C3520F
:10227000DF4F288139814A815B81CD5DD040C158D3
:10228000DF4F288339834A835B83CF57D0408E0149
:1022900001581F4F480134E0830E911C80E20E94D8
:1022A000FC04D8018D918D010E94CF020E941B0970
:1022B0008016910699F780E20E94FC0405E311E084
:1022C000812CF80191908F01892D0E947502892B34
:1022D00071F4882019F08CE20E94FC04692D70E0F2
:1022E00090E080E04AE00E94A80888248394C653C6
:1022F000DF4F28813981CA5CD0402017310709F7A8
:1023000081102CCF8DE20E94FC0428CF6BE971E094
:1023100080E192E00E94D41E892B61F487EC91E069
:102320000E94010580910F02082E000C990B0E945B
:102330001B0914CF44E050E06FE971E080E192E0C6
:102340000E94DD1E892B59F584E192E00E94A61AB5
:102350008C01865A9F4F853B910518F083EC91E0E4
:102360006ACE802F0E946809C158DF4F7982688247
:10237000CF57D040602FCE0181589F4F0E949E09B9
:10238000C158DF4FF982E882CF57D04065EACE01CD
:1023900081589F4F0E949E0980EC91E04CCE64EAE8
:1023A00071E080E192E00E94D41E892B39F48AEB1F
:1023B00091E00E9401058091030321CF69EA71E059
:1023C00080E192E00E94D41E892B89F060EB71E0DD
:1023D00080E192E00E94D41E892B49F067EB71E006
:1023E00080E192E00E94D41E892B09F03FC0109139
:1023F0001502105380910303181303C087EB91E07B
:102400001ACE0E94830880E690E0C158DF4F99837E
:102410008883CF57D040612FCE0181589F4F0E94B3
:102420009E0985E991E00E94FE080E94C90164E6C8
:1024300070E080E090E00E94180368EC70E080E0BB
:1024400090E00E9418031092010810920008109268
:10245000FF0A1092FE0A88E198E00FB6F894A8955A
:10246000809360000FBE90936000FFCF80911002B8
:10247000882309F4ACCD83EB91E0DDCD2F3231051B
:102480000CF082CDA9014F5F5F4F50934102409302
:102490004002205F3D4FD9018C9376CD0E94F3021C
:1024A00000916B0210916C0220916D0230916E02CE
:1024B000AB01BC01401B510B620B730B77FD32C7A4
:1024C000D901C80188519C4FAF4FBF4F80936B0219
:1024D00090936C02A0936D02B0936E020E94F3027F
:1024E00000916B0210916C0220916D0230916E028E
:1024F000601B710B820B930B161617061806190634
:1025000074F40E94F30268517C4F8F4F9F4F609389
:102510006B0270936C0280936D0290936E028FB782
:10252000F894C0908D02D0908E02E0908F02F090CF
:1025300090028FBF83E10E94CF02CD54DF4F998379
:102540008883C35BD04082E10E94CF02CB54DF4F2F
:1025500099838883C55BD04080E10E9475028C011D
:10256000892B21F08EE00E9475028C018091470238
:10257000882369F01092470281E080934602C0925E
:102580004202D0924302E0924402F09245028091CE
:1025900046028823B9F08091420290914302A091B3
:1025A0004402B091450226013701481A590A6A0AC5
:1025B0007B0AD301C20184369105A105B10510F053
:1025C00010924602B09046028FE00E947502E0E051
:1025D000892B19F081E0EB2DE82760906F02709055
:1025E0007002C952DF4F79826882C75DD040809007
:1025F000710290907202C154DF4F99828882CF5B42
:10260000D0404091730230917402A0907502B09056
:102610007602C954DF4FB982A882C75BD040409090
:10262000770250907802CF53DF4F59824882C15CC5
:10263000D0402091790290917A0260907B02709054
:102640007C02C554DF4F79826882CB5BD0403090EA
:102650007D0270907E02CA52DF4F7882C65DD04004
:1026600080907F02CB52DF4F8882C55DD040909032
:102670008002CD53DF4F9882C35CD04040908102EE
:10268000509082026090830270908402CF52DF4F9C
:10269000488259826A827B82C15DD0405090850217
:1026A000C053DF4F5882C05DD04080918602609059
:1026B0008702709088028090890290908A02C453A9
:1026C000DF4F688279828A829B82CC5CD04051E065
:1026D000012B09F050E0CB52DF4F7880C55DD04030
:1026E000571569F0CB52DF4F5883C55DD040CF52AC
:1026F000DF4FC882D982EA82FB82C15DD0402601C9
:102700003701CF52DF4F88809980AA80BB80C15D9E
:10271000D040481859086A087B086AE146165104F7
:102720006104710428F0CD53DF4F5883C35CD0405F
:10273000CD53DF4F2880C35CD04051E0BE2EB5267C
:10274000C053DF4F4880C05DD040B41469F0C0531F
:10275000DF4FB882C05DD040C453DF4FC882D982FA
:10276000EA82FB82CC5CD040C453DF4F6880798022
:102770008A809B80CC5CD040C618D708E808F9084E
:102780005AE1C516D104E104F10450F1C853DF4FFA
:10279000B882C85CD040C853DF4F4880C85CD04086
:1027A00051E08527411001C080E0CA52DF4F5880B8
:1027B000C65DD04051101AC0C853DF4F6880C85C56
:1027C000D040611006C051E0CA52DF4F5883C65D49
:1027D000D040312CC753DF4F1882C95CD0401AC09B
:1027E000C853DF4F8883C85CD040D5CF882391F38E
:1027F000332009F410C4312C63E57AE4C952DF4F69
:1028000079836883C75DD04071E0C753DF4F788319
:10281000C95CD040C952DF4F88809980C75DD040E5
:102820009E8E8D8EC154DF4FA880B980CF5BD04083
:10283000B8A2AF8E49A33AA3C954DF4F488059804C
:10284000C75BD0405CA24BA2CF53DF4F688079803A
:10285000C15CD0407EA26DA22FA398A7C554DF4FC4
:1028600088809980CB5BD0409AA689A63BA6CA52A5
:10287000DF4F9880C65DD0409CA6CB52DF4FA8802A
:10288000C55DD040ADA6CD53DF4FB880C35CD0400E
:10289000BEA6CF52DF4F488059806A807B80C15DE1
:1028A000D0404FA658AA69AA7AAAC053DF4F5880D1
:1028B000C05DD0405BAAC853DF4F6880C85CD04081
:1028C0006CAAC453DF4F88809980AA80BB80CC5CFF
:1028D000D0408DAA9EAAAFAAB8AE332009F4C2C0D8
:1028E00086E0FE017F96DE01AF55BF4F01900D924D
:1028F0008A95E1F7C154DF4FA880B980CF5BD04003
:10290000CD54DF4F48805980C35BD0404A145B04EC
:1029100034F4C154DF4F59824882CF5BD040C95450
:10292000DF4F68807980C75BD040CD54DF4F88800F
:102930009980C35BD0406814790434F4C954DF4FE4
:1029400099828882C75BD040C154DF4FA880B9808C
:10295000CF5BD040CF55DF4FB982A882C15AD0405B
:10296000C954DF4F48805980C75BD040CB55DF4FFB
:1029700059824882C55AD04086E0FE01EF55FF4F8C
:10298000DE01A556BF4F01900D928A95E1F786E0D2
:10299000FE01E556FF4FDE015F9601900D928A958C
:1029A000E1F786E0FE01B596DE01A355BF4F019029
:1029B0000D928A95E1F7CF53DF4F68807980C15C33
:1029C000D040CB54DF4F88809980C55BD0408614BF
:1029D000970434F4CF53DF4F99828882C15CD04092
:1029E000C554DF4FA880B980CB5BD040CB54DF4FBC
:1029F00048805980C55BD040A414B50434F4C55454
:102A0000DF4F59824882CB5BD040CF53DF4F688085
:102A10007980C15CD040C355DF4F79826882CD5A3E
:102A2000D040C554DF4F88809980CB5BD040CF54D5
:102A3000DF4F99828882C15BD04086E0FE01E3557A
:102A4000FF4FDE01A955BF4F01900D928A95E1F726
:102A500086E0FE01E955FF4FDE01959601900D924B
:102A60008A95E1F7C154DF4FA880B980CF5BD04091
:102A7000B8A2AF8EC954DF4F48805980C75BD040A1
:102A80005CA24BA2CF53DF4F68807980C15CD040FD
:102A90007EA26DA2C554DF4F88809980CB5BD04069
:102AA0009AA689A68CE1FE017D96DE011196019021
:102AB0000D928A95E1F7AD80BE80CC53DF4FB9828D
:102AC000A882C45CD0404B845C84CA53DF4F5982D7
:102AD0004882C65CD040311083C3CD54DF4F68803C
:102AE0007980C35BD0406A147B040CF4CFC2C95414
:102AF000DF4F08811981C75BD0400A191B091016E6
:102B000011060CF00AC3B3016A197B09072E000CE9
:102B1000880B990B0E946B1C6B017C01B801110F93
:102B2000880B990B0E946B1C9B01AC01C701B6017D
:102B30000E94C11B2B013C0120E030E0A9010E9452
:102B4000B71B87FDEAC220E030E040E85FE3C30145
:102B5000B2010E945A1D181634F4412C512C80E801
:102B6000682E8FE3782ECB54DF4F88809980C55B29
:102B7000D040CA53DF4FA880B980C65CD0408A14C9
:102B80009B040CF4D5C2C554DF4F08811981CB5B7F
:102B9000D0400A191B09101611060CF010C3B4011D
:102BA0006A197B09072E000C880B990B0E946B1C7D
:102BB0006B017C01B801110F880B990B0E946B1CF3
:102BC0009B01AC01C701B6010E94C11B6B017C01D6
:102BD00020E030E0A9010E94B71B87FDF0C220E091
:102BE00030E040E85FE3C701B6010E945A1D1816A5
:102BF00034F4C12CD12C10E8E12E1FE3F12EA301F7
:102C00009201C301B2010E945F1D4B015C01A7014B
:102C10009601C701B6010E945F1D9B01AC01C50171
:102C2000B4010E944B1B0E94DA1DC752DF4F68831C
:102C300079838A839B83C95DD0402DEC3CEC4CE4C6
:102C40005DE30E94B71B18160CF0C4C22DEC3CECDF
:102C50004CE45DE3C752DF4F688179818A819B81B3
:102C6000C95DD0400E944A1B23E333E343E75FE39F
:102C70000E94C11B4B015C0120E030E040E85FE3B3
:102C80000E945A1D181634F4812C912CA0E8AA2E0B
:102C9000AFE3BA2EC752DF4F288139814A815B8169
:102CA000C95DD040C501B4010E94C11B4B015C014C
:102CB000A30192010E945F1D2B013C01A701960117
:102CC000C501B4010E945F1D4B015C0120E03EEF95
:102CD0004FEF56E4C301B2010E945F1D0E94331CF6
:102CE0007B0120E03EEF4FEF56E4C501B4010E94A6
:102CF0005F1D0E94331C8B01C952DF4F48805980F1
:102D0000C75DD0405092700240926F02C154DF4FB5
:102D100068807980CF5BD0407092720260927102BD
:102D2000CC53DF4F88809980C45CD040909274026D
:102D300080927302C954DF4FA880B980C75BD0402E
:102D4000B0927602A0927502CF53DF4F488059802F
:102D5000C15CD0405092780240927702CA53DF4F54
:102D600068807980C65CD04070927A026092790265
:102D7000C554DF4F88809980CB5BD04090927C0215
:102D800080927B0230927D02CA52DF4F9880C65DEE
:102D9000D04090927E02CB52DF4FA880C55DD040DC
:102DA000A0927F02CD53DF4FB880C35CD040B09279
:102DB0008002CF52DF4F488059806A807B80C15D9E
:102DC000D0404092810250928202609283027092BF
:102DD0008402C053DF4F5880C05DD04050928502BE
:102DE000C853DF4F6880C85CD04060928602C453ED
:102DF000DF4F88809980AA80BB80CC5CD0408092D5
:102E0000870290928802A0928902B0928A02B7014A
:102E1000FF0C880B990B0E946B1C4B015C014090CE
:102E20001B0150901C0160901D0170901E01C9543F
:102E3000DF4F488259826A827B82C75BD040662717
:102E40007727601B710B072E000C880B990B0E94D3
:102E50006B1C2B013C01209167023091680240916C
:102E6000690250916A02C554DF4F288339834A832F
:102E70005B83CB5BD040C954DF4F288139814A81C5
:102E80005B81C75BD040C501B4010E945F1D6B012F
:102E90007C01C554DF4F288139814A815B81CB5B3E
:102EA000D040C301B2010E945F1D9B01AC01C7016C
:102EB000B6010E944B1B6B017C0120E03EEF4FEFFF
:102EC00056E40E945A1D0FEF1FE718168CF020E001
:102ED0003EEF4FEF56ECC701B6010E94B71B01E071
:102EE00010E887FD05C0C701B6010E94331C8B01A5
:102EF000A3019201C954DF4F688179818A819B8146
:102F0000C75BD0400E945F1D6B017C01C554DF4F41
:102F1000288139814A815B81CB5BD040C501B401F6
:102F20000E945F1D9B01AC01C701B6010E944A1BB4
:102F30006B017C0120E03EEF4FEF56E40E945A1DEA
:102F400018160CF452C120E03EEF4FEF56ECC701CB
:102F5000B6010E94B71B87FD4DC1C701B6010E9493
:102F6000331C7B0180910303813009F0EDC1CD5307
:102F7000DF4F4880C35CD040442029F021E030E09E
:102F8000332019F0212C30E020E080915D0288236D
:102F900009F43EC04FB7F89480918D0290918E0253
:102FA000A0918F02B09190024FBF40915902509171
:102FB0005A0260915B0270915C02841B950BA60B18
:102FC000B70B80399140A105B10508F0BAC18091D5
:102FD0005D02B12CA12CCC24CA944FE7D42E8231AF
:102FE00009F419C108F00BC1B12CA12CCC24C39455
:102FF00070E8D72E813109F40EC18150990B41E060
:1030000050E002C0440F551F8A95E2F7242B352B60
:103010005701680100C1CB54DF4F48805980C55B20
:10302000D040C554DF4F59824882CB5BD040CB544F
:10303000DF4F2881C55BD040CA54DF4F9881C65B03
:10304000D040CF53DF4F59824882C15CD040CD542D
:10305000DF4F68807980C35BD040C954DF4F7982ED
:103060006882C75BD040CD54DF4F4881C35BD040FE
:10307000CC54DF4F3881C45BD040C154DF4F7982DC
:103080006882CF5BD04033243394A4CBCC53DF4F42
:1030900008811981C45CD040C154DF4F8880998079
:1030A000CF5BD0400819190910161106B4F5CD549C
:1030B000DF4F68817981C35BD040CC53DF4FA8805C
:1030C000B980C45CD0406A197B09072E000C880BBC
:1030D000990B0E946B1C6B017C01B801110F880BCE
:1030E000990B0E946B1C9B01AC01C701B6010E94A9
:1030F000C11B2B013C0120E030E040E85FEB0E9467
:10310000B71B87FD0EC020E030E0A901C301B2016A
:103110000E945A1D18160CF026CD412C512C32015C
:1031200022CD412C512C00E8602E0FEB702E1BCDD0
:10313000CA53DF4F08811981C65CD040CF53DF4F9F
:1031400088809980C15CD0400819190910161106B1
:10315000B4F5CB54DF4F68817981C55BD040CA5349
:10316000DF4FA880B980C65CD0406A197B09072E62
:10317000000C880B990B0E946B1C6B017C01B80141
:10318000110F880B990B0E946B1C9B01AC01C701AE
:10319000B6010E94C11B6B017C0120E030E040E8D9
:1031A0005FEB0E94B71B87FD0EC020E030E0A90155
:1031B000C701B6010E945A1D18160CF020CDC12C73
:1031C000D12C76011CCDC12CD12CB0E8EB2EBFEB5D
:1031D000FB2E15CD812C912C54012401350176CD87
:1031E00010E000E0F12CE12C87CDEE24EA94FFE71B
:1031F000FF2EB8CEEE24E394E0E8FE2EB3CE83316A
:1032000009F49AC0AA24A39450E8B52E843109F099
:10321000F4CED12CC12CC158DF4FD982C882CF57F0
:10322000D040882799278A199B09CF57DF4F998368
:103230008883C158D040CD57DF4F39832883C35886
:10324000D04046E050E065E171E0CE0181589F4FEB
:103250000E94C71E892BC1F186E0FE01E158FF4F95
:10326000A5E1B1E001900D928A95E1F70E94760602
:1032700026E030E0AE0141585F4F63E00E94A005B8
:1032800081E0A11450E4B5060CF480E08093540270
:1032900081E061E0A61660ECB6060CF080E0809359
:1032A000550281E071E0C71670ECD7060CF080E0A3
:1032B0008093560281E0C11490E4D9060CF480E0BA
:1032C0008093570220925802832D0E944A02C753CE
:1032D000DF4F5880C95CD040552021F08FE692E046
:1032E0000E94B709CD54DF4F68807980C35BD0401E
:1032F0007092660260926502CB54DF4F888099809D
:10330000C55BD04090926402809263021093620287
:1033100000936102F0926002E0925F0280917D0270
:1033200080935E0280E090E0892B11F40C94F50EFE
:103330000E9400000C94F50EAA24AA946FE7B62E02
:1033400068CF10925D0264CE823009F0D4C0CD53B4
:10335000DF4F4880C35CD040442041F0332049F027
:10336000212CC12CD12C80E090E005C03110F9CF88
:10337000212C6701C8012FB7F89440918D0250911C
:103380008E0260918F02709190022FBF8090500248
:1033900090905102A0905202B09053022A013B013A
:1033A000481859086A087B085301420128E0821630
:1033B0009104A104B10408F487CF409350025093C4
:1033C000510260935202709353020E94EB072091C6
:1033D0004C0230914D0240914E0250914F020E949A
:1033E0004B1B2B013C01C6010E94EB079B01AC016A
:1033F000609148027091490280914A0290914B027B
:103400000E944A1B4B015C01C301B2010E94331CA4
:1034100091E8C92E61383FEF730734F060387105C9
:1034200014F06FE770E0C62EC501B4010E94331C92
:1034300081E8D82E61384FEF740734F06038710599
:1034400014F06FE770E0D62E6C2D0C2C000C770B6F
:10345000880B990B0E946B1C9B01AC01C301B2014C
:103460000E944A1B60934C0270934D0280934E025F
:1034700090934F026D2D0D2C000C770B880B990B40
:103480000E946B1C9B01AC01C501B4010E944A1B48
:10349000609348027093490280934A0290934B02D2
:1034A000C11007C0D11005C080911401821509F424
:1034B0000BCF20921401CF57DF4F19821882C158C9
:1034C000D040C158DF4F2882CF57D040C058DF4F7F
:1034D000C882C058D040CF57DF4FD882C158D040A3
:1034E0000E94760624E030E0AE0141585F4F64E070
:1034F0000E94A005E7CEB80183E090E00E944D084D
:1035000066277727601B710B82E090E00E944D08D0
:10351000B70190E080E00E944D08662777276E197A
:103520007F0981E090E00E944D08CD53DF4F488035
:10353000C35CD040442021F020907D0281E0282609
:10354000622D84E090E00E943908BECEFC018827FD
:103550009927E89421912032E9F3293010F02E3098
:10356000C8F32B3241F02D3239F4689404C00E9424
:103570002C1B820F911D219120532A30C0F31EF481
:10358000909581959F4F08951F93FC019927882757
:10359000BC01E89411911032E9F3193010F01E309B
:1035A000C8F31B3251F01D3249F4689406C00E94E2
:1035B000171B610F711D811D911D119110531A3040
:1035C000B0F33EF490958095709561957F4F8F4F45
:1035D0009F4F1F91089544E053E00E94F01A089510
:1035E000FA01A191B081009719F41097E1F0CD0193
:1035F000DC01CD010D90002011F4C00113C0FB01CE
:103600002191222319F02015D9F7F3CFFB01219145
:10361000201519F41E92119606C02223C1F70D90B1
:103620000020A1F7D001FA01A193B0830895592F8A
:10363000482F372F262F660F771F881F991F660F79
:10364000771F881F991F620F731F841F951F660FB6
:10365000771F881F991F08957AE0979F902D879F65
:10366000802D910D11240895F999FECF92BD81BD51
:10367000F89A992780B50895262FF999FECF1FBA99
:1036800092BD81BD20BD0FB6F894FA9AF99A0FBE8B
:10369000019608955058BB27AA270E94621B0C94DC
:1036A0000C1D0E94D31C38F00E94DA1C20F039F463
:1036B0009F3F19F426F40C94D01C0EF4E095E7FB20
:1036C0000C94CA1CE92F0E94311D58F3BA176207E7
:1036D00073078407950720F079F4A6F50C94531D21
:1036E0000EF4E0950B2EBA2FA02D0B01B90190011D
:1036F0000C01CA01A0011124FF27591B99F0593F61
:1037000050F4503E68F11A16F040A22F232F342FA8
:103710004427585FF3CF469537952795A795F040F6
:103720005395C9F77EF41F16BA0B620B730B840B0B
:10373000BAF09150A1F0FF0FBB1F661F771F881FC3
:10374000C2F70EC0BA0F621F731F841F48F487951B
:1037500077956795B795F7959E3F08F0B0CF93950D
:10376000880F08F09927EE0F9795879508950E9486
:10377000A61C08F481E008950E94E31CE3950C94D4
:103780001D1D0E94D51B0C940C1D0E94DA1C58F0C4
:103790000E94D31C40F029F45F3F29F00C94CA1C0E
:1037A00051110C94541D0C94D01C0E94311D68F3CF
:1037B0009923B1F3552391F3951B550BBB27AA27EA
:1037C00062177307840738F09F5F5F4F220F331F24
:1037D000441FAA1FA9F335D00E2E3AF0E0E832D0EC
:1037E00091505040E695001CCAF72BD0FE2F29D0EF
:1037F000660F771F881FBB1F261737074807AB07C1
:10380000B0E809F0BB0B802DBF01FF2793585F4F35
:103810003AF09E3F510578F00C94CA1C0C94541D4C
:103820005F3FE4F3983ED4F3869577956795B79517
:10383000F7959F5FC9F7880F911D9695879597F922
:103840000895E1E0660F771F881FBB1F621773079B
:103850008407BA0720F0621B730B840BBA0BEE1FB0
:1038600088F7E09508950E943A1C6894B1110C9471
:10387000541D08950E94391D88F09F5798F0B92F64
:103880009927B751B0F0E1F0660F771F881F991F95
:103890001AF0BA95C9F714C0B13091F00E94531DC7
:1038A000B1E008950C94531D672F782F8827B85FD7
:1038B00039F0B93FCCF3869577956795B395D9F7ED
:1038C0003EF490958095709561957F4F8F4F9F4FF7
:1038D0000895E89409C097FB3EF490958095709503
:1038E00061957F4F8F4F9F4F9923A9F0F92F96E94C
:1038F000BB279395F695879577956795B795F111C1
:10390000F8CFFAF4BB0F11F460FF1BC06F5F7F4F5D
:103910008F4F9F4F16C0882311F096E911C077236F
:1039200021F09EE8872F762F05C0662371F096E878
:10393000862F70E060E02AF09A95660F771F881F47
:10394000DAF7880F9695879597F90895990F0008EB
:10395000550FAA0BE0E8FEEF16161706E807F90761
:10396000C0F012161306E407F50798F0621B730BFC
:10397000840B950B39F40A2661F0232B242B252B7D
:1039800021F408950A2609F4A140A6958FEF811D20
:10399000811D089597F99F6780E870E060E00895C1
:1039A0009FEF80EC089500240A9416161706180657
:1039B0000906089500240A94121613061406050633
:1039C00008950C94D01C0E94391DD8F3E894E0E0CF
:1039D000BB279F57F0F02AED3FE049EC06C0EE0F01
:1039E000BB0F661F771F881F28F0B23A6207730764
:1039F000840728F0B25A620B730B840BE3959A95F7
:103A000072F7803830F49A95BB0F661F771F881FB6
:103A1000D2F790480C941C1E092E0394000C11F44C
:103A2000882352F0BB0F40F4BF2B11F460FF04C099
:103A30006F5F7F4F8F4F9F4F0895EF93E0FF07C059
:103A4000A2EA2AED3FE049EC5FEB0E94621B0E9474
:103A50000C1D0F90039401FC9058ECEAF0E00C94DC
:103A60002F1E57FD9058440F551F59F05F3F71F0BE
:103A70004795880F97FB991F61F09F3F79F08795D5
:103A80000895121613061406551FF2CF4695F1DF5E
:103A900008C0161617061806991FF1CF86957105EE
:103AA000610508940895E894BB2766277727CB0122
:103AB00097F908950E94A61C08F48FEF08950E94BC
:103AC000721D0C940C1D0E94D31C38F00E94DA1C4D
:103AD00020F0952311F00C94CA1C0C94D01C1124D6
:103AE0000C94541D0E94311D70F3959FC1F3950FE6
:103AF00050E0551F629FF001729FBB27F00DB11D72
:103B0000639FAA27F00DB11DAA1F649F6627B00D01
:103B1000A11D661F829F2227B00DA11D621F739FEA
:103B2000B00DA11D621F839FA00D611D221F749FF8
:103B30003327A00D611D231F849F600D211D822F3F
:103B4000762F6A2F11249F5750409AF0F1F0882366
:103B50004AF0EE0FFF1FBB1F661F771F881F915093
:103B60005040A9F79E3F510580F00C94CA1C0C945C
:103B7000541D5F3FE4F3983ED4F38695779567959F
:103B8000B795F795E7959F5FC1F7FE2B880F911DBD
:103B90009695879597F908959F930E94E31C0F903F
:103BA00007FCEE5F0C941D1D19F416F40C94D01C48
:103BB0000C941A1E0E94391DB8F39923C9F3B6F369
:103BC0009F57550B87FF0E94281E0024A0E640EA5D
:103BD000900180585695979528F4805C660F771F62
:103BE000881F20F026173707480730F4621B730B35
:103BF000840B202931294A2BA69517940794202558
:103C000031254A2758F7660F771F881F20F026179F
:103C10003707480730F4620B730B840B200D311DFE
:103C2000411DA09581F7B901842F9158880F969571
:103C3000879508959F3F31F0915020F487957795AF
:103C40006795B795880F911D9695879597F9089573
:103C500091505040660F771F881FD2F708959F93A9
:103C60008F937F936F93FF93EF939B01AC010E941F
:103C70005F1DEF91FF910E94431E2F913F914F9145
:103C80005F910C945F1DDF93CF931F930F93FF926F
:103C9000EF92DF927B018C01689406C0DA2EEF016F
:103CA0000E94721DFE01E894A591259135914591E0
:103CB0005591A6F3EF010E94621BFE019701A80136
:103CC000DA9469F7DF90EF90FF900F911F91CF91F9
:103CD000DF910895A1E21A2EAA1BBB1BFD010DC0A6
:103CE000AA1FBB1FEE1FFF1FA217B307E407F507AC
:103CF00020F0A21BB30BE40BF50B661F771F881F88
:103D0000991F1A9469F760957095809590959B011D
:103D1000AC01BD01CF010895052E97FB1EF4009460
:103D20000E94A31E57FD07D00E946A1E07FC03D005
:103D30004EF40C94A31E50954095309521953F4F1D
:103D40004F4F5F4F089590958095709561957F4F87
:103D50008F4F9F4F0895EE0FFF1F0590F491E02DB8
:103D60000994A29FB001B39FC001A39F700D811D54
:103D70001124911DB29F700D811D1124911D089574
:103D80000E94B11EB7FF0895821B930B0895FB019B
:103D9000DC0104C08D910190801921F44150504004
:103DA000C8F7881B990B0895FB01DC018D910190E8
:103DB00080190110D9F3990B0895FB01DC014150E2
:103DC000504030F08D910190801919F40020B9F71E
:0A3DD000881B990B0895F894FFCFAB
:103DDA0000C18081000000FFFFFFFF00E10000003A
:103DEA0000000008FF00000000FFFF0000803F0005
:103DFA0000FF01FF0312131415000000007D052BBC
:103E0A0006F005D5050001030405060708090A0E90
:103E1A000F104D4B77736164813200000000E60495
:103E2A00D0041C054A03630521053F050000000074
:103E3A00D107E806E807E7070D0A0047455400538B
:103E4A004554200052455345544B45595300535449
:103E5A004154450043414C0042544E2000535044C3
:103E6A000053504420004449414700524F540052E5
:103E7A004F5420004D4F4445004D4F4445203000DB
:0E3E8A004D4F44452031004D4F44452032003D
:00000001FF
