:100000000C9496010C94CA010C94CA010C94CA0178
:100010000C94CA010C94CA010C94CA010C94CA0134
:100020000C94CA010C94CA010C94C90A0C94460B96
:100030000C94CA010C94CA010C94CA010C94CA0114
:100040000C94CA010C94CA010C94CA010C94CA0104
:100050000C94CA010C94CA010C94CA010C947F0A36
:100060000C94CA010C94CA010C94CA010C94CA01E4
:100070000C94CA010C94CA010C94CA010C94CA01D4
:100080000C94CA010C94CA010C94CA010C94CA01C4
:100090000C94CA010C94CA010C94CA010C94CA01B4
:1000A0000C94CA010C94CA010C94CA0105A84CCD49
:1000B000B2D44EB93836A9020C50B9918688083CA2
:1000C000A6AAAA2ABE000000803F05010902A101DC
:1000D0000901A1008504050919012903150025015D
:1000E00075019503810275059501810305010930AC
:1000F000093109381581257F750895038106C0C02F
:1001000005010905A1018503093009311601802681
:10011000FF7F75109502810205091901291015004C
:100120002501750195108102C04F4B0043464700E1
:10013000080B000202020000090400000102020094
:100140000005240010010524010101042402060514
:100150002406000107058103100040090401000284
:100160000A00000007050202400000070583024064
:1001700000000403090412010002EF020140091209
:1001800002000001010203014A617370004A6173B9
:100190007020537469636B004449414700535441D4
:1001A000544520004F4B00455252004552520045E5
:1001B000525200455252004F4B004D4F44452000D3
:1001C0004F4B0045525200524F5420004F4B0045B8
:1001D000525200535044200056455220004F4B00CD
:1001E000455252004F4B00070605040100080A0B58
:1001F0000C0D0900000000240027002A002D00300B
:1002000000000000002300260029002C002F000021
:10021000000000250028002B002E003100040404FB
:10022000040403040502020202040302020202069D
:10023000060606060604040202020404040802017B
:10024000104080401020408040800802040180401F
:100250002010020110801020404020000000020009
:10026000090F0000030401000C0000000000000062
:10027000000000000000000000000000000000007E
:1002800000002A2B280000000000000000000000F1
:10029000000000000000000000002C9EB4A0A1A2FD
:1002A000A434A6A7A5AE362D3738271E1F2021223D
:1002B00023242526B333B62EB7B89F848586878836
:1002C000898A8B8C8D8E8F90919293949596979826
:1002D000999A9B9C9D2F3130A3AD350405060708E4
:1002E000090A0B0C0D0E0F10111213141516171806
:1002F000191A1B1C1DAFB1B0B50005010906A101FB
:100300008502050719E029E7150025017501950803
:1003100081029501750881039506750815002573FE
:100320000507190029738100C000DF0D11241FBECD
:10033000CFEFDAE0DEBFCDBF14BE0FB6F894A895BC
:1003400080916000886180936000109260000FBE11
:1003500023E0A6ECB1E001C01D92A931B207E1F79C
:1003600011E0A0E0B1E0E4E9F2E402C005900D92F2
:10037000A63CB107D9F711E0C6E9D1E004C0219746
:10038000FE010E94F420C539D107C9F70E942C0E46
:100390000C9448210C94000083E08093E900809144
:1003A000F200882319F08AE38093E8000895FC01A5
:1003B0008091A902882311F13FB7F89482E08093DD
:1003C000E9002091F200822F90E01816190614F42B
:1003D00081E090E0882339F0289844E64093A80211
:1003E0004091F1004083222339F02091F200211145
:1003F00003C02BE62093E8003FBF08958FEF9FEFE7
:10040000089581508F3008F047C0E82FF0E0E55F95
:10041000FD4F0C94F42028022C021A022002240220
:100420004C024C024C022F02350239023D024302BB
:100430004C024702809180008F778093800008955E
:10044000809180008F7DF9CF80918000877FF5CFEC
:1004500084B58F7784BD089584B58F7DFBCF80915F
:1004600090008F77809390000895809190008F7D09
:10047000F9CF80919000877FF5CF8091C0008F7772
:100480008093C00008958091C0008F7DF9CF809146
:10049000C200877F8093C20008951F93CF93DF939C
:1004A000EDE5F2E09491EEE3F2E0D491EFE1F2E0D9
:1004B000C491CC23B9F0182F992319F0892F0E94E9
:1004C0000102EC2FF0E0EE0FFF1FE15FFD4FA59161
:1004D000B4918FB7F894EC91111108C0D095DE2338
:1004E000DC938FBFDF91CF911F910895DE2BF8CF62
:1004F000CF93DF93282F30E0F901E55AFD4F849127
:10050000F901E45CFD4FD491F901E35EFD4FC49124
:10051000CC23A1F081110E940102EC2FF0E0EE0F3C
:10052000FF1FEF5FFD4FA591B491EC91ED2381E0AA
:1005300090E009F480E0DF91CF91089580E090E0B1
:10054000FACF80E10E947802892B19F08EE00C949A
:10055000780290E080E00895CF93DF9390E0FC0173
:10056000E45CFD4F2491835E9D4FFC0184918823C0
:10057000D1F090E0880F991FFC01ED50FE4FA5913E
:10058000B491FC01E15FFD4FC591D491623071F4EB
:100590009FB7F8943C91822F809583238C93E881B8
:1005A0002E2B28839FBFDF91CF9108958FB7F894AA
:1005B000EC912E2B2C938FBFF6CF823108F0825115
:1005C000E82FF0E0E951FE4FE49190917B008E2FEF
:1005D000880F880F80729F7D892B80937B00E77046
:1005E000E064E0937C0080917A00806480937A00DC
:1005F00080917A0086FDFCCF8091780090917900FF
:1006000008953FB7F8948091A4029091A502A0911B
:10061000A602B091A70226B5A89B05C02F3F19F0EE
:100620000196A11DB11D3FBFBA2FA92F982F882772
:10063000BC01CD01620F711D811D911D42E0660F4D
:10064000771F881F991F4A95D1F708958F929F921F
:10065000AF92BF92CF92DF92EF92FF924B015C017B
:100660000E9401036B017C010E9401036C197D094A
:100670008E099F09683E734081059105A8F321E02A
:10068000821A9108A108B10888EEC80E83E0D81E2E
:10069000E11CF11C81149104A104B10429F7FF901D
:1006A000EF90DF90CF90BF90AF909F908F90089584
:1006B0002FB7F8946091A0027091A1028091A202DC
:1006C0009091A3022FBF08954091090250910A0210
:1006D000209107023091080242175307B4F4909119
:1006E000E8009570E1F39091E80092FD19C08093C5
:1006F000F1008091090290910A0201968F73992767
:10070000892B19F48EEF8093E80080910902909173
:100710000A02019690930A028093090281E00895EB
:1007200080E00895EF92FF920F931F93CF93DF9392
:10073000F82E192FE62E042F81E0860F880F0E94D5
:10074000640383E00E946403CF2DD12FEC0EFD2EB5
:10075000F11CCE15DF05B9F007FF13C0FE0184912F
:100760000E946403182F80E00E9464038123219675
:100770008111EFCFDF91CF911F910F91FF90EF90FB
:1007800008958881EDCF81E0F5CFDF92EF92FF925F
:100790000F931F93CF93DF93D82E8A01EB017B0138
:1007A000E40EF51ECE15DF0559F0D7FE12C0FE018E
:1007B00084910E94640321968111F4CF0FEF1FEF03
:1007C000C801DF91CF911F910F91FF90EF90DF90C3
:1007D00008958881EECF2FB7F89487708093E90051
:1007E0009091E800892F807295FF04C09091F200EB
:1007F00080E4891B2FBF08957F928F929F92AF92C2
:10080000BF92CF92DF92EF92FF920F931F93CF93FD
:10081000DF93C82E8B017A018091A902811110C04B
:100820008FEF9FEFDF91CF911F910F91FF90EF908E
:10083000DF90CF90BF90AF909F908F907F90089562
:1008400080910D0280FF05C08091E000826080935E
:10085000E000CE2DDF2DD12C8AEFB82E8C2D8770A5
:10086000982E8C2D8072882E8C2D8074782E9AE391
:10087000A92E209719F4DD2009F452C08C2D0E9476
:10088000EB0381110AC0BA94BB2051F261E070E021
:1008900080E090E00E942603ECCF8C171D0611F03B
:1008A0000CF08C2F9FB7F8949092E9002091E8000B
:1008B00025FD02C09FBFDDCF282F30E0C21BD30B28
:1008C000882029F08150A0F01092F100FBCFF801B0
:1008D000C7FC0AC0815050F041914093F100FACF1B
:1008E00044914093F10031968150D0F7020F131FCD
:1008F000DD2021F0A092E800D12CDCCF8091E8002F
:1009000085FD07C0A092E800DD24D394209791F2E2
:10091000F3CF209779F6772069F2A092E800CACF4A
:100920005D9884E680930C02C7017CCF615030F063
:100930002091F100FC0120830196F8CF289884E6ED
:100940008093A80208958091FF0181110DC082E07B
:100950008093FB0184E08093FC011092FE011092D1
:10096000FD0181E08093FF018BEF91E008950F93EB
:100970001F93CF93DF931F92CDB7DEB782E08983B9
:1009800042E450E060E371E080E80E94C5030E9409
:10099000A304DC0112960D911C910115110589F03B
:1009A000D801ED91FC910280F381E02DBE016F5FD3
:1009B0007F4FC801099597FD04C0F8010085118596
:1009C000ECCF89810F90DF91CF911F910F91089506
:1009D000CF93DF93EC0180911201882331F083E003
:1009E0000E94FC031816190634F081E090E09B8306
:1009F0008A8380E090E0DF91CF910895CF93DF93D9
:100A00001F92CDB7DEB76983DC01ED91FC910280C6
:100A1000F381E02D41E050E0BE016F5F7F4F09950B
:100A20000F90DF91CF910895682F8AEA92E00C949D
:100A3000FE040F931F93CF93DF938C01D0E0C0E0AF
:100A4000F801EC0FFD1F6491662341F08AEA92E001
:100A50000E94FE04892B11F02196F2CFCE01DF9186
:100A6000CF911F910F9108950C94CC0183E00E94C7
:100A7000EB0390E00895CF93DF931F92CDB7DEB7DD
:100A8000FC018485958597FD08C02FEF3FEF3587E2
:100A900024870F90DF91CF910895CE0101960E9497
:100AA000D701019719F4898190E0F3CF8FEF9FEF81
:100AB000F0CF0F931F93CF93DF931F92CDB7DEB785
:100AC0008C01FC018485958597FF0BC0CE010196B2
:100AD0000E94D701019771F4898190E0F801958710
:100AE0008487F801848595850F90DF91CF911F91C0
:100AF0000F9108958FEF9FEFF1CFFC0184859585CD
:100B000097FD0BC09FB7F89482E08093E900809135
:100B1000F2009FBF90E0019608959FB7F89482E09D
:100B20008093E9008091F2009FBF90E00895DC017E
:100B3000FB0112962C911297848195812817190632
:100B400041F491818081813A31F49D7F81E091303F
:100B500009F080E008958132E1F79B3029F4828129
:100B60001F968C9381E008959A3099F78281509670
:100B70008C93F8CFAF92BF92CF92DF92EF92FF9219
:100B80000F931F93CF93DF931F92CDB7DEB77C01F6
:100B900069836A01590141E050E0BE016F5F7F4FF8
:100BA000FC0183810E94FC038C0197FD0BC0F701BF
:100BB0008381A501B60180640E94FC03080F191F00
:100BC00097FD8C01C8010F90DF91CF911F910F917C
:100BD000FF90EF90DF90CF90BF90AF900895DC0131
:100BE000FB0188E4808389E4818384E482831D9609
:100BF0009C911D979F709F5B93831D968D919C91F7
:100C000024E0969587952A95E1F78F708F5B848312
:100C100085E00895EF92FF920F931F93CF93DF9398
:100C2000FB012081213871F52381223259F5DC0145
:100C300012964C91248135814217130619F5EC0167
:100C40000B851C85F12CE12C0115110589F0F801AB
:100C5000448155816281738180E80E94C5038F3F82
:100C6000980749F0E80EF91ED8010D911C91ECCFC0
:100C700081E08F87C701DF91CF911F910F91FF9086
:100C8000EF90089590E080E0F6CFCF93DF93CDB75B
:100C9000DEB769970FB6F894DEBF0FBECDBFFC017B
:100CA000DB018C918F5F8C939E012D5F3F4F8DE018
:100CB000D9011D928A95E9F729E0298384E08A8386
:100CC00091E09D8383E08E832A8721E22B879C8796
:100CD0009D879F8722E2288B27E02B8B25E02C8B9A
:100CE0008E8B20E430E0388F2F8B998F82818B831D
:100CF00095858685998B8A8B838180688D8B49E168
:100D000050E0BE016F5F7F4F80E00E94C50369968F
:100D10000FB6F894DEBF0FBECDBFDF91CF9108951F
:100D2000CF93DF938091F301811167C081E08093BD
:100D3000E6018093E7012CEE31E03093E901209346
:100D4000E8011092EB011092EA012DE231E03093BC
:100D5000E3012093E2011092EE011092ED01109256
:100D6000F0011092EF018093F1018093F20181EC88
:100D70008093EC010E94A304FC0181819091E60123
:100D8000482F490F5527551F483051059CF5A28122
:100D9000B381109709F522EE31E03383228320815D
:100DA0002093E4018093E5018091E701820F808325
:100DB0002091E801A22FB091E9018A2F821B8917A7
:100DC000C8F481813D91C82FD0E0C050DF4F3883F7
:100DD0008F5F8183F2CFD90118962D913C9119979D
:100DE00021153105C1F722EE31E019963C932E937F
:100DF0001897D5CF81E08093F30182EE91E0DF91E7
:100E0000CF910895CF92DF92EF92FF920F931F93AD
:100E1000CF93DF936C01EB017B01E40EF51E10E034
:100E200000E0CE15DF0581F069916D30D1F3D60178
:100E3000ED91FC910190F081E02DC6010995892B7F
:100E400019F00F5F1F4FEDCFC801DF91CF911F91B8
:100E50000F91FF90EF90DF90CF900895CF93DF93A5
:100E6000EC016838E0F06858FE0186E0662321F066
:100E70009681961301C01682815031968111F6CF6A
:100E80000E949006AE014C5F5F4F28E030E062E0C8
:100E90000E94BA0581E090E0DF91CF910895862FFE
:100EA00090E067FF0FC0FC01E058F10981E090E09D
:100EB00001C0880FEA95EAF780959C8189238C838D
:100EC00060E0D2CFEC85FD85E80FF91F649190E0DA
:100ED00080E0662309F3862F807C803C49F48C8176
:100EE0008F7B8C836F73623309F0BECF64E6BCCF17
:100EF00067FFF9CF8C818D7F8C836F77F4CFCF9391
:100F0000DF93EC01683858F168588E818617D1F06C
:100F10008F818617B9F088858617A1F08985861795
:100F200089F08A85861771F08B85861759F0FE0146
:100F3000369690E080E02191211147C08C0F9D1FD3
:100F4000FC0166830E949006AE014C5F5F4F28E073
:100F500030E062E00E94BA0581E090E01FC0862F79
:100F600090E067FF0EC0FC01E058F10921E030E09D
:100F700001C0220FEA95EAF78C81822B8C8360E016
:100F8000C4CFEC85FD85E80FF91F6491611109C09C
:100F900081E090E09B838A8390E080E0DF91CF91B5
:100FA0000895862F807C803C49F48C8180648C83FA
:100FB0006F73623309F0A9CF64E6A7CF67FFF9CF5B
:100FC0008C8182608C836F77F4CF01968630910597
:100FD00009F0B1CFDDCFEF92FF921F93CF93DF9354
:100FE000EC01162F0E947F077C01612FCE010E9429
:100FF0002E07C7019927DF91CF911F91FF90EF90A6
:101000000895089590E080E008958F929F92AF92A6
:10101000BF92CF92DF92EF92FF92CF93DF939C012A
:101020002553334F27393941D0F1BC0197FF04C014
:1010300066277727681B790BEC016C5C7C40072ED8
:10104000000C880B990B0E94A01E20E036E646EEAD
:1010500056E40E94F61D6B017C016091130170E063
:1010600090E080E00E94A01E4B015C01A701960168
:10107000C701B6010E94941F9B01AC01C501B401D8
:101080000E94941FD7FD9058DF91CF91FF90EF9071
:10109000DF90CF90BF90AF909F908F90089560E0C9
:1010A00070E0CB01F1CF262FFC01E959FD4F3081D3
:1010B000361761F06083805F9D4FFC01628188E09C
:1010C00093E021110C947F070C942E070895CF9282
:1010D000DF92EF92FF92CF93DF93EC01A091170282
:1010E0006B01770FEE08FF08FC01E959FD4F808185
:1010F0008823E1F0AF50BB0B2FEF3FE70E9409219F
:1011000024E630E040E050E00E94D52061E02C155C
:101110003D054E055F050CF060E0CE01DF91CF91FB
:10112000FF90EF90DF90CF900C9453082A2F30E07F
:10113000AFEFBFE70E94FA20E3CFCF93DF93D0E079
:10114000C0E060E0CE010E9453082196C530D10571
:10115000C1F7DF91CF910895DC0123E53AE42D93A7
:101160003D9326E0EFE1F1E001900D922A95E1F741
:1011700026E0EFE1F1E0DC01189601900D922A954E
:10118000E1F70895FC0101900020E9F73197AF01E4
:10119000481B590BBC018AEA92E00C94E8048CE6E7
:1011A00091E00C94C208CF93DF930E941905EC01E3
:1011B0000E94CF088C0F9D1FDF91CF9108958F92D1
:1011C0009F92AF92BF920F931F93CF93DF93CDB7B0
:1011D000DEB7A1970FB6F894DEBF0FBECDBF19A240
:1011E000423008F44AE08E010F5D1F4F842E912C8F
:1011F000B12CA12CA50194010E94B320E62FB901C6
:10120000CA01EA30F4F4E05DD801EE938D01232B9E
:10121000242B252B79F790E080E0109719F0CD0171
:101220000E94C208A1960FB6F894DEBF0FBECDBFD4
:10123000DF91CF911F910F91BF90AF909F908F90B2
:101240000895E95CE1CFCF93DF93682F70E090E0E1
:1012500080E04AE00E94DF08EC010E94CF088C0F7A
:101260009D1FDF91CF910895CF92DF92EF92FF9271
:10127000CF93DF936C01990FEE08FF08F7FE17C0BC
:101280008DE20E941405EC0166277727CB016C19CB
:101290007D098E099F094AE00E94DF088C0F9D1F7F
:1012A000DF91CF91FF90EF90DF90CF9008954AE0CB
:1012B000C701B601DF91CF91FF90EF90DF90CF9003
:1012C0000C94DF08CF93DF938CE291E00E94190524
:1012D000C2E1D2E080E20E941405699170E090E0E2
:1012E00080E04AE00E94DF0882E0C731D80791F72A
:1012F00080E20E94140580911702DF91CF910C9437
:101300002309EF92FF920F931F93CF93DF937C01FA
:101310008C01D0E0C0E0CE010E94691DF8018193EC
:101320008F012196CE30D105B1F7C701DF91CF9162
:101330001F910F91FF90EF900895CF92DF92EF925F
:10134000FF9280931802682F880F770B880B990BF8
:101350000E94A01E2BED3FE049E450E40E94941F40
:1013600020E030E044E353E40E94F61D6B017C0171
:101370000E94F11D60931B0170931C0180931D015D
:1013800090931E01C701B6010E94012060937A026A
:1013900070937B0280937C0290937D02FF90EF908C
:1013A000DF90CF900895FF920F931F93CF93DF9319
:1013B000EC01F62E08811981C8010E94691DF816FA
:1013C00021F06F2DC8010E94711DCE01DF91CF91D8
:1013D0001F910F91FF900895CF92DF92EF92FF92AD
:1013E0000F931F93CF93DF9300D0CDB7DEB76C017F
:1013F0007C0110E000E01A830983F70161917F010D
:10140000CE0101960E94D3090F5F1F4F0E301105C8
:1014100091F7C6010F900F90DF91CF911F910F911F
:10142000FF90EF90DF90CF900895EF92FF920F938F
:101430001F93CF93DF9300D0CDB7DEB78C010E940E
:101440009D0888E0F801A0E1B2E001900D928A9534
:10145000E1F780E1E82E82E0F82E00E410E01A8344
:101460000983F70161917F01CE0101960E94D309A2
:101470000F5F1F4F0834110591F70F900F90DF9108
:10148000CF911F910F91FF90EF900895CF93DF932D
:1014900000D0CDB7DEB7082F162F0E949D0880E63A
:1014A00090E09A838983602FCE0101960E94D30930
:1014B000112331F089E291E00E94D3080E94CC010F
:1014C00064E670E080E090E00E94260368EC70E043
:1014D00080E090E00E94260310920108109200081C
:1014E0001092FF0A1092FE0A88E198E00FB6F89475
:1014F000A895809360000FBE90936000FFCF1F926D
:101500000F920FB60F9211242F933F938F939F93B7
:10151000AF93BF938091A0029091A102A091A202EB
:10152000B091A30230919F0223E0230F2D3758F58D
:101530000196A11DB11D20939F028093A00290935C
:10154000A102A093A202B093A3028091A402909161
:10155000A502A091A602B091A7020196A11DB11DFE
:101560008093A4029093A502A093A602B093A70231
:10157000BF91AF919F918F913F912F910F900FBE8F
:101580000F901F90189526E8230F0296A11DB11DFC
:10159000D2CF1F920F920FB60F9211242F933F9329
:1015A0004F935F936F937F938F939F93AF93BF936B
:1015B000CF93EF93FF93C091E1008091E100837F8F
:1015C0008093E100C3FF0FC01092E90081E0809397
:1015D000EB001092EC0082E38093ED001092A902E0
:1015E00088E08093F000C2FF1AC00E94CC01809175
:1015F0000C02882341F080910C02815080930C02F0
:10160000811101C05D9A8091A802882341F08091E8
:10161000A80281508093A802811101C0289AC4FFBA
:1016200023C08091E2008E7E81608093E2008091F1
:10163000E1008F7E8093E10080910D028E7E8061BB
:1016400080930D02FF91EF91CF91BF91AF919F9148
:101650008F917F916F915F914F913F912F910F905B
:101660000FBE0F901F901895C0FFECCF8091E20045
:101670008E7E80618093E2008091E1008E7E809377
:10168000E10080910D028E7E8160DACF1F920F9271
:101690000FB60F921124CF92DF92EF92FF920F9329
:1016A0001F932F933F934F935F936F937F938F93EA
:1016B0009F93AF93BF93EF93FF93CF93DF93CDB7F8
:1016C000DEB76C97DEBFCDBF1092E9008091E800D5
:1016D00083FF25C068E0CE0145960E94960482EF04
:1016E0008093E8008D8987FF39C09091E80090FFD2
:1016F000FCCF982F907609F034C19E894F89588D80
:101700002F89F88C911131C0803861F580910E02DB
:101710008093F1001092F1008EEF8093E8006C96B8
:101720000FB6F894DEBF0FBECDBFDF91CF91FF9112
:10173000EF91BF91AF919F918F917F916F915F9149
:101740004F913F912F911F910F91FF90EF90DF905C
:10175000CF900F900FBE0F901F9018959EEF909313
:10176000E800C7CF1092F100D5CF913059F4811124
:10177000D3CF4130510581F680910E028D7F809349
:101780000E02CACF933049F48111C6CF41305105C2
:1017900019F680910E028260F2CF953041F480916B
:1017A000E80080FFFCCF20682093E300B5CF96309F
:1017B00009F0A9C00B8D1C8D22E01092E900109257
:1017C0000A0210920902F2122EC010920802109220
:1017D00007020E94B7041F8299E09983FA8291E080
:1017E0009E8390EA98879AEF998720910902309119
:1017F0000A02275F3F4F3C832B838D831092E900C1
:1018000010920A0210920902109308020093070234
:1018100049E050E0BE016F5F7F4F80E00E94C5034A
:101820000E94B70479CF10930802009307020E9428
:10183000A304DC0112960D911C910115110509F408
:1018400051C1D801ED91FC910480F581E02DBE01DC
:101850006B5E7F4FC8010995009709F03EC1F80102
:1018600000851185EACFF3E0FF120EC08F8988232F
:1018700009F440C0823061F440E86AE08DE891E00C
:101880000E949203811148CF81E28093EB0047CF01
:10189000813029F440E864E088E891E0F1CF8330BA
:1018A00099F70E94A304DC011296ED90FC908E0142
:1018B0000F5F1F4F6801E114F10479F0D701ED913A
:1018C000FC910680F781E02DB801C7010995080F4A
:1018D000111DF701E084F184EECFD8011C92F601CE
:1018E00001900020E9F73197BF016C197D0940E0B4
:1018F000C601C6CF62E771E0FB01449150E080E889
:101900000E94C50309CF973009F4BECF983021F467
:1019100081E08093F10000CF993009F0FDCE837013
:1019200009F0B2CFE1E0F1E081E031E096E321910E
:10193000222371F08093E9003093EB00DF011197CF
:101940002C912093EC009093ED008F5F873079F716
:101950008EE78093EA001092EA008F898093A902B3
:10196000DBCE8B8D9C8D1092E90010920A021092B2
:1019700009029093080280930702898D811192C019
:101980008E899D89913A49F4813209F07DCF47E0F3
:1019900050E06BE071E080E0B3CF913209F074CF9A
:1019A000833269F48F89988DB0E0A0E080930701BD
:1019B00090930801A0930901B0930A01ADCE803243
:1019C00069F48091E80082FFFCCF67E08BE091E052
:1019D0000E9496048BEF8093E8009ECE823209F03D
:1019E0009BCE8F8980931201EEEFFFE78591949152
:1019F0008B3F9C4D51F1E0E0F8E080910B0190911C
:101A00000C01A0910D01B0910E01803B9440A10505
:101A1000B105F1F48091120180FD1AC0EE3F8AE019
:101A2000F80789F587E797E79183808380916000C5
:101A300080930B0288E19BE00FB6F894A895809301
:101A400060000FBE9093600067CEEEEFFAE0D5CF56
:101A5000808191818737974709F05ECEA895809164
:101A6000600088618093600080910B028093600029
:101A7000EE3F2AE0F20789F08091FE0A9091FF0A7A
:101A80009183808349CE808191818737980751F275
:101A90009093FF0A8093FE0AC5CF1092FF0A10921E
:101AA000FE0A3ACE0E94A304DC0112960D911C910D
:101AB0000115110509F4E8CED801ED91FC910190D2
:101AC000F081E02DBE016B5E7F4FC8010995811149
:101AD00023CEF80100851185EBCF181619060CF4FA
:101AE0001BCED2CEF1E0FF12BECE66E771E004CF8E
:101AF000FC01A385B485109771F47487638785858D
:101B00009685DB0114962D913C91820F931F968749
:101B100085870895DC018D919C9111970097D1F7ED
:101B20006D937C93ECCFCF93DF93EC0180E690E054
:101B30000E94691D9FEF980F923020F01882DF916C
:101B4000CF91089588838130F1F49091DA01911159
:101B500012C01092D5011092D40120E031E03093F0
:101B6000D7012093D60129E230E03093D9012093A8
:101B7000D8018093DA010E94900664ED71E0DF9154
:101B8000CF910C94780D8091CC01811113C01092EB
:101B9000C7011092C6018AEC90E09093C90180932E
:101BA000C80186E390E09093CB018093CA0181E065
:101BB0008093CC010E94900666EC71E0E0CF109219
:101BC000AD021092AC0288EE93E0A0E0B0E080930A
:101BD000AE029093AF02A093B002B093B10282E53F
:101BE00091E09093AB028093AA028FEF9FEF9093C6
:101BF000B7028093B60210920B0310920A0384E698
:101C000091E0909309038093080380910003811170
:101C100013C01092FB021092FA028AEF92E09093A6
:101C2000FD028093FC028FE290E09093FF0280938C
:101C3000FE0281E0809300030E9490066AEF72E04A
:101C40000E94780D8AE792E0909315038093140325
:101C500086E193E00C94930DCF93DF93CDB7DEB77D
:101C6000CF5ED1090FB6F894DEBF0FBECDBF78941A
:101C700084B5826084BD84B5816084BD85B5826091
:101C800085BD85B5816085BD80916E008160809342
:101C90006E001092810080918100826080938100AB
:101CA00080918100816080938100809180008160BB
:101CB0008093800080919100826080939100809158
:101CC0009100816080939100809190008160809369
:101CD00090008091C10084608093C1008091C10018
:101CE00082608093C1008091C10081608093C100B7
:101CF0008091C30081608093C3008091C0008260A6
:101D00008093C0008091C20081608093C200809166
:101D10007A00846080937A0080917A008260809358
:101D20007A0080917A00816080937A0080917A00B5
:101D3000806880937A001092A90210920E0210928D
:101D40000D028091D70081608093D70080EA809354
:101D5000D80089B5806189BD89B5826089BD09B423
:101D600000FEFDCF61E070E080E090E00E9426037D
:101D70008091D8008F7C80618093D8008091E000B2
:101D8000807F8093E0008091E1008E7E8093E1006F
:101D90008DE08093E200559A209A62E08EE00E94E6
:101DA000AC0262E080E10E94AC0262E370E080E09D
:101DB00090E00E9426030E94A102892B39F50E941F
:101DC00058036B017C010E94A102892BE1F40E945F
:101DD00058036C197D098E099F09683B7B4081057A
:101DE000910588F387E797E79093010880930008AF
:101DF00088E19BE00FB6F894A895809360000FBE31
:101E000090936000FFCF81E080930F0262E08EE04C
:101E10000E94AC0262E080E10E94AC0202E411E0A8
:101E200025E331E0C252DF4F39832883CE5DD040B5
:101E300062E0C252DF4FA881B981CE5DD0408D9162
:101E4000C252DF4FB983A883CE5DD0400E94AC025E
:101E5000C252DF4F48805980CE5DD0400415150531
:101E600039F762E08FE00E94AC0261E082E00E94FC
:101E7000AC0280E00E944D0282E690E00E94691D63
:101E8000182F83E690E00E94691D853A21F4163AE6
:101E900014F01B350CF010E0812F0E949D0984E6A0
:101EA00090E00E94691D9FEF980F943108F088E040
:101EB0008093130110E1E12E12E0F12E00E410E016
:101EC000C8010E94691DD7018D937D010F5F1F4FCF
:101ED00008341105A9F780911002909111028D34F8
:101EE0009B4429F48091170284518C3448F088E097
:101EF000E6E4F1E0A0E1B2E001900D928A95E1F70D
:101F0000CE014D960E9481098EE0FE017D96DE0194
:101F1000A556BF4F01900D928A95E1F78D8D9E8D4C
:101F200083359A4409F083C1C356DF4F48805980F6
:101F3000CD59D040C753DF4F59824882C95CD04049
:101F4000C156DF4F68807980CF59D040CF53DF4FE3
:101F500079826882C15CD040CF55DF4F28803980BC
:101F6000C15AD040CD55DF4F88809980C35AD040A8
:101F7000CB53DF4F99828882C55CD040CB55DF4F71
:101F800008811981C55AD040C955DF4FA880B98052
:101F9000C75AD040CD53DF4FB982A882C35CD0402E
:101FA000B8E0CB2ED12C412C512C3201812C912C1C
:101FB000540183E10E94DD02092E000CAA0BBB0B29
:101FC000880E991EAA1EBB1E82E10E94DD02092E08
:101FD000000CAA0BBB0B480E591E6A1E7B1E65E047
:101FE00070E080E090E00E94260321E0C21AD10850
:101FF00001F7A8E0CA2ED12CE12CF12CC501B401C7
:10200000A70196010E94D520CF53DF4F8880998089
:10201000C15CD040C401990CAA0BBB0B49015A0109
:10202000881A990AAA0ABB0AC301B201A70196013C
:102030000E94D520C801012E000CAA0BBB0B821BED
:10204000930BA40BB50BCF53DF4F48805980C15C75
:10205000D040241835087201C753DF4F688079805B
:10206000C95CD040E618F708E214F3040CF47101DF
:10207000A701FF0C660B770BCD53DF4F2881398109
:10208000C35CD040201B310BCB53DF4F48805980BD
:10209000C55CD04004191509021713070CF4890117
:1020A000012E000C220B330B4A37510561057105D7
:1020B0000CF4E0C075956795579547950A3711055B
:1020C000210531050CF4DBC035952795179507954B
:1020D000081719072A073B078CF475016401B7FE3E
:1020E00007C0CC24DD247601C818D908EA08FB080B
:1020F000C816D906EA06FB060CF4C6C0CC24DD24BB
:102100007601C81AD90AEA0AFB0A0C151D052E0524
:102110003F05ACF4B7FF02C0D701C60195018401A9
:10212000B7FE07C0002711279801081919092A09C5
:102130003B09081719072A073B070CF4A7C04815E5
:1021400059056A057B050CF4A3C080910F02882312
:1021500069F08091160390E0019663E070E00E94C0
:102160009F209091160360E0981358C38FEF9FEF64
:102170009093B7028093B6028AE792E0909315039A
:1021800080931403609025017090260180902701B0
:1021900090902801C451DF4F688279828A829B82A5
:1021A000CC5ED04080919E028111E4C08FE00E94FD
:1021B00078028C01DD24D394892B09F0D12CCE0137
:1021C00083579F4F0E9481098EE0FE01E357FF4F26
:1021D000DE01AF58BF4F01900D928A95E1F70115CE
:1021E000110509F057C0CE0181589F4F0E94AC08DD
:1021F000CE0181589F4F0E94EC0953E0E52EF12C4F
:1022000081E00E944D0268E770E080E090E00E946B
:10221000260380E00E944D0268E770E080E090E0D5
:102220000E94260331E0E31AF10851F756C0CE01AF
:1022300001960E94AC084B805C80C753DF4F5982E7
:102240004882C95CD0406D807E80CF53DF4F798259
:102250006882C15CD0402F80388489849A84CB53B3
:10226000DF4F99828882C55CD0400B851C85AD8488
:10227000BE8490CE4CE350E060E070E01FCF0CE3F2
:1022800010E020E030E024CF80E06BCF82E069CF27
:1022900081E067CF8EE0FE01EF58FF4FDE01AD59C0
:1022A000BF4F01900D928A95E1F7E3968EAD9FADF9
:1022B000E39783352AE4920709F093C0A5969FAF70
:1022C0008EAFA5978EE0FE01ED59FF4FDE01A158BC
:1022D000BF4F01900D928A95E1F78EE0FE01E15823
:1022E000FF4FDE01AB5ABF4F01900D928A95E1F787
:1022F0008EE0FE01EB5AFF4FDE01D99601900D9260
:102300008A95E1F728961FAE289781E0012B09F402
:1023100080E029968FAF29972A961FAE2A972B9691
:102320001FAE2B972F961CAE1DAE1EAE1FAE2F9765
:102330006096DFAE60976196DFAE619765961CAEE2
:102340001DAE1EAE1FAE65978CE1FE01F996A2E8A8
:10235000B2E001900D928A95E1F70E94010360932B
:102360007E0270937F02809380029093810281E0CD
:1023700080939E0292E6692E712C23E6E22EF12CC8
:102380005524539434E6C32ED12C4CE6A42E42E0BF
:10239000B42E8AEA92E00E947D05181619060CF008
:1023A00057C28AEA92E00E943B058D3091F320915A
:1023B000490230914A028A3009F03AC2275E3D4F05
:1023C000D9011C926FE671E089E192E00E9431210F
:1023D000892B69F40E94620910924A021092490204
:1023E000D8CFCE0181589F4F0E94AC0876CF44E0F1
:1023F00050E063E771E089E192E00E943A218C01AC
:10240000892B09F060C088E0E0E1F2E0DE01A1582C
:10241000BF4F01900D928A95E1F7FE01E158FF4F01
:102420004F018DE192E00115110511F090E080E07F
:102430006CE971E00E94201D009729F48FEA91E079
:102440000E94D308C9CF0E94F91C9B01AC01215006
:102450003109410951092F3F31054105510518F056
:102460008BEA91E0EDCF05301105F9F0D401129619
:102470006C930F5F1F4FBFEF8B1A9B0A063011053D
:1024800081F6C158DF4F88819981CF57D0408D3474
:102490009B4441F4CA57DF4F8881C658D0408451CD
:1024A0008C3448F087EA91E0CBCFCA57DF4F68837E
:1024B000C658D040DECFCE0181589F4F0E94150AEA
:1024C00084EA91E0BDCF68E771E089E192E00E9483
:1024D0003121892B29F486E491E00E94150A7ACFF4
:1024E00062E871E089E192E00E943121892BF1F5E7
:1024F0008DE991E00E94190580917802909179020E
:102500000E94340980E20E94140580917602909125
:1025100077020E94340980E20E94140580917402BF
:10252000909175020E94340980E20E941405809106
:102530007202909173020E94340980E20E94140595
:102540008091710290E00E94340907E612E080E277
:102550000E941405D8018D918D0190E00E943409EC
:10256000A016B106A1F70E94CF0836CF68E871E047
:1025700089E192E00E943121892B29F45092500286
:1025800084EE91E05DCF44E050E06CE871E089E1D9
:1025900092E00E943A21892B01F58DE192E00E94A0
:1025A000DB1C20911603213031F49C0121503109AC
:1025B0002431310518F080EE91E042CF8093700213
:1025C0000E94580360936C0270936D0280936E02B8
:1025D00090936F028DED91E033CF61E971E089E175
:1025E00092E00E943121892B49F488ED91E00E940C
:1025F000190582E491E00E94C208B5CF65E971E057
:1026000089E192E00E943121892B49F483ED91E028
:102610000E941905809113010E942309DDCE44E038
:1026200050E069E971E089E192E00E943A21892B4A
:10263000F1F48DE192E00E94DB1C9C0121503109F4
:102640002431310518F08FEC91E0FACE809313011C
:10265000C158DF4FD982C882CF57D040682FCE01F2
:1026600081589F4F0E94D3098CEC91E0E9CE6EE92E
:1026700071E089E192E00E943121892B09F053C079
:1026800088E991E00E941905C451DF4F2881398102
:102690004A815B81CC5ED040C158DF4F28833983AB
:1026A0004A835B83CF57D0408E0101581F4F4801AA
:1026B00034E0830E911C80E20E941405D8018D91B4
:1026C0008D010E94DD020E9434098016910699F75F
:1026D00080E20E94140505E311E0812CF80191903D
:1026E0008F01892D0E947802892B71F4882019F0BE
:1026F0008CE20E941405692D70E090E080E04AE0D1
:102700000E94DF0888248394C252DF4F28813981D8
:10271000CE5DD0402017310709F7811024CF8DE21C
:102720000E94140520CF63EA71E089E192E00E94E3
:102730003121892B61F487EC91E00E941905809189
:102740001802082E000C990B0E9434090CCF44E0AB
:1027500050E067EA71E089E192E00E943A21892B1A
:1027600059F58DE192E00E94DB1C8C01865A9F4F47
:10277000853B910518F083EC91E062CE802F0E949A
:102780009D09C158DF4F79826882CF57D040602FB2
:10279000CE0181589F4F0E94D309C158DF4FF98263
:1027A000E882CF57D04065EACE0181589F4F0E9402
:1027B000D30980EC91E044CE6CEA71E089E192E0CB
:1027C0000E943121892B39F48AEB91E00E9419058E
:1027D0008091160321CF61EB71E089E192E00E94C4
:1027E0003121892B81F068EB71E089E192E00E9450
:1027F0003121892B41F06FEB71E089E192E00E9479
:102800003121892B69F480911E0280539091160327
:10281000891303C087EB91E013CE61E00E94460A62
:1028200080911902882309F4D7CD83EB91E008CE7B
:102830002F3231050CF0ADCDA9014F5F5F4F5093A2
:102840004A0240934902275E3D4FD9018C93A1CDA6
:102850000E94010300917E0210917F02209180026C
:1028600030918102AB01BC01401B510B620B730B19
:1028700077FD09C7D901C80188519C4FAF4FBF4FA1
:1028800080937E0290937F02A0938002B093810296
:102890000E94010300917E0210917F02209180022C
:1028A00030918102601B710B820B930B1616170679
:1028B0001806190674F40E94010368517C4F8F4F6B
:1028C0009F4F60937E0270937F028093800290936B
:1028D00081020E9458036B017C0183E10E94DD02AA
:1028E000CF53DF4F99838883C15CD04082E10E943F
:1028F000DD02CD53DF4F99838883C35CD0400E94B3
:10290000A1028C0180915002882369F0109250023C
:1029100081E080934F02C0924B02D0924C02E09231
:102920004D02F0924E0280914F028823B9F08091BF
:102930004B0290914C02A0914D02B0914E022601A3
:102940003701481A590A6A0A7B0AD301C201843640
:102950009105A105B10510F010924F0220904F0291
:102960008FE00E947802892B09F4FBC081E02826C1
:102970006090820270908302CA51DF4F7982688230
:10298000C65ED0408090840290908502CF52DF4F87
:1029900099828882C15DD040409186023091870241
:1029A000A0908802B0908902C553DF4FB982A882F7
:1029B000CB5CD04040908A0250908B02C153DF4FD5
:1029C00059824882CF5CD04020918C0290918D0238
:1029D00060908E0270908F02CB53DF4F79826882B5
:1029E000C55CD0403090900270909102C352DF4F8E
:1029F0007882CD5DD04080909202C852DF4F8882AD
:102A0000C85DD04090909302CD52DF4F9882C35D55
:102A1000D040409094025090950260909602709041
:102A20009702C752DF4F488259826A827B82C95D12
:102A3000D04050909802CC51DF4F5882C45ED040B5
:102A40008091990260909A0270909B0280909C0203
:102A500090909D02C052DF4F688279828A829B8269
:102A6000C05ED04051E0012B09F050E0C852DF4F6A
:102A70007880C85DD040571569F0C852DF4F588341
:102A8000C85DD040C752DF4FC882D982EA82FB823C
:102A9000C95DD04046015701C752DF4F4880598079
:102AA0006A807B80C95DD04084189508A608B70865
:102AB0006AE186169104A104B10428F0CD52DF4FDB
:102AC0005883C35DD040CD52DF4F4880C35DD040B6
:102AD000C753DF4F4882C95CD04051E02526CC5116
:102AE000DF4F5880C45ED040251469F0CC51DF4FD1
:102AF0002882C45ED040C052DF4FC882D982EA82A9
:102B0000FB82C05ED040C052DF4F688079808A80EF
:102B10009B80C05ED040C618D708E808F9085AE183
:102B2000C516D104E104F10408F4282E51E08527EC
:102B3000211001C080E0C352DF4F4880CD5DD040FE
:102B4000411011C0211006C051E0C352DF4F58831D
:102B5000CD5DD040312CCB51DF4F1882C55ED040C7
:102B600016C0212C05CF8823B1F3332009F4F7C315
:102B7000312C63E57AE4CA51DF4F79836883C65EFE
:102B8000D04071E0CB51DF4F7883C55ED040CA5151
:102B9000DF4F88809980C65ED0409E8E8D8ECF524A
:102BA000DF4FA880B980C15DD040B8A2AF8E49A3E5
:102BB0003AA3C553DF4F48805980CB5CD0405CA21C
:102BC0004BA2C153DF4F68807980CF5CD0407EA29A
:102BD0006DA22FA398A7CB53DF4F88809980C55C47
:102BE000D0409AA689A63BA6C352DF4F9880CD5D00
:102BF000D0409CA6C852DF4FA880C85DD040ADA68B
:102C0000CD52DF4FB880C35DD040BEA6C752DF4F64
:102C1000488059806A807B80C95DD0404FA658AA01
:102C200069AA7AAACC51DF4F5880C45ED0405BAA13
:102C30002CAAC052DF4F688079808A809B80C05E5A
:102C4000D0406DAA7EAA8FAA98AE332009F4C2C0E4
:102C500086E0FE017F96DE01A155BF4F01900D92E7
:102C60008A95E1F7CF52DF4F88809980C15DD040CF
:102C7000CF53DF4FA880B980C15CD040A814B904FD
:102C800034F4CF52DF4FB982A882C15DD040C55322
:102C9000DF4F48805980CB5CD040CF53DF4F6880F6
:102CA0007980C15CD0404614570434F4C553DF4FDB
:102CB00079826882CB5CD040CF52DF4F8880998088
:102CC000C15DD040C155DF4F99828882CF5AD04034
:102CD000C553DF4FA880B980CB5CD040CD54DF4FC7
:102CE000B982A882C35BD04086E0FE01E155FF4F68
:102CF000DE01A755BF4F01900D928A95E1F786E05E
:102D0000FE01E755FF4FDE015F9601900D928A9517
:102D1000E1F786E0FE01B596DE01A554BF4F0190B4
:102D20000D928A95E1F7C153DF4F48805980CF5CFF
:102D3000D040CD53DF4F68807980C35CD0406414AD
:102D4000750434F4C153DF4F79826882CF5CD04080
:102D5000CB53DF4F88809980C55CD040CD53DF4F87
:102D6000A880B980C35CD0408A149B0434F4CB5350
:102D7000DF4FB982A882C55CD040C153DF4F488085
:102D80005980CF5CD040C554DF4F59824882CB5B1D
:102D9000D040CB53DF4F68807980C55CD040C154B0
:102DA000DF4F79826882CF5BD04086E0FE01E55438
:102DB000FF4FDE01AB54BF4F01900D928A95E1F7B2
:102DC00086E0FE01EB54FF4FDE01959601900D92D7
:102DD0008A95E1F7CF52DF4F88809980C15DD0405E
:102DE00098A28F8EC553DF4FA880B980CB5CD040AE
:102DF000BCA2ABA2C153DF4F48805980CF5CD0400A
:102E00005EA24DA2CB53DF4F68807980C55CD04075
:102E10007AA669A68CE1FE017D96DE0111960190ED
:102E20000D928A95E1F78D809E80CC52DF4F99827A
:102E30008882C45DD040AB84BC84CA52DF4FB98263
:102E4000A882C65DD04031106FC3CF53DF4F48809A
:102E50005980C15CD040481459040CF4BBC2C5531E
:102E6000DF4F08811981CB5CD04008191909101671
:102E700011060CF0F6C2B20168197909072E000C90
:102E8000880B990B0E94A01E6B017C01B801110FE9
:102E9000880B990B0E94A01E9B01AC01C701B601D3
:102EA0000E94F61D2B013C0120E030E0A9010E94A8
:102EB000EC1D87FDD6C220E030E040E85FE3C301AF
:102EC000B2010E948F1F181634F4412C512C80E857
:102ED000682E8FE3782ECD53DF4FA880B980C35C76
:102EE000D040CA52DF4F88809980C65DD040A81478
:102EF000B9040CF4C1C2CB53DF4F08811981C55C02
:102F0000D04008191909101611060CF0FCC2B501C1
:102F100068197909072E000C880B990B0E94A01ED6
:102F20006B017C01B801110F880B990B0E94A01E48
:102F30009B01AC01C701B6010E94F61D6B017C012B
:102F400020E030E0A9010E94EC1D87FDDCC220E0FA
:102F500030E040E85FE3C701B6010E948F1F1816FA
:102F600034F4C12CD12C10E8E12E1FE3F12EA30183
:102F70009201C301B2010E94941F4B015C01A701A1
:102F80009601C701B6010E94941F9B01AC01C501C7
:102F9000B4010E94801D0E940F20C851DF4F68833A
:102FA00079838A839B83C85ED0402DEC3CEC4CE453
:102FB0005DE30E94EC1D18160CF0B0C22DEC3CEC49
:102FC0004CE45DE3C851DF4F688179818A819B8140
:102FD000C85ED0400E947F1D23E333E343E75FE3F5
:102FE0000E94F61D4B015C0120E030E040E85FE309
:102FF0000E948F1F181634F4812C912CA0E8AA2E61
:10300000AFE3BA2EC851DF4F288139814A815B81F5
:10301000C85ED040C501B4010E94F61D4B015C01A1
:10302000A30192010E94941F2B013C01A70196016C
:10303000C501B4010E94941F4B015C0120E03EEFEA
:103040004FEF56E4C301B2010E94941F0E94681E14
:103050007B0120E03EEF4FEF56E4C501B4010E9432
:10306000941F0E94681E8B01CA51DF4FA880B9804F
:10307000C65ED040B0928302A0928202CF52DF4F50
:1030800048805980C15DD0405092850240928402B0
:10309000CC52DF4F68807980C45DD0407092870247
:1030A00060928602C553DF4F88809980CB5CD04008
:1030B0009092890280928802C153DF4FA880B98024
:1030C000CF5CD040B0928B02A0928A02CA52DF4FEE
:1030D00048805980C65DD04050928D0240928C024B
:1030E000CB53DF4F68807980C55CD04070928F02EF
:1030F00060928E0230929002C352DF4F7880CD5D95
:10310000D04070929102C852DF4F8880C85DD04095
:1031100080929202CD52DF4F9880C35DD040909252
:103120009302C752DF4F488059806A807B80C95D17
:10313000D040409294025092950260929602709212
:103140009702CC51DF4F5880C45ED0405092980215
:1031500020929902C052DF4F688079808A809B80DC
:10316000C05ED04060929A0270929B0280929C0254
:1031700090929D02B701FF0C880B990B0E94A01E34
:103180004B015C0140901B0150901C0160901D019F
:1031900070901E01CB53DF4F488259826A827B8236
:1031A000C55CD04066277727601B710B072E000C8B
:1031B000880B990B0E94A01E2B013C0120917A02E2
:1031C00030917B0240917C0250917D02C553DF4FCC
:1031D000288339834A835B83CB5CD040CB53DF4F5A
:1031E000288139814A815B81C55CD040C501B40129
:1031F0000E94941F6B017C01C553DF4F28813981E8
:103200004A815B81CB5CD040C301B2010E94941F14
:103210009B01AC01C701B6010E94801D6B017C01BE
:1032200020E03EEF4FEF56E40E948F1F0FEF1FE7A5
:1032300018168CF020E03EEF4FEF56ECC701B601B8
:103240000E94EC1D01E010E887FD05C0C701B60132
:103250000E94681E8B01A3019201CB53DF4F68814E
:1032600079818A819B81C55CD0400E94941F6B014B
:103270007C01C553DF4F288139814A815B81CB5C5A
:10328000D040C501B4010E94941F9B01AC01C7014D
:10329000B6010E947F1D6B017C0120E03EEF4FEFE5
:1032A00056E40E948F1F18160CF443C120E03EEF35
:1032B0004FEF56ECC701B6010E94EC1D87FD3EC1E1
:1032C000C701B6010E94681E7B012090160331E001
:1032D0002312F2C1CD52DF4F4880C35DD04044205D
:1032E00051F088248394912C332039F0C753DF4F59
:1032F0001882C95CD040912C812CD0907002DD20C6
:1033000059F10E94580340906C0250906D026090F9
:103310006E0270906F026419750986099709603909
:1033200071408105910508F0BDC132E1D31609F461
:10333000BCC13D1508F407C141E1D41609F411C11F
:10334000AD2DA150BB0B21E030E002C0220F331F96
:10335000AA95E2F7822A932A5701680108C1CD5342
:10336000DF4F48805980C35CD040CB53DF4F598238
:103370004882C55CD040CD53DF4F2881C35CD0402C
:10338000CC53DF4F9881C45CD040C153DF4F59828A
:103390004882CF5CD040CF53DF4F68807980C15CDA
:1033A000D040C553DF4F79826882CB5CD040CF5389
:1033B000DF4F4881C15CD040CE53DF4F3881C25CC3
:1033C000D040CF52DF4F79826882C15DD040332434
:1033D0003394C1CBCC52DF4F08811981C45DD040FA
:1033E000CF52DF4F68807980C15DD0400619170940
:1033F00010161106B4F5CF53DF4F68817981C15C97
:10340000D040CC52DF4F88809980C45DD04068198D
:103410007909072E000C880B990B0E94A01E6B01E6
:103420007C01B801110F880B990B0E94A01E9B0113
:10343000AC01C701B6010E94F61D2B013C0120E042
:1034400030E040E85FEB0E94EC1D87FD0EC020E0FD
:1034500030E0A901C301B2010E948F1F18160CF0C1
:103460003ACD412C512C320136CD412C512C00E863
:10347000602E0FEB702E2FCDCA52DF4F08811981BD
:10348000C65DD040C153DF4FA880B980CF5CD0402B
:103490000A191B0910161106B4F5CD53DF4F6881C8
:1034A0007981C35CD040CA52DF4F88809980C65D65
:1034B000D04068197909072E000C880B990B0E94DF
:1034C000A01E6B017C01B801110F880B990B0E94A3
:1034D000A01E9B01AC01C701B6010E94F61D6B0145
:1034E0007C0120E030E040E85FEB0E94EC1D87FDAE
:1034F0000EC020E030E0A901C701B6010E948F1F75
:1035000018160CF034CDC12CD12C760130CDC12C45
:10351000D12CB0E8EB2EBFEBFB2E29CD812C912CCA
:103520005401240135018ACD10E000E0F12CE12C9A
:103530009BCDEE24EA94FFE7FF2EC7CEEE24E39462
:10354000E0E8FE2EC2CE53E1D51609F4A6C064E130
:10355000AA24A39440E8B42ED612F2CED12CC12CCA
:1035600006C0B12CA12CCC24C39460E8D62EC1583F
:10357000DF4FD982C882CF57D040882799278A1930
:103580009B09CF57DF4F99838883C158D040CD57CF
:10359000DF4F99828882C358D04046E050E065E111
:1035A00071E0CE0181589F4F0E942421892BE9F1BF
:1035B00086E0FE01E158FF4FA5E1B1E001900D92D8
:1035C0008A95E1F70E94900626E030E0AE0141586E
:1035D0005F4F63E00E94BA0581E0A114B0E4BB062E
:1035E0000CF480E08093670281E0E1E0AE16E0EC4D
:1035F000BE060CF080E08093680281E0F1E0CF1617
:10360000F0ECDF060CF080E08093690281E0C114E9
:1036100020E4D2060CF480E080936A02C753DF4FA7
:103620004880C95CD04040926B02832D0E944D02BD
:10363000CB51DF4F6880C55ED040662021F082E824
:1036400092E00E94EC09CF53DF4F88809980C15CE3
:10365000D0409092790280927802CD53DF4FA880BB
:10366000B980C35CD040B0927702A09276021093EA
:10367000750200937402F0927302E09272028091DC
:1036800090028093710280E090E0892B11F40C94F9
:10369000D2100E9400000C94D210AA24AA945FE7D2
:1036A000B52E5CCF1092700257CEB12CA12CCC2439
:1036B000CA943FE7D32E5BCF22E0522E251047C19C
:1036C000CD52DF4F6880C35DD040662061F033206B
:1036D00089F0C753DF4F1882C95CD040D12CC12C70
:1036E000B12CA12C0BC03110F9CFC753DF4F18827A
:1036F000C95CD040DE2CCF2CB02EA12E0E945803E6
:10370000409063025090640260906502709066027F
:103710009B01AC01241935094609570929013A01D1
:1037200038E0431651046104710408F47ECF6093BD
:103730006302709364028093650290936602209105
:103740005A02C753DF4F4880C95CD040442009F477
:10375000E4C021110BC0609356027093570280930E
:1037600058029093590221E020935502C753DF4F2E
:103770004880C95CD04040925A02442009F120910F
:1037800055022223C9F04090560250905702609093
:103790005802709059029B01AC0124193509460961
:1037A000570929013A0134EF431631E05306610409
:1037B000710410F010925502209155022223A1F0BD
:1037C0004090510250905202609053027090540207
:1037D000461A570A680A790A2224239414141504F5
:1037E000160417040CF0212C8B2D9A2D0E9405082D
:1037F00020915F023091600240916102509162021B
:103800000E94801D2B013C018D2D9C2D0E940508DE
:103810009B01AC0160915B0270915C0280915D0242
:1038200090915E020E947F1D4B015C01C301B201B9
:103830000E94681E91E8C92E61384FEF740734F07A
:103840006038710514F06FE770E0C62EC501B40151
:103850000E94681E81E8D82E61385FEF750734F04A
:103860006038710514F06FE770E0D62E6C2D0C2CCB
:10387000000C770B880B990B0E94A01E9B01AC01DA
:10388000C301B2010E947F1D60935F0270936002CA
:1038900080936102909362026D2D0D2C000C770BCA
:1038A000880B990B0E94A01E9B01AC01C501B401BD
:1038B0000E947F1D60935B0270935C0280935D02A7
:1038C00090935E02C11007C0D11005C08091140111
:1038D000821509F4AACE20921401CF57DF4F198226
:1038E0001882C158D040C158DF4F2882CF57D040EE
:1038F000C058DF4FC882C058D040CF57DF4FD88262
:10390000C158D0400E94900624E030E0AE014158FA
:103910005F4F64E00E94BA0581CE222309F426CFCE
:1039200020915502222309F421CF2B013C012CE3E5
:10393000420E511C611C711C409251025092520265
:103940006092530270925402109255020FCFB80148
:1039500083E090E00E94670866277727601B710B61
:1039600082E090E00E946708B70190E080E00E944A
:103970006708662777276E197F0981E090E00E942B
:103980006708CD52DF4F5880C35DD040552049F0C5
:103990009091900281E09827C753DF4F9883C95CCC
:1039A000D040C753DF4F6881C95CD04084E090E0CD
:1039B0000E9453083ACEFC0188279927E894219168
:1039C0002032E9F3293010F02E30C8F32B3241F0C9
:1039D0002D3239F4689404C00E94611D820F911D3C
:1039E000219120532A30C0F31EF4909581959F4F6A
:1039F00008951F93FC0199278827BC01E894119131
:103A00001032E9F3193010F01E30C8F31B3251F0B8
:103A10001D3249F4689406C00E944C1D610F711D4F
:103A2000811D911D119110531A30B0F33EF4909501
:103A30008095709561957F4F8F4F9F4F1F9108958F
:103A400047E153E00E94251D0895FA01A191B0813C
:103A5000009719F41097E1F0CD01DC01CD010D9034
:103A6000002011F4C00113C0FB012191222319F0A1
:103A70002015D9F7F3CFFB012191201519F41E92DF
:103A8000119606C02223C1F70D900020A1F7D001A6
:103A9000FA01A193B0830895592F482F372F262F6D
:103AA000660F771F881F991F660F771F881F991F42
:103AB000620F731F841F951F660F771F881F991F42
:103AC00008957AE0979F902D879F802D910D112466
:103AD0000895F999FECF92BD81BDF89A992780B5D6
:103AE0000895262FF999FECF1FBA92BD81BD20BD42
:103AF0000FB6F894FA9AF99A0FBE019608955058A5
:103B0000BB27AA270E94971D0C94411F0E94081FE3
:103B100038F00E940F1F20F039F49F3F19F426F46B
:103B20000C94051F0EF4E095E7FB0C94FF1EE92FA3
:103B30000E94661F58F3BA17620773078407950738
:103B400020F079F4A6F50C94881F0EF4E0950B2E66
:103B5000BA2FA02D0B01B90190010C01CA01A001DF
:103B60001124FF27591B99F0593F50F4503E68F13A
:103B70001A16F040A22F232F342F4427585FF3CF7B
:103B8000469537952795A795F0405395C9F77EF44C
:103B90001F16BA0B620B730B840BBAF09150A1F095
:103BA000FF0FBB1F661F771F881FC2F70EC0BA0F1B
:103BB000621F731F841F48F4879577956795B795A3
:103BC000F7959E3F08F0B0CF9395880F08F099279E
:103BD000EE0F9795879508950E94DB1E08F481E00B
:103BE00008950E94181FE3950C94521F0E940A1E0C
:103BF0000C94411F0E940F1F58F00E94081F40F0B4
:103C000029F45F3F29F00C94FF1E51110C94891F79
:103C10000C94051F0E94661F68F39923B1F3552386
:103C200091F3951B550BBB27AA27621773078407CF
:103C300038F09F5F5F4F220F331F441FAA1FA9F365
:103C400035D00E2E3AF0E0E832D091505040E69553
:103C5000001CCAF72BD0FE2F29D0660F771F881FB4
:103C6000BB1F261737074807AB07B0E809F0BB0BA7
:103C7000802DBF01FF2793585F4F3AF09E3F5105BB
:103C800078F00C94FF1E0C94891F5F3FE4F3983E7C
:103C9000D4F3869577956795B795F7959F5FC9F7A4
:103CA000880F911D9695879597F90895E1E0660F25
:103CB000771F881FBB1F621773078407BA0720F09E
:103CC000621B730B840BBA0BEE1F88F7E095089507
:103CD0000E946F1E6894B1110C94891F08950E9470
:103CE0006E1F88F09F5798F0B92F9927B751B0F001
:103CF000E1F0660F771F881F991F1AF0BA95C9F770
:103D000014C0B13091F00E94881FB1E008950C9466
:103D1000881F672F782F8827B85F39F0B93FCCF319
:103D2000869577956795B395D9F73EF490958095EC
:103D3000709561957F4F8F4F9F4F0895E89409C00C
:103D400097FB3EF490958095709561957F4F8F4FCE
:103D50009F4F9923A9F0F92F96E9BB279395F695E4
:103D6000879577956795B795F111F8CFFAF4BB0F62
:103D700011F460FF1BC06F5F7F4F8F4F9F4F16C0C6
:103D8000882311F096E911C0772321F09EE8872F50
:103D9000762F05C0662371F096E8862F70E060E00C
:103DA0002AF09A95660F771F881FDAF7880F969585
:103DB000879597F90895990F0008550FAA0BE0E829
:103DC000FEEF16161706E807F907C0F012161306DD
:103DD000E407F50798F0621B730B840B950B39F41D
:103DE0000A2661F0232B242B252B21F408950A2683
:103DF00009F4A140A6958FEF811D811D089597F9C3
:103E00009F6780E870E060E008959FEF80EC089580
:103E100000240A94161617061806090608950024A9
:103E20000A94121613061406050608950C94051F2D
:103E30000E946E1FD8F3E894E0E0BB279F57F0F094
:103E40002AED3FE049EC06C0EE0FBB0F661F771F5F
:103E5000881F28F0B23A62077307840728F0B25A25
:103E6000620B730B840BE3959A9572F7803830F4EC
:103E70009A95BB0F661F771F881FD2F790480C9446
:103E80005120092E0394000C11F4882352F0BB0F2B
:103E900040F4BF2B11F460FF04C06F5F7F4F8F4F62
:103EA0009F4F0895EF93E0FF07C0A2EA2AED3FE09D
:103EB00049EC5FEB0E94971D0E94411F0F900394F5
:103EC00001FC9058ECEAF0E00C94642057FD905807
:103ED000440F551F59F05F3F71F04795880F97FBCE
:103EE000991F61F09F3F79F0879508951216130688
:103EF0001406551FF2CF4695F1DF08C016161706B7
:103F00001806991FF1CF86957105610508940895EB
:103F1000E894BB2766277727CB0197F908950E947D
:103F2000DB1E08F48FEF08950E94A71F0C94411F19
:103F30000E94081F38F00E940F1F20F0952311F0F7
:103F40000C94FF1E0C94051F11240C94891F0E94D1
:103F5000661F70F3959FC1F3950F50E0551F629F48
:103F6000F001729FBB27F00DB11D639FAA27F00DD2
:103F7000B11DAA1F649F6627B00DA11D661F829FF9
:103F80002227B00DA11D621F739FB00DA11D621FDE
:103F9000839FA00D611D221F749F3327A00D611DFB
:103FA000231F849F600D211D822F762F6A2F1124DD
:103FB0009F5750409AF0F1F088234AF0EE0FFF1F10
:103FC000BB1F661F771F881F91505040A9F79E3F67
:103FD000510580F00C94FF1E0C94891F5F3FE4F3A1
:103FE000983ED4F3869577956795B795F795E795BD
:103FF0009F5FC1F7FE2B880F911D9695879597F9C6
:1040000008959F930E94181F0F9007FCEE5F0C9479
:10401000521F19F416F40C94051F0C944F200E94A3
:104020006E1FB8F39923C9F3B6F39F57550B87FF5B
:104030000E945D200024A0E640EA90018058569539
:10404000979528F4805C660F771F881F20F026174D
:104050003707480730F4621B730B840B2029312982
:104060004A2BA69517940794202531254A2758F7FF
:10407000660F771F881F20F026173707480730F490
:10408000620B730B840B200D311D411DA09581F730
:10409000B901842F9158880F9695879508959F3F71
:1040A00031F0915020F4879577956795B795880FF3
:1040B000911D9695879597F9089591505040660FF8
:1040C000771F881FD2F708959F938F937F936F93E5
:1040D000FF93EF939B01AC010E94941FEF91FF911E
:1040E0000E9478202F913F914F915F910C94941FE3
:1040F000DF93CF931F930F93FF92EF92DF927B0199
:104100008C01689406C0DA2EEF010E94A71FFE0101
:10411000E894A5912591359145915591A6F3EF012C
:104120000E94971DFE019701A801DA9469F7DF90BC
:10413000EF90FF900F911F91CF91DF91089597FB22
:10414000072E16F4009407D077FD09D00E941021A5
:1041500007FC05D03EF4909581959F4F089570958A
:1041600061957F4F0895A1E21A2EAA1BBB1BFD018A
:104170000DC0AA1FBB1FEE1FFF1FA217B307E40746
:10418000F50720F0A21BB30BE40BF50B661F771F9E
:10419000881F991F1A9469F760957095809590957E
:1041A0009B01AC01BD01CF010895052E97FB1EF4C4
:1041B00000940E94EC2057FD07D00E94B32007FC1A
:1041C00003D04EF40C94EC205095409530952195F9
:1041D0003F4F4F4F5F4F0895909580957095619533
:1041E0007F4F8F4F9F4F0895EE0FFF1F0590F49163
:1041F000E02D0994A29FB001B39FC001A39F700D51
:10420000811D1124911DB29F700D811D1124911DDE
:1042100008950E94FA20B7FF0895821B930B08951A
:10422000AA1BBB1B51E107C0AA1FBB1FA617B707DC
:1042300010F0A61BB70B881F991F5A95A9F78095F8
:104240009095BC01CD010895FB01DC0104C08D9166
:104250000190801921F441505040C8F7881B990BF8
:104260000895FB01DC018D91019080190110D9F3B3
:10427000990B0895FB01DC014150504030F08D91C5
:104280000190801919F40020B9F7881B990B089543
:04429000F894FFCFD0
:1042940000C18081000000FFFFFFFF00E10000007B
:1042A40000000008FF00000000FFFF0000803F0046
:1042B40000FF01FF031213141500000000970545C9
:1042C400060A06EF050001030405060708090A0E9D
:1042D4000F10312E36004D4B77736164813200002C
:1042E4000000FE04E804360534057D053B05590548
:1042F40000000000EB070207020801080D0A00474E
:10430400455400534554200052455345544B455998
:10431400530053544154450043414C0042544E20F1
:104324000056455200535044005350442000444921
:10433400414700524F5400524F5420004D4F4445C2
:10434400004D4F44452030004D4F44452031004D31
:064354004F444520320039
:00000001FF
