:100000000C9496010C94CA010C94CA010C94CA0178
:100010000C94CA010C94CA010C94CA010C94CA0134
:100020000C94CA010C94CA010C945D0A0C94DA0A6F
:100030000C94CA010C94CA010C94CA010C94CA0114
:100040000C94CA010C94CA010C94CA010C94CA0104
:100050000C94CA010C94CA010C94CA010C94130AA2
:100060000C94CA010C94CA010C94CA010C94CA01E4
:100070000C94CA010C94CA010C94CA010C94CA01D4
:100080000C94CA010C94CA010C94CA010C94CA01C4
:100090000C94CA010C94CA010C94CA010C94CA01B4
:1000A0000C94CA010C94CA010C94CA0105A84CCD49
:1000B000B2D44EB93836A9020C50B9918688083CA2
:1000C000A6AAAA2ABE000000803F05010902A101DC
:1000D0000901A1008504050919012903150025015D
:1000E00075019503810275059501810305010930AC
:1000F000093109381581257F750895038106C0C02F
:1001000005010905A1018503093009311601802681
:10011000FF7F75109502810205091901291015004C
:100120002501750195108102C043464700080B0068
:10013000020202000009040000010202000005247E
:100140000010010524010101042402060524060013
:10015000010705810310004009040100020A0000A4
:10016000000705020240000007058302400000046A
:1001700003090412010002EF02014009120200000B
:1001800001010203014A617370004A6173702053D8
:100190007469636B004F4B0044494147005354411D
:1001A000544520004F4B00455252004552520045E5
:1001B000525200455252004F4B004D4F44452000D3
:1001C0004F4B0045525200524F5420004F4B0045B8
:1001D000525200535044200056455220004F4B00CD
:1001E000455252004F4B00070605040100080A0B58
:1001F0000C0D0900000000240027002A002D00300B
:1002000000000000002300260029002C002F000021
:10021000000000250028002B002E003100040404FB
:10022000040403040502020202040302020202069D
:10023000060606060604040202020404040802017B
:10024000104080401020408040800802040180401F
:100250002010020110801020404020000000020009
:10026000090F0000030401000C0000000000000062
:10027000000000000000000000000000000000007E
:1002800000002A2B280000000000000000000000F1
:10029000000000000000000000002C9EB4A0A1A2FD
:1002A000A434A6A7A5AE362D3738271E1F2021223D
:1002B00023242526B333B62EB7B89F848586878836
:1002C000898A8B8C8D8E8F90919293949596979826
:1002D000999A9B9C9D2F3130A3AD350405060708E4
:1002E000090A0B0C0D0E0F10111213141516171806
:1002F000191A1B1C1DAFB1B0B50005010906A101FB
:100300008502050719E029E7150025017501950803
:1003100081029501750881039506750815002573FE
:100320000507190029738100C000730D11241FBE39
:10033000CFEFDAE0DEBFCDBF14BE0FB6F894A895BC
:1003400080916000886180936000109260000FBE11
:1003500023E0A6ECB1E001C01D92A831B207E1F79D
:1003600011E0A0E0B1E0ECECFFE302C005900D92DB
:10037000A63CB107D9F711E0C6E9D1E004C0219746
:10038000FE010E94A41FC539D107C9F70E94C00D04
:100390000C94E41F0C94000083E08093E9008091AA
:1003A000F200882319F08AE38093E8000895FC01A5
:1003B0008091A802882311F13FB7F89482E08093DE
:1003C000E9002091F200822F90E01816190614F42B
:1003D00081E090E0882339F0289844E64093A70212
:1003E0004091F1004083222339F02091F200211145
:1003F00003C02BE62093E8003FBF08958FEF9FEFE7
:10040000089581508F3008F047C0E82FF0E0E55F95
:10041000FD4F0C94A41F28022C021A022002240271
:100420004C024C024C022F02350239023D024302BB
:100430004C024702809180008F778093800008955E
:10044000809180008F7DF9CF80918000877FF5CFEC
:1004500084B58F7784BD089584B58F7DFBCF80915F
:1004600090008F77809390000895809190008F7D09
:10047000F9CF80919000877FF5CF8091C0008F7772
:100480008093C00008958091C0008F7DF9CF809146
:10049000C200877F8093C20008951F93CF93DF939C
:1004A000EDE5F2E09491EEE3F2E0D491EFE1F2E0D9
:1004B000C491CC23B9F0182F992319F0892F0E94E9
:1004C0000102EC2FF0E0EE0FFF1FE15FFD4FA59161
:1004D000B4918FB7F894EC91111108C0D095DE2338
:1004E000DC938FBFDF91CF911F910895DE2BF8CF62
:1004F000CF93DF93282F30E0F901E55AFD4F849127
:10050000F901E45CFD4FD491F901E35EFD4FC49124
:10051000CC23A1F081110E940102EC2FF0E0EE0F3C
:10052000FF1FEF5FFD4FA591B491EC91ED2381E0AA
:1005300090E009F480E0DF91CF91089580E090E0B1
:10054000FACFCF93DF9390E0FC01E45CFD4F249160
:10055000835E9D4FFC0184918823D1F090E0880F49
:10056000991FFC01ED50FE4FA591B491FC01E15F94
:10057000FD4FC591D491623071F49FB7F8943C91CE
:10058000822F809583238C93E8812E2B28839FBF15
:10059000DF91CF9108958FB7F894EC912E2B2C9387
:1005A0008FBFF6CF823108F08251E82FF0E0E95199
:1005B000FE4FE49190917B008E2F880F880F807200
:1005C0009F7D892B80937B00E770E064E0937C0043
:1005D00080917A00806480937A0080917A0086FD11
:1005E000FCCF809178009091790008953FB7F894FE
:1005F0008091A3029091A402A091A502B091A602BD
:1006000026B5A89B05C02F3F19F00196A11DB11D6D
:100610003FBFBA2FA92F982F8827BC01CD01620FA9
:10062000711D811D911D42E0660F771F881F991F64
:100630004A95D1F708958F929F92AF92BF92CF9231
:10064000DF92EF92FF924B015C010E94F6026B0178
:100650007C010E94F6026C197D098E099F09683E93
:10066000734081059105A8F321E0821A9108A10841
:10067000B10888EEC80E83E0D81EE11CF11C81147D
:100680009104A104B10429F7FF90EF90DF90CF907F
:10069000BF90AF909F908F9008950C94CC014091A3
:1006A000090250910A022091070230910802421774
:1006B0005307B4F49091E8009570E1F39091E8004D
:1006C00092FD19C08093F1008091090290910A0275
:1006D00001968F739927892B19F48EEF8093E80088
:1006E0008091090290910A02019690930A028093E8
:1006F000090281E0089580E00895EF92FF920F9340
:100700001F93CF93DF93F82E192FE62E042F81E04D
:10071000860F880F0E944F0383E00E944F03CF2D66
:10072000D12FEC0EFD2EF11CCE15DF05B9F007FF21
:1007300013C0FE0184910E944F03182F80E00E9495
:100740004F03812321968111EFCFDF91CF911F912C
:100750000F91FF90EF9008958881EDCF81E0F5CF64
:10076000DF92EF92FF920F931F93CF93DF93D82ED8
:100770008A01EB017B01E40EF51ECE15DF0559F071
:10078000D7FE12C0FE0184910E944F032196811171
:10079000F4CF0FEF1FEFC801DF91CF911F910F91A1
:1007A000FF90EF90DF9008958881EECF2FB7F894F7
:1007B00087708093E9009091E800892F807295FFFF
:1007C00004C09091F20080E4891B2FBF08957F92AE
:1007D0008F929F92AF92BF92CF92DF92EF92FF9251
:1007E0000F931F93CF93DF93C82E8B017A018091D3
:1007F000A802811110C08FEF9FEFDF91CF911F9161
:100800000F91FF90EF90DF90CF90BF90AF909F90AF
:100810008F907F90089580910D0280FF05C0809198
:10082000E00082608093E000CE2DDF2DD12C8AEF96
:10083000B82E8C2D8770982E8C2D8072882E8C2D42
:100840008074782E9AE3A92E209719F4DD2009F4FC
:1008500052C08C2D0E94D60381110AC0BA94BB20CD
:1008600051F261E070E080E090E00E941B03ECCF69
:100870008C171D0611F00CF08C2F9FB7F8949092F6
:10088000E9002091E80025FD02C09FBFDDCF282FA1
:1008900030E0C21BD30B882029F08150A0F01092C9
:1008A000F100FBCFF801C7FC0AC0815050F0419124
:1008B0004093F100FACF44914093F100319681507A
:1008C000D0F7020F131FDD2021F0A092E800D12CF9
:1008D000DCCF8091E80085FD07C0A092E800DD2410
:1008E000D394209791F2F3CF209779F6772069F28D
:1008F000A092E800CACF5D9884E680930C02C701FD
:100900007CCF615030F02091F100FC0120830196F2
:10091000F8CF289884E68093A70208958091FF017C
:1009200081110DC082E08093FB0184E08093FC0183
:100930001092FE011092FD0181E08093FF018BEF88
:1009400091E008950F931F93CF93DF931F92CDB73C
:10095000DEB782E0898342E450E06DE271E080E836
:100960000E94B0030E948E04DC0112960D911C912E
:100970000115110589F0D801ED91FC910280F381F8
:10098000E02DBE016F5F7F4FC801099597FD04C040
:10099000F80100851185ECCF89810F90DF91CF910F
:1009A0001F910F910895CF93DF93EC018091120175
:1009B000882331F083E00E94E7031816190634F00B
:1009C00081E090E09B838A8380E090E0DF91CF918B
:1009D0000895CF93DF931F92CDB7DEB76983DC0113
:1009E000ED91FC910280F381E02D41E050E0BE01E9
:1009F0006F5F7F4F09950F90DF91CF910895682F1A
:100A000089EA92E00C94E9040F931F93CF93DF934C
:100A10008C01D0E0C0E0F801EC0FFD1F649166236B
:100A200041F089EA92E00E94E904892B11F02196B5
:100A3000F2CFCE01DF91CF911F910F91089583E006
:100A40000E94D60390E00895CF93DF931F92CDB715
:100A5000DEB7FC018485958597FD08C02FEF3FEF39
:100A6000358724870F90DF91CF910895CE010196AD
:100A70000E94D701019719F4898190E0F3CF8FEF9D
:100A80009FEFF0CF0F931F93CF93DF931F92CDB7BC
:100A9000DEB78C01FC018485958597FF0BC0CE01E4
:100AA00001960E94D701019771F4898190E0F801C5
:100AB00095878487F801848595850F90DF91CF9184
:100AC0001F910F9108958FEF9FEFF1CFFC01848567
:100AD000958597FD0BC09FB7F89482E08093E9005D
:100AE0008091F2009FBF90E0019608959FB7F8941F
:100AF00082E08093E9008091F2009FBF90E008952A
:100B0000DC01FB0112962C911297848195812817A4
:100B1000190641F491818081813A31F49D7F81E011
:100B2000913009F080E008958132E1F79B3029F49B
:100B300082811F968C9381E008959A3099F7828183
:100B400050968C93F8CFAF92BF92CF92DF92EF92F4
:100B5000FF920F931F93CF93DF931F92CDB7DEB712
:100B60007C0169836A01590141E050E0BE016F5F79
:100B70007F4FFC0183810E94E7038C0197FD0BC02E
:100B8000F7018381A501B60180640E94E703080F85
:100B9000191F97FD8C01C8010F90DF91CF911F9114
:100BA0000F91FF90EF90DF90CF90BF90AF9008959E
:100BB000DC01FB0188E4808389E4818384E482830F
:100BC0001D969C911D979F709F5B93831D968D91A1
:100BD0009C9124E0969587952A95E1F78F708F5B1D
:100BE000848385E00895EF92FF920F931F93CF9334
:100BF000DF93FB012081213871F52381223259F5E1
:100C0000DC0112964C91248135814217130619F5A7
:100C1000EC010B851C85F12CE12C0115110589F0E7
:100C2000F801448155816281738180E80E94B0039C
:100C30008F3F980749F0E80EF91ED8010D911C91DD
:100C4000ECCF81E08F87C701DF91CF911F910F918A
:100C5000FF90EF90089590E080E0F6CFCF93DF9380
:100C6000CDB7DEB769970FB6F894DEBF0FBECDBF24
:100C7000FC01DB018C918F5F8C939E012D5F3F4FB8
:100C80008DE0D9011D928A95E9F729E0298384E056
:100C90008A8391E09D8383E08E832A8721E22B87DC
:100CA0009C879D879F8722E2288B27E02B8B25E05E
:100CB0002C8B8E8B20E430E0388F2F8B998F8281A4
:100CC0008B8395858685998B8A8B838180688D8BB4
:100CD00049E150E0BE016F5F7F4F80E00E94B003AA
:100CE00069960FB6F894DEBF0FBECDBFDF91CF91EE
:100CF0000895CF93DF938091F301811167C081E064
:100D00008093E6018093E7012CEE31E03093E90116
:100D10002093E8011092EB011092EA012DE231E0FC
:100D20003093E3012093E2011092EE011092ED0165
:100D30001092F0011092EF018093F1018093F20183
:100D400081EC8093EC010E948E04FC0181819091E2
:100D5000E601482F490F5527551F483051059CF58E
:100D6000A281B381109709F522EE31E0338322830B
:100D700020812093E4018093E5018091E701820FB7
:100D800080832091E801A22FB091E9018A2F821B74
:100D90008917C8F481813D91C82FD0E0C050DF4F42
:100DA00038838F5F8183F2CFD90118962D913C91C2
:100DB000199721153105C1F722EE31E019963C93C0
:100DC0002E931897D5CF81E08093F30182EE91E0C6
:100DD000DF91CF910895CF92DF92EF92FF920F9320
:100DE0001F93CF93DF936C01EB017B01E40EF51EA3
:100DF00010E000E0CE15DF0581F069916D30D1F390
:100E0000D601ED91FC910190F081E02DC60109958C
:100E1000892B19F00F5F1F4FEDCFC801DF91CF91E4
:100E20001F910F91FF90EF90DF90CF900895CF9397
:100E3000DF93EC016838E0F06858FE0186E0662335
:100E400021F09681961301C016828150319681114E
:100E5000F6CF0E947906AE014C5F5F4F28E030E08C
:100E600062E00E94A30581E090E0DF91CF910895B8
:100E7000862F90E067FF0FC0FC01E058F10981E088
:100E800090E001C0880FEA95EAF780959C8189235C
:100E90008C8360E0D2CFEC85FD85E80FF91F64916B
:100EA00090E080E0662309F3862F807C803C49F443
:100EB0008C818F7B8C836F73623309F0BECF64E6C5
:100EC000BCCF67FFF9CF8C818D7F8C836F77F4CF98
:100ED000CF93DF93EC01683858F168588E818617FC
:100EE000D1F08F818617B9F088858617A1F08985A2
:100EF000861789F08A85861771F08B85861759F0D9
:100F0000FE01369690E080E02191211147C08C0FC0
:100F10009D1FFC0166830E947906AE014C5F5F4F06
:100F200028E030E062E00E94A30581E090E01FC06D
:100F3000862F90E067FF0EC0FC01E058F10921E028
:100F400030E001C0220FEA95EAF78C81822B8C8376
:100F500060E0C4CFEC85FD85E80FF91F6491611155
:100F600009C081E090E09B838A8390E080E0DF917C
:100F7000CF910895862F807C803C49F48C818064D9
:100F80008C836F73623309F0A9CF64E6A7CF67FF44
:100F9000F9CF8C8182608C836F77F4CF0196863095
:100FA000910509F0B1CFDDCFEF92FF921F93CF9360
:100FB000DF93EC01162F0E9468077C01612FCE01A0
:100FC0000E941707C7019927DF91CF911F91FF90CA
:100FD000EF900895089590E080E008958F929F9299
:100FE000AF92BF92CF92DF92EF92FF92CF93DF93B7
:100FF0009C012553334F27393941D0F1BC0197FF6C
:1010000004C066277727681B790BEC016C5C7C4079
:10101000072E000C880B990B0E94641D20E036E619
:1010200046EE56E40E94BA1C6B017C0160911301EC
:1010300070E090E080E00E94641D4B015C01A7011C
:101040009601C701B6010E94581E9B01AC01C50163
:10105000B4010E94581ED7FD9058DF91CF91FF90A8
:10106000EF90DF90CF90BF90AF909F908F900895BA
:1010700060E070E0CB01F1CF262FFC01EA59FD4F73
:101080003081361761F06083815F9D4FFC01628182
:1010900087E093E021110C9468070C9417070895DA
:1010A000CF92DF92EF92FF92CF93DF93EC01A0916A
:1010B00016026B01770FEE08FF08FC01EA59FD4F9D
:1010C00080818823E1F0AF50BB0B2FEF3FE70E94F8
:1010D000B91F24E630E040E050E00E94851F61E047
:1010E0002C153D054E055F050CF060E0CE01DF914B
:1010F000CF91FF90EF90DF90CF900C943C082A2F77
:1011000030E0AFEFBFE70E94AA1FE3CFCF93DF939A
:10111000D0E0C0E060E0CE010E943C082196C530DE
:10112000D105C1F7DF91CF910895DC0123E53AE4C1
:101130002D933D9326E0EFE1F1E001900D922A9589
:10114000E1F726E0EFE1F1E0DC01189601900D9265
:101150002A95E1F70895FC0101900020E9F7319705
:10116000AF01481B590BBC0189EA92E00C94D304EF
:101170008CE691E00C94AB08CF93DF930E940405BA
:10118000EC010E94B8088C0F9D1FDF91CF9108954C
:101190008F929F92AF92BF920F931F93CF93DF9343
:1011A000CDB7DEB7A1970FB6F894DEBF0FBECDBFA7
:1011B00019A2423008F44AE08E010F5D1F4F842EC1
:1011C000912CB12CA12CA50194010E94631FE62F44
:1011D000B901CA01EA30F4F4E05DD801EE938D0163
:1011E000232B242B252B79F790E080E0109719F022
:1011F000CD010E94AB08A1960FB6F894DEBF0FBEDA
:10120000CDBFDF91CF911F910F91BF90AF909F9075
:101210008F900895E95CE1CFCF93DF93682F70E062
:1012200090E080E04AE00E94C808EC010E94B80803
:101230008C0F9D1FDF91CF910895CF92DF92EF9297
:10124000FF92CF93DF936C01990FEE08FF08F7FE32
:1012500017C08DE20E94FF04EC0166277727CB01BF
:101260006C197D098E099F094AE00E94C8088C0FFD
:101270009D1FDF91CF91FF90EF90DF90CF90089569
:101280004AE0C701B601DF91CF91FF90EF90DF9068
:10129000CF900C94C808CF93DF9389E291E00E942D
:1012A0000405C1E1D2E080E20E94FF04699170E090
:1012B00090E080E04AE00E94C80882E0C631D8078A
:1012C00091F780E20E94FF0480911602DF91CF9196
:1012D0000C940C09CF92DF92EF92FF928093170249
:1012E000682F880F770B880B990B0E94641D2BEDDC
:1012F0003FE049E450E40E94581E20E030E044E31F
:1013000053E40E94BA1C6B017C010E94B51C6093DF
:101310001B0170931C0180931D0190931E01C70156
:10132000B6010E94C51E6093790270937A02809381
:101330007B0290937C02FF90EF90DF90CF90089516
:10134000FF920F931F93CF93DF93EC01F62E08814A
:101350001981C8010E942D1CF81621F06F2DC801BB
:101360000E94351CCE01DF91CF911F910F91FF900C
:101370000895CF92DF92EF92FF920F931F93CF9336
:10138000DF9300D0CDB7DEB76C017C0110E000E048
:101390001A830983F70161917F01CE0101960E94B2
:1013A000A0090F5F1F4F0E30110591F7C6010F9076
:1013B0000F90DF91CF911F910F91FF90EF90DF90F1
:1013C000CF900895EF92FF920F931F93CF93DF93E7
:1013D00000D0CDB7DEB78C010E94860888E0F80106
:1013E000AFE0B2E001900D928A95E1F78FE0E82E30
:1013F00082E0F82E00E410E01A830983F70161917E
:101400007F01CE0101960E94A0090F5F1F4F083493
:10141000110591F70F900F90DF91CF911F910F91D0
:10142000FF90EF9008951F920F920FB60F92112424
:101430002F933F938F939F93AF93BF9380919F027E
:101440009091A002A091A102B091A20230919E02BF
:1014500023E0230F2D3758F50196A11DB11D2093D0
:101460009E0280939F029093A002A093A102B0934A
:10147000A2028091A3029091A402A091A502B09132
:10148000A6020196A11DB11D8093A3029093A40210
:10149000A093A502B093A602BF91AF919F918F91A7
:1014A0003F912F910F900FBE0F901F90189526E837
:1014B000230F0296A11DB11DD2CF1F920F920FB61E
:1014C0000F9211242F933F934F935F936F937F93CA
:1014D0008F939F93AF93BF93CF93EF93FF93C0915D
:1014E000E1008091E100837F8093E100C3FF0FC0A2
:1014F0001092E90081E08093EB001092EC0082E30F
:101500008093ED001092A80288E08093F000C2FF63
:101510001AC00E94CC0180910C02882341F0809176
:101520000C02815080930C02811101C05D9A809160
:10153000A702882341F08091A70281508093A702DF
:10154000811101C0289AC4FF23C08091E2008E7EE1
:1015500081608093E2008091E1008F7E8093E100C2
:1015600080910D028E7E806180930D02FF91EF913C
:10157000CF91BF91AF919F918F917F916F915F912B
:101580004F913F912F910F900FBE0F901F90189584
:10159000C0FFECCF8091E2008E7E80618093E200FC
:1015A0008091E1008E7E8093E10080910D028E7E1D
:1015B0008160DACF1F920F920FB60F921124CF9253
:1015C000DF92EF92FF920F931F932F933F934F93CE
:1015D0005F936F937F938F939F93AF93BF93EF939B
:1015E000FF93CF93DF93CDB7DEB76C97DEBFCDBF50
:1015F0001092E9008091E80083FF25C068E0CE01E9
:1016000045960E94810482EF8093E8008D8987FFD0
:1016100039C09091E80090FFFCCF982F907609F0A8
:1016200034C19E894F89588D2F89F88C911131C012
:10163000803861F580910E028093F1001092F100E4
:101640008EEF8093E8006C960FB6F894DEBF0FBE65
:10165000CDBFDF91CF91FF91EF91BF91AF919F915E
:101660008F917F916F915F914F913F912F911F913A
:101670000F91FF90EF90DF90CF900F900FBE0F90E3
:101680001F9018959EEF9093E800C7CF1092F1003D
:10169000D5CF913059F48111D3CF4130510581F626
:1016A00080910E028D7F80930E02CACF933049F451
:1016B0008111C6CF4130510519F680910E0282602A
:1016C000F2CF953041F48091E80080FFFCCF206894
:1016D0002093E300B5CF963009F0A9C00B8D1C8D87
:1016E00022E01092E90010920A0210920902F2120E
:1016F0002EC010920802109207020E94A2041F82BC
:1017000099E09983FA8291E09E8390EA98879AEF14
:1017100099872091090230910A02275F3F4F3C834D
:101720002B838D831092E90010920A021092090215
:10173000109308020093070249E050E0BE016F5F7A
:101740007F4F80E00E94B0030E94A20479CF1093E3
:101750000802009307020E948E04DC0112960D918C
:101760001C910115110509F451C1D801ED91FC91AD
:101770000480F581E02DBE016B5E7F4FC8010995A5
:10178000009709F03EC1F80100851185EACFF3E02A
:10179000FF120EC08F89882309F440C0823061F4A3
:1017A00040E86AE08AE891E00E947D03811148CF19
:1017B00081E28093EB0047CF813029F440E864E078
:1017C00085E891E0F1CF833099F70E948E04DC0127
:1017D0001296ED90FC908E010F5F1F4F6801E1148F
:1017E000F10479F0D701ED91FC910680F781E02DAD
:1017F000B801C7010995080F111DF701E084F184B4
:10180000EECFD8011C92F60101900020E9F7319744
:10181000BF016C197D0940E0C601C6CF6FE671E0DB
:10182000FB01449150E080E80E94B00309CF97305B
:1018300009F4BECF983021F481E08093F10000CF0D
:10184000993009F0FDCE837009F0B2CFE1E0F1E00C
:1018500081E031E096E32191222371F08093E90049
:101860003093EB00DF0111972C912093EC009093C3
:10187000ED008F5F873079F78EE78093EA00109252
:10188000EA008F898093A802DBCE8B8D9C8D10920D
:10189000E90010920A0210920902909308028093C4
:1018A0000702898D811192C08E899D89913A49F4F0
:1018B000813209F07DCF47E050E06BE071E080E0DD
:1018C000B3CF913209F074CF833269F48F89988D48
:1018D000B0E0A0E08093070190930801A093090174
:1018E000B0930A01ADCE803269F48091E80082FFA6
:1018F000FCCF67E08BE091E00E9481048BEF809346
:10190000E8009ECE823209F09BCE8F89809312012F
:10191000EEEFFFE7859194918B3F9C4D51F1E0E014
:10192000F8E080910B0190910C01A0910D01B09114
:101930000E01803B9440A105B105F1F480911201A4
:1019400080FD1AC0EE3F8AE0F80789F587E797E740
:10195000918380838091600080930B0288E19BE0FB
:101960000FB6F894A895809360000FBE9093600026
:1019700067CEEEEFFAE0D5CF808191818737974728
:1019800009F05ECEA8958091600088618093600028
:1019900080910B0280936000EE3F2AE0F20789F00D
:1019A0008091FE0A9091FF0A9183808349CE8081C5
:1019B00091818737980751F29093FF0A8093FE0A2E
:1019C000C5CF1092FF0A1092FE0A3ACE0E948E04F2
:1019D000DC0112960D911C910115110509F4E8CE58
:1019E000D801ED91FC910190F081E02DBE016B5E7C
:1019F0007F4FC8010995811123CEF801008511851B
:101A0000EBCF181619060CF41BCED2CEF1E0FF1264
:101A1000BECE63E771E004CFFC01A385B4851097C7
:101A200071F47487638785859685DB0114962D9103
:101A30003C91820F931F968785870895DC018D91D5
:101A40009C9111970097D1F76D937C93ECCFCF9336
:101A5000DF93EC0180E690E00E942D1C9FEF980F31
:101A6000923020F01882DF91CF91089588838130E1
:101A7000F1F49091DA01911112C01092D5011092F7
:101A8000D40120E031E03093D7012093D60129E240
:101A900030E03093D9012093D8018093DA010E947D
:101AA000790664ED71E0DF91CF910C940C0D80917B
:101AB000CC01811113C01092C7011092C6018AECAB
:101AC00090E09093C9018093C80186E390E09093E1
:101AD000CB018093CA0181E08093CC010E947906FA
:101AE00066EC71E0E0CF1092AC021092AB0288EE8F
:101AF00093E0A0E0B0E08093AD029093AE02A0939B
:101B0000AF02B093B00282E591E09093AA02809375
:101B1000A9028FEF9FEF9093B6028093B5021092C7
:101B20000A031092090384E691E0909308038093DE
:101B300007038091FF02811113C01092FA021092E4
:101B4000F9028AEF92E09093FC028093FB028FE20D
:101B500090E09093FE028093FD0281E08093FF026B
:101B60000E94790669EF72E00E940C0D8AE792E00C
:101B7000909314038093130385E193E00C94270D55
:101B8000CF93DF93CDB7DEB7C05ED1090FB6F8941F
:101B9000DEBF0FBECDBF789484B5826084BD84B5AE
:101BA000816084BD85B5826085BD85B5816085BD58
:101BB00080916E00816080936E0010928100809110
:101BC0008100826080938100809181008160809398
:101BD00081008091800081608093800080919100DD
:101BE0008260809391008091910081608093910048
:101BF000809190008160809390008091C10084600A
:101C00008093C1008091C10082608093C100809167
:101C1000C10081608093C1008091C3008160809386
:101C2000C3008091C00082608093C0008091C20098
:101C300081608093C20080917A00846080937A00F2
:101C400080917A00826080937A0080917A0081602E
:101C500080937A0080917A00806880937A00109255
:101C6000A80210920E0210920D028091D70081609E
:101C70008093D70080EA8093D80089B5806189BDC0
:101C800089B5826089BD09B400FEFDCF61E070E0D6
:101C900080E090E00E941B038091D8008F7C8061DF
:101CA0008093D8008091E000807F8093E000809155
:101CB000E1008E7E8093E1008DE08093E200559AF2
:101CC000209A62E08EE00E94A10262E080E10E9420
:101CD000A10262E370E080E090E00E941B0380E1DB
:101CE0000E947802892B89F487E797E7909301088F
:101CF0008093000888E19BE00FB6F894A895809344
:101D000060000FBE90936000FFCF8EE00E947802CB
:101D1000892B51F362E08EE00E94A10262E080E133
:101D20000E94A10202E411E025E331E0C553DF4F38
:101D300039832883CB5CD04062E0C553DF4FA88154
:101D4000B981CB5CD0408D91C553DF4FB983A88357
:101D5000CB5CD0400E94A102C553DF4F4880598020
:101D6000CB5CD0400415150539F762E08FE00E9486
:101D7000A10261E082E00E94A10280E00E944D0287
:101D800082E690E00E942D1C182F83E690E00E94CE
:101D90002D1C853A21F4163A14F01B350CF010E096
:101DA000812F0E946A0984E690E00E942D1C9FEF1B
:101DB000980F943108F088E0809313014FE0E42EEF
:101DC00042E0F42E00E410E0C8010E942D1CD7016F
:101DD0008D937D010F5F1F4F08341105A9F7809186
:101DE0000F02909110028D349B4429F480911602C9
:101DF00084518C3448F088E0E6E4F1E0AFE0B2E0F2
:101E000001900D928A95E1F78FEF9FEF9093B602C4
:101E10008093B5028AE792E09093140380931303B2
:101E20004090250150902601609027017090280174
:101E3000C352DF4F488259826A827B82CD5DD04097
:101E400080919D028111BCC08FE00E9478027C01CC
:101E5000BB24B394892B09F0B12C8E0103571F4F7B
:101E6000D12CC12C902EA12EC6010E942D1CD80170
:101E70008D938D01BFEFCB1ADB0AEEE0CE16D104B5
:101E800099F78EE0E92DFA2DDE01AF58BF4F019092
:101E90000D928A95E1F7E114F10411F5CE01815814
:101EA0009F4F0E949508CE0181589F4F0E94B9090B
:101EB00003E010E081E00E944D0268E770E080E0FE
:101EC00090E00E941B0380E00E944D0268E770E0F2
:101ED00080E090E00E941B030150110959F723C0D4
:101EE0008EE0FE01EF58FF4FDE01AD59BF4F01906C
:101EF0000D928A95E1F7E3968EAD9FADE39783351A
:101F0000FAE49F0709F093C0A5969FAF8EAFA597FF
:101F10008EE0FE01ED59FF4FDE01A158BF4F019049
:101F20000D928A95E1F78EE0FE01E158FF4FDE0148
:101F3000AB5ABF4F01900D928A95E1F78EE0FE01FA
:101F4000EB5AFF4FDE01D99601900D928A95E1F789
:101F500028961FAE289781E0EF2809F480E02996A3
:101F60008FAF29972A961FAE2A972B961FAE2B97D5
:101F70002F961CAE1DAE1EAE1FAE2F976096BFAE45
:101F800060976196BFAE619765961CAE1DAE1EAEA2
:101F90001FAE65978CE1FE01F996A1E8B2E00190D1
:101FA0000D928A95E1F70E94F60260937D0270938C
:101FB0007E0280937F029093800281E080939D0255
:101FC00082E6682E712C93E6E92EF12C5524539469
:101FD00024E6C22ED12C3BE6A32E32E0B32E89EAB2
:101FE00092E00E946605181619060CF093C289EA61
:101FF00092E00E9424058D3091F3209148023091A7
:1020000049028A3009F076C2285E3D4FD9011C9200
:102010006FE671E088E192E00E94CD1F892B69F4A0
:102020000E944B091092490210924802D8CFCE016B
:1020300081589F4F0E94950876CF44E050E063E7B7
:1020400071E088E192E00E94D61F8C01892B09F093
:1020500060C088E0EFE0F2E0DE01A158BF4F0190E0
:102060000D928A95E1F7FE01E158FF4F4F018CE197
:1020700092E00115110511F090E080E06CE971E04B
:102080000E94E41B009729F48FEA91E00E94BC08AB
:10209000C9CF0E94BD1B9B01AC01215031094109F0
:1020A00051092F3F31054105510518F08BEA91E0A8
:1020B000EDCF05301105F9F0D40112966C930F5F46
:1020C0001F4FBFEF8B1A9B0A0630110581F6C158CE
:1020D000DF4F88819981CF57D0408D349B4441F4A4
:1020E000CA57DF4F8881C658D04084518C3448F09D
:1020F00087EA91E0CBCFCA57DF4F6883C658D040FC
:10210000DECFCE0181589F4F0E94E20984EA91E020
:10211000BDCF68E771E088E192E00E94CD1F892B76
:1021200029F486E491E00E94E2097ACF62E871E046
:1021300088E192E00E94CD1F892BF1F58DE991E0B5
:102140000E94040580917702909178020E941D09F7
:1021500080E20E94FF0480917502909176020E94B5
:102160001D0980E20E94FF04809173029091740225
:102170000E941D0980E20E94FF04809171029091EB
:1021800072020E941D0980E20E94FF048091700289
:1021900090E00E941D0906E612E080E20E94FF0422
:1021A000D8018D918D0190E00E941D09A016B10605
:1021B000A1F70E94B80836CF68E871E088E192E0A4
:1021C0000E94CD1F892B29F450924F0284EE91E09A
:1021D0005DCF44E050E06CE871E088E192E00E945D
:1021E000D61F892B49F58CE192E00E949F1B20911C
:1021F0001503213031F49C0121503109243131057E
:1022000018F080EE91E042CF80936F022FB7F894E0
:1022100080919F029091A002A091A102B091A20290
:102220002FBF80936B0290936C02A0936D02B093CA
:102230006E028DED91E02ACF61E971E088E192E0D4
:102240000E94CD1F892B49F488ED91E00E9404057E
:1022500082E491E00E94AB08ACCF65E971E088E1CF
:1022600092E00E94CD1F892B49F483ED91E00E94FA
:102270000405809113010E940C09D4CE44E050E083
:1022800069E971E088E192E00E94D61F892BF1F4A0
:102290008CE192E00E949F1B9C0121503109243166
:1022A000310518F08FEC91E0F1CE80931301C15805
:1022B000DF4FD982C882CF57D040682FCE018158D6
:1022C0009F4F0E94A0098CEC91E0E0CE6EE971E096
:1022D00088E192E00E94CD1F892B09F053C088E964
:1022E00091E00E940405C352DF4F288139814A8161
:1022F0005B81CD5DD040C158DF4F288339834A834D
:102300005B83CF57D0408E0101581F4F480134E006
:10231000830E911C80E20E94FF04D8018D918D01F3
:102320000E94D2020E941D098016910699F780E250
:102330000E94FF0405E311E0812CF80191908F01C8
:10234000892D0E947802892B71F4882019F08CE283
:102350000E94FF04692D70E090E080E04AE00E9456
:10236000C80888248394C553DF4F28813981CB5C0A
:10237000D0402017310709F781101BCF8DE20E9452
:10238000FF0417CF63EA71E088E192E00E94CD1F5D
:10239000892B61F487EC91E00E940405809117027B
:1023A000082E000C990B0E941D0903CF44E050E059
:1023B00067EA71E088E192E00E94D61F892B59F507
:1023C0008CE192E00E949F1B8C01865A9F4F853BB7
:1023D000910518F083EC91E059CE802F0E946A0994
:1023E000C158DF4F79826882CF57D040602FCE012D
:1023F00081589F4F0E94A009C158DF4FF982E8829F
:10240000CF57D04065EACE0181589F4F0E94A00966
:1024100080EC91E03BCE6CEA71E088E192E00E94B2
:10242000CD1F892B39F48AEB91E00E94040580913D
:10243000150321CF61EB71E088E192E00E94CD1F8E
:10244000892B89F068EB71E088E192E00E94CD1F52
:10245000892B49F06FEB71E088E192E00E94CD1F7B
:10246000892B09F03FC010911D0210538091150374
:10247000181303C087EB91E009CE0E94860880E61E
:1024800090E0C158DF4F99838883CF57D040612FA8
:10249000CE0181589F4F0E94A00985E991E00E94DA
:1024A000BC080E94CC0164E670E080E090E00E94ED
:1024B0001B0368EC70E080E090E00E941B03109228
:1024C0000108109200081092FF0A1092FE0A88E19B
:1024D00098E00FB6F894A895809360000FBE909393
:1024E0006000FFCF80911802882309F49BCD83EB15
:1024F00091E0CCCD2F3231050CF071CDA9014F5FA9
:102500005F4F5093490240934802285E3D4FD901E6
:102510008C9365CD0E94F60200917D0210917E029F
:1025200020917F0230918002AB01BC01401B510B16
:10253000620B730B77FD59C7D901C80188519C4FB5
:10254000AF4FBF4F80937D0290937E02A0937F0296
:10255000B09380020E94F60200917D0210917E02EB
:1025600020917F0230918002601B710B820B930BD4
:10257000161617061806190674F40E94F60268511A
:102580007C4F8F4F9F4F60937D0270937E028093AC
:102590007F02909380028FB7F894C0909F02D090F2
:1025A000A002E090A102F090A2028FBF83E10E94FE
:1025B000D202C954DF4F99838883C75BD04082E140
:1025C0000E94D202C754DF4F99838883C95BD040F1
:1025D00080E10E9478028C01892B21F08EE00E941C
:1025E00078028C0180914F02882369F010924F028B
:1025F00081E080934E02C0924A02D0924B02E09258
:102600004C02F0924D0280914E028823B9F08091E5
:102610004A0290914B02A0914C02B0914D022601CA
:102620003701481A590A6A0A7B0AD301C201843663
:102630009105A105B10510F010924E0230904E02A6
:102640008FE00E947802892B09F412C181E03826BC
:102650006090810270908202C952DF4F7982688255
:10266000C75DD0408090830290908402CD53DF4FAD
:1026700099828882C35CD040409185023091860265
:10268000A0908702B0908802CD54DF4FB982A88213
:10269000C35BD0404090890250908A02C454DF4FFF
:1026A00059824882CC5BD04020918B0290918C0261
:1026B00060908D0270908E02CF53DF4F79826882D6
:1026C000C15CD04070908F02C554DF4F7882CB5BE5
:1026D000D04080909002C653DF4F8882CA5CD040C1
:1026E00090909102CA52DF4F9882C65DD040A09070
:1026F0009202CB53DF4FA882C55CD040409093023A
:10270000509094026090950270909602CE52DF4FE6
:10271000488259826A827B82C25DD0405090970283
:10272000CF52DF4F5882C15DD040809198026090B7
:10273000990270909A0280909B0290909C02C353E1
:10274000DF4F688279828A829B82CD5CD04051E0E3
:10275000012B09F050E0CA52DF4F7880C65DD040AF
:10276000571569F0CA52DF4F5883C65DD040CE522C
:10277000DF4FC882D982EA82FB82C25DD040460127
:102780005701CE52DF4F488059806A807B80C25DFE
:10279000D04084189508A608B7086AE18616910407
:1027A000A104B10428F0CB53DF4F5883C55CD0405F
:1027B000CB53DF4F4880C55CD040C054DF4F4882C8
:1027C000C05CD04051E03526CF52DF4F5880C15D0C
:1027D000D040351469F0CF52DF4F3882C15DD04010
:1027E000C353DF4FC882D982EA82FB82CD5CD040DE
:1027F000C353DF4F688079808A809B80CD5CD04056
:10280000C618D708E808F9085AE1C516D104E1044A
:10281000F10480F1C853DF4F3882C85CD040C85300
:10282000DF4F4880C85CD04051E08527411001C08F
:1028300080E0C653DF4F5880CA5CD040511020C0A2
:10284000C853DF4F6880C85CD040611006C051E0BB
:10285000C653DF4F5883CA5CD040C554DF4F18823F
:10286000CB5BD040C753DF4F1882C95CD04025C036
:10287000312CEECEC853DF4F8883C85CD040CFCF19
:10288000882381F3C554DF4F4880CB5BD040442080
:1028900009F424C4C554DF4F1882CB5BD04063E5F4
:1028A0007AE4C952DF4F79836883C75DD04071E015
:1028B000C753DF4F7883C95CD040C952DF4F48808F
:1028C0005980C75DD0405E8E4D8ECD53DF4F6880FE
:1028D0007980C35CD04078A26F8E49A33AA3CD54CF
:1028E000DF4F88809980C35BD0409CA28BA2C454E8
:1028F000DF4FA880B980CC5BD040BEA2ADA22FA391
:1029000098A7CF53DF4F48805980C15CD0405AA66A
:1029100049A6C554DF4F5880CB5BD0405BA6C65359
:10292000DF4F6880CA5CD0406CA6CA52DF4F788007
:10293000C65DD0407DA6CB53DF4F8880C55CD040BC
:102940008EA6CE52DF4F488059806A807B80C25D60
:10295000D0404FA658AA69AA7AAACF52DF4F588012
:10296000C15DD0405BAAC853DF4F6880C85CD040CF
:102970006CAAC353DF4F88809980AA80BB80CD5C4E
:10298000D0408DAA9EAAAFAAB8AEC554DF4F98809A
:10299000CB5BD040992009F4C2C086E0FE017F964F
:1029A000DE01AF55BF4F01900D928A95E1F7CD53EF
:1029B000DF4FA880B980C35CD040C954DF4F488046
:1029C0005980C75BD0404A145B0434F4CD53DF4FC9
:1029D00059824882C35CD040CD54DF4F68807980F3
:1029E000C35BD040C954DF4F88809980C75BD0401B
:1029F0006814790434F4CD54DF4F99828882C35B24
:102A0000D040CD53DF4FA880B980C35CD040CF55B4
:102A1000DF4FB982A882C15AD040CD54DF4F4880E1
:102A20005980C35BD040CB55DF4F59824882C55A8D
:102A3000D04086E0FE01EF55FF4FDE01A556BF4FA7
:102A400001900D928A95E1F786E0FE01E556FF4F71
:102A5000DE015F9601900D928A95E1F786E0FE0116
:102A6000B596DE01A355BF4F01900D928A95E1F70F
:102A7000C454DF4F68807980CC5BD040C754DF4FAF
:102A800088809980C95BD0408614970434F4C4547C
:102A9000DF4F99828882CC5BD040CF53DF4FA88034
:102AA000B980C15CD040C754DF4F48805980C95BB2
:102AB000D040A414B50434F4CF53DF4F5982488278
:102AC000C15CD040C454DF4F68807980CC5BD0407B
:102AD000C355DF4F79826882CD5AD040CF53DF4F44
:102AE00088809980C15CD040CF54DF4F9982888222
:102AF000C15BD04086E0FE01E355FF4FDE01A955E2
:102B0000BF4F01900D928A95E1F786E0FE01E955ED
:102B1000FF4FDE01959601900D928A95E1F7CD5316
:102B2000DF4FA880B980C35CD040B8A2AF8ECD542F
:102B3000DF4F48805980C35BD0405CA24BA2C45495
:102B4000DF4F68807980CC5BD0407EA26DA2CF53EE
:102B5000DF4F88809980C15CD0409AA689A68CE11D
:102B6000FE017D96DE01119601900D928A95E1F7A6
:102B7000AD80BE80CA53DF4FB982A882C65CD04008
:102B80002B843C84C554DF4FB880CB5BD040B11060
:102B900083C3C954DF4F48805980C75BD040CA53B4
:102BA000DF4F68807980C65CD040461457040CF42F
:102BB000D4C2CD54DF4F08811981C35BD0400619C0
:102BC0001709101611060CF00FC3B2016619770928
:102BD000072E000C880B990B0E94641D6B017C0171
:102BE000B801110F880B990B0E94641D9B01AC0169
:102BF000C701B6010E94BA1C2B013C0120E030E065
:102C0000A9010E94B01C87FDEFC220E030E040E83F
:102C10005FE3C301B2010E94531E181634F4412C25
:102C2000512C00E8602E0FE3702EC754DF4F8880D0
:102C30009980C95BD040821493040CF4E0C2CF5356
:102C4000DF4F08811981C15CD040021913091016A9
:102C500011060CF010C3B40162197309072E000CA1
:102C6000880B990B0E94641D6B017C01B801110F48
:102C7000880B990B0E94641D9B01AC01C701B60132
:102C80000E94BA1C6B017C0120E030E0A9010E9487
:102C9000B01C87FDF0C220E030E040E85FE3C701F0
:102CA000B6010E94531E181634F4C12CD12CB0E882
:102CB000EB2EBFE3FB2EA3019201C301B2010E94E0
:102CC000581E4B015C01A7019601C701B6010E9485
:102CD000581E9B01AC01C501B4010E94441C0E9416
:102CE000D31EC752DF4F688379838A839B83C95D74
:102CF000D0402DEC3CEC4CE45DE30E94B01C181677
:102D00000CF0C4C22DEC3CEC4CE45DE3C752DF4F49
:102D1000688179818A819B81C95DD0400E94431C72
:102D200023E333E343E75FE30E94BA1C4B015C01FA
:102D300020E030E040E85FE30E94531E181634F4B0
:102D4000812C912CF0E8AF2EFFE3BF2EC752DF4F4E
:102D5000288139814A815B81C95DD040C501B401B8
:102D60000E94BA1C4B015C01A30192010E94581EF3
:102D70002B013C01A7019601C501B4010E94581E18
:102D80004B015C0120E03EEF4FEF56E4C301B2017E
:102D90000E94581E0E942C1D7B0120E03EEF4FEF49
:102DA00056E4C501B4010E94581E0E942C1D8B01DF
:102DB000C952DF4F48805980C75DD040509282028F
:102DC00040928102CD53DF4F68807980C35CD04050
:102DD0007092840260928302CA53DF4F8880998088
:102DE000C65CD0409092860280928502CD54DF4F1F
:102DF000A880B980C35BD040B0928802A0928702BD
:102E0000C454DF4F48805980CC5BD04050928A0236
:102E10004092890230928C0220928B02CF53DF4F76
:102E200068807980C15CD04070928E0260928D0281
:102E3000C554DF4F7880CB5BD04070928F02C65371
:102E4000DF4F8880CA5CD04080929002CA52DF4F28
:102E50009880C65DD04090929102CB53DF4FA880FE
:102E6000C55CD040A0929202CE52DF4F488059807C
:102E70006A807B80C25DD04040929302509294025F
:102E80006092950270929602CF52DF4F5880C15DDA
:102E9000D04050929702C853DF4F6880C85CD04042
:102EA00060929802C353DF4F88809980AA80BB80CC
:102EB000CD5CD0408092990290929A02A0929B029F
:102EC000B0929C02B701FF0C880B990B0E94641D05
:102ED0004B015C0140901B0150901C0160901D0152
:102EE00070901E01CD54DF4F488259826A827B82E6
:102EF000C35BD04066277727601B710B072E000C41
:102F0000880B990B0E94641D2B013C0120917902D2
:102F100030917A0240917B0250917C02C454DF4F81
:102F2000288339834A835B83CC5BD040CD54DF4F09
:102F3000288139814A815B81C35BD040C501B401DE
:102F40000E94581E6B017C01C454DF4F28813981D7
:102F50004A815B81CC5BD040C301B2010E94581E04
:102F60009B01AC01C701B6010E94441C6B017C01AE
:102F700020E03EEF4FEF56E40E94531E22242A9495
:102F8000EFE73E2E18169CF020E03EEF4FEF56EC98
:102F9000C701B6010E94B01C2224239470E8372E8A
:102FA00087FD05C0C701B6010E942C1D1B01A301AE
:102FB0009201CD54DF4F688179818A819B81C35B07
:102FC000D0400E94581E6B017C01C454DF4F288101
:102FD00039814A815B81CC5BD040C501B4010E943C
:102FE000581E9B01AC01C701B6010E94431C6B0136
:102FF0007C0120E03EEF4FEF56E40E94531E18166E
:103000000CF44FC120E03EEF4FEF56ECC701B60184
:103010000E94B01C87FD4AC1C701B6010E942C1D49
:103020006B01F090150331E0F312F1C1CB53DF4F88
:103030004880C55CD040442071F0C554DF4F5880B3
:10304000CB5BD04021E030E0552039F0C054DF4F59
:103050001882C05CD04030E020E080916F0288236D
:10306000D1F14FB7F89480919F029091A002A09166
:10307000A102B091A2024FBF40916B0250916C022D
:1030800060916D0270916E02841B950BA60BB70BBD
:1030900080399140A105B10508F0B6C180916F0259
:1030A000F12CE12C0FEF1FE7823109F410C108F079
:1030B00002C1F12CE12C01E010E8813109F407C1D3
:1030C0008150990B41E050E002C0440F551F8A9592
:1030D000E2F7242B352B76018101F9C0C754DF4F6D
:1030E00048805980C95BD040CF53DF4F5982488216
:1030F000C15CD040C754DF4F2881C95BD040C65463
:10310000DF4F9881CA5BD040C454DF4F5982488258
:10311000CC5BD040C954DF4F68807980C75BD0401A
:10312000CD54DF4F79826882C35BD040C954DF4FF2
:103130004881C75BD040C854DF4F3881C85BD0405E
:10314000CD53DF4F79826882C35CD04051E0C554D3
:10315000DF4F5883CB5BD04085CBCA53DF4F08810C
:103160001981C65CD040CD53DF4F88809980C35C05
:10317000D0400819190910161106B4F5C954DF4FCB
:1031800068817981C75BD040CA53DF4FA880B9807E
:10319000C65CD0406A197B09072E000C880B990B7E
:1031A0000E94641D6B017C01B801110F880B990B03
:1031B0000E94641D9B01AC01C701B6010E94BA1CAC
:1031C0002B013C0120E030E040E85FEB0E94B01CA6
:1031D00087FD0EC020E030E0A901C301B2010E94CA
:1031E000531E18160CF021CD412C512C32011DCD4F
:1031F000412C512C10E8612E1FEB712E16CD810150
:10320000C454DF4FA880B980CC5BD0400A191B0999
:103210001016110684F5C754DF4F68817981C95BA8
:10322000D04062197309072E000C880B990B0E947D
:10323000641D6B017C01B801110F880B990B0E9472
:10324000641D9B01AC01C701B6010E94BA1C6B0151
:103250007C0120E030E040E85FEB0E94B01C87FD7D
:103260000EC020E030E0A901C701B6010E94531E44
:1032700018160CF020CDC12CD12C76011CCDC12C00
:10328000D12CA0E8EA2EAFEBFA2E15CD812C912C93
:1032900054012401350176CD10E000E0F12CE12C41
:1032A00087CDCC24CA946FE7D62EBBCECC24C39452
:1032B00050E8D52EB6CE833109F4A1C0EE24E394B4
:1032C00090E8F92E843109F0FBCE10E000E0C158FF
:1032D000DF4F19830883CF57D040882799278E194D
:1032E0009F09CF57DF4F99838883C158D040CD576E
:1032F000DF4F39832883C358D04046E050E065E172
:1033000071E0CE0181589F4F0E94C01F892BD9F1D7
:1033100086E0FE01E158FF4FA5E1B1E001900D927A
:103320008A95E1F70E94790626E030E0AE01415827
:103330005F4F63E00E94A30581E0E11450E4F506CD
:103340000CF480E08093660281E061E0E61660ECB8
:10335000F6060CF080E08093670281E0013070ECAB
:1033600017070CF080E08093680281E0011510449B
:103370000CF480E080936902C054DF4F4880C05C49
:10338000D04040926A02C554DF4F8881CB5BD04069
:103390000E944D02C753DF4F6880C95CD040662051
:1033A00021F081E892E00E94B909C954DF4F88807A
:1033B0009980C75BD0409092780280927702C75480
:1033C000DF4FA880B980C95BD040B0927602A0924E
:1033D00075023092740220927302D0927202C092EF
:1033E000710280918F028093700280E090E0892BBF
:1033F00011F40C94200F0E9400000C94200FEE2476
:10340000EA944FE7F42E61CF10926F0264CE82E00F
:10341000582EF51060C1CB53DF4F6880C55CD0409B
:10342000662089F0C554DF4F7880CB5BD040772091
:10343000B1F0C054DF4F1882C05CD04000E010E013
:1034400080E090E00EC0C554DF4F8880CB5BD04059
:103450008110F4CFC054DF4F1882C05CD040860189
:10346000C1012FB7F89480909F029090A002A09085
:10347000A102B090A2022FBF40916202509163025C
:10348000609164027091650224013501441A550A65
:10349000660A770AB301A20148305105610571053A
:1034A00008F471CF8092620290926302A09264024B
:1034B000B09265020E94EE0720915E0230915F0299
:1034C00040916002509161020E94441CCD54DF4F34
:1034D000688379838A839B83C35BD040C8010E9441
:1034E000EE079B01AC0160915A0270915B028091E2
:1034F0005C0290915D020E94431C2B013C01CD5463
:10350000DF4F688179818A819B81C35BD0400E94B3
:103510002C1D11E861382FEF720734F06038710507
:1035200014F06FE770E0162FC301B2010E942C1D4A
:1035300001E861383FEF730734F06038710514F02B
:103540006FE770E0062F612F012E000C770B880BC0
:10355000990B0E94641D9B01AC01CD54DF4F688123
:1035600079818A819B81C35BD0400E94431C609318
:103570005E0270935F028093600290936102602FFD
:10358000002E000C770B880B990B0E94641D9B0189
:10359000AC01C301B2010E94431C60935A027093B4
:1035A0005B0280935C0290935D0280915902C0544B
:1035B000DF4F4880C05CD040442009F474C08111C2
:1035C0000BC08092550290925602A0925702B09280
:1035D000580281E080935402C054DF4F5880C05C91
:1035E000D040509259025520F9F08091540288231E
:1035F000B9F08091550290915602A0915702B09176
:103600005802A5019401281B390B4A0B5B0BDA0108
:10361000C901843F9140A105B10510F010925402F8
:10362000809154028823A1F0809150029091510220
:10363000A0915202B091530288199909AA09BB09B5
:10364000FF24F394181619061A061B060CF0F12C29
:10365000111107C0011105C0809114018F1509F4E3
:1036600092CEF0921401CF57DF4F19821882C158C1
:10367000D040C158DF4FF882CF57D040C058DF4FFD
:103680001883C058D040CF57DF4F0883C158D0406F
:103690000E94790624E030E0AE0141585F4F64E0BB
:1036A0000E94A30569CE882309F496CF8091540225
:1036B000882309F491CFD501C401CC96A11DB11D79
:1036C0008093500290935102A0935202B093530200
:1036D0001092540281CFB10183E090E00E94500823
:1036E000662777276219730982E090E00E945008EC
:1036F000B60190E080E00E945008662777276C1999
:103700007D0981E090E00E945008CB53DF4F588044
:10371000C55CD040552049F090918F0281E09827F8
:10372000C054DF4F9883C05CD040C054DF4F6881E5
:10373000C05CD04084E090E00E943C0824CEFC01B4
:1037400088279927E89421912032E9F3293010F055
:103750002E30C8F32B3241F02D3239F4689404C076
:103760000E94251C820F911D219120532A30C0F305
:103770001EF4909581959F4F08951F93FC01992702
:103780008827BC01E89411911032E9F3193010F048
:103790001E30C8F31B3251F01D3249F4689406C044
:1037A0000E94101C610F711D811D911D11911053FC
:1037B0001A30B0F33EF490958095709561957F4FE7
:1037C0008F4F9F4F1F91089546E153E00E94E91BE0
:1037D0000895FA01A191B081009719F41097E1F0D2
:1037E000CD01DC01CD010D90002011F4C00113C00A
:1037F000FB012191222319F02015D9F7F3CFFB010A
:103800002191201519F41E92119606C02223C1F7AA
:103810000D900020A1F7D001FA01A193B083089583
:10382000592F482F372F262F660F771F881F991F74
:10383000660F771F881F991F620F731F841F951FC4
:10384000660F771F881F991F08957AE0979F902D24
:10385000879F802D910D11240895F999FECF92BD77
:1038600081BDF89A992780B50895262FF999FECF42
:103870001FBA92BD81BD20BD0FB6F894FA9AF99A8D
:103880000FBE019608955058BB27AA270E945B1CC3
:103890000C94051E0E94CC1D38F00E94D31D20F010
:1038A00039F49F3F19F426F40C94C91D0EF4E095E9
:1038B000E7FB0C94C31DE92F0E942A1E58F3BA1788
:1038C000620773078407950720F079F4A6F50C9436
:1038D0004C1E0EF4E0950B2EBA2FA02D0B01B90152
:1038E00090010C01CA01A0011124FF27591B99F076
:1038F000593F50F4503E68F11A16F040A22F232F82
:10390000342F4427585FF3CF469537952795A795D1
:10391000F0405395C9F77EF41F16BA0B620B730B78
:10392000840BBAF09150A1F0FF0FBB1F661F771FE9
:10393000881FC2F70EC0BA0F621F731F841F48F49E
:10394000879577956795B795F7959E3F08F0B0CF27
:103950009395880F08F09927EE0F9795879508950E
:103960000E949F1D08F481E008950E94DC1DE395EC
:103970000C94161E0E94CE1C0C94051E0E94D31D92
:1039800058F00E94CC1D40F029F45F3F29F00C94C0
:10399000C31D51110C944D1E0C94C91D0E942A1E6A
:1039A00068F39923B1F3552391F3951B550BBB276E
:1039B000AA2762177307840738F09F5F5F4F220FB3
:1039C000331F441FAA1FA9F335D00E2E3AF0E0E8AA
:1039D00032D091505040E695001CCAF72BD0FE2FF4
:1039E00029D0660F771F881FBB1F26173707480788
:1039F000AB07B0E809F0BB0B802DBF01FF27935840
:103A00005F4F3AF09E3F510578F00C94C31D0C9423
:103A10004D1E5F3FE4F3983ED4F386957795679506
:103A2000B795F7959F5FC9F7880F911D9695879574
:103A300097F90895E1E0660F771F881FBB1F621793
:103A400073078407BA0720F0621B730B840BBA0B51
:103A5000EE1F88F7E09508950E94331D6894B11118
:103A60000C944D1E08950E94321E88F09F5798F0C6
:103A7000B92F9927B751B0F0E1F0660F771F881F73
:103A8000991F1AF0BA95C9F714C0B13091F00E948D
:103A90004C1EB1E008950C944C1E672F782F882798
:103AA000B85F39F0B93FCCF3869577956795B395B4
:103AB000D9F73EF490958095709561957F4F8F4F23
:103AC0009F4F0895E89409C097FB3EF49095809528
:103AD000709561957F4F8F4F9F4F9923A9F0F92FD4
:103AE00096E9BB279395F695879577956795B79552
:103AF000F111F8CFFAF4BB0F11F460FF1BC06F5F38
:103B00007F4F8F4F9F4F16C0882311F096E911C049
:103B1000772321F09EE8872F762F05C0662371F06A
:103B200096E8862F70E060E02AF09A95660F771F7E
:103B3000881FDAF7880F9695879597F90895990F5A
:103B40000008550FAA0BE0E8FEEF16161706E80767
:103B5000F907C0F012161306E407F50798F0621B88
:103B6000730B840B950B39F40A2661F0232B242B5D
:103B7000252B21F408950A2609F4A140A6958FEF7C
:103B8000811D811D089597F99F6780E870E060E0CE
:103B900008959FEF80EC089500240A9416161706E6
:103BA00018060906089500240A941216130614062E
:103BB000050608950C94C91D0E94321ED8F3E8949E
:103BC000E0E0BB279F57F0F02AED3FE049EC06C04C
:103BD000EE0FBB0F661F771F881F28F0B23A6207EF
:103BE0007307840728F0B25A620B730B840BE395BA
:103BF0009A9572F7803830F49A95BB0F661F771F3D
:103C0000881FD2F790480C94151F092E0394000CBE
:103C100011F4882352F0BB0F40F4BF2B11F460FF66
:103C200004C06F5F7F4F8F4F9F4F0895EF93E0FF6A
:103C300007C0A2EA2AED3FE049EC5FEB0E945B1C63
:103C40000E94051E0F90039401FC9058ECEAF0E0EE
:103C50000C94281F57FD9058440F551F59F05F3F93
:103C600071F04795880F97FB991F61F09F3F79F09E
:103C700087950895121613061406551FF2CF469520
:103C8000F1DF08C0161617061806991FF1CF8695A2
:103C90007105610508940895E894BB276627772786
:103CA000CB0197F908950E949F1D08F48FEF0895A6
:103CB0000E946B1E0C94051E0E94CC1D38F00E94C1
:103CC000D31D20F0952311F00C94C31D0C94C91D35
:103CD00011240C944D1E0E942A1E70F3959FC1F36F
:103CE000950F50E0551F629FF001729FBB27F00DAA
:103CF000B11D639FAA27F00DB11DAA1F649F6627FF
:103D0000B00DA11D661F829F2227B00DA11D621F4D
:103D1000739FB00DA11D621F839FA00D611D221F07
:103D2000749F3327A00D611D231F849F600D211DEB
:103D3000822F762F6A2F11249F5750409AF0F1F06E
:103D400088234AF0EE0FFF1FBB1F661F771F881FD7
:103D500091505040A9F79E3F510580F00C94C31D2F
:103D60000C944D1E5F3FE4F3983ED4F3869577950F
:103D70006795B795F795E7959F5FC1F7FE2B880F7D
:103D8000911D9695879597F908959F930E94DC1D44
:103D90000F9007FCEE5F0C94161E19F416F40C94A9
:103DA000C91D0C94131F0E94321EB8F39923C9F346
:103DB000B6F39F57550B87FF0E94211F0024A0E6F2
:103DC00040EA900180585695979528F4805C660FDC
:103DD000771F881F20F026173707480730F4621B2B
:103DE000730B840B202931294A2BA695179407942D
:103DF000202531254A2758F7660F771F881F20F0A6
:103E000026173707480730F4620B730B840B200D1D
:103E1000311D411DA09581F7B901842F9158880F5C
:103E20009695879508959F3F31F0915020F487959E
:103E300077956795B795880F911D9695879597F912
:103E4000089591505040660F771F881FD2F708954C
:103E50009F938F937F936F93FF93EF939B01AC019D
:103E60000E94581EEF91FF910E943C1F2F913F919D
:103E70004F915F910C94581EDF93CF931F930F9334
:103E8000FF92EF92DF927B018C01689406C0DA2EDC
:103E9000EF010E946B1EFE01E894A59125913591DA
:103EA00045915591A6F3EF010E945B1CFE0197011D
:103EB000A801DA9469F7DF90EF90FF900F911F91BE
:103EC000CF91DF910895A1E21A2EAA1BBB1BFD0121
:103ED0000DC0AA1FBB1FEE1FFF1FA217B307E407E9
:103EE000F50720F0A21BB30BE40BF50B661F771F41
:103EF000881F991F1A9469F7609570958095909521
:103F00009B01AC01BD01CF010895052E97FB1EF466
:103F100000940E949C1F57FD07D00E94631F07FC5E
:103F200003D04EF40C949C1F5095409530952195EC
:103F30003F4F4F4F5F4F08959095809570956195D5
:103F40007F4F8F4F9F4F0895EE0FFF1F0590F49105
:103F5000E02D0994A29FB001B39FC001A39F700DF3
:103F6000811D1124911DB29F700D811D1124911D81
:103F700008950E94AA1FB7FF0895821B930B08950E
:103F8000FB01DC0104C08D910190801921F44150A6
:103F90005040C8F7881B990B0895FB01DC018D91F7
:103FA000019080190110D9F3990B0895FB01DC01F0
:103FB0004150504030F08D910190801919F400204B
:0C3FC000B9F7881B990B0895F894FFCF07
:103FCC0000C18081000000FFFFFFFF00E100000046
:103FDC0000000008FF00000000FFFF0000803F0011
:103FEC0000FF01FF03121314150000000080052EC2
:103FFC0006F305D8050001030405060708090A0E97
:10400C000F10312E34004D4B7773616481320000F8
:10401C000000E904D3041F054D0366052405420581
:10402C0000000000D407EB06EB07EA070D0A004777
:10403C00455400534554200052455345544B455963
:10404C00530053544154450043414C0042544E20BC
:10405C0000564552005350440053504420004449EC
:10406C00414700524F5400524F5420004D4F44458D
:10407C00004D4F44452030004D4F44452031004DFC
:06408C004F444520320004
:00000001FF
