:100000000C9472010C94A6010C94A6010C94A60108
:100010000C94A6010C94A6010C94A6010C94A601C4
:100020000C94A6010C94A6010C94E1090C945E0AB0
:100030000C94A6010C94A6010C94A6010C94A601A4
:100040000C94A6010C94A6010C94A6010C94A60194
:100050000C94A6010C94A6010C94A6010C9497098B
:100060000C94A6010C94A6010C94A6010C94A60174
:100070000C94A6010C94A6010C94A6010C94A60164
:100080000C94A6010C94A6010C94A6010C94A60154
:100090000C94A6010C94A6010C94A6010C94A60144
:1000A0000C94A6010C94A6010C94A60105A84CCDB5
:1000B000B2D44EB93836A9020C50B9918688083CA2
:1000C000A6AAAA2ABE000000803F05010905A101D9
:1000D00085030930093116018026FF7F75109502CE
:1000E00081020509190129101500250175019510D6
:1000F0008102C043464700080B00020202000009CB
:100100000400000102020000052400100105240182
:1001100001010424020605240600010705810310DD
:10012000004009040100020A000000070502024025
:1001300000000705830240000004030904120100C7
:1001400002EF020140091202000001010203014A0C
:10015000617370004A61737020537469636B004F60
:100160004B004449414700535441544520004F4BF4
:1001700000455252004552520045525200455252DB
:10018000004F4B004D4F444520004F4B004552520D
:1001900000524F5420004F4B00455252004F4B002D
:1001A000070605040100080A0B0C0D0900000000F9
:1001B000240027002A002D0030000000000023004A
:1001C000260029002C002F00000000002500280038
:1001D0002B002E0031000404040404030405020271
:1001E00002020403020202020606060606060404D0
:1001F0000202020404040802011040804010204062
:10020000804080080204018040201002011080100C
:10021000204040200000000200090F0000030401FC
:10022000000C0000000000000000000000000000C2
:1002300000000000000000000000002A2B28000041
:1002400000000000000000000000000000000000AE
:100250000000002C9EB4A0A1A2A434A6A7A5AE368F
:100260002D3738271E1F20212223242526B333B6FD
:100270002EB7B89F8485868788898A8B8C8D8E8FD0
:10028000909192939495969798999A9B9C9D2F31D3
:1002900030A3AD350405060708090A0B0C0D0E0F37
:1002A000101112131415161718191A1B1C1DAFB1B3
:1002B000B0B50005010906A1018502050719E0296D
:1002C000E7150025017501950881029501750881E2
:1002D0000395067508150025730507190029738114
:1002E00000C0D60C11241FBECFEFDAE0DEBFCDBFB9
:1002F00014BE0FB6F894A895809160008861809331
:100300006000109260000FBE22E0ACEAB1E001C0D4
:100310001D92AA3DB207E1F711E0A0E0B1E0E2EDE5
:10032000FAE302C005900D92AC3AB107D9F711E09B
:10033000C2E7D1E004C02197FE010E94271DC1370A
:10034000D107C9F70E943D0D0C94671D0C94000065
:1003500083E08093E9008091F200882319F08AE31A
:100360008093E8000895FC0180916A02882311F1CE
:100370003FB7F89482E08093E9002091F200822F49
:1003800090E01816190614F481E090E0882339F003
:10039000289844E6409369024091F100408322236B
:1003A00039F02091F200211103C02BE62093E800E0
:1003B0003FBF08958FEF9FEF089581508F3008F071
:1003C00047C0E82FF0E0E951FE4F0C94271D0402CE
:1003D0000802F601FC0100022802280228020B0292
:1003E0001102150219021F022802230280918000C7
:1003F0008F77809380000895809180008F7DF9CF62
:1004000080918000877FF5CF84B58F7784BD089574
:1004100084B58F7DFBCF809190008F778093900083
:100420000895809190008F7DF9CF80919000877F13
:10043000F5CF8091C0008F778093C00008958091A0
:10044000C0008F7DF9CF8091C200877F8093C2006A
:1004500008951F93CF93DF93E6E1F2E09491E7EFE5
:10046000F1E0D491E8EDF1E0C491CC23B9F0182F7C
:10047000992319F0892F0E94DD01EC2FF0E0EE0F97
:10048000FF1FE853FE4FA591B4918FB7F894EC91FC
:10049000111108C0D095DE23DC938FBFDF91CF917F
:1004A0001F910895DE2BF8CFCF93DF93282F30E0F4
:1004B000F901EC5EFD4F8491F901EB50FE4FD491B0
:1004C000F901EA52FE4FC491CC23A1F081110E94A0
:1004D000DD01EC2FF0E0EE0FFF1FE654FE4FA5917B
:1004E000B491EC91ED2381E090E009F480E0DF919C
:1004F000CF91089580E090E0FACFCF93DF9390E022
:10050000FC01EB50FE4F24918A529E4FFC018491D6
:100510008823D1F090E0880F991FFC01E455FE4F2D
:10052000A591B491FC01E853FE4FC591D49162307E
:1005300071F49FB7F8943C91822F809583238C931C
:10054000E8812E2B28839FBFDF91CF9108958FB72D
:10055000F894EC912E2B2C938FBFF6CF823108F0BC
:100560008251E82FF0E0E056FE4FE49190917B003D
:100570008E2F880F880F80729F7D892B80937B0040
:10058000E770E064E0937C0080917A00806480935F
:100590007A0080917A0086FDFCCF8091780090915E
:1005A000790008953FB7F8948091650290916602B2
:1005B000A0916702B091680226B5A89B05C02F3FA5
:1005C00019F00196A11DB11D3FBFBA2FA92F982F79
:1005D0008827BC01CD01620F711D811D911D42E074
:1005E000660F771F881F991F4A95D1F708958F923C
:1005F0009F92AF92BF92CF92DF92EF92FF924B0108
:100600005C010E94D2026B017C010E94D2026C1933
:100610007D098E099F09683E734081059105A8F305
:1006200021E0821A9108A108B10888EEC80E83E083
:10063000D81EE11CF11C81149104A104B10429F716
:10064000FF90EF90DF90CF90BF90AF909F908F90F2
:1006500008950C94A8014091E1015091E20120918C
:10066000DF013091E00142175307B4F49091E800A4
:100670009570E1F39091E80092FD19C08093F1002C
:100680008091E1019091E20101968F739927892B66
:1006900019F48EEF8093E8008091E1019091E201DE
:1006A00001969093E2018093E10181E0089580E05A
:1006B0000895EF92FF920F931F93CF93DF93F82E3D
:1006C000192FE62E042F81E0860F880F0E942B033E
:1006D00083E00E942B03CF2DD12FEC0EFD2EF11CB9
:1006E000CE15DF05B9F007FF13C0FE0184910E940B
:1006F0002B03182F80E00E942B0381232196811168
:10070000EFCFDF91CF911F910F91FF90EF90089560
:100710008881EDCF81E0F5CFDF92EF92FF920F93CA
:100720001F93CF93DF93D82E8A01EB017B01E40E58
:10073000F51ECE15DF0559F0D7FE12C0FE018491DB
:100740000E942B0321968111F4CF0FEF1FEFC801F8
:10075000DF91CF911F910F91FF90EF90DF9008955F
:100760008881EECF2FB7F89487708093E90090913D
:10077000E800892F807295FF04C09091F20080E418
:10078000891B2FBF08957F928F929F92AF92BF9245
:10079000CF92DF92EF92FF920F931F93CF93DF934D
:1007A000C82E8B017A0180916A02811110C08FEFEF
:1007B0009FEFDF91CF911F910F91FF90EF90DF900E
:1007C000CF90BF90AF909F908F907F900895809131
:1007D000E50180FF05C08091E00082608093E00029
:1007E000CE2DDF2DD12C8AEFB82E8C2D8770982E30
:1007F0008C2D8072882E8C2D8074782E9AE3A92EF1
:10080000209719F4DD2009F452C08C2D0E94B20308
:1008100081110AC0BA94BB2051F261E070E080E01F
:1008200090E00E94F702ECCF8C171D0611F00CF03F
:100830008C2F9FB7F8949092E9002091E80025FD55
:1008400002C09FBFDDCF282F30E0C21BD30B882012
:1008500029F08150A0F01092F100FBCFF801C7FC05
:100860000AC0815050F041914093F100FACF449179
:100870004093F10031968150D0F7020F131FDD2015
:1008800021F0A092E800D12CDCCF8091E80085FD1A
:1008900007C0A092E800DD24D394209791F2F3CF13
:1008A000209779F6772069F2A092E800CACF5D9888
:1008B00084E68093E401C7017CCF615030F0209141
:1008C000F100FC0120830196F8CF289884E68093FC
:1008D000690208958091D70181110DC082E0809353
:1008E000D30184E08093D4011092D6011092D501F7
:1008F00081E08093D70183ED91E008950F931F93DA
:10090000CF93DF931F92CDB7DEB782E0898342E4B5
:1009100050E067EF70E080E80E948C030E946A0458
:10092000DC0112960D911C910115110589F0D80179
:10093000ED91FC910280F381E02DBE016F5F7F4F4E
:10094000C801099597FD04C0F80100851185ECCF19
:1009500089810F90DF91CF911F910F910895CF93CF
:10096000DF93EC0180911201882331F083E00E9433
:10097000C3031816190634F081E090E09B838A8344
:1009800080E090E0DF91CF910895CF93DF931F92A5
:10099000CDB7DEB76983DC01ED91FC910280F38174
:1009A000E02D41E050E0BE016F5F7F4F09950F9051
:1009B000DF91CF910895682F8BE692E00C94C504E7
:1009C0000F931F93CF93DF938C01D0E0C0E0F80129
:1009D000EC0FFD1F6491662341F08BE692E00E94CC
:1009E000C504892B11F02196F2CFCE01DF91CF9172
:1009F0001F910F91089583E00E94B20390E0089543
:100A0000CF93DF931F92CDB7DEB7FC018485958528
:100A100097FD08C02FEF3FEF358724870F90DF91B8
:100A2000CF910895CE0101960E94B301019719F468
:100A3000898190E0F3CF8FEF9FEFF0CF0F931F935B
:100A4000CF93DF931F92CDB7DEB78C01FC01848575
:100A5000958597FF0BC0CE0101960E94B3010197C7
:100A600071F4898190E0F80195878487F801848585
:100A700095850F90DF91CF911F910F9108958FEF82
:100A80009FEFF1CFFC018485958597FD0BC09FB743
:100A9000F89482E08093E9008091F2009FBF90E09B
:100AA000019608959FB7F89482E08093E9008091C1
:100AB000F2009FBF90E00895DC01FB0112962C919B
:100AC0001297848195812817190641F491818081BC
:100AD000813A31F49D7F81E0913009F080E0089502
:100AE0008132E1F79B3029F482811F968C9381E05B
:100AF00008959A3099F7828150968C93F8CFAF92EF
:100B0000BF92CF92DF92EF92FF920F931F93CF93FA
:100B1000DF931F92CDB7DEB77C0169836A0159016B
:100B200041E050E0BE016F5F7F4FFC0183810E9476
:100B3000C3038C0197FD0BC0F7018381A501B601AA
:100B400080640E94C303080F191F97FD8C01C80120
:100B50000F90DF91CF911F910F91FF90EF90DF9059
:100B6000CF90BF90AF900895DC01FB0188E48083B3
:100B700089E4818384E482831D969C911D979F70F4
:100B80009F5B93831D968D919C9124E0969587950C
:100B90002A95E1F78F708F5B848385E00895EF924B
:100BA000FF920F931F93CF93DF93FB012081213896
:100BB00071F52381223259F5DC0112964C91248182
:100BC00035814217130619F5EC010B851C85F12CB4
:100BD000E12C0115110589F0F801448155816281EC
:100BE000738180E80E948C038F3F980749F0E80EDC
:100BF000F91ED8010D911C91ECCF81E08F87C701C0
:100C0000DF91CF911F910F91FF90EF90089590E0A9
:100C100080E0F6CFCF93DF93CDB7DEB769970FB6FD
:100C2000F894DEBF0FBECDBFFC01DB018C918F5F5E
:100C30008C939E012D5F3F4F8DE0D9011D928A95C7
:100C4000E9F729E0298384E08A8391E09D8383E0AA
:100C50008E832A8721E22B879C879D879F8722E2AC
:100C6000288B27E02B8B25E02C8B8E8B20E430E02B
:100C7000388F2F8B998F82818B8395858685998B71
:100C80008A8B838180688D8B49E150E0BE016F5F64
:100C90007F4F80E00E948C0369960FB6F894DEBF08
:100CA0000FBECDBFDF91CF910895CF93DF93809199
:100CB000CB01811167C081E08093BE018093BF01A9
:100CC00024EC31E03093C1012093C0011092C301A4
:100CD0001092C2012BE231E03093BB012093BA01A4
:100CE0001092C6011092C5011092C8011092C7015E
:100CF0008093C9018093CA0181EC8093C4010E9452
:100D00006A04FC0181819091BE01482F490F55274B
:100D1000551F483051059CF5A281B381109709F504
:100D20002AEB31E03383228320812093BC0180931E
:100D3000BD018091BF01820F80832091C001A22F4D
:100D4000B091C1018A2F821B8917C8F481813D911E
:100D5000C82FD0E0C050DF4F38838F5F8183F2CF40
:100D6000D90118962D913C91199721153105C1F79C
:100D70002AEB31E019963C932E931897D5CF81E05A
:100D80008093CB018AEB91E0DF91CF910895CF92D0
:100D9000DF92EF92FF920F931F93CF93DF936C013B
:100DA000EB017B01E40EF51E10E000E0CE15DF053F
:100DB00081F069916D30D1F3D601ED91FC910190F4
:100DC000F081E02DC6010995892B19F00F5F1F4FA7
:100DD000EDCFC801DF91CF911F910F91FF90EF9060
:100DE000DF90CF900895CF93DF93EC016838E0F067
:100DF0006858FE0186E0662321F09681961301C0B3
:100E00001682815031968111F6CF0E945506AE01AF
:100E10004C5F5F4F28E030E062E00E947F0581E098
:100E200090E0DF91CF910895862F90E067FF0FC08B
:100E3000FC01E058F10981E090E001C0880FEA95DB
:100E4000EAF780959C8189238C8360E0D2CFEC8582
:100E5000FD85E80FF91F649190E080E0662309F3B7
:100E6000862F807C803C49F48C818F7B8C836F73D0
:100E7000623309F0BECF64E6BCCF67FFF9CF8C8147
:100E80008D7F8C836F77F4CFCF93DF93EC0168383D
:100E900058F168588E818617D1F08F818617B9F086
:100EA00088858617A1F08985861789F08A85861737
:100EB00071F08B85861759F0FE01369690E080E040
:100EC0002191211147C08C0F9D1FFC0166830E9458
:100ED0005506AE014C5F5F4F28E030E062E00E94B3
:100EE0007F0581E090E01FC0862F90E067FF0EC075
:100EF000FC01E058F10921E030E001C0220FEA9541
:100F0000EAF78C81822B8C8360E0C4CFEC85FD8571
:100F1000E80FF91F6491611109C081E090E09B83A3
:100F20008A8390E080E0DF91CF910895862F807CC6
:100F3000803C49F48C8180648C836F73623309F048
:100F4000A9CF64E6A7CF67FFF9CF8C8182608C833D
:100F50006F77F4CF01968630910509F0B1CFDDCFE0
:100F6000EF92FF921F93CF93DF93EC01162F0E9415
:100F700044077C01612FCE010E94F306C701992727
:100F8000DF91CF911F91FF90EF900895089590E029
:100F900080E00895262FFC01E85DFD4F3081361773
:100FA00061F0608389519E4FFC01628189EC92E07F
:100FB00021110C9444070C94F3060895CF92DF920C
:100FC000EF92FF92CF93DF93EC01A091EE016B01C2
:100FD000770FEE08FF08FC01E85DFD4F8081882354
:100FE000E1F0AF50BB0B2FEF3FE70E943C1D24E622
:100FF00030E040E050E00E94081D61E02C153D0506
:101000004E055F050CF060E0CE01DF91CF91FF90BF
:10101000EF90DF90CF900C94CA072A2F30E0AFEF0B
:10102000BFE70E942D1DE3CFCF93DF93D0E0C0E058
:1010300060E0CE010E94CA072196C530D105C1F7F4
:10104000DF91CF910895DC0123E53AE42D933D93A0
:1010500026E0EDE1F1E001900D922A95E1F726E01E
:10106000EDE1F1E0DC01189601900D922A95E1F78F
:1010700008958F929F92AF92BF920F931F93CF9339
:10108000DF93CDB7DEB7A1970FB6F894DEBF0FBEE2
:10109000CDBF19A2423008F44AE08E010F5D1F4F08
:1010A000842E912CB12CA12CA50194010E94E61C48
:1010B000E62FB901CA01EA3044F5E05DD801EE93AC
:1010C0008D01232B242B252B79F790E080E01097BE
:1010D00069F0FD0101900020E9F73197AF014A1B4B
:1010E0005B0BBD018BE692E00E94AF04A1960FB6A8
:1010F000F894DEBF0FBECDBFDF91CF911F910F914E
:10110000BF90AF909F908F900895E95CD7CF42E059
:1011100050E066E671E08BE692E00C94AF04CF936A
:10112000DF930E94E004EC010E9487088C0F9D1F52
:10113000DF91CF910895CF92DF92EF92FF92CF93FC
:10114000DF936C01990FEE08FF08F7FE17C08DE2E0
:101150000E94DB04EC0166277727CB016C197D091F
:101160008E099F094AE00E9439088C0F9D1FDF916C
:10117000CF91FF90EF90DF90CF9008954AE0C701A4
:10118000B601DF91CF91FF90EF90DF90CF900C945C
:101190003908CF93DF9383EF90E00E94E004C9EE1B
:1011A000D1E080E20E94DB04699170E090E080E091
:1011B0004AE00E94390881E0CE3ED80791F780E2EC
:1011C0000E94DB046091EE0170E090E080E04AE074
:1011D0000E943908DF91CF910C948708CF92DF925B
:1011E000EF92FF928093EF01682F880F770B880BA7
:1011F000990B0E94E71A2BED3FE049E450E40E946E
:10120000DB1B20E030E044E353E40E943D1A6B0115
:101210007C010E94381A6093190170931A0180931F
:101220001B0190931C01C701B6010E94481C6093EA
:101230003B0270933C0280933D0290933E02FF90EC
:10124000EF90DF90CF900895FF920F931F93CF936D
:10125000DF93EC01F62E08811981C8010E94B019B4
:10126000F81621F06F2DC8010E94B819CE01DF9148
:10127000CF911F910F91FF900895CF92DF92EF923F
:10128000FF920F931F93CF93DF9300D0CDB7DEB7BC
:101290006C017C0110E000E01A830983F701619181
:1012A0007F01CE0101960E9424090F5F1F4F0E306F
:1012B000110591F7C6010F900F90DF91CF911F910B
:1012C0000F91FF90EF90DF90CF900895EF92FF92F3
:1012D0000F931F93CF93DF9300D0CDB7DEB78C0170
:1012E0000E94140888E0F801A7EEB1E001900D9289
:1012F0008A95E1F787EEE82E81E0F82E00E410E011
:101300001A830983F70161917F01CE0101960E9442
:1013100024090F5F1F4F0834110591F70F900F90AC
:10132000DF91CF911F910F91FF90EF9008951F9241
:101330000F920FB60F9211242F933F938F939F9389
:10134000AF93BF938091610290916202A09163027A
:10135000B09164023091600223E0230F2D3758F5DD
:101360000196A11DB11D20936002809361029093AC
:101370006202A0936302B09364028091650290912F
:101380006602A0916702B09168020196A11DB11D8D
:101390008093650290936602A0936702B0936802FF
:1013A000BF91AF919F918F913F912F910F900FBE61
:1013B0000F901F90189526E8230F0296A11DB11DCE
:1013C000D2CF1F920F920FB60F9211242F933F93FB
:1013D0004F935F936F937F938F939F93AF93BF933D
:1013E000CF93EF93FF93C091E1008091E100837F61
:1013F0008093E100C3FF0FC01092E90081E0809369
:10140000EB001092EC0082E38093ED0010926A02F0
:1014100088E08093F000C2FF1AC00E94A80180916A
:10142000E401882341F08091E40181508093E4013C
:10143000811101C05D9A80916902882341F08091F9
:101440006902815080936902811101C0289AC4FF0A
:1014500023C08091E2008E7E81608093E2008091C3
:10146000E1008F7E8093E1008091E5018E7E8061B6
:101470008093E501FF91EF91CF91BF91AF919F9143
:101480008F917F916F915F914F913F912F910F902D
:101490000FBE0F901F901895C0FFECCF8091E20017
:1014A0008E7E80618093E2008091E1008E7E809349
:1014B000E1008091E5018E7E8160DACF1F920F926C
:1014C0000FB60F921124CF92DF92EF92FF920F93FB
:1014D0001F932F933F934F935F936F937F938F93BC
:1014E0009F93AF93BF93EF93FF93CF93DF93CDB7CA
:1014F000DEB76C97DEBFCDBF1092E9008091E800A7
:1015000083FF25C068E0CE0145960E945D0482EF0E
:101510008093E8008D8987FF39C09091E80090FFA3
:10152000FCCF982F907609F034C19E894F89588D51
:101530002F89F88C911131C0803861F58091E601D6
:101540008093F1001092F1008EEF8093E8006C968A
:101550000FB6F894DEBF0FBECDBFDF91CF91FF91E4
:10156000EF91BF91AF919F918F917F916F915F911B
:101570004F913F912F911F910F91FF90EF90DF902E
:10158000CF900F900FBE0F901F9018959EEF9093E5
:10159000E800C7CF1092F100D5CF913059F48111F6
:1015A000D3CF4130510581F68091E6018D7F809344
:1015B000E601CACF933049F48111C6CF41305105BD
:1015C00019F68091E6018260F2CF953041F4809166
:1015D000E80080FFFCCF20682093E300B5CF963071
:1015E00009F0A9C00B8D1C8D22E01092E900109229
:1015F000E2011092E101F2122EC01092E00110926D
:10160000DF010E947E041F8299E09983FA8291E0B3
:101610009E8390EA98879AEF99872091E101309113
:10162000E201275F3F4F3C832B838D831092E900BB
:101630001092E2011092E1011093E0010093DF01AA
:1016400049E050E0BE016F5F7F4F80E00E948C0355
:101650000E947E0479CF1093E0010093DF010E9485
:101660006A04DC0112960D911C910115110509F413
:1016700051C1D801ED91FC910480F581E02DBE01AE
:101680006B5E7F4FC8010995009709F03EC1F801D4
:1016900000851185EACFF3E0FF120EC08F89882301
:1016A00009F440C0823061F440E86AE084E591E0EA
:1016B0000E945903811148CF81E28093EB0047CF0C
:1016C000813029F440E864E08FE491E0F1CF833089
:1016D00099F70E946A04DC011296ED90FC908E014D
:1016E0000F5F1F4F6801E114F10479F0D701ED910C
:1016F000FC910680F781E02DB801C7010995080F1C
:10170000111DF701E084F184EECFD8011C92F6019F
:1017100001900020E9F73197BF016C197D0940E085
:10172000C601C6CF69E371E0FB01449150E080E857
:101730000E948C0309CF973009F4BECF983021F472
:1017400081E08093F10000CF993009F0FDCE8370E5
:1017500009F0B2CFE1E0F1E081E031E096E32191E0
:10176000222371F08093E9003093EB00DF011197A1
:101770002C912093EC009093ED008F5F873079F7E8
:101780008EE78093EA001092EA008F8980936A02C4
:10179000DBCE8B8D9C8D1092E9001092E2011092AD
:1017A000E1019093E0018093DF01898D811192C066
:1017B0008E899D89913A49F4813209F07DCF47E0C5
:1017C00050E06BE071E080E0B3CF913209F074CF6C
:1017D000833269F48F89988DB0E0A0E0809307018F
:1017E00090930801A0930901B0930A01ADCE803215
:1017F00069F48091E80082FFFCCF67E08BE091E024
:101800000E945D048BEF8093E8009ECE823209F047
:101810009BCE8F8980931201EEEFFFE78591949123
:101820008B3F9C4D51F1E0E0F8E080910B019091ED
:101830000C01A0910D01B0910E01803B9440A105D7
:10184000B105F1F48091120180FD1AC0EE3F8AE0EB
:10185000F80789F587E797E7918380838091600097
:101860008093E30188E19BE00FB6F894A8958093FC
:1018700060000FBE9093600067CEEEEFFAE0D5CF28
:10188000808191818737974709F05ECEA895809136
:1018900060008861809360008091E3018093600024
:1018A000EE3F2AE0F20789F08091FE0A9091FF0A4C
:1018B0009183808349CE808191818737980751F247
:1018C0009093FF0A8093FE0AC5CF1092FF0A1092F0
:1018D000FE0A3ACE0E946A04DC0112960D911C9118
:1018E0000115110509F4E8CED801ED91FC910190A4
:1018F000F081E02DBE016B5E7F4FC801099581111B
:1019000023CEF80100851185EBCF181619060CF4CB
:101910001BCED2CEF1E0FF12BECE6DE371E004CF5C
:10192000CF93DF93EC0180E690E00E94B019813004
:10193000D9F488839091B2019923D1F00E94550681
:10194000FC01A385B485109739F58CEA91E0948762
:101950008387858596852091B0013091B101820FF2
:10196000931F9687858701C01882DF91CF910895D4
:101970001092AD011092AC012AEC30E03093AF012F
:101980002093AE0129E230E03093B1012093B00101
:101990008093B201D3CFDC018D919C911197009778
:1019A000D1F78CEA91E08D939C93D3CF10926E0285
:1019B00010926D0288EE93E0A0E0B0E080936F0299
:1019C00090937002A0937102B09372028CE491E044
:1019D00090936C0280936B028FEF9FEF909378024D
:1019E000809377021092CC021092CB028EE591E0A8
:1019F0009093CA028093C9028091C102811113C0E1
:101A00001092BC021092BB0283EB92E09093BE0254
:101A10008093BD028FE290E09093C0028093BF025A
:101A200081E08093C1020E945506FC01A385B48524
:101A30001097C9F48BEB92E0948783878585968510
:101A40002091BF023091C002820F931F9687858735
:101A500083E392E09093D6028093D50287ED92E0E3
:101A60000C94900CDC018D919C9111970097D1F70B
:101A70008BEB92E08D939C93E1CFCF93DF93CDB727
:101A8000DEB7C05ED1090FB6F894DEBF0FBECDBF82
:101A9000789484B5826084BD84B5816084BD85B549
:101AA000826085BD85B5816085BD80916E00816055
:101AB00080936E00109281008091810082608093FB
:101AC00081008091810081608093810080918000FD
:101AD000816080938000809191008260809391006A
:101AE000809191008160809391008091900081604D
:101AF000809390008091C10084608093C1008091A8
:101B0000C10082608093C1008091C1008160809398
:101B1000C1008091C30081608093C3008091C000A8
:101B200082608093C0008091C20081608093C20077
:101B300080917A00846080937A0080917A0082603C
:101B400080937A0080917A00816080937A008091FE
:101B50007A00806880937A0010926A021092E601FF
:101B60001092E5018091D70081608093D70080EAD0
:101B70008093D80089B5806189BD89B5826089BDAF
:101B800009B400FEFDCF61E070E080E090E00E94CB
:101B9000F7028091D8008F7C80618093D80080917B
:101BA000E000807F8093E0008091E1008E7E809352
:101BB000E1008DE08093E200559A209A62E08EE089
:101BC0000E947D0262E080E10E947D0200E411E05B
:101BD00023E331E0C853DF4F39832883C85CD0400A
:101BE00062E0C853DF4FA881B981C85CD0408D91B5
:101BF000C853DF4FB983A883C85CD0400E947D02E0
:101C0000C853DF4F68807980C85CD040061517053F
:101C100039F762E08FE00E947D0261E082E00E947D
:101C20007D0280E00E94290282E690E00E94B019C5
:101C3000182F83E690E00E94B019853A21F4163AF5
:101C400014F01B350CF010E0812F0E94EE0827EEF7
:101C5000E22E21E0F22E00E410E0C8010E94B0194B
:101C6000D7018D937D010F5F1F4F08341105A9F730
:101C70008091E7019091E8018D349B4429F4809193
:101C8000EE0184518C3448F088E0E0E4F1E0A7EE06
:101C9000B1E001900D928A95E1F78FEF9FEF90935D
:101CA00078028093770283E392E09093D602809348
:101CB000D5026090230170902401809025019090BE
:101CC0002601C352DF4F688279828A829B82CD5D72
:101CD000D04080915F028111BCC08FE00E9454020D
:101CE0007C01BB24B394892B09F0B12C8E010357DE
:101CF0001F4FD12CC12C902EA12EC6010E94B019CD
:101D0000D8018D938D01BFEFCB1ADB0AEEE0CE1622
:101D1000D10499F78EE0E92DFA2DDE01AF58BF4FBF
:101D200001900D928A95E1F7E114F10411F5CE01CD
:101D300081589F4F0E942308CE0181589F4F0E94D7
:101D40003D0903E010E081E00E94290268E770E0AD
:101D500080E090E00E94F70280E00E94290268E79C
:101D600070E080E090E00E94F7020150110959F7FD
:101D700023C08EE0FE01EF58FF4FDE01AD59BF4F8B
:101D800001900D928A95E1F7E3968EAD9FADE397B2
:101D90008335FAE49F0709F090C0A5969FAF8EAFF8
:101DA000A5978EE0FE01ED59FF4FDE01A158BF4F10
:101DB00001900D928A95E1F78EE0FE01E158FF4F08
:101DC000DE01AB5ABF4F01900D928A95E1F78EE08C
:101DD000FE01EB5AFF4FDE01D99601900D928A95D4
:101DE000E1F728961FAE289781E0EF2809F480E0FC
:101DF00029968FAF29972A961FAE2A972B961FAE4A
:101E00002B972F961CAE1DAE1EAE1FAE2F97609661
:101E1000BFAE60976196BFAE619765961CAE1DAE72
:101E20001EAE1FAE65978CE1FE01F996A3E4B2E009
:101E300001900D928A95E1F70E94D20260933F02D1
:101E400070934002809341029093420281E080931C
:101E50005F0202E6E02EF12C83E6C82ED12C772417
:101E600073949DE2A92E92E0B92E8BE692E00E9437
:101E70004205181619060CF04AC28BE692E00E9441
:101E800000058D3091F320912002309121028A309B
:101E900009F02DC220513E4FD9011C9269E671E034
:101EA00080EF91E00E94501D892B69F40E94C908BF
:101EB0001092210210922002D8CFCE0181589F4F5C
:101EC0000E94230879CF44E050E06DE671E080EF96
:101ED00091E00E94591D8C01892B09F060C088E0B7
:101EE000E7EEF1E0DE01A158BF4F01900D928A9517
:101EF000E1F7FE01E158FF4F4F0184EF91E001153A
:101F0000110511F090E080E069E871E00E94671926
:101F1000009729F489E791E00E948F08C9CF0E94B9
:101F200040199B01AC0121503109410951092F3F52
:101F300031054105510518F085E791E0EDCF0530F9
:101F40001105F9F0D40112966C930F5F1F4FBFEF8C
:101F50008B1A9B0A0630110581F6C158DF4F888124
:101F60009981CF57D0408D349B4441F4CA57DF4FFD
:101F70008881C658D04084518C3448F081E791E084
:101F8000CBCFCA57DF4F6883C658D040DECFCE01D3
:101F900081589F4F0E9466098EE691E0BDCF62E7AF
:101FA00071E080EF91E00E94501D892B29F480E4BC
:101FB00091E00E9466097ACF6CE771E080EF91E0D2
:101FC0000E94501D892BF1F587E691E00E94E00404
:101FD0008091390290913A020E949B0880E20E940F
:101FE000DB0480913702909138020E949B0880E2C6
:101FF0000E94DB0480913502909136020E949B087A
:1020000080E20E94DB0480913302909134020E94AE
:102010009B0880E20E94DB048091320290E00E94E3
:102020009B0808E212E080E20E94DB04D8018D9157
:102030008D0190E00E949B08A016B106A1F70E94B6
:10204000870836CF62E871E080EF91E00E94501D72
:10205000892B29F4709227028DE991E05DCF44E04D
:1020600050E066E871E080EF91E00E94591D892BF5
:1020700049F584EF91E00E9422192091D702213086
:1020800031F49C01215031092431310518F089E9DE
:1020900091E042CF809331022FB7F8948091610292
:1020A00090916202A0916302B09164022FBF80936D
:1020B0002D0290932E02A0932F02B093300286E956
:1020C00091E02ACF6BE871E080EF91E00E94501D13
:1020D000892B09F053C082E691E00E94E004C352CC
:1020E000DF4F288139814A815B81CD5DD040C15865
:1020F000DF4F288339834A835B83CF57D0408E01DB
:1021000001581F4F480134E0830E911C80E20E9469
:10211000DB04D8018D918D010E94AE020E949B08C4
:102120008016910699F780E20E94DB0403E311E038
:10213000812CF80191908F01892D0E945402892BE6
:1021400071F4882019F08CE20E94DB04692D70E0A4
:1021500090E080E04AE00E94390888248394C853C4
:10216000DF4F28813981C85CD0402017310709F73B
:10217000811065CF8DE20E94DB0461CF60E971E0E0
:1021800080EF91E00E94501D892B61F481E991E07C
:102190000E94E0048091EF01082E000C990B0E9430
:1021A0009B084DCF44E050E064E971E080EF91E09E
:1021B0000E94591D892B59F584EF91E00E94221944
:1021C0008C01865A9F4F853B910518F08DE891E070
:1021D000A3CE802F0E94EE08C158DF4FF982E8821B
:1021E000CF57D040602FCE0181589F4F0E942409C5
:1021F000C158DF4FD982C882CF57D04065EACE019F
:1022000081589F4F0E9424098AE891E085CE69E9B0
:1022100071E080EF91E00E94501D892B69F484E801
:1022200091E00E94E0046091D70270E090E080E0CD
:102230004AE00E94390803CF6EE971E080EF91E037
:102240000E94501D892B49F065EA71E080EF91E012
:102250000E94501D892B09F042C011E08091F501C8
:10226000813309F010E08091D702811303C081E827
:1022700091E052CE0E94140880E690E0C158DF4FF2
:1022800099838883CF57D040612FCE0181589F4FCB
:102290000E9424098FE591E00E948F080E94A80106
:1022A00064E670E080E090E00E94F70268EC70E085
:1022B00080E090E00E94F70210920108109200085E
:1022C0001092FF0A1092FE0A88E198E00FB6F89487
:1022D000A895809360000FBE90936000FFCF80911F
:1022E000F001882309F4E4CD8DE791E015CE2F327B
:1022F00031050CF0BACDA9014F5F5F4F5093210219
:102300004093200220513E4FD9018C93AECD0E94C4
:10231000D20200913F02109140022091410230917F
:102320004202AB01BC01401B510B620B730B77FDEA
:102330003CC7D901C80188519C4FAF4FBF4F809314
:102340003F0290934002A0934102B09342020E9448
:10235000D20200913F02109140022091410230913F
:102360004202601B710B820B930B161617061806A0
:10237000190674F40E94D20268517C4F8F4F9F4F10
:1023800060933F0270934002809341029093420217
:102390008FB7F894C0906102D0906202E09063021F
:1023A000F09064028FBF83E10E94AE02CD54DF4FF4
:1023B00099838883C35BD04082E10E94AE021C01F6
:1023C00080E10E9454028C01892B21F08EE00E9452
:1023D00054028C0180912702882369F01092270211
:1023E00081E080932602C0922202D0922302E092E2
:1023F0002402F0922502809126028823B9F0809170
:10240000220290912302A0912402B091250236016C
:102410004701681A790A8A0A9B0AD401C3018436E3
:102420009105A105B10510F010922602B090260288
:102430008FE00E945402E0E0892B19F081E0EB2D3F
:10244000E8278090430290904402C952DF4F99825E
:102450008882C75DD040A0904502B0904602C25429
:10246000DF4FB982A882CE5BD040409147023091C5
:1024700048026090490270904A02C054DF4F79824E
:102480006882C05CD04080904B0290904C02C75450
:10249000DF4F99828882C95BD04020914D02909194
:1024A0004E02A0904F02B0905002CB54DF4FB98241
:1024B000A882C55BD040B0905102C354DF4FB882B0
:1024C000CD5BD04060905202C653DF4F6882CA5C39
:1024D000D04070905302CA52DF4F7882C65DD04020
:1024E00080905402CE53DF4F8882C25CD04060900F
:1024F0005502709056028090570290905802C55332
:10250000DF4F688279828A829B82CB5CD040709058
:102510005902C153DF4F7882CF5CD04080915A027C
:1025200080905B0290905C02A0905D02B0905E0291
:10253000C053DF4F88829982AA82BB82C05DD0409F
:1025400051E0012B09F050E0CA52DF4F9880C65D80
:10255000D040591569F0CA52DF4F5883C65DD0404C
:10256000C553DF4FC882D982EA82FB82CB5CD04060
:1025700026013701C553DF4F88809980AA80BB8030
:10258000CB5CD040481859086A087B086AE14616B7
:1025900051046104710428F0CE53DF4F5883C25CAC
:1025A000D040CE53DF4F6880C25CD040CB52DF4F6B
:1025B0006882C55DD04051E0BE2EB526C153DF4FC5
:1025C0007880CF5CD040B71469F0C153DF4FB88238
:1025D000CF5CD040C053DF4FC882D982EA82FB82F1
:1025E000C05DD040C053DF4F688079808A809B8077
:1025F000C05DD040C618D708E808F9085AE1C516EA
:10260000D104E104F10470F1C953DF4FB882C75C13
:10261000D040C953DF4F6880C75CD04051E0852768
:10262000611001C080E0C653DF4F7880CA5CD040A3
:1026300071101EC0C953DF4F8880C75CD040811025
:1026400006C051E0C653DF4F5883CA5CD040C35424
:10265000DF4F1882CD5BD040CC52DF4F1882C45D73
:10266000D04023C0C953DF4F8883C75CD040D1CF4F
:10267000882391F3C354DF4F6880CD5BD040662040
:1026800009F418C4C354DF4F1882CD5BD04063E512
:102690007AE4C952DF4F79836883C75DD04071E027
:1026A000CC52DF4F7883C45DD040C952DF4F688081
:1026B0007980C75DD0407E8E6D8EC254DF4F88809A
:1026C0009980CE5BD04098A28F8E49A33AA3C05484
:1026D000DF4FA880B980C05CD040BCA2ABA2C75479
:1026E000DF4F68807980C95BD0407EA26DA22FA3A6
:1026F00098A7CB54DF4F88809980C55BD0409AA6BD
:1027000089A6C354DF4F9880CD5BD0409BA6C653AB
:10271000DF4FA880CA5CD040ACA6CA52DF4FB88059
:10272000C65DD040BDA6CE53DF4F6880C25CD040AE
:102730006EA6C553DF4F88809980AA80BB80CB5C92
:10274000D0408FA698AAA9AABAAAC153DF4F9880F1
:10275000CF5CD0409BAAC953DF4FA880C75CD04054
:10276000ACAAC053DF4F688079808A809B80C05DAF
:10277000D0406DAA7EAA8FAA98AEC354DF4F78804E
:10278000CD5BD040772009F4B6C086E0FE017F968D
:10279000DE01AF55BF4F01900D928A95E1F7C2540B
:1027A000DF4F88809980CE5BD040CD54DF4FA8802A
:1027B000B980C35BD040A814B90434F4C254DF4FCD
:1027C000B982A882CE5BD040C054DF4F6880798048
:1027D000C05CD040CD54DF4F88809980C35BD0402F
:1027E0006814790434F4C054DF4F99828882C05C45
:1027F000D040C254DF4FA880B980CE5BD040CF55C7
:10280000DF4FB982A882C15AD040C054DF4F6880E0
:102810007980C05CD040CB55DF4F79826882C55A41
:10282000D04086E0FE01EF55FF4FDE01A556BF4FB9
:1028300001900D928A95E1F786E0FE01E556FF4F83
:10284000DE015F9601900D928A95E1F786E0FE0128
:10285000B596DE01A355BF4F01900D928A95E1F721
:10286000C754DF4F88809980C95BD0402814390451
:1028700034F4C754DF4F39822882C95BD040CB542F
:10288000DF4FA880B980C55BD040A214B30434F4F4
:10289000CB54DF4F39822882C55BD040C754DF4F0D
:1028A00068807980C95BD040C355DF4F79826882E8
:1028B000CD5AD040CB54DF4F88809980C55BD04043
:1028C000CF54DF4F99828882C15BD04086E0FE0101
:1028D000E355FF4FDE01A955BF4F01900D928A9538
:1028E000E1F786E0FE01E955FF4FDE019596019084
:1028F0000D928A95E1F7C254DF4FA880B980CE5B74
:10290000D040B8A2AF8EC054DF4F68807980C05CE1
:10291000D0407CA26BA2C754DF4F88809980C95BEE
:10292000D0409EA28DA2CB54DF4FA880B980C55B5A
:10293000D040BAA6A9A68CE1FE017D96DE011196D3
:1029400001900D928A95E1F76D807E80CD53DF4F27
:1029500079826882C35CD0408B849C84CB53DF4FE8
:1029600099828882C55CD040C354DF4F9880CD5B8C
:10297000D040911075C3CD54DF4FA880B980C35BA0
:10298000D040A614B7040CF4C6C2C054DF4F08816F
:102990001981C05CD04006191709101611060CF0F9
:1029A00001C3B50166197709072E000C880B990B36
:1029B0000E94E71A6B017C01B801110F880B990B7B
:1029C0000E94E71A9B01AC01C701B6010E943D1AA3
:1029D0002B013C0120E030E0A9010E94331A87FD61
:1029E000E1C220E030E040E85FE3C301B2010E94B1
:1029F000D61B181634F4412C512C10E8612E1FE31D
:102A0000712ECB53DF4FA880B980C55CD0402A140B
:102A10003B040CF4D2C2CB54DF4F08811981C55B53
:102A2000D0400A191B09101611060CF008C3B10199
:102A30006A197B09072E000C880B990B0E94E71A74
:102A40006B017C01B801110F880B990B0E94E71AEA
:102A50009B01AC01C701B6010E943D1A6B017C01CC
:102A600020E030E0A9010E94331A87FDE8C220E08F
:102A700030E040E85FE3C701B6010E94D61B18169C
:102A800034F4C12CD12CA0E8EA2EAFE3FA2EA30136
:102A90009201C301B2010E94DB1B4B015C01A70143
:102AA0009601C701B6010E94DB1B9B01AC01C50169
:102AB000B4010E94C7190E94561CC752DF4F688399
:102AC00079838A839B83C95DD0402DEC3CEC4CE438
:102AD0005DE30E94331A18160CF0BCC22DEC3CECDE
:102AE0004CE45DE3C752DF4F688179818A819B8125
:102AF000C95DD0400E94C61923E333E343E75FE397
:102B00000E943D1A4B015C0120E030E040E85FE3A9
:102B10000E94D61B181634F4812C912CE0E8AE2EBE
:102B2000EFE3BE2EC752DF4F288139814A815B8196
:102B3000C95DD040C501B4010E943D1A4B015C0142
:102B4000A30192010E94DB1B2B013C01A70196010E
:102B5000C501B4010E94DB1B4B015C0120E03EEF8C
:102B60004FEF56E4C301B2010E94DB1B0E94AF1A73
:102B70007B0120E03EEF4FEF56E4C501B4010E9417
:102B8000DB1B0E94AF1A8B01C952DF4F688079802E
:102B9000C75DD0407092440260924302C254DF4F3E
:102BA00088809980CE5BD040909246028092450208
:102BB000CD53DF4FA880B980C35CD040B0924802AB
:102BC000A0924702C054DF4F68807980C05CD0403B
:102BD00070924A0260924902C754DF4F8880998000
:102BE000C95BD04090924C0280924B02CB53DF4F96
:102BF000A880B980C55CD040B0924E02A0924D0230
:102C0000CB54DF4F68807980C55BD0407092500212
:102C100060924F02C354DF4F7880CD5BD0407092FA
:102C20005102C653DF4F8880CA5CD0408092520266
:102C3000CA52DF4F9880C65DD04090925302CE5367
:102C4000DF4FA880C25CD040A0925402C553DF4F32
:102C5000688079808A809B80CB5CD04060925502EE
:102C6000709256028092570290925802C153DF4FE1
:102C70007880CF5CD04070925902C953DF4F888072
:102C8000C75CD04080925A02C053DF4F6880798081
:102C90008A809B80C05DD04060925B0270925C0233
:102CA00080925D0290925E02B701FF0C880B990B37
:102CB0000E94E71A4B015C012091190130911A0121
:102CC00040911B0150911C01CB54DF4F2883398365
:102CD0004A835B83C55BD04066277727601B710BF7
:102CE000072E000C880B990B0E94E71A2B013C0160
:102CF00040913B0250913C0260913D0270913E0236
:102D0000C754DF4F488359836A837B83C95BD040B4
:102D1000CB54DF4F288139814A815B81C55BD0402C
:102D2000C501B4010E94DB1B6B017C01C754DF4F5E
:102D3000288139814A815B81C95BD040C301B201DE
:102D40000E94DB1B9B01AC01C701B6010E94C719A1
:102D50006B017C0120E03EEF4FEF56E40E94D61B52
:102D60000FEF1FE718168CF020E03EEF4FEF56EC08
:102D7000C701B6010E94331A01E010E887FD05C0C3
:102D8000C701B6010E94AF1A8B01A3019201CB5477
:102D9000DF4F688179818A819B81C55BD0400E9429
:102DA000DB1B6B017C01C754DF4F288139814A81CD
:102DB0005B81C95BD040C501B4010E94DB1B9B0154
:102DC000AC01C701B6010E94C6196B017C0120E06D
:102DD0003EEF4FEF56E40E94D61B18160CF445C187
:102DE00020E03EEF4FEF56ECC701B6010E94331AC8
:102DF00087FD40C1C701B6010E94AF1A7B018091D7
:102E0000D702813009F0EAC1CE53DF4F6880C25C3F
:102E1000D040662071F0C354DF4F7880CD5BD04046
:102E200021E030E0772039F0CB52DF4F1882C55DCA
:102E3000D04030E020E0809131028823C1F14FB7CB
:102E4000F8948091610290916202A0916302B09126
:102E500064024FBF40912D0250912E0260912F02CB
:102E600070913002841B950BA60BB70B80399140F3
:102E7000A105B10508F0A8C180913102823109F4A1
:102E8000A6C108F0FCC0B12CA12CCC24C39450E8FE
:102E9000D52E813109F4FFC08150990B41E050E0FB
:102EA00002C0440F551F8A95E2F7242B352B57019A
:102EB0006801F1C0CB54DF4F39822882C55BD04016
:102EC000222D932DC754DF4F39822882C95BD04011
:102ED000CD54DF4F68807980C35BD040C054DF4F52
:102EE00079826882C05CD040CD54DF4F4881C35B9B
:102EF000D040CC54DF4F3881C45BD040C254DF4F48
:102F000079826882CE5BD04051E0C354DF4F588352
:102F1000CD5BD040A1CBCD53DF4F08811981C35C7D
:102F2000D040C254DF4F68807980CE5BD040061914
:102F3000170910161106B4F5CD54DF4F6881798159
:102F4000C35BD040CD53DF4F88809980C35CD040B5
:102F500068197909072E000C880B990B0E94E71A53
:102F60006B017C01B801110F880B990B0E94E71AC5
:102F70009B01AC01C701B6010E943D1A2B013C0127
:102F800020E030E040E85FEB0E94331A87FD0EC07E
:102F900020E030E0A901C301B2010E94D61B18163F
:102FA0000CF02FCD412C512C32012BCD412C512C2A
:102FB000B0E86B2EBFEB7B2E24CDCB53DF4F0881C7
:102FC0001981C55CD040C754DF4F88809980C95BA8
:102FD000D04008191909101611068CF5B101CB5310
:102FE000DF4FA880B980C55CD0406A197B09072EE5
:102FF000000C880B990B0E94E71A6B017C01B80149
:10300000110F880B990B0E94E71A9B01AC01C701B5
:10301000B6010E943D1A6B017C0120E030E040E8DF
:103020005FEB0E94331A87FD0EC020E030E0A9015B
:10303000C701B6010E94D61B18160CF028CDC12C72
:10304000D12C760124CDC12CD12CF0E8EF2EFFEB52
:10305000FF2E1DCD812C912C5401240135017ECDF4
:1030600010E000E0F12CE12C8FCDEE24EA947FE714
:10307000F72EC5CEEE24E39460E8F62EC0CE833161
:1030800009F49DC0AA24A39490E8B92E843109F0D4
:1030900003CFD12CC12CC158DF4FD982C882CF5762
:1030A000D040882799278A199B09CF57DF4F9983EA
:1030B0008883C158D040CD57DF4F39832883C35808
:1030C000D04046E050E063E171E0CE0181589F4F6F
:1030D0000E94431D892BE9F186E0FE01E158FF4F74
:1030E000A3E1B1E001900D928A95E1F70E945506A7
:1030F00026E030E0AE0141585F4F63E00E947F055B
:1031000081E0A11450E4B5060CF480E0809328021D
:1031100081E061E0A61660ECB6060CF080E08093DA
:10312000290281E071E0C71670ECD7060CF080E050
:1031300080932A0281E0C11490E4D9060CF480E067
:1031400080932B02CB52DF4F6880C55DD0406092E8
:103150002C02C354DF4F8881CD5BD0400E942902EE
:10316000CC52DF4F8880C45DD040882021F083E4BA
:1031700092E00E943D09CD54DF4FA880B980C35B27
:10318000D040B0923A02A092390230923802209296
:1031900037021093360200933502F0923402E09227
:1031A0003302809151028093320280E090E0892BBB
:1031B00011F40C94690E0E9400000C94690EAA246C
:1031C000AA944FE7B42E65CF1092310270CEB12C85
:1031D000A12CCC24CA948FE7D82E5DCFB80183E010
:1031E00090E00E94DE0766277727601B710B82E064
:1031F00090E00E94DE07B70190E080E00E94DE07C9
:10320000662777276E197F0981E090E00E94DE072C
:10321000CE53DF4F7880C25CD040772049F0909148
:10322000510281E09827CB52DF4F9883C55DD04093
:10323000CB52DF4F6881C55DD04084E090E00E94B2
:10324000CA0787CFFC0188279927E894219120326B
:10325000E9F3293010F02E30C8F32B3241F02D3233
:1032600039F4689404C00E94A819820F911D21911D
:1032700020532A30C0F31EF4909581959F4F0895F6
:103280001F93FC0199278827BC01E8941191103203
:10329000E9F3193010F01E30C8F31B3251F01D3223
:1032A00049F4689406C00E949319610F711D811D35
:1032B000911D119110531A30B0F33EF49095809502
:1032C000709561957F4F8F4F9F4F1F91089548EDE7
:1032D00052E00E946C190895FA01A191B081009703
:1032E00019F41097E1F0CD01DC01CD010D90002023
:1032F00011F4C00113C0FB012191222319F0201504
:10330000D9F7F3CFFB012191201519F41E921196E4
:1033100006C02223C1F70D900020A1F7D001FA01C9
:10332000A193B0830895592F482F372F262F660F6A
:10333000771F881F991F660F771F881F991F620FBD
:10334000731F841F951F660F771F881F991F08958D
:103350007AE0979F902D879F802D910D11240895DD
:10336000F999FECF92BD81BDF89A992780B508954D
:10337000262FF999FECF1FBA92BD81BD20BD0FB691
:10338000F894FA9AF99A0FBE019608955058BB27FF
:10339000AA270E94DE190C94881B0E944F1B38F04C
:1033A0000E94561B20F039F49F3F19F426F40C9428
:1033B0004C1B0EF4E095E7FB0C94461BE92F0E9492
:1033C000AD1B58F3BA17620773078407950720F0FF
:1033D00079F4A6F50C94CF1B0EF4E0950B2EBA2FC2
:1033E000A02D0B01B90190010C01CA01A00111240B
:1033F000FF27591B99F0593F50F4503E68F11A16B7
:10340000F040A22F232F342F4427585FF3CF469547
:1034100037952795A795F0405395C9F77EF41F1669
:10342000BA0B620B730B840BBAF09150A1F0FF0F33
:10343000BB1F661F771F881FC2F70EC0BA0F621F1F
:10344000731F841F48F4879577956795B795F7950F
:103450009E3F08F0B0CF9395880F08F09927EE0FA4
:103460009795879508950E94221B08F481E008959E
:103470000E945F1BE3950C94991B0E94511A0C94B7
:10348000881B0E94561B58F00E944F1B40F029F4E5
:103490005F3F29F00C94461B51110C94D01B0C94E7
:1034A0004C1B0E94AD1B68F39923B1F3552391F394
:1034B000951B550BBB27AA2762177307840738F0A3
:1034C0009F5F5F4F220F331F441FAA1FA9F335D000
:1034D0000E2E3AF0E0E832D091505040E695001CB4
:1034E000CAF72BD0FE2F29D0660F771F881FBB1F6E
:1034F000261737074807AB07B0E809F0BB0B802D4C
:10350000BF01FF2793585F4F3AF09E3F510578F077
:103510000C94461B0C94D01B5F3FE4F3983ED4F30D
:10352000869577956795B795F7959F5FC9F7880F4B
:10353000911D9695879597F90895E1E0660F771F9D
:10354000881FBB1F621773078407BA0720F0621B2E
:10355000730B840BBA0BEE1F88F7E09508950E9459
:10356000B61A6894B1110C94D01B08950E94B51B33
:1035700088F09F5798F0B92F9927B751B0F0E1F034
:10358000660F771F881F991F1AF0BA95C9F714C0E4
:10359000B13091F00E94CF1BB1E008950C94CF1B85
:1035A000672F782F8827B85F39F0B93FCCF386951D
:1035B00077956795B395D9F73EF49095809570957A
:1035C00061957F4F8F4F9F4F0895E89409C097FBF7
:1035D0003EF490958095709561957F4F8F4F9F4FEA
:1035E0009923A9F0F92F96E9BB279395F69587952E
:1035F00077956795B795F111F8CFFAF4BB0F11F4F1
:1036000060FF1BC06F5F7F4F8F4F9F4F16C0882397
:1036100011F096E911C0772321F09EE8872F762FCD
:1036200005C0662371F096E8862F70E060E02AF00E
:103630009A95660F771F881FDAF7880F96958795FA
:1036400097F90895990F0008550FAA0BE0E8FEEFCF
:1036500016161706E807F907C0F012161306E40756
:10366000F50798F0621B730B840B950B39F40A264F
:1036700061F0232B242B252B21F408950A2609F42D
:10368000A140A6958FEF811D811D089597F99F6731
:1036900080E870E060E008959FEF80EC08950024DA
:1036A0000A941616170618060906089500240A94A7
:1036B000121613061406050608950C944C1B0E945E
:1036C000B51BD8F3E894E0E0BB279F57F0F02AED54
:1036D0003FE049EC06C0EE0FBB0F661F771F881F47
:1036E00028F0B23A62077307840728F0B25A620BD7
:1036F000730B840BE3959A9572F7803830F49A95A2
:10370000BB0F661F771F881FD2F790480C94981C38
:10371000092E0394000C11F4882352F0BB0F40F4DF
:10372000BF2B11F460FF04C06F5F7F4F8F4F9F4F1F
:103730000895EF93E0FF07C0A2EA2AED3FE049ECCD
:103740005FEB0E94DE190E94881B0F90039401FC1E
:103750009058ECEAF0E00C94AB1C57FD9058440FE5
:10376000551F59F05F3F71F04795880F97FB991FE0
:1037700061F09F3F79F0879508951216130614069D
:10378000551FF2CF4695F1DF08C01616170618062A
:10379000991FF1CF86957105610508940895E89405
:1037A000BB2766277727CB0197F908950E94221B34
:1037B00008F48FEF08950E94EE1B0C94881B0E9462
:1037C0004F1B38F00E94561B20F0952311F00C94EB
:1037D000461B0C944C1B11240C94D01B0E94AD1B57
:1037E00070F3959FC1F3950F50E0551F629FF00154
:1037F000729FBB27F00DB11D639FAA27F00DB11D6D
:10380000AA1F649F6627B00DA11D661F829F2227F5
:10381000B00DA11D621F739FB00DA11D621F839F7C
:10382000A00D611D221F749F3327A00D611D231F52
:10383000849F600D211D822F762F6A2F11249F57A0
:1038400050409AF0F1F088234AF0EE0FFF1FBB1FA3
:10385000661F771F881F91505040A9F79E3F510562
:1038600080F00C94461B0C94D01B5F3FE4F3983E11
:10387000D4F3869577956795B795F795E7959F5F0C
:10388000C1F7FE2B880F911D9695879597F908959E
:103890009F930E945F1B0F9007FCEE5F0C94991B97
:1038A00019F416F40C944C1B0C94961C0E94B51B36
:1038B000B8F39923C9F3B6F39F57550B87FF0E94BE
:1038C000A41C0024A0E640EA9001805856959795E4
:1038D00028F4805C660F771F881F20F026173707B3
:1038E000480730F4621B730B840B202931294A2BC3
:1038F000A69517940794202531254A2758F7660F77
:10390000771F881F20F026173707480730F4620B0F
:10391000730B840B200D311D411DA09581F7B9015A
:10392000842F9158880F9695879508959F3F31F081
:10393000915020F4879577956795B795880F911DDD
:103940009695879597F9089591505040660F771F87
:10395000881FD2F708959F938F937F936F93FF9360
:10396000EF939B01AC010E94DB1BEF91FF910E9442
:10397000BF1C2F913F914F915F910C94DB1BDF9304
:10398000CF931F930F93FF92EF92DF927B018C01F5
:10399000689406C0DA2EEF010E94EE1BFE01E89447
:1039A000A5912591359145915591A6F3EF010E947E
:1039B000DE19FE019701A801DA9469F7DF90EF9014
:1039C000FF900F911F91CF91DF910895A1E21A2EE0
:1039D000AA1BBB1BFD010DC0AA1FBB1FEE1FFF1FB3
:1039E000A217B307E407F50720F0A21BB30BE40B03
:1039F000F50B661F771F881F991F1A9469F760954A
:103A00007095809590959B01AC01BD01CF01089503
:103A1000052E97FB1EF400940E941F1D57FD07D032
:103A20000E94E61C07FC03D04EF40C941F1D509519
:103A30004095309521953F4F4F4F5F4F089590959A
:103A40008095709561957F4F8F4F9F4F0895EE0F32
:103A5000FF1F0590F491E02D0994A29FB001B39F40
:103A6000C001A39F700D811D1124911DB29F700D87
:103A7000811D1124911D08950E942D1DB7FF0895E9
:103A8000821B930B0895FB01DC0104C08D91019012
:103A9000801921F441505040C8F7881B990B0895B4
:103AA000FB01DC018D91019080190110D9F3990B74
:103AB0000895FB01DC014150504030F08D910190A0
:103AC000801919F40020B9F7881B990B0895F89410
:023AD000FFCF26
:103AD20000C18081000000FFFFFFFF00E100000045
:103AE20000000000000000FFFF0000803F0000FF18
:103AF20001FF0312131415000000005C050A06CF33
:103B020005B4050001030405060708090A0E0F1093
:103B12004D4B77736164813200000000C504AF042D
:103B2200FB042903420500051E0500000000B00742
:103B3200C706C707C6070D0A004745540053455438
:103B4200200052455345544B455953005354415458
:103B5200450043414C0042544E2000444941470035
:103B6200524F5400524F5420004D4F4445004D4F88
:0C3B720044452030004D4F4445203100F8
:00000001FF
