:100000000C9470010C94A4010C94A4010C94A40110
:100010000C94A4010C94A4010C94A4010C94A401CC
:100020000C94A4010C94A4010C94DD090C945A0ABC
:100030000C94A4010C94A4010C94A4010C94A401AC
:100040000C94A4010C94A4010C94A4010C94A4019C
:100050000C94A4010C94A4010C94A4010C94930995
:100060000C94A4010C94A4010C94A4010C94A4017C
:100070000C94A4010C94A4010C94A4010C94A4016C
:100080000C94A4010C94A4010C94A4010C94A4015C
:100090000C94A4010C94A4010C94A4010C94A4014C
:1000A0000C94A4010C94A4010C94A40105A84CCDBB
:1000B000B2D44EB93836A9020C50B9918688083CA2
:1000C000A6AAAA2ABE000000803F05010905A101D9
:1000D00085030930093116018026FF7F75109502CE
:1000E00081020509190129101500250175019510D6
:1000F0008102C043464700080B00020202000009CB
:100100000400000102020000052400100105240182
:1001100001010424020605240600010705810310DD
:10012000004009040100020A000000070502024025
:1001300000000705830240000004030904120100C7
:1001400002EF020140091202000001010203014A0C
:10015000617370004A61737020537469636B004F60
:100160004B00535441544520004F4B004552520020
:100170004552520045525200455252004F4B004DDD
:100180004F444520004F4B0045525200524F5420DF
:10019000004F4B00455252004F4B0007060504012B
:1001A00000080A0B0C0D0900000000240027002A9B
:1001B000002D003000000000002300260029002C44
:1001C000002F0000000000250028002B002E003129
:1001D00000040404040403040502020202040302EE
:1001E00002020206060606060604040202020404CF
:1001F0000408020110408040102040804080080226
:100200000401804020100201108010204040200096
:1002100000000200090F0000030401000C000000B0
:1002200000000000000000000000000000000000CE
:100230000000000000002A2B280000000000000041
:1002400000000000000000000000000000002C9EE4
:10025000B4A0A1A2A434A6A7A5AE362D3738271E78
:100260001F20212223242526B333B62EB7B89F841E
:1002700085868788898A8B8C8D8E8F9091929394B6
:1002800095969798999A9B9C9D2F3130A3AD3504F4
:1002900005060708090A0B0C0D0E0F101112131496
:1002A00015161718191A1B1C1DAFB1B0B5000501A2
:1002B0000906A1018502050719E029E715002501B6
:1002C00075019508810295017508810395067508E9
:1002D000150025730507190029738100C000D20C91
:1002E00011241FBECFEFDAE0DEBFCDBF14BE0FB6C4
:1002F000F894A895809160008861809360001092C6
:1003000060000FBE22E0A6E9B1E001C01D92A43C4E
:10031000B207E1F711E0A0E0B1E0E6EBF9E302C0DB
:1003200005900D92A639B107D9F711E0C0E7D1E0E9
:1003300004C02197FE010E94991CCF36D107C9F74E
:100340000E94390D0C94D91C0C94000083E080931A
:10035000E9008091F200882319F08AE38093E80095
:100360000895FC0180915402882311F13FB7F8945D
:1003700082E08093E9002091F200822F90E018162D
:10038000190614F481E090E0882339F0289844E6B7
:10039000409353024091F1004083222339F0209191
:1003A000F200211103C02BE62093E8003FBF08951F
:1003B0008FEF9FEF089581508F3008F047C0E82FEE
:1003C000F0E0EB51FE4F0C94991C02020602F4017E
:1003D000FA01FE0126022602260209020F0213027A
:1003E00017021D0226022102809180008F778093E0
:1003F00080000895809180008F7DF9CF80918000EA
:10040000877FF5CF84B58F7784BD089584B58F7DC0
:10041000FBCF809190008F7780939000089580911A
:1004200090008F7DF9CF80919000877FF5CF8091EC
:10043000C0008F778093C00008958091C0008F7DA9
:10044000F9CF8091C200877F8093C20008951F93E7
:10045000CF93DF93E1E1F2E09491E2EFF1E0D49108
:10046000E3EDF1E0C491CC23B9F0182F992319F0F2
:10047000892F0E94DB01EC2FF0E0EE0FFF1FED5300
:10048000FE4FA591B4918FB7F894EC91111108C06B
:10049000D095DE23DC938FBFDF91CF911F9108951C
:1004A000DE2BF8CFCF93DF93282F30E0F901E15F07
:1004B000FD4F8491F901E051FE4FD491F901EF52C3
:1004C000FE4FC491CC23A1F081110E94DB01EC2FDF
:1004D000F0E0EE0FFF1FEB54FE4FA591B491EC91AD
:1004E000ED2381E090E009F480E0DF91CF91089561
:1004F00080E090E0FACFCF93DF9390E0FC01E051F1
:10050000FE4F24918F529E4FFC0184918823D1F09D
:1005100090E0880F991FFC01E955FE4FA591B49119
:10052000FC01ED53FE4FC591D491623071F49FB739
:10053000F8943C91822F809583238C93E8812E2B15
:1005400028839FBFDF91CF9108958FB7F894EC91E6
:100550002E2B2C938FBFF6CF8251E82FF0E0E5567B
:10056000FE4FE49190917B008E2F880F880F807250
:100570009F7D892B80937B00E770E064E0937C0093
:1005800080917A00806480937A0080917A0086FD61
:10059000FCCF809178009091790008953FB7F8944E
:1005A00080914F0290915002A0915102B09152025D
:1005B00026B5A89B05C02F3F19F00196A11DB11DBE
:1005C0003FBFBA2FA92F982F8827BC01CD01620FFA
:1005D000711D811D911D42E0660F771F881F991FB5
:1005E0004A95D1F708958F929F92AF92BF92CF9282
:1005F000DF92EF92FF924B015C010E94CE026B01F1
:100600007C010E94CE026C197D098E099F09683E0B
:10061000734081059105A8F321E0821A9108A10891
:10062000B10888EEC80E83E0D81EE11CF11C8114CD
:100630009104A104B10429F7FF90EF90DF90CF90CF
:10064000BF90AF909F908F9008950C94A601409119
:10065000CB015091CC012091C9013091CA014217C0
:100660005307B4F49091E8009570E1F39091E8009D
:1006700092FD19C08093F1008091CB019091CC0143
:1006800001968F739927892B19F48EEF8093E800D8
:100690008091CB019091CC0101969093CC018093F5
:1006A000CB0181E0089580E00895EF92FF920F93CF
:1006B0001F93CF93DF93F82E192FE62E042F81E09E
:1006C000860F880F0E94270383E00E942703CF2D07
:1006D000D12FEC0EFD2EF11CCE15DF05B9F007FF72
:1006E00013C0FE0184910E942703182F80E00E940E
:1006F0002703812321968111EFCFDF91CF911F91A5
:100700000F91FF90EF9008958881EDCF81E0F5CFB4
:10071000DF92EF92FF920F931F93CF93DF93D82E28
:100720008A01EB017B01E40EF51ECE15DF0559F0C1
:10073000D7FE12C0FE0184910E94270321968111E9
:10074000F4CF0FEF1FEFC801DF91CF911F910F91F1
:10075000FF90EF90DF9008958881EECF2FB7F89447
:1007600087708093E9009091E800892F807295FF4F
:1007700004C09091F20080E4891B2FBF08957F92FE
:100780008F929F92AF92BF92CF92DF92EF92FF92A1
:100790000F931F93CF93DF93C82E8B017A01809123
:1007A0005402811110C08FEF9FEFDF91CF911F9105
:1007B0000F91FF90EF90DF90CF90BF90AF909F9000
:1007C0008F907F9008958091CF0180FF05C0809128
:1007D000E00082608093E000CE2DDF2DD12C8AEFE7
:1007E000B82E8C2D8770982E8C2D8072882E8C2D93
:1007F0008074782E9AE3A92E209719F4DD2009F44D
:1008000052C08C2D0E94AE0381110AC0BA94BB2045
:1008100051F261E070E080E090E00E94F302ECCFE2
:100820008C171D0611F00CF08C2F9FB7F894909246
:10083000E9002091E80025FD02C09FBFDDCF282FF1
:1008400030E0C21BD30B882029F08150A0F0109219
:10085000F100FBCFF801C7FC0AC0815050F0419174
:100860004093F100FACF44914093F10031968150CA
:10087000D0F7020F131FDD2021F0A092E800D12C49
:10088000DCCF8091E80085FD07C0A092E800DD2460
:10089000D394209791F2F3CF209779F6772069F2DD
:1008A000A092E800CACF5D9884E68093CE01C7018C
:1008B0007CCF615030F02091F100FC012083019643
:1008C000F8CF289884E68093530208958091C1015F
:1008D00081110DC082E08093BD0184E08093BE0150
:1008E0001092C0011092BF0181E08093C1018DEB95
:1008F00091E008950F931F93CF93DF931F92CDB78D
:10090000DEB782E0898342E450E067EF70E080E880
:100910000E9488030E946604DC0112960D911C91CE
:100920000115110589F0D801ED91FC910280F38148
:10093000E02DBE016F5F7F4FC801099597FD04C090
:10094000F80100851185ECCF89810F90DF91CF915F
:100950001F910F910895CF93DF93EC0180911201C5
:10096000882331F083E00E94BF031816190634F083
:1009700081E090E09B838A8380E090E0DF91CF91DB
:100980000895CF93DF931F92CDB7DEB76983DC0163
:10099000ED91FC910280F381E02D41E050E0BE0139
:1009A0006F5F7F4F09950F90DF91CF910895682F6A
:1009B00085E592E00C94C1040F931F93CF93DF93CE
:1009C0008C01D0E0C0E0F801EC0FFD1F64916623BC
:1009D00041F085E592E00E94C104892B11F0219637
:1009E000F2CFCE01DF91CF911F910F91089583E057
:1009F0000E94AE0390E00895CF93DF931F92CDB78E
:100A0000DEB7FC018485958597FD08C02FEF3FEF89
:100A1000358724870F90DF91CF910895CE010196FD
:100A20000E94B101019719F4898190E0F3CF8FEF13
:100A30009FEFF0CF0F931F93CF93DF931F92CDB70C
:100A4000DEB78C01FC018485958597FF0BC0CE0134
:100A500001960E94B101019771F4898190E0F8013B
:100A600095878487F801848595850F90DF91CF91D4
:100A70001F910F9108958FEF9FEFF1CFFC018485B7
:100A8000958597FD0BC09FB7F89482E08093E900AD
:100A90008091F2009FBF90E0019608959FB7F8946F
:100AA00082E08093E9008091F2009FBF90E008957A
:100AB000DC01FB0112962C911297848195812817F5
:100AC000190641F491818081813A31F49D7F81E062
:100AD000913009F080E008958132E1F79B3029F4EC
:100AE00082811F968C9381E008959A3099F78281D4
:100AF00050968C93F8CFAF92BF92CF92DF92EF9245
:100B0000FF920F931F93CF93DF931F92CDB7DEB762
:100B10007C0169836A01590141E050E0BE016F5FC9
:100B20007F4FFC0183810E94BF038C0197FD0BC0A6
:100B3000F7018381A501B60180640E94BF03080FFD
:100B4000191F97FD8C01C8010F90DF91CF911F9164
:100B50000F91FF90EF90DF90CF90BF90AF900895EE
:100B6000DC01FB0188E4808389E4818384E482835F
:100B70001D969C911D979F709F5B93831D968D91F1
:100B80009C9124E0969587952A95E1F78F708F5B6D
:100B9000848385E00895EF92FF920F931F93CF9384
:100BA000DF93FB012081213871F52381223259F531
:100BB000DC0112964C91248135814217130619F5F8
:100BC000EC010B851C85F12CE12C0115110589F038
:100BD000F801448155816281738180E80E94880315
:100BE0008F3F980749F0E80EF91ED8010D911C912E
:100BF000ECCF81E08F87C701DF91CF911F910F91DB
:100C0000FF90EF90089590E080E0F6CFCF93DF93D0
:100C1000CDB7DEB769970FB6F894DEBF0FBECDBF74
:100C2000FC01DB018C918F5F8C939E012D5F3F4F08
:100C30008DE0D9011D928A95E9F729E0298384E0A6
:100C40008A8391E09D8383E08E832A8721E22B872C
:100C50009C879D879F8722E2288B27E02B8B25E0AE
:100C60002C8B8E8B20E430E0388F2F8B998F8281F4
:100C70008B8395858685998B8A8B838180688D8B04
:100C800049E150E0BE016F5F7F4F80E00E94880322
:100C900069960FB6F894DEBF0FBECDBFDF91CF913E
:100CA0000895CF93DF938091B501811167C081E0F2
:100CB0008093A8018093A9012EEA31E03093AB0123
:100CC0002093AA011092AD011092AC0127E231E00D
:100CD0003093A5012093A4011092B0011092AF01AE
:100CE0001092B2011092B1018093B3018093B401CC
:100CF00081EC8093AE010E946604FC018181909199
:100D0000A801482F490F5527551F483051059CF51C
:100D1000A281B381109709F524EA31E0338322835D
:100D200020812093A6018093A7018091A901820FC1
:100D300080832091AA01A22FB091AB018A2F821B40
:100D40008917C8F481813D91C82FD0E0C050DF4F92
:100D500038838F5F8183F2CFD90118962D913C9112
:100D6000199721153105C1F724EA31E019963C9312
:100D70002E931897D5CF81E08093B50184EA91E056
:100D8000DF91CF910895CF92DF92EF92FF920F9370
:100D90001F93CF93DF936C01EB017B01E40EF51EF3
:100DA00010E000E0CE15DF0581F069916D30D1F3E0
:100DB000D601ED91FC910190F081E02DC6010995DD
:100DC000892B19F00F5F1F4FEDCFC801DF91CF9135
:100DD0001F910F91FF90EF90DF90CF900895CF93E8
:100DE000DF93EC016838E0F06858FE0186E0662386
:100DF00021F09681961301C016828150319681119F
:100E0000F6CF0E945106AE014C5F5F4F28E030E004
:100E100062E00E947B0581E090E0DF91CF91089530
:100E2000862F90E067FF0FC0FC01E058F10981E0D8
:100E300090E001C0880FEA95EAF780959C818923AC
:100E40008C8360E0D2CFEC85FD85E80FF91F6491BB
:100E500090E080E0662309F3862F807C803C49F493
:100E60008C818F7B8C836F73623309F0BECF64E615
:100E7000BCCF67FFF9CF8C818D7F8C836F77F4CFE8
:100E8000CF93DF93EC01683858F168588E8186174C
:100E9000D1F08F818617B9F088858617A1F08985F2
:100EA000861789F08A85861771F08B85861759F029
:100EB000FE01369690E080E02191211147C08C0F11
:100EC0009D1FFC0166830E945106AE014C5F5F4F7F
:100ED00028E030E062E00E947B0581E090E01FC0E6
:100EE000862F90E067FF0EC0FC01E058F10921E079
:100EF00030E001C0220FEA95EAF78C81822B8C83C7
:100F000060E0C4CFEC85FD85E80FF91F64916111A5
:100F100009C081E090E09B838A8390E080E0DF91CC
:100F2000CF910895862F807C803C49F48C81806429
:100F30008C836F73623309F0A9CF64E6A7CF67FF94
:100F4000F9CF8C8182608C836F77F4CF01968630E5
:100F5000910509F0B1CFDDCFEF92FF921F93CF93B0
:100F6000DF93EC01162F0E9440077C01612FCE0118
:100F70000E94EF06C7019927DF91CF911F91FF9043
:100F8000EF900895089590E080E00895262FFC01E9
:100F9000EE5EFD4F3081361761F060838F529E4FB9
:100FA000FC01628183EB92E021110C9440070C94C8
:100FB000EF060895CF92DF92EF92FF92CF93DF93E7
:100FC000EC01A091D8016B01770FEE08FF08FC013E
:100FD000EE5EFD4F80818823E1F0AF50BB0B2FEF19
:100FE0003FE70E94AE1C24E630E040E050E00E9463
:100FF0007A1C61E02C153D054E055F050CF060E0A4
:10100000CE01DF91CF91FF90EF90DF90CF900C94C5
:10101000C6072A2F30E0AFEFBFE70E949F1CE3CF47
:10102000CF93DF93D0E0C0E060E0CE010E94C6071E
:101030002196C530D105C1F7DF91CF910895DC012C
:1010400023E53AE42D933D9326E0EDE1F1E00190B4
:101050000D922A95E1F726E0EDE1F1E0DC0118962A
:1010600001900D922A95E1F708958F929F92AF9289
:10107000BF920F931F93CF93DF93CDB7DEB7A197A6
:101080000FB6F894DEBF0FBECDBF19A2423008F4F0
:101090004AE08E010F5D1F4F842E912CB12CA12CA4
:1010A000A50194010E94581CE62FB901CA01EA303B
:1010B00044F5E05DD801EE938D01232B242B252BE5
:1010C00079F790E080E0109769F0FD010190002031
:1010D000E9F73197AF014A1B5B0BBD0185E592E053
:1010E0000E94AB04A1960FB6F894DEBF0FBECDBF31
:1010F000DF91CF911F910F91BF90AF909F908F90F4
:101100000895E95CD7CF42E050E065E571E085E500
:1011100092E00C94AB04CF93DF930E94DC04EC01CB
:101120000E9483088C0F9D1FDF91CF910895CF926D
:10113000DF92EF92FF92CF93DF936C01990FEE084D
:10114000FF08F7FE17C08DE20E94D704EC01662766
:101150007727CB016C197D098E099F094AE00E940F
:1011600035088C0F9D1FDF91CF91FF90EF90DF909E
:10117000CF9008954AE0C701B601DF91CF91FF906B
:10118000EF90DF90CF900C943508CF93DF9383EFEF
:1011900090E00E94DC04C3EDD1E080E20E94D7041D
:1011A000699170E090E080E04AE00E94350881E0BB
:1011B000C83DD80791F780E20E94D7046091D8011A
:1011C00070E090E080E04AE00E943508DF91CF9126
:1011D0000C948308CF92DF92EF92FF928093D90113
:1011E000682F880F770B880B990B0E94591A2BEDEB
:1011F0003FE049E450E40E944D1B20E030E044E32E
:1012000053E40E94AF196B017C010E94AA196093FC
:10121000190170931A0180931B0190931C01C7015F
:10122000B6010E94BA1B6093250270932602809338
:10123000270290932802FF90EF90DF90CF900895BF
:10124000FF920F931F93CF93DF93EC01F62E08814B
:101250001981C8010E942219F81621F06F2DC801CA
:101260000E942A19CE01DF91CF911F910F91FF901B
:101270000895CF92DF92EF92FF920F931F93CF9337
:10128000DF9300D0CDB7DEB76C017C0110E000E049
:101290001A830983F70161917F01CE0101960E94B3
:1012A00020090F5F1F4F0E30110591F7C6010F90F7
:1012B0000F90DF91CF911F910F91FF90EF90DF90F2
:1012C000CF900895EF92FF920F931F93CF93DF93E8
:1012D00000D0CDB7DEB78C010E94100888E0F8017D
:1012E000A1EDB1E001900D928A95E1F781EDE82E34
:1012F00081E0F82E00E410E01A830983F701619180
:101300007F01CE0101960E9420090F5F1F4F083414
:10131000110591F70F900F90DF91CF911F910F91D1
:10132000FF90EF9008951F920F920FB60F92112425
:101330002F933F938F939F93AF93BF9380914B02D3
:1013400090914C02A0914D02B0914E0230914A0210
:1013500023E0230F2D3758F50196A11DB11D2093D1
:101360004A0280934B0290934C02A0934D02B0939B
:101370004E0280914F0290915002A0915102B09183
:1013800052020196A11DB11D80934F02909350020D
:10139000A0935102B0935202BF91AF919F918F9150
:1013A0003F912F910F900FBE0F901F90189526E838
:1013B000230F0296A11DB11DD2CF1F920F920FB61F
:1013C0000F9211242F933F934F935F936F937F93CB
:1013D0008F939F93AF93BF93CF93EF93FF93C0915E
:1013E000E1008091E100837F8093E100C3FF0FC0A3
:1013F0001092E90081E08093EB001092EC0082E310
:101400008093ED001092540288E08093F000C2FFB8
:101410001AC00E94A6018091CE01882341F08091DC
:10142000CE0181508093CE01811101C05D9A8091DF
:101430005302882341F080915302815080935302DC
:10144000811101C0289AC4FF23C08091E2008E7EE2
:1014500081608093E2008091E1008F7E8093E100C3
:101460008091CF018E7E80618093CF01FF91EF91BB
:10147000CF91BF91AF919F918F917F916F915F912C
:101480004F913F912F910F900FBE0F901F90189585
:10149000C0FFECCF8091E2008E7E80618093E200FD
:1014A0008091E1008E7E8093E1008091CF018E7E5D
:1014B0008160DACF1F920F920FB60F921124CF9254
:1014C000DF92EF92FF920F931F932F933F934F93CF
:1014D0005F936F937F938F939F93AF93BF93EF939C
:1014E000FF93CF93DF93CDB7DEB76C97DEBFCDBF51
:1014F0001092E9008091E80083FF25C068E0CE01EA
:1015000045960E94590482EF8093E8008D8987FFF9
:1015100039C09091E80090FFFCCF982F907609F0A9
:1015200034C19E894F89588D2F89F88C911131C013
:10153000803861F58091D0018093F1001092F10024
:101540008EEF8093E8006C960FB6F894DEBF0FBE66
:10155000CDBFDF91CF91FF91EF91BF91AF919F915F
:101560008F917F916F915F914F913F912F911F913B
:101570000F91FF90EF90DF90CF900F900FBE0F90E4
:101580001F9018959EEF9093E800C7CF1092F1003E
:10159000D5CF913059F48111D3CF4130510581F627
:1015A0008091D0018D7F8093D001CACF933049F4D0
:1015B0008111C6CF4130510519F68091D00182606A
:1015C000F2CF953041F48091E80080FFFCCF206895
:1015D0002093E300B5CF963009F0A9C00B8D1C8D88
:1015E00022E01092E9001092CC011092CB01F2128D
:1015F0002EC01092CA011092C9010E947A041F8263
:1016000099E09983FA8291E09E8390EA98879AEF15
:1016100099872091CB013091CC01275F3F4F3C83CC
:101620002B838D831092E9001092CC011092CB0194
:101630001093CA010093C90149E050E0BE016F5FF9
:101640007F4F80E00E9488030E947A0479CF109334
:10165000CA010093C9010E946604DC0112960D9133
:101660001C910115110509F451C1D801ED91FC91AE
:101670000480F581E02DBE016B5E7F4FC8010995A6
:10168000009709F03EC1F80100851185EACFF3E02B
:10169000FF120EC08F89882309F440C0823061F4A4
:1016A00040E86AE084E591E00E945503811148CF4B
:1016B00081E28093EB0047CF813029F440E864E079
:1016C0008FE491E0F1CF833099F70E946604DC014A
:1016D0001296ED90FC908E010F5F1F4F6801E11490
:1016E000F10479F0D701ED91FC910680F781E02DAE
:1016F000B801C7010995080F111DF701E084F184B5
:10170000EECFD8011C92F60101900020E9F7319745
:10171000BF016C197D0940E0C601C6CF69E371E0E5
:10172000FB01449150E080E80E94880309CF973084
:1017300009F4BECF983021F481E08093F10000CF0E
:10174000993009F0FDCE837009F0B2CFE1E0F1E00D
:1017500081E031E096E32191222371F08093E9004A
:101760003093EB00DF0111972C912093EC009093C4
:10177000ED008F5F873079F78EE78093EA00109253
:10178000EA008F8980935402DBCE8B8D9C8D109262
:10179000E9001092CC011092CB019093CA01809382
:1017A000C901898D811192C08E899D89913A49F430
:1017B000813209F07DCF47E050E06BE071E080E0DE
:1017C000B3CF913209F074CF833269F48F89988D49
:1017D000B0E0A0E08093070190930801A093090175
:1017E000B0930A01ADCE803269F48091E80082FFA7
:1017F000FCCF67E08BE091E00E9459048BEF80936F
:10180000E8009ECE823209F09BCE8F898093120130
:10181000EEEFFFE7859194918B3F9C4D51F1E0E015
:10182000F8E080910B0190910C01A0910D01B09115
:101830000E01803B9440A105B105F1F480911201A5
:1018400080FD1AC0EE3F8AE0F80789F587E797E741
:1018500091838083809160008093CD0188E19BE03B
:101860000FB6F894A895809360000FBE9093600027
:1018700067CEEEEFFAE0D5CF808191818737974729
:1018800009F05ECEA8958091600088618093600029
:101890008091CD0180936000EE3F2AE0F20789F04D
:1018A0008091FE0A9091FF0A9183808349CE8081C6
:1018B00091818737980751F29093FF0A8093FE0A2F
:1018C000C5CF1092FF0A1092FE0A3ACE0E9466041B
:1018D000DC0112960D911C910115110509F4E8CE59
:1018E000D801ED91FC910190F081E02DBE016B5E7D
:1018F0007F4FC8010995811123CEF801008511851C
:10190000EBCF181619060CF41BCED2CEF1E0FF1265
:10191000BECE6DE371E004CFCF93DF93EC0180E6A0
:1019200090E00E9422198130D9F4888390919C0123
:101930009923D1F00E945106FC01A385B48510972C
:1019400039F586E991E0948783878585968520918E
:101950009A0130919B01820F931F9687858701C062
:101960001882DF91CF9108951092970110929601FD
:101970002AEC30E0309399012093980129E230E07D
:1019800030939B0120939A0180939C01D3CFDC017B
:101990008D919C9111970097D1F786E991E08D93F5
:1019A0009C93D3CF109258021092570288EE93E086
:1019B000A0E0B0E08093590290935A02A0935B029A
:1019C000B0935C028BE391E09093560280935502B2
:1019D0008FEF9FEF90936202809361021092B602A4
:1019E0001092B5028DE491E09093B4028093B3021B
:1019F0008091AB02811113C01092A6021092A50231
:101A00008EEA92E09093A8028093A7028FE290E082
:101A10009093AA028093A90281E08093AB020E9476
:101A20005106FC01A385B4851097C9F485EA92E0BC
:101A300094878387858596852091A9023091AA0293
:101A4000820F931F968785878EE292E09093C00263
:101A50008093BF0281EC92E00C948C0CDC018D91A0
:101A60009C9111970097D1F785EA92E08D939C9312
:101A7000E1CFCF93DF93CDB7DEB7CA5DD1090FB603
:101A8000F894DEBF0FBECDBF789484B5826084BD6C
:101A900084B5816084BD85B5826085BD85B5816072
:101AA00085BD80916E00816080936E0010928100F0
:101AB00080918100826080938100809181008160AB
:101AC000809381008091800081608093800080916C
:101AD0009100826080939100809191008160809359
:101AE0009100809190008160809390008091C1006E
:101AF00084608093C1008091C10082608093C100A6
:101B00008091C10081608093C1008091C300816099
:101B10008093C3008091C00082608093C000809158
:101B2000C20081608093C20080917A0084608093BB
:101B30007A0080917A00826080937A0080917A00A6
:101B4000816080937A0080917A00806880937A0027
:101B5000109254021092D0011092CF018091D700C0
:101B600081608093D70080EA8093D80089B5806136
:101B700089BD89B5826089BD09B400FEFDCF61E0F1
:101B800070E080E090E00E94F3028091D8008F7CAA
:101B900080618093D8008091E000807F8093E00096
:101BA0008091E1008E7E8093E1008DE08093E200E1
:101BB000559A209A62E08EE00E947B0262E080E10A
:101BC0000E947B0262E08FE00E947B0261E082E083
:101BD0000E947B0280E00E94270282E690E00E9441
:101BE0002219182F83E690E00E942219853A21F4E9
:101BF000163A14F01B350CF010E0812F0E94EA0811
:101C000031EDE32E31E0F32E00E410E0C8010E9434
:101C10002219D7018D937D010F5F1F4F08341105E5
:101C2000A9F78091D1019091D2018D349B4429F480
:101C30008091D80184518C3448F088E0EFE2F1E0E3
:101C4000A1EDB1E001900D928A95E1F78FEF9FEF42
:101C500090936202809361028EE292E09093C002C0
:101C60008093BF02809149028111BBC08FE00E9426
:101C700052025C01DD24D394892B09F0D12C7E0122
:101C8000EDE8EE0EF11C10E000E09E2CCF2CC80118
:101C90000E942219D7018D937D010F5F1F4F0E30D7
:101CA0001105A9F78EE0E92DFC2DDE01AF58BF4FDD
:101CB00001900D928A95E1F7A114B10411F5CE01BE
:101CC00081589F4F0E941F08CE0181589F4F0E944C
:101CD000390903E010E081E00E94270268E770E024
:101CE00080E090E00E94F30280E00E94270268E713
:101CF00070E080E090E00E94F3020150110959F772
:101D000023C08EE0FE01EF58FF4FDE01AD59BF4FFB
:101D100001900D928A95E1F7E3968EAD9FADE39722
:101D20008335BAE49B0709F08FC0A5969FAF8EAFAD
:101D3000A5978EE0FE01ED59FF4FDE01A158BF4F80
:101D400001900D928A95E1F78EE0FE01E158FF4F78
:101D5000DE01AB5ABF4F01900D928A95E1F78EE0FC
:101D6000FE01EB5AFF4FDE01D99601900D928A9544
:101D7000E1F728961FAE289781E0AB2809F480E0B0
:101D800029968FAF29972A961FAE2A972B961FAEBA
:101D90002B972F961CAE1DAE1EAE1FAE2F976096D2
:101DA000DFAE60976196DFAE619765961CAE1DAEA3
:101DB0001EAE1FAE65978CE1FE01F996ADE2B2E072
:101DC00001900D928A95E1F70E94CE02609329025C
:101DD00070932A0280932B0290932C0281E08093CF
:101DE00049029924939402E610E093E6E92EF12C3F
:101DF00027E1C22E22E0D22E85E592E00E943E0528
:101E0000181619060CF0F5C185E592E00E94FC0455
:101E10008D3091F320910A0230910B028A3009F043
:101E2000D8C126523E4FF901108268E571E08AED73
:101E300091E00E94C21C892B69F40E94C50810928F
:101E40000B0210920A02D8CFCE0181589F4F0E94F8
:101E50001F087ACF44E050E06CE571E08AED91E034
:101E60000E94CB1C3C01892B09F063C088E0E1EDA6
:101E7000F1E0DE01A158BF4F01900D928A95E1F784
:101E80009E0121583F4F59018EED91E0611471047C
:101E900011F090E080E068E771E00E94D9180097A7
:101EA00029F484E791E00E948B08C9CF0E94B21800
:101EB0009B01AC0121503109410951092F3F3105E6
:101EC0004105510518F080E791E0EDCF35E063164C
:101ED000710409F1D50112966C93BFEF6B1A7B0A5E
:101EE000EFEFAE1ABE0AF6E06F16710469F6C1583C
:101EF000DF4F88819981CF57D0408D349B4441F486
:101F0000CA57DF4F8881C658D04084518C3448F07E
:101F10008CE691E0C8CFCA57DF4F6883C658D040DF
:101F2000DCCFCE0181589F4F0E94620989E691E083
:101F3000BACF61E671E08AED91E00E94C21C892B64
:101F400029F48FE291E00E94620977CF6BE671E09D
:101F50008AED91E00E94C21C892B09F040C082E604
:101F600091E00E94DC0480912302909124020E945F
:101F7000970880E20E94D70480912102909122026A
:101F80000E94970880E20E94D70480911F029091DE
:101F900020020E94970880E20E94D70480911D02CF
:101FA00090911E020E94970880E20E94D7048091BF
:101FB0001C0290E00E94970882E1A82E82E0B82ED1
:101FC00080E20E94D704D5018D915D0190E00E94CE
:101FD0009708CA14DB04A1F70E94830830CF61E799
:101FE00071E08AED91E00E94C21C892B29F4909245
:101FF000110288E991E057CF44E050E065E771E0D5
:102000008AED91E00E94CB1C892B49F58EED91E081
:102010000E9494182091C102213031F49C0121507A
:1020200031092431310518F084E991E03CCF8093E7
:102030001B022FB7F89480914B0290914C02A09113
:102040004D02B0914E022FBF809317029093180259
:10205000A0931902B0931A0281E991E024CF6AE7B4
:1020600071E08AED91E00E94C21C892B61F48CE83A
:1020700091E00E94DC048091D901082E000C990B9C
:102080000E949708A9CF44E050E06EE771E08AED26
:1020900091E00E94CB1C892B59F58EED91E00E94B6
:1020A00094185C01865A9F4F853B910518F088E88B
:1020B00091E0F9CE8A2D0E94EA08C158DF4F1983BA
:1020C0000883CF57D0406A2DCE0181589F4F0E9480
:1020D0002009C158DF4FF982E882CF57D04065EA26
:1020E000CE0181589F4F0E94200985E891E0DBCE08
:1020F00063E871E08AED91E00E94C21C892B69F4CB
:102100008FE791E00E94DC046091C10270E090E0F2
:1021100080E04AE00E9435085FCF68E871E08AED10
:1021200091E00E94C21C892B49F06FE871E08AEDB2
:1021300091E00E94C21C892B09F043C0BB24B394D8
:102140008091DF01813309F0B12C8091C1028B11A4
:1021500003C08CE791E0A7CE0E94100880E690E0D3
:10216000C158DF4F99838883CF57D0406B2DCE0164
:1021700081589F4F0E9420098FE591E00E948B08B3
:102180000E94A60164E670E080E090E00E94F30205
:1021900068EC70E080E090E00E94F3021092010889
:1021A000109200081092FF0A1092FE0A88E198E04F
:1021B0000FB6F894A895809360000FBE90936000CE
:1021C000FFCF8091DA01882309F439CE88E791E0C6
:1021D0006ACE2F3231050CF00FCEA9014F5F5F4F51
:1021E00050930B0240930A0226523E4FF90180831E
:1021F00003CE0E94CE020091290210912A02209162
:102200002B0230912C02AB01BC01401B510B620B25
:10221000730B77FD3CC7D901C80188519C4FAF4F64
:10222000BF4F8093290290932A02A0932B02B09370
:102230002C020E94CE020091290210912A022091C4
:102240002B0230912C02601B710B820B930B161624
:1022500017061806190674F40E94CE0268517C4FC6
:102260008F4F9F4F6093290270932A0280932B0215
:1022700090932C028FB7F894C0904B02D0904C02F0
:10228000E0904D02F0904E028FBF83E10E94AC02BD
:10229000CD54DF4F99838883C35BD04082E10E9495
:1022A000AC021C0180E10E9452028C01892B21F0BA
:1022B0008EE00E9452028C0180911102882369F005
:1022C0001092110281E080931002C0920C02D09211
:1022D0000D02E0920E02F0920F028091100288230C
:1022E000B9F080910C0290910D02A0910E02B09174
:1022F0000F0226013701481A590A6A0A7B0AD301DC
:10230000C20184369105A105B10510F010921002AA
:10231000B09010028FE00E945202892B09F412C182
:1023200081E08B2560902D0270902E02CB52DF4F02
:1023300079826882C55DD04080902F0290903002F3
:10234000C054DF4F99828882C05CD04050913102E6
:1023500040913202A0903302B0903402C254DF4F59
:10236000B982A882CE5BD0404090350250903602B0
:10237000C754DF4F59824882C95BD0403091370241
:10238000209138026090390270903A02CB54DF4FAE
:1023900079826882C55BD04070903B02C354DF4FA6
:1023A0007882CD5BD04080903C02C853DF4F88825A
:1023B000C85CD04090903D02CC52DF4F9882C45D03
:1023C000D040A0903E02CE53DF4FA882C25CD040E6
:1023D00040903F0250904002609041027090420253
:1023E000C153DF4F488259826A827B82CF5CD040E2
:1023F00050904302C353DF4F5882CD5CD040909140
:10240000440260904502709046028090470290908E
:102410004802C753DF4F688279828A829B82C95CF7
:10242000D04061E0012B09F060E0CC52DF4F7880B2
:10243000C45DD040671569F0CC52DF4F6883C45D3E
:10244000D040C153DF4FC882D982EA82FB82CF5C81
:10245000D04046015701C153DF4F488059806A8000
:102460007B80CF5CD04084189508A608B7087AE135
:1024700087169104A104B10428F0CE53DF4F68837E
:10248000C25CD040CE53DF4F4880C25CD040CD52BA
:10249000DF4F4882C35DD04061E08627C353DF4FE2
:1024A0005880CD5CD040851569F0C353DF4F8883D9
:1024B000CD5CD040C753DF4FC882D982EA82FB820D
:1024C000C95CD040C753DF4F688079808A809B8089
:1024D000C95CD040C618D708E808F9086AE1C616F2
:1024E000D104E104F10480F1C953DF4F8883C75C54
:1024F000D040C953DF4F4880C75CD04081E0892776
:10250000411001C080E0C853DF4F5880C85CD04004
:10251000511020C0C953DF4F6880C75CD0406110A4
:1025200006C061E0C853DF4F6883C85CD040C35425
:10253000DF4F1882CD5BD040C253DF4F1882CE5C94
:10254000D04025C080E0EECEC953DF4F9883C75CF2
:10255000D040CFCF882381F3C354DF4F4880CD5B79
:10256000D040442009F418C4C354DF4F1882CD5B17
:10257000D04063E57AE4CB52DF4F79836883C55D51
:10258000D04071E0C253DF4F7883CE5CD040CB5255
:10259000DF4F48805980C55DD0405E8E4D8EC0545F
:1025A000DF4F68807980C05CD04078A26F8E59A3DD
:1025B0004AA3C254DF4F88809980CE5BD0409CA252
:1025C0008BA2C754DF4FA880B980C95BD040BEA2A0
:1025D000ADA23FA328A7CB54DF4F48805980C55BED
:1025E000D0405AA649A6C354DF4F5880CD5BD04097
:1025F0005BA6C853DF4F6880C85CD0406CA6CC5245
:10260000DF4F7880C45DD0407DA6CE53DF4F8880F9
:10261000C25CD0408EA6C153DF4F488059806A808B
:102620007B80CF5CD0404FA658AA69AA7AAAC35330
:10263000DF4F5880CD5CD0405BAAC953DF4F688024
:10264000C75CD0406CAAC753DF4F88809980AA80AE
:10265000BB80C95CD0408DAA9EAAAFAAB8AEC354B5
:10266000DF4F9880CD5BD040992009F4B6C086E05A
:10267000FE017F96DE01AF55BF4F01900D928A9506
:10268000E1F7C054DF4FA880B980C05CD040CD5482
:10269000DF4F48805980C35BD0404A145B0434F458
:1026A000C054DF4F59824882C05CD040C254DF4FD3
:1026B00068807980CE5BD040CD54DF4F8880998090
:1026C000C35BD0406814790434F4C254DF4F99825C
:1026D0008882CE5BD040C054DF4FA880B980C05CF8
:1026E000D040CF55DF4FB982A882C15AD040C254E2
:1026F000DF4F48805980CE5BD040CB55DF4F5982A9
:102700004882C55AD04086E0FE01EF55FF4FDE01FA
:10271000A556BF4F01900D928A95E1F786E0FE0124
:10272000E556FF4FDE015F9601900D928A95E1F725
:1027300086E0FE01B596DE01A355BF4F01900D92D4
:102740008A95E1F7C754DF4F68807980C95BD04034
:102750002614370434F4C754DF4F39822882C95B0A
:10276000D040CB54DF4F88809980C55BD040821425
:10277000930434F4CB54DF4F39822882C55BD040B8
:10278000C754DF4FA880B980C95BD040C355DF4F25
:10279000B982A882CD5AD040CB54DF4F48805980AF
:1027A000C55BD040CF54DF4F59824882C15BD040D7
:1027B00086E0FE01E355FF4FDE01A955BF4F0190B2
:1027C0000D928A95E1F786E0FE01E955FF4FDE01A3
:1027D000959601900D928A95E1F7C054DF4F68807D
:1027E0007980C05CD04078A26F8EC254DF4F888061
:1027F0009980CE5BD0409CA28BA2C754DF4FA880AB
:10280000B980C95BD040BEA2ADA2CB54DF4F488097
:102810005980C55BD0405AA649A68CE1FE017D9641
:10282000DE01119601900D928A95E1F76D807E8010
:10283000CD53DF4F79826882C35CD0408B849C8407
:10284000CB53DF4F99828882C55CD040C354DF4FA1
:102850009880CD5BD040911075C3CD54DF4FA880D8
:10286000B980C35BD040A614B7040CF4C6C2C254EE
:10287000DF4F08811981CE5BD04006191709101669
:1028800011060CF001C3B50166197709072E000C7B
:10289000880B990B0E94591A6B017C01B801110F2A
:1028A000880B990B0E94591A9B01AC01C701B60114
:1028B0000E94AF192B013C0120E030E0A9010E94E9
:1028C000A51987FDE1C220E030E040E85FE3C301E5
:1028D000B2010E94481B181634F4412C512C10E808
:1028E000612E1FE3712ECB53DF4F88809980C55C2A
:1028F000D040281439040CF4D2C2CB54DF4F0881E5
:102900001981C55BD04008191909101611060CF081
:1029100008C3B10168197909072E000C880B990BBF
:102920000E94591A6B017C01B801110F880B990B99
:102930000E94591A9B01AC01C701B6010E94AF1950
:102940006B017C0120E030E0A9010E94A51987FD00
:10295000E8C220E030E040E85FE3C701B6010E9432
:10296000481B181634F4C12CD12CA0E8EA2EAFE392
:10297000FA2EA3019201C301B2010E944D1B4B012B
:102980005C01A7019601C701B6010E944D1B9B0186
:10299000AC01C501B4010E9439190E94C81BC9527B
:1029A000DF4F688379838A839B83C75DD0402DEC9A
:1029B0003CEC4CE45DE30E94A51918160CF0BCC277
:1029C0002DEC3CEC4CE45DE3C952DF4F688179812A
:1029D0008A819B81C75DD0400E94381923E333E38D
:1029E00043E75FE30E94AF194B015C0120E030E058
:1029F00040E85FE30E94481B181634F4812C912CA8
:102A0000E0E8AE2EEFE3BE2EC952DF4F28813981B8
:102A10004A815B81C75DD040C501B4010E94AF19F6
:102A20004B015C01A30192010E944D1B2B013C0153
:102A3000A7019601C501B4010E944D1B4B015C0129
:102A400020E03EEF4FEF56E4C301B2010E944D1B60
:102A50000E94211A7B0120E03EEF4FEF56E4C501B2
:102A6000B4010E944D1B0E94211A8B01CB52DF4FF3
:102A7000A880B980C55DD040B0922E02A0922D02F0
:102A8000C054DF4F48805980C05CD0405092300223
:102A900040922F02CD53DF4F68807980C35CD040D5
:102AA0007092320260923102C254DF4F8880998066
:102AB000CE5BD0409092340280923302C754DF4FF5
:102AC000A880B980C95BD040B0923602A09235028E
:102AD000CB53DF4F48805980C55CD04050923802BC
:102AE00040923702CB54DF4F68807980C55BD0407D
:102AF00070923A0260923902C354DF4F7880CD5B06
:102B0000D04070923B02C853DF4F8880C85CD040F1
:102B100080923C02CC52DF4F9880C45DD0409092AE
:102B20003D02CE53DF4FA880C25CD040A0923E024F
:102B3000C153DF4F488059806A807B80CF5CD04092
:102B400040923F02509240026092410270924202D3
:102B5000C353DF4F5880CD5CD04050924302C953DD
:102B6000DF4F6880C75CD04060924402C753DF4F9C
:102B700088809980AA80BB80C95CD0408092450241
:102B800090924602A0924702B0924802B701FF0C11
:102B9000880B990B0E94591A4B015C014090190156
:102BA00050901A0160901B0170901C01CB54DF4FB4
:102BB000488259826A827B82C55BD040662777272C
:102BC000601B710B072E000C880B990B0E94591A81
:102BD0002B013C01209125023091260240912702D1
:102BE00050912802C754DF4F288339834A835B837F
:102BF000C95BD040CB54DF4F288139814A815B814A
:102C0000C55BD040C501B4010E944D1B6B017C0126
:102C1000C754DF4F288139814A815B81C95BD0402D
:102C2000C301B2010E944D1B9B01AC01C701B6015B
:102C30000E9439196B017C0120E03EEF4FEF56E412
:102C40000E94481B0FEF1FE718168CF020E03EEFA4
:102C50004FEF56ECC701B6010E94A51901E010E83C
:102C600087FD05C0C701B6010E94211A8B01A3018F
:102C70009201CB54DF4F688179818A819B81C55B4A
:102C8000D0400E944D1B6B017C01C754DF4F28814F
:102C900039814A815B81C95BD040C501B4010E9482
:102CA0004D1B9B01AC01C701B6010E9438196B0195
:102CB0007C0120E03EEF4FEF56E40E94481B1816BF
:102CC0000CF445C120E03EEF4FEF56ECC701B601D2
:102CD0000E94A51987FD40C1C701B6010E94211AB3
:102CE0007B018091C102813009F0EAC1CE53DF4FF0
:102CF0004880C25CD040442071F0C354DF4F5880FC
:102D0000CD5BD04021E030E0552039F0CD52DF4F8F
:102D10001882C35DD04030E020E080911B02882300
:102D2000C1F14FB7F89480914B0290914C02A09161
:102D30004D02B0914E024FBF4091170250911802C0
:102D40006091190270911A02841B950BA60BB70BA8
:102D500080399140A105B10508F0A8C180911B02FE
:102D6000823109F4A6C108F0FCC0B12CA12CCC24FE
:102D7000C39450E8D52E813109F4FFC08150990BDE
:102D800041E050E002C0440F551F8A95E2F7242B22
:102D9000352B57016801F1C0CB54DF4F39822882AF
:102DA000C55BD040322D232DC754DF4F3982288296
:102DB000C95BD040CD54DF4F48805980C35BD040C1
:102DC000C254DF4F59824882CE5BD040CD54DF4F92
:102DD0005881C35BD040CC54DF4F4881C45BD040A6
:102DE000C054DF4F59824882C05CD04061E0C35478
:102DF000DF4F6883CD5BD0409FCBCD53DF4F088141
:102E00001981C35CD040C054DF4F48805980C05CFA
:102E1000D0400419150910161106B4F5CD54DF4F32
:102E200068817981C35BD040CD53DF4F6880798062
:102E3000C35CD04066197709072E000C880B990BEC
:102E40000E94591A6B017C01B801110F880B990B74
:102E50000E94591A9B01AC01C701B6010E94AF192B
:102E60002B013C0120E030E040E85FEB0E94A51917
:102E700087FD0EC020E030E0A901C301B2010E942D
:102E8000481B18160CF02FCD412C512C32012BCDA4
:102E9000412C512CB0E86B2EBFEB7B2E24CDCB53B5
:102EA000DF4F08811981C55CD040C754DF4FA8802F
:102EB000B980C95BD0400A191B09101611068CF5A0
:102EC000B101CB53DF4F88809980C55CD040681931
:102ED0007909072E000C880B990B0E94591A6B0177
:102EE0007C01B801110F880B990B0E94591A9B01A4
:102EF000AC01C701B6010E94AF196B017C0120E053
:102F000030E040E85FEB0E94A51987FD0EC020E08D
:102F100030E0A901C701B6010E94481B18160CF049
:102F200028CDC12CD12C760124CDC12CD12CF0E898
:102F3000EF2EFFEBFF2E1DCD812C912C540124018F
:102F400035017ECD10E000E0F12CE12C8FCDEE2498
:102F5000EA947FE7F72EC5CEEE24E39460E8F62EE0
:102F6000C0CE833109F49DC0AA24A39490E8B92E61
:102F7000843109F003CFD12CC12CC158DF4FD98245
:102F8000C882CF57D040882799278A199B09CF57E5
:102F9000DF4F99838883C158D040CD57DF4F3983A5
:102FA0002883C358D04046E050E063E171E0CE0191
:102FB00081589F4F0E94B51C892BE9F186E0FE01E4
:102FC000E158FF4FA3E1B1E001900D928A95E1F73E
:102FD0000E94510626E030E0AE0141585F4F63E0A9
:102FE0000E947B0581E0A11450E4B5060CF480E05A
:102FF0008093120281E061E0A61660ECB6060CF048
:1030000080E08093130281E071E0C71670ECD70670
:103010000CF080E08093140281E0C11490E4D906A2
:103020000CF480E080931502CD52DF4F4880C35DE1
:10303000D04040921602C354DF4F8881CD5BD04010
:103040000E942702C253DF4F6880CE5CD0406620CA
:1030500021F08DE292E00E943909CD54DF4F888043
:103060009980C35BD04090922402809223023092D8
:103070002202209221021093200200931F02F0925C
:103080001E02E0921D0280913B0280931C0280E0B0
:1030900090E0892B11F40C94320E0E9400000C94E5
:1030A000320EAA24AA944FE7B42E65CF10921B02C9
:1030B00070CEB12CA12CCC24CA948FE7D82E5DCF32
:1030C000B80183E090E00E94DA0766277727601B4B
:1030D000710B82E090E00E94DA07B70190E080E097
:1030E0000E94DA07662777276E197F0981E090E052
:1030F0000E94DA07CE53DF4F5880C25CD040552083
:1031000049F090913B0281E09827CD52DF4F9883A0
:10311000C35DD040CD52DF4F6881C35DD04084E0B5
:1031200090E00E94C60787CFFC0188279927E89482
:1031300021912032E9F3293010F02E30C8F32B32E0
:1031400041F02D3239F4689404C00E941A19820F9C
:10315000911D219120532A30C0F31EF49095819542
:103160009F4F08951F93FC0199278827BC01E8947D
:1031700011911032E9F3193010F01E30C8F31B32F0
:1031800051F01D3249F4689406C00E940519610F80
:10319000711D811D911D119110531A30B0F33EF431
:1031A00090958095709561957F4F8F4F9F4F1F91A0
:1031B000089542EC52E00E94DE180895FA01A191B0
:1031C000B081009719F41097E1F0CD01DC01CD0139
:1031D0000D90002011F4C00113C0FB0121912223A6
:1031E00019F02015D9F7F3CFFB012191201519F41F
:1031F0001E92119606C02223C1F70D900020A1F760
:10320000D001FA01A193B0830895592F482F372F89
:10321000262F660F771F881F991F660F771F881F3D
:10322000991F620F731F841F951F660F771F881FDA
:10323000991F08957AE0979F902D879F802D910D7B
:1032400011240895F999FECF92BD81BDF89A99276E
:1032500080B50895262FF999FECF1FBA92BD81BD82
:1032600020BD0FB6F894FA9AF99A0FBE0196089508
:103270005058BB27AA270E9450190C94FA1A0E9492
:10328000C11A38F00E94C81A20F039F49F3F19F48F
:1032900026F40C94BE1A0EF4E095E7FB0C94B81AD1
:1032A000E92F0E941F1B58F3BA17620773078407A0
:1032B000950720F079F4A6F50C94411B0EF4E095E7
:1032C0000B2EBA2FA02D0B01B90190010C01CA01E0
:1032D000A0011124FF27591B99F0593F50F4503E8B
:1032E00068F11A16F040A22F232F342F4427585F7D
:1032F000F3CF469537952795A795F0405395C9F795
:103300007EF41F16BA0B620B730B840BBAF091504C
:10331000A1F0FF0FBB1F661F771F881FC2F70EC0EB
:10332000BA0F621F731F841F48F4879577956795BE
:10333000B795F7959E3F08F0B0CF9395880F08F0AA
:103340009927EE0F9795879508950E94941A08F48F
:1033500081E008950E94D11AE3950C940B1B0E9402
:10336000C3190C94FA1A0E94C81A58F00E94C11A84
:1033700040F029F45F3F29F00C94B81A51110C94D5
:10338000421B0C94BE1A0E941F1B68F39923B1F3D1
:10339000552391F3951B550BBB27AA27621773077B
:1033A000840738F09F5F5F4F220F331F441FAA1F0F
:1033B000A9F335D00E2E3AF0E0E832D091505040CB
:1033C000E695001CCAF72BD0FE2F29D0660F771F79
:1033D000881FBB1F261737074807AB07B0E809F05F
:1033E000BB0B802DBF01FF2793585F4F3AF09E3FE4
:1033F000510578F00C94B81A0C94421B5F3FE4F32B
:10340000983ED4F3869577956795B795F7959F5F26
:10341000C9F7880F911D9695879597F90895E1E072
:10342000660F771F881FBB1F621773078407BA07D1
:1034300020F0621B730B840BBA0BEE1F88F7E0952C
:1034400008950E94281A6894B1110C94421B0895A3
:103450000E94271B88F09F5798F0B92F9927B751E2
:10346000B0F0E1F0660F771F881F991F1AF0BA9528
:10347000C9F714C0B13091F00E94411BB1E008952A
:103480000C94411B672F782F8827B85F39F0B93F1C
:10349000CCF3869577956795B395D9F73EF49095DB
:1034A0008095709561957F4F8F4F9F4F0895E89459
:1034B00009C097FB3EF490958095709561957F4F7C
:1034C0008F4F9F4F9923A9F0F92F96E9BB2793952A
:1034D000F695879577956795B795F111F8CFFAF43A
:1034E000BB0F11F460FF1BC06F5F7F4F8F4F9F4F6B
:1034F00016C0882311F096E911C0772321F09EE8C9
:10350000872F762F05C0662371F096E8862F70E02E
:1035100060E02AF09A95660F771F881FDAF7880F08
:103520009695879597F90895990F0008550FAA0B5E
:10353000E0E8FEEF16161706E807F907C0F01216C6
:103540001306E407F50798F0621B730B840B950BC9
:1035500039F40A2661F0232B242B252B21F408951E
:103560000A2609F4A140A6958FEF811D811D0895BB
:1035700097F99F6780E870E060E008959FEF80EC26
:10358000089500240A9416161706180609060895C9
:1035900000240A94121613061406050608950C94C6
:1035A000BE1A0E94271BD8F3E894E0E0BB279F5780
:1035B000F0F02AED3FE049EC06C0EE0FBB0F661FAE
:1035C000771F881F28F0B23A62077307840728F034
:1035D000B25A620B730B840BE3959A9572F780389D
:1035E00030F49A95BB0F661F771F881FD2F790485B
:1035F0000C940A1C092E0394000C11F4882352F039
:10360000BB0F40F4BF2B11F460FF04C06F5F7F4F0E
:103610008F4F9F4F0895EF93E0FF07C0A2EA2AED76
:103620003FE049EC5FEB0E9450190E94FA1A0F909C
:10363000039401FC9058ECEAF0E00C941D1C57FD3B
:103640009058440F551F59F05F3F71F04795880F10
:1036500097FB991F61F09F3F79F0879508951216A7
:1036600013061406551FF2CF4695F1DF08C0161653
:1036700017061806991FF1CF869571056105089404
:103680000895E894BB2766277727CB0197F908951B
:103690000E94941A08F48FEF08950E94601B0C9406
:1036A000FA1A0E94C11A38F00E94C81A20F0952315
:1036B00011F00C94B81A0C94BE1A11240C94421BED
:1036C0000E941F1B70F3959FC1F3950F50E0551F8B
:1036D000629FF001729FBB27F00DB11D639FAA2767
:1036E000F00DB11DAA1F649F6627B00DA11D661FB6
:1036F000829F2227B00DA11D621F739FB00DA11DD7
:10370000621F839FA00D611D221F749F3327A00D90
:10371000611D231F849F600D211D822F762F6A2F2C
:1037200011249F5750409AF0F1F088234AF0EE0F91
:10373000FF1FBB1F661F771F881F91505040A9F7BE
:103740009E3F510580F00C94B81A0C94421B5F3FC9
:10375000E4F3983ED4F3869577956795B795F795FA
:10376000E7959F5FC1F7FE2B880F911D9695879572
:1037700097F908959F930E94D11A0F9007FCEE5F6E
:103780000C940B1B19F416F40C94BE1A0C94081C20
:103790000E94271BB8F39923C9F3B6F39F57550B23
:1037A00087FF0E94161C0024A0E640EA9001805882
:1037B0005695979528F4805C660F771F881F20F038
:1037C00026173707480730F4621B730B840B202938
:1037D00031294A2BA69517940794202531254A278D
:1037E00058F7660F771F881F20F0261737074807FE
:1037F00030F4620B730B840B200D311D411DA0951D
:1038000081F7B901842F9158880F9695879508956F
:103810009F3F31F0915020F4879577956795B79544
:10382000880F911D9695879597F90895915050406E
:10383000660F771F881FD2F708959F938F937F930A
:103840006F93FF93EF939B01AC010E944D1BEF918F
:10385000FF910E94311C2F913F914F915F910C94E9
:103860004D1BDF93CF931F930F93FF92EF92DF9245
:103870007B018C01689406C0DA2EEF010E94601B68
:10388000FE01E894A5912591359145915591A6F3B6
:10389000EF010E945019FE019701A801DA9469F71F
:1038A000DF90EF90FF900F911F91CF91DF910895DE
:1038B000A1E21A2EAA1BBB1BFD010DC0AA1FBB1F34
:1038C000EE1FFF1FA217B307E407F50720F0A21BA6
:1038D000B30BE40BF50B661F771F881F991F1A9413
:1038E00069F760957095809590959B01AC01BD013D
:1038F000CF010895052E97FB1EF400940E94911CA1
:1039000057FD07D00E94581C07FC03D04EF40C94BE
:10391000911C50954095309521953F4F4F4F5F4FEB
:10392000089590958095709561957F4F8F4F9F4F2B
:103930000895EE0FFF1F0590F491E02D0994A29FCA
:10394000B001B39FC001A39F700D811D1124911D73
:10395000B29F700D811D1124911D08950E949F1C1E
:10396000B7FF0895821B930B0895FB01DC0104C08F
:103970008D910190801921F441505040C8F7881B67
:10398000990B0895FB01DC018D91019080190110C4
:10399000D9F3990B0895FB01DC014150504030F000
:1039A0008D910190801919F40020B9F7881B990BAB
:0639B0000895F894FFCF1A
:1039B60000C18081000000FFFFFFFF00E100000062
:1039C60000000000000000FFFF0000803F0000FF35
:1039D60001FF030000000058050606CB05B0054DA3
:1039E6004B77736164813200000000C104AB04F7B9
:1039F6000425033E05FC041A0500000000AC07C3BD
:103A060006C307C2070D0A00474554005345542014
:103A16000052455345544B45595300535441544560
:103A26000043414C0042544E2000524F5400524F26
:103A36005420004D4F4445004D4F44452030004D25
:063A46004F444520310051
:00000001FF
