:100000000C943C010C9470010C9470010C947001E0
:100010000C9470010C9470010C9470010C9470019C
:100020000C9470010C9470010C9483050C94E805F9
:100030000C9470010C9470010C9470010C9470017C
:100040000C9470010C9470010C9470010C9470016C
:100050000C9470010C9470010C9470010C9439058F
:100060000C9470010C9470010C9470010C9470014C
:100070000C9470010C9470010C9470010C9470013C
:100080000C9470010C9470010C9470010C9470012C
:100090000C9470010C9470010C9470010C9470011C
:1000A0000C9470010C9470010C9470010902990079
:1000B000040100A0FA0904000002FF5D0100112103
:1000C0000001012581140000000013020800000750
:1000D000058103200004070502032000080904012C
:1000E0000004FF5D03001B210001010183400104A6
:1000F000201685000000000000160500000000002A
:1001000000070583032000020705040320000407FD
:10011000058503200040070505032000100904029F
:100120000001FF5D0200092100010122860700078E
:100130000586032000100904030000FFFD130406D8
:1001400041000101030403090412010002FFFFFF43
:10015000405E048E0214010102030158626F782090
:100160005365637572697479204D6574686F642096
:10017000332C2056657273696F6E20312E30302C0F
:1001800020A92032303035204D6963726F736F665D
:100190007420436F72706F726174696F6E2E2041AC
:1001A0006C6C20726967687473207265736572760F
:1001B00065642E0041726475696E6F2058496E70D7
:1001C00075742041565200A94D6963726F736F6652
:1001D000740041726475696E6F204C656F6E617258
:1001E000646F00070605040100080A0B0C0D0900E6
:1001F000000000240027002A002D0030000000002D
:10020000002300260029002C002F000000000025FC
:100210000028002B002E0031000404040404030411
:100220000502020202040302020202060606060694
:100230000604040202020404040802011040804083
:1002400010204080408008020401804020100201FC
:10025000108010204040200000000200090F000024
:10026000030401000C00000000000000000000007A
:10027000000000000000580E11241FBECFEFDAE08E
:10028000DEBFCDBF14BE0FB6F894A8958091600074
:10029000886180936000109260000FBE11E0A0E0C2
:1002A000B1E0E6E1F4E202C005900D92AE30B10794
:1002B000D9F721E0AEE0B1E001C01D92A438B20749
:1002C000E1F711E0CCE3D1E004C02197FE010E94E8
:1002D0000312CB33D107C9F70E94FC060C94091214
:1002E0000C9400000F931F93CF93DF93CDB7DEB72D
:1002F00028970FB6F894DEBF0FBECDBF8091830163
:100300000FEF1FEF8823B9F12FB7F89482E08093A5
:10031000E9008091F200082F10E00930110514F077
:1003200008E010E0902FFE01319644E6915038F03D
:100330002898409344013091F1003193F7CF8823FE
:1003400039F09091F200911103C09BE69093E80080
:100350002FBF833080F08981811119C09C819093D7
:100360005C019D8190935D01E0915F01F0916001DE
:10037000309709F00995C80128960FB6F894DEBFAA
:100380000FBECDBFDF91CF911F910F9108958130A6
:1003900059F79B819E3040F790935E01E0915E019A
:1003A000EA3010F7F0E0E952FE4F0C940312E1013D
:1003B000E101E401E801EA01EC01E401E801EA01FC
:1003C000EC0110925B01D0CF91E090935B01CCCF18
:1003D00092E0FBCF93E0F9CF94E0F7CF92E0423088
:1003E00009F496E090628093E90081E08093EB004D
:1003F0006093EC009093ED008091EE00881F8827B9
:10040000881F089581508F3008F047C0E82FF0E032
:10041000E45FFD4F0C94031229022D021B022102FE
:1004200025024D024D024D02300236023A023E02D2
:1004300044024D024802809180008F7780938000B3
:100440000895809180008F7DF9CF80918000877F13
:10045000F5CF84B58F7784BD089584B58F7DFBCFAC
:10046000809190008F778093900008958091900004
:100470008F7DF9CF80919000877FF5CF8091C0006C
:100480008F778093C00008958091C0008F7DF9CF51
:100490008091C200877F8093C20008951F93CF93FD
:1004A000DF93E9E5F2E09491EAE3F2E0D491EBE145
:1004B000F2E0C491CC23B9F0182F992319F0892FB9
:1004C0000E940202EC2FF0E0EE0FFF1FE55FFD4FF0
:1004D000A591B4918FB7F894EC91111108C0D09503
:1004E000DE23DC938FBFDF91CF911F910895DE2B28
:1004F000F8CFCF93DF93282F30E0F901E95AFD4F71
:100500008491F901E85CFD4FD491F901E75EFD4F5C
:10051000C491CC23A1F081110E940202EC2FF0E0E3
:10052000EE0FFF1FE350FE4FA591B491EC91ED2328
:1005300081E090E009F480E0DF91CF91089580E0C0
:1005400090E0FACFCF93DF9390E0FC01E85CFD4FA1
:100550002491875E9D4FFC0184918823D1F090E027
:10056000880F991FFC01E151FE4FA591B491FC0148
:10057000E55FFD4FC591D491623071F49FB7F89457
:100580003C91822F809583238C93E8812E2B2883A6
:100590009FBFDF91CF9108958FB7F894EC912E2BE8
:1005A0002C938FBFF6CF8251E82FF0E0ED51FE4F34
:1005B000E49190917B008E2F880F880F80729F7D31
:1005C000892B80937B00E770E064E0937C0080914E
:1005D0007A00806480937A0080917A0086FDFCCF57
:1005E000809178009091790008953FB7F8948091B8
:1005F000400190914101A0914201B091430126B583
:10060000A89B05C02F3F19F00196A11DB11D3FBF4A
:10061000BA2FA92F982F8827BC01CD01620F711D19
:10062000811D911D42E0660F771F881F991F4A9513
:10063000D1F708958F929F92AF92BF92CF92DF929F
:10064000EF92FF924B015C010E94F5026B017C016D
:100650000E94F5026C197D098E099F09683E73405E
:1006600081059105A8F321E0821A9108A108B1083B
:1006700088EEC80E83E0D81EE11CF11C81149104A1
:10068000A104B10429F7FF90EF90DF90CF90BF90C5
:10069000AF909F908F9008959F92AF92BF92CF920C
:1006A000DF92EF92FF920F931F93CF93DF936C0132
:1006B0008B018091830181110EC08FEF9FEFDF913D
:1006C000CF911F910F91FF90EF90DF90CF90BF904F
:1006D000AF909F9008958091820180FF05C0809126
:1006E000E00082608093E000C02FD12FF12C8AEFD0
:1006F000E82EBB24B39490E4992E2AE3A22E2097EF
:1007000019F4FF2009F447C08FB7F894B092E900BC
:100710009091E80095FD0BC08FBFEA94EE2069F23E
:1007200061E070E080E090E00E941A03E8CF9091D1
:10073000F200292D291B8FBF222379F32C171D06C8
:1007400011F00CF02C2F8FB7F894B092E900909133
:10075000E80095FD02C08FBFD2CF422F50E0C41BEE
:10076000D50BF601215020F091919093F100FACF32
:10077000C40ED51EFF2021F0A092E800F12CEBCF93
:100780009091E80095FDE7CFA092E800FF24F39454
:10079000209709F3F3CF5D9884E680938101C80127
:1007A0008ECF80915A018823C9F080915901882306
:1007B000A9F01092590164E170E085E491E00E9493
:1007C0004C031816190654F481E08093E9008091D7
:1007D000F200882319F08AE38093E800089540919D
:1007E00010015091110120910E0130910F0142171B
:1007F0005307B4F49091E8009570E1F39091E8000C
:1008000092FD19C08093F100809110019091110127
:1008100001968F739927892B19F48EEF8093E80046
:100820008091100190911101019690931101809394
:10083000100181E0089580E00895EF92FF921F93E8
:10084000CF93DF93F82E192FE62E81E0860F880FC5
:100850000E94EF0383E00E94EF03CF2DD12FEC0E17
:10086000FD2EF11CCE15DF0591F0FE0184910E9452
:10087000EF03182F80E00E94EF038123219681115E
:10088000F1CFDF91CF911F91FF90EF90089581E01C
:10089000F8CFEF92FF920F931F93CF93DF938B01CB
:1008A000EC017C01E60EF71ECE15DF0549F0FE01D6
:1008B00084910E94EF0321968111F6CF0FEF1FEF75
:1008C000C801DF91CF911F910F91FF90EF90089594
:1008D0009FB7F89482E08093E9008091F2009FBF77
:1008E00081110C94720108954F925F926F927F92E2
:1008F0008F929F92AF92BF92CF92DF92EF92FF9230
:10090000CF93DF9300D000D0CDB7DEB76B017C0171
:10091000F901DA018D909D90AD90BC9013978C14E5
:100920009D04AE04BF04BCF060817181828193811B
:100930000F900F900F900F90DF91CF91FF90EF905D
:10094000DF90CF90BF90AF909F908F907F906F90EF
:100950005F904F90089514968D919D910D90BC914C
:10096000A02D89839A83AB83BC8364817581868142
:10097000978129813A814B815C81C216D306E406B6
:10098000F506B4F64080518062807380841495042B
:10099000A604B70429F42617370748075907E9F0D2
:1009A000A7019601281939094A095B0964197509D3
:1009B000860997090E94F31129813A814B815C8154
:1009C000281939094A095B090E94FF0ECA01B901B9
:1009D000640D751D861D971DABCFC701B601A8CF4D
:1009E0008EE00E947902892B31F080E10E94790229
:1009F00021E0892B09F420E0822F90E00895DC01AA
:100A000023E53AE42D933D9326E0E0E0F1E0019008
:100A10000D922A95E1F726E0E0E0F1E0DC0118967E
:100A200001900D922A95E1F70895DF92EF92FF92DF
:100A30000F931F93CF93DF937C018C01D0E0C0E034
:100A4000F801D1908F01CE010E94E90ED81621F055
:100A50006D2DCE010E94F10E2196CE30D10581F789
:100A6000C701DF91CF911F910F91FF90EF90DF9021
:100A700008951F920F920FB60F9211242F933F9358
:100A80008F939F93AF93BF9380913C0190913D01D1
:100A9000A0913E01B0913F0130913B0123E0230F33
:100AA0002D3758F50196A11DB11D20933B01809370
:100AB0003C0190933D01A0933E01B0933F01809192
:100AC000400190914101A0914201B09143010196F2
:100AD000A11DB11D8093400190934101A09342015B
:100AE000B0934301BF91AF919F918F913F912F910F
:100AF0000F900FBE0F901F90189526E8230F0296B7
:100B0000A11DB11DD2CF1F920F920FB60F921124CB
:100B10008F939F938091E1009091E100937F909358
:100B2000E10083FF0FC01092E90091E09093EB0089
:100B30001092EC0092E39093ED001092830198E004
:100B40009093F00082FF18C090918101992341F0A9
:100B500090918101915090938101911101C05D9A12
:100B600090914401992341F09091440191509093C8
:100B70004401911101C0289A84FF18C08091E200BD
:100B80008E7E81608093E2008091E1008F7E809371
:100B9000E100809182018E7E8061809382019F912D
:100BA0008F910F900FBE0F901F90189580FFF7CF79
:100BB0008091E2008E7E80618093E2008091E1006E
:100BC0008E7E8093E100809182018E7E8160E5CFF0
:100BD0001F920F920FB60F9211242F933F934F93B2
:100BE0005F936F937F938F939F93AF93BF93EF9395
:100BF000FF93CF93DF93CDB7DEB72897DEBFCDBF8E
:100C000082E08093E9008091E80082FF0CC080912F
:100C1000E8008B7F8093E800E0911201F0911301CE
:100C2000309709F009951092E9008091E80083FF60
:100C30002CC089E0FE013196815021F09091F100A5
:100C40009083F9CF289884E68093440182EF8093C3
:100C5000E800898187FF32C09091E80090FFFCCFC7
:100C6000982F907679F49A814B815C813B812C811D
:100C700091112BC0803831F5809114018093F100DF
:100C80001092F1008EEF8093E80028960FB6F8944A
:100C9000DEBF0FBECDBFDF91CF91FF91EF91BF912E
:100CA000AF919F918F917F916F915F914F913F9104
:100CB0002F910F900FBE0F901F9018959EEF90935D
:100CC000E800CECF1092F100DBCF913059F48111C2
:100CD000D9CF41305105B1F6809114018D7F8093B9
:100CE0001401D0CF933049F48111CCCF413051055C
:100CF00049F6809114018260F2CF953041F48091E1
:100D0000E80080FFFCCF30683093E300BBCF963023
:100D1000D9F58F8198851092E900109211011092F7
:100D2000100190930F0180930E0169E970E08CEA45
:100D300090E0223009F45AC0213009F452C0233027
:100D400069F48B81882309F454C0823059F460E13E
:100D500082ED91E00E941D04811194CF81E2809385
:100D6000EB0093CF813021F46AE087EC91E0F2CF81
:100D7000833021F462E184EB91E0ECCF843071F7B1
:100D800068E58BE591E0E6CF973041F3983021F4A8
:100D900081E08093F10076CF993009F073CF8370B2
:100DA000E9F641E061EC81E00E94EE0142E060EC96
:100DB00082E00E94EE0141E061EC85E00E94EE01DC
:100DC0008EE78093EA001092EA0082E08093E900C7
:100DD0008091F00084608093F0008B818093830188
:100DE00051CF89E491E0FC01649170E00E944904D4
:100DF00049CF85E491E0F7CFCF93DF93CDB7DEB74E
:100E0000CF5CD1090FB6F894DEBF0FBECDBF78948A
:100E100084B5826084BD84B5816084BD85B58260FF
:100E200085BD85B5816085BD80916E0081608093B0
:100E30006E00109281008091810082608093810019
:100E40008091810081608093810080918000816029
:100E500080938000809191008260809391008091C6
:100E600091008160809391008091900081608093D7
:100E700090008091C10084608093C1008091C10086
:100E800082608093C1008091C10081608093C10025
:100E90008091C30081608093C3008091C000826014
:100EA0008093C0008091C20081608093C2008091D5
:100EB0007A00846080937A0080917A0082608093C7
:100EC0007A0080917A00816080937A0080917A0024
:100ED000806880937A00109283011092140110921E
:100EE00082018091D70081608093D70080EA80934F
:100EF000D80089B5806189BD89B5826089BD09B492
:100F000000FEFDCF61E070E080E090E00E941A03F7
:100F10008091D8008F7C80618093D8008091E00020
:100F2000807F8093E0008091E1008E7E8093E100DD
:100F30008DE08093E200559A209A62E08EE00E9454
:100F4000A20262E080E10E94A20262E370E080E01F
:100F500090E00E941A030E94F004892B89F487E72D
:100F600097E7909301088093000888E19BE00FB613
:100F7000F894A895809360000FBE90936000FFCF17
:100F800062E08EE00E94A20262E08FE00E94A20274
:100F900061E082E00E94A20280E00E944E0241E0F5
:100FA00050E86FEF7FEF40937101509372016093AF
:100FB0007301709374018FEF9FE7A0E0B0E080931E
:100FC000750190937601A0937701B09378014093D7
:100FD000790150937A0160937B0170937C01809337
:100FE0007D0190937E01A0937F01B09380011092C8
:100FF0005A0180913A018111BBC08FE00E947902B1
:101000005C01DD24D394892B09F0D12C7E012DE8DD
:10101000E20EF11C10E000E09E2CCF2CC8010E94D3
:10102000E90ED7018D937D010F5F1F4F0E30110523
:10103000A9F78EE0E92DFC2DDE01AF58BF4F0190DE
:101040000D928A95E1F7A114B10411F5CE018158F2
:101050009F4F0E94FF04CE0181589F4F0E941505AB
:1010600003E010E081E00E944E0268E770E080E05B
:1010700090E00E941A0380E00E944E0268E770E050
:1010800080E090E00E941A030150110959F723C033
:101090008EE0FE01EF58FF4FDE01AD59BF4F0190CA
:1010A0000D928A95E1F7E3968EAD9FADE397833578
:1010B000BAE49B0709F0B0C1A5969FAF8EAFA59784
:1010C0008EE0FE01ED59FF4FDE01A158BF4F0190A8
:1010D0000D928A95E1F78EE0FE01E158FF4FDE01A7
:1010E000AB5ABF4F01900D928A95E1F78EE0FE0159
:1010F000EB5AFF4FDE01D99601900D928A95E1F7E8
:1011000028961FAE289781E0AB2809F480E0299645
:101110008FAF29972A961FAE2A972B961FAE2B9733
:101120002F961CAE1DAE1EAE1FAE2F976096DFAE83
:1011300060976196DFAE619765961CAE1DAE1EAEE0
:101140001FAE65978CE1FE01F996AEE1B1E001902A
:101150000D928A95E1F70E94F50260931A0170934F
:101160001B0180931C0190931D0181E080933A0143
:101170000E94F50200911A0110911B0120911C019F
:1011800030911D01AB01BC01401B510B620B730B75
:1011900077FDC2C4D901C80188519C4FAF4FBF4FE2
:1011A00080931A0190931B01A0931C01B0931D0121
:1011B0000E94F50200911A0110911B0120911C015F
:1011C00030911D01601B710B820B930B16161706D5
:1011D0001806190674F40E94F50268517C4F8F4F6F
:1011E0009F4F60931A0170931B0180931C01909391
:1011F0001D018FB7F89440903C0150903D016090E4
:101200003E0170903F018FBF83E10E94D3026C01C9
:1012100082E10E94D3027C010E94F0045C018FE015
:101220000E947902892B09F425C10E94F0040197DC
:1012300009F0F8C01092190101E0E0911E01F0914F
:101240001F01C653DF4FF983E883CA5CD040409149
:10125000200150912101CB54DF4F59834883C55B56
:10126000D040F091220130912301609124017091CE
:101270002501CD54DF4F79836883C35BD0408091D3
:10128000260190912701C954DF4F99838883C75B5A
:10129000D0402091280190912901C754DF4F9883B5
:1012A000C95BD04020902A0130902B0110912C0175
:1012B000A0912D01C753DF4FA883C95CD040B091E6
:1012C0002E01CE53DF4FB883C25CD040E0912F0196
:1012D000C354DF4FE883CD5BD04040913001509143
:1012E00031016091320170913301CB53DF4F48835C
:1012F00059836A837B83C55CD04050913401CD53C0
:10130000DF4F5883C35CD040E091350160913601D6
:10131000709137018091380190913901C254DF4FAB
:10132000688379838A839B83CE5BD04051E0AB286E
:1013300009F050E0CE53DF4F7881C25CD0405717A0
:1013400069F0CE53DF4F5883C25CD040CB53DF4FA0
:10135000488259826A827B82C55CD0405301420137
:10136000CB53DF4F88819981AA81BB81C55CD04076
:10137000881A990AAA0ABB0A9AE189169104A1045B
:10138000B10428F0C354DF4F5883CD5BD04051E007
:101390000527CD53DF4FA881C35CD0400A1769F001
:1013A000CD53DF4F0883C35CD040C254DF4F488227
:1013B00059826A827B82CE5BD040C254DF4F488123
:1013C00059816A817B81CE5BD040441A550A660AF6
:1013D000770A5AE1451651046104710408F40E2F8E
:1013E00051E08E2F8527011101C080E0C753DF4FE8
:1013F0006881C95CD04061113FC0011106C071E035
:10140000C753DF4F7883C95CD04010E0CC53DF4F27
:101410001882C45CD04044C0CE0181589F4F0E94C6
:10142000FF0459CE8091190181110BC081E0809396
:1014300019014092150150921601609217017092A5
:10144000180140911501509116016091170170919A
:101450001801D301C201885B9B40A109B109841B1B
:10146000950BA60BB70B01E084369105A105B105DC
:1014700008F0E3CE00E0E1CE882341F2112309F425
:1014800053C310E083E59AE4C653DF4F9983888302
:10149000CA5CD04091E0CC53DF4F9883C45CD0400D
:1014A000C653DF4FA881B981CA5CD040BE8FAD8FD3
:1014B000CB54DF4F48815981C55BD04058A34F8F33
:1014C000F9A33AA3CD54DF4F68817981C35BD04043
:1014D0007CA36BA3C954DF4F88819981C75BD0403F
:1014E0009EA38DA32FA3C754DF4F9881C95BD04023
:1014F00098A73AA629A61BA7C753DF4FA881C95CA6
:10150000D040ACA7CE53DF4FB881C25CD040BDA75E
:10151000C354DF4FE881CD5BD040EEA7CB53DF4F04
:10152000488159816A817B81C55CD0404FA758AB07
:1015300069AB7AABCD53DF4F5881C35CD0405BAB16
:101540000CABC254DF4F688179818A819B81CE5B6D
:10155000D0406DAB7EAB8FAB98AF112309F499C02F
:1015600086E0FE017F96DE01AF55BF4F01900D92E0
:101570008A95E1F7CB54DF4F88819981C55BD040D4
:10158000C816D90634F4CB54DF4FD982C882C55B64
:10159000D040CD54DF4FA881B981C35BD040AC159A
:1015A000BD0534F4CD54DF4FD982C882C35BD0402F
:1015B000CB54DF4FE881F981C55BD040CF55DF4F79
:1015C000F983E883C15AD040CD54DF4F4881598117
:1015D000C35BD040CB55DF4F59834883C55AD040B9
:1015E00086E0FE01EF55FF4FDE01A556BF4F01908B
:1015F0000D928A95E1F786E0FE01E556FF4FDE0188
:101600005F9601900D928A95E1F786E0FE01B5960E
:10161000DE01A355BF4F01900D928A95E1F7C954A1
:10162000DF4F68817981C75BD040E616F70634F456
:10163000C954DF4FF982E882C75BD0402E143F04C3
:101640000CF41701C954DF4F88819981C75BD040E2
:10165000C355DF4F99838883CD5AD040CF54DF4F95
:1016600039822882C15BD04086E0FE01E355FF4FFE
:10167000DE01A955BF4F01900D928A95E1F786E0F2
:10168000FE01E955FF4FDE01959601900D928A9576
:10169000E1F7CB54DF4FA881B981C55BD040B8A337
:1016A000AF8FCD54DF4FE881F981C35BD040FCA3FD
:1016B000EBA3C954DF4F48815981C75BD0405EA37B
:1016C0004DA33AA629A68CE1FE017D96DE01119676
:1016D00001900D928A95E1F76D817E81C754DF4FAD
:1016E00079836883C95BD0408B859C85C554DF4F67
:1016F00099838883CB5BD0401111D3C2C616D7061D
:101700000CF42FC2CD54DF4FA880B980C35BD0400A
:10171000A61AB70A1A141B040CF065C2B601C75406
:10172000DF4FA881B981C95BD0406A1B7B0B072EB4
:10173000000C880B990B0E9476102B013C01B5011F
:10174000BB0C880B990B0E9476109B01AC01C30166
:10175000B2010E94CC0F2B013C0120E030E0A90136
:101760000E94C70F87FD3FC220E030E040E85FE302
:10177000C301B2010E942611181634F4412C512CD9
:1017800040E8642E4FE3742EC554DF4F68817981A1
:10179000CB5BD040E616F7060CF430C26101C61AE6
:1017A000D70A1C141D040CF06BC2B701C554DF4FDF
:1017B00088819981CB5BD040681B790B072E000C88
:1017C000880B990B0E9476104B015C01B601DD0C71
:1017D000880B990B0E9476109B01AC01C501B401E6
:1017E0000E94CC0F6B017C0120E030E0A9010E9437
:1017F000C70F87FD45C220E030E040E85FE3C70146
:10180000B6010E942611181634F4C12CD12C20E800
:10181000E22E2FE3F22EA3019201C301B2010E9436
:101820002B114B015C01A7019601C701B6010E9473
:101830002B119B01AC01C501B4010E945B0F0E94FA
:101840009E11C453DF4F688379838A839B83CC5C6A
:10185000D0402DEC3CEC4CE45DE30E94C70F181621
:101860000CF019C22DEC3CEC4CE45DE3C453DF4FAB
:10187000688179818A819B81CC5CD0400E945A0F1B
:1018800023E333E343E75FE30E94CC0F4B015C01AA
:1018900020E030E040E85FE30E942611181634F49F
:1018A000812C912C80E8A82E8FE3B82EC453DF4FF3
:1018B000288139814A815B81CC5CD040C501B4016B
:1018C0000E94CC0F4B015C01A30192010E942B11DD
:1018D0002B013C01A7019601C501B4010E942B1107
:1018E0004B015C0120E03EEF4FEF56E4C301B20133
:1018F0000E942B110E943E106B0120E03EEF4FEF43
:1019000056E4C501B4010E942B110E943E107B01D8
:10191000C653DF4F48815981CA5CD04050931F01A4
:1019200040931E01CB54DF4F68817981C55BD04065
:101930007093210160932001C754DF4F8881998102
:10194000C95BD0409093230180932201CD54DF4F97
:10195000A881B981C35BD040B0932501A093240135
:10196000C954DF4FE881F981C75BD040F09327016C
:10197000E0932601C554DF4F48815981CB5BD040AD
:10198000509329014093280130922B0120922A0183
:1019900010932C01C753DF4F5881C95CD04050933E
:1019A0002D01CE53DF4F6881C25CD04060932E0181
:1019B000C354DF4F7881CD5BD04070932F01CB5360
:1019C000DF4F88819981AA81BB81C55CD04080931B
:1019D000300190933101A0933201B0933301CD5384
:1019E000DF4F9881C35CD040909334010093350160
:1019F000C254DF4F488159816A817B81CE5BD040E0
:101A00004093360150933701609338017093390148
:101A10008091480184FB992790F9C354DF4F588186
:101A2000CD5BD040591759F0552309F43FC180616F
:101A30008093480181E0809359010E94D103B6014F
:101A4000DD0C880B990B26E031E041E751E00E9464
:101A5000740480904B0190904C01092C000CAA0852
:101A6000BB08681579058A059B0549F060934B0111
:101A700070934C0181E0809359010E94D103B7011A
:101A8000FF0C880B990B26E031E041E751E00E9402
:101A90007404609570956B01770FEE08FF088091D4
:101AA0004D0190914E01092E000CAA0BBB0BC816DC
:101AB000D906EA06FB0649F060934D01D0924E012B
:101AC00081E0809359010E94D103812F0E944E0230
:101AD000CC53DF4F6881C45CD040662321F08EE197
:101AE00091E00E941505809159018823A9F0109278
:101AF000590164E170E085E491E00E944C031816FE
:101B0000190654F481E08093E9008091F200882363
:101B100019F08AE38093E80080E090E0892B09F4D3
:101B200068CA0E94000065CA17012E2DC754DF4FF6
:101B3000F882C95BD040C954DF4FF982E882C75BA5
:101B4000D040CD54DF4FD982C882C35BD040FC2D3A
:101B50003D2DCB54DF4FD982C882C55BD04011E008
:101B600055CCC754DF4FA880B980C95BD040CB5457
:101B7000DF4FE881F981C55BD040AE1ABF0A1A1465
:101B80001B048CF5B601C754DF4F48815981C95BEE
:101B9000D040641B750B072E000C880B990B0E941C
:101BA00076102B013C01B501BB0C880B990B0E94F0
:101BB00076109B01AC01C301B2010E94CC0F2B0136
:101BC0003C0120E030E040E85FEB0E94C70F87FD5A
:101BD0000EC020E030E0A901C301B2010E9426112D
:101BE00018160CF0D1CD412C512C3201CDCD412C09
:101BF000512C30E8632E3FEB732EC6CDC554DF4F1A
:101C0000C880D980CB5BD040C954DF4FA881B9814F
:101C1000C75BD040CA1ADB0A1C141D048CF5B7013F
:101C2000C554DF4FE881F981CB5BD0406E1B7F0B41
:101C3000072E000C880B990B0E9476104B015C015B
:101C4000B601DD0C880B990B0E9476109B01AC014C
:101C5000C501B4010E94CC0F6B017C0120E030E093
:101C600040E85FEB0E94C70F87FD0EC020E030E028
:101C7000A901C701B6010E94261118160CF0CBCDA0
:101C8000C12CD12C7601C7CDC12CD12C90E8E92EE6
:101C90009FEBF92EC0CD812C912C540124013501EC
:101CA00021CEF12CE12CD12CC12C32CE8F7EC0CE96
:101CB000CF93E5E4F1E01192B1E0E935FB07D9F704
:101CC00010925C0110925D0180915C0190915D0128
:101CD000E7E4F1E082E1DF011D928A95E9F7C1E0D6
:101CE000C09359010E94D1031092450184E1809371
:101CF000460110925B0110925D0110925C011092FE
:101D00005E011092610110926201109263011092C3
:101D100064018FEF90E0A0E0B0E0809365019093C4
:101D20006601A0936701B093680110926901109257
:101D30006A0110926B0110926C0180936D01909377
:101D40006E01A0936F01B093700140E050E86FEF17
:101D50007FEF409371015093720160937301709310
:101D600074018FEF9FE7A0E0B0E08093750190933E
:101D70007601A0937701B093780140937901509355
:101D80007A0160937B0170937C0180937D01909335
:101D90007E01A0937F01B0938001109260011092A8
:101DA0005F01C0935A0188E694E0909313018093F9
:101DB0001201C2E09FB7F894C093E9008091F2004D
:101DC0009FBF882321F00E947201892B99F7CF9140
:101DD0000895F999FECF92BD81BDF89A992780B5F3
:101DE0000895262FF999FECF1FBA92BD81BD20BD5F
:101DF0000FB6F894FA9AF99A0FBE01960895052E37
:101E000097FB1EF400940E94160F57FD07D00E9406
:101E1000290F07FC03D04EF40C94160F50954095F3
:101E2000309521953F4F4F4F5F4F08959095809586
:101E3000709561957F4F8F4F9F4F08950E944B0F74
:101E4000A59F900DB49F900DA49F800D911D11240E
:101E50000895A1E21A2EAA1BBB1BFD010DC0AA1FEB
:101E6000BB1FEE1FFF1FA217B307E407F50720F003
:101E7000A21BB30BE40BF50B661F771F881F991F7E
:101E80001A9469F760957095809590959B01AC01C7
:101E9000BD01CF010895A29FB001B39FC001A39FD0
:101EA000700D811D1124911DB29F700D811D112493
:101EB000911D08955058BB27AA270E94720F0C94B9
:101EC000EC100E94DE1038F00E94E51020F039F48A
:101ED0009F3F19F426F40C94DB100EF4E095E7FB19
:101EE0000C94D510E92F0E94FD1058F3BA17620721
:101EF00073078407950720F079F4A6F50C941F1159
:101F00000EF4E0950B2EBA2FA02D0B01B901900114
:101F10000C01CA01A0011124FF27591B99F0593F58
:101F200050F4503E68F11A16F040A22F232F342FA0
:101F30004427585FF3CF469537952795A795F040EE
:101F40005395C9F77EF41F16BA0B620B730B840B03
:101F5000BAF09150A1F0FF0FBB1F661F771F881FBB
:101F6000C2F70EC0BA0F621F731F841F48F4879513
:101F700077956795B795F7959E3F08F0B0CF939505
:101F8000880F08F09927EE0F9795879508950E947E
:101F9000B11008F481E008950E94E00F0C94EC1059
:101FA0000E94E51058F00E94DE1040F029F45F3FD7
:101FB00029F00C94D51051110C9420110C94DB10C5
:101FC0000E94FD1068F39923B1F3552391F3951BFB
:101FD000550BBB27AA2762177307840738F09F5F4A
:101FE0005F4F220F331F441FAA1FA9F335D00E2EB7
:101FF0003AF0E0E832D091505040E695001CCAF724
:102000002BD0FE2F29D0660F771F881FBB1F2617E6
:1020100037074807AB07B0E809F0BB0B802DBF01BD
:10202000FF2793585F4F3AF09E3F510578F00C948C
:10203000D5100C9420115F3FE4F3983ED4F38695BD
:1020400077956795B795F7959F5FC9F7880F911DAD
:102050009695879597F90895E1E0660F771F881F99
:10206000BB1F621773078407BA0720F0621B730B4C
:10207000840BBA0BEE1F88F7E09508950E94451077
:102080006894B1110C94201108950E94051188F0F4
:102090009F5798F0B92F9927B751B0F0E1F0660F2C
:1020A000771F881F991F1AF0BA95C9F714C0B1306D
:1020B00091F00E941F11B1E008950C941F11672F39
:1020C000782F8827B85F39F0B93FCCF3869577959C
:1020D0006795B395D9F73EF4909580957095619585
:1020E0007F4F8F4F9F4F0895E89409C097FB3EF4B0
:1020F00090958095709561957F4F8F4F9F4F992355
:10210000A9F0F92F96E9BB279395F69587957795D2
:102110006795B795F111F8CFFAF4BB0F11F460FF92
:102120001BC06F5F7F4F8F4F9F4F16C0882311F0EA
:1021300096E911C0772321F09EE8872F762F05C0FE
:10214000662371F096E8862F70E060E02AF09A9599
:10215000660F771F881FDAF7880F9695879597F98E
:102160000895990F0008550FAA0BE0E8FEEF161628
:102170001706E807F907C0F012161306E407F5077B
:1021800098F0621B730B840B950B39F40A2661F0EF
:10219000232B242B252B21F408950A2609F4A14092
:1021A000A6958FEF811D811D089597F99F6780E89F
:1021B00070E060E008959FEF80EC089500240A9499
:1021C0001616170618060906089500240A94121612
:1021D0001306140605060895092E0394000C11F445
:1021E000882352F0BB0F40F4BF2B11F460FF04C0F2
:1021F0006F5F7F4F8F4F9F4F089557FD9058440F4B
:10220000551F59F05F3F71F04795880F97FB991F55
:1022100061F09F3F79F08795089512161306140612
:10222000551FF2CF4695F1DF08C01616170618069F
:10223000991FF1CF86957105610508940895E8947A
:10224000BB2766277727CB0197F908950E94B11025
:1022500008F48FEF08950E943E110C94EC100E9438
:10226000DE1038F00E94E51020F0952311F00C9458
:10227000D5100C94DB1011240C9420110E94FD1039
:1022800070F3959FC1F3950F50E0551F629FF001C9
:10229000729FBB27F00DB11D639FAA27F00DB11DE2
:1022A000AA1F649F6627B00DA11D661F829F22276B
:1022B000B00DA11D621F739FB00DA11D621F839FF2
:1022C000A00D611D221F749F3327A00D611D231FC8
:1022D000849F600D211D822F762F6A2F11249F5716
:1022E00050409AF0F1F088234AF0EE0FFF1FBB1F19
:1022F000661F771F881F91505040A9F79E3F5105D8
:1023000080F00C94D5100C9420115F3FE4F3983EBC
:10231000D4F3869577956795B795F795E7959F5F81
:10232000C1F7FE2B880F911D9695879597F9089513
:1023300019F416F40C94DB100C94DE110E940511B4
:10234000B8F39923C9F3B6F39F57550B87FF0E9443
:10235000EC110024A0E640EA90018058569597952C
:1023600028F4805C660F771F881F20F02617370738
:10237000480730F4621B730B840B202931294A2B48
:10238000A69517940794202531254A2758F7660FFC
:10239000771F881F20F026173707480730F4620B95
:1023A000730B840B200D311D411DA09581F7B901E0
:1023B000842F9158880F9695879508959F3F31F007
:1023C000915020F4879577956795B795880F911D63
:1023D0009695879597F9089591505040660F771F0D
:1023E000881FD2F70895DB018F939F930E941E0FE1
:1023F000BF91AF91A29F800D911DA39F900DB29FA1
:10240000900D11240895EE0FFF1F0590F491E02D1B
:062410000994F894FFCFCF
:0E2416000000FF01FF030080FFFFFF7F0000BA
:00000001FF
